:020000040000fa
:082800000016040000000000b6
:020000040000fa
:10280800e49d040001000000e49d040001000000b4
:10281800dc9d040001000000d49d040001000000bc
:10282800cc9d040001000000e49d040001000000ac
:10283800e49d040001000000e49d04000100000084
:10284800307b040001000000e49d0400010000004a
:10285800e49d040001000000e49d04000100000064
:10286800967b040001000000e49d040001000000c4
:10287800e49d0400010000004e7f040001000000f8
:102888007e7f040001000000e49d040001000000b8
:10289800e49d040001000000b2d70400010000001c
:1028a800e6d7040001000000e49d040001000000d8
:1028b800e49d040001000000e49d04000100000004
:1028c800e49d040001000000e49d040001000000f4
:1028d800e49d040001000000e49d040001000000e4
:1028e800e49d040001000000e49d040001000000d4
:1028f800e49d040001000000e49d040001000000c4
:10290800e49d040001000000e49d040001000000b3
:10291800e49d040001000000e49d040001000000a3
:102928007a82040001000000e49d04000100000018
:10293800e49d040001000000e49d04000100000083
:10294800e49d040001000000e49d04000100000073
:10295800e49d040001000000e49d04000100000063
:10296800e49d040001000000e49d04000100000053
:10297800e49d040001000000e49d04000100000043
:10298800e49d040001000000e49d04000100000033
:10299800e49d040001000000e49d04000100000023
:1029a800e49d040001000000e49d04000100000013
:1029b800e49d040001000000e49d04000100000003
:1029c800e49d040001000000e49d040001000000f3
:1029d800047a040000000000e49d040001000000e7
:1029e800e49d040001000000e49d040001000000d3
:1029f800e49d040001000000e49d040001000000c3
:102a0800e49d040001000000e49d040001000000b2
:102a1800e49d040001000000e49d040001000000a2
:102a2800e49d040001000000e49d04000100000092
:102a3800e49d040001000000e49d04000100000082
:102a4800e49d040001000000e49d04000100000072
:102a5800e49d040001000000e49d04000100000062
:102a6800e49d040001000000e49d04000100000052
:102a7800e49d040001000000e49d04000100000042
:102a8800e49d040001000000e49d04000100000032
:102a9800e49d040001000000e49d04000100000022
:102aa800e49d040001000000e49d04000100000012
:102ab800e49d040001000000e49d04000100000002
:102ac800e49d040001000000e49d040001000000f2
:102ad800e49d040001000000e49d040001000000e2
:102ae800e49d040001000000e49d040001000000d2
:102af800e49d040001000000e49d040001000000c2
:102b0800e49d040001000000e49d040001000000b1
:102b1800e49d040001000000e49d040001000000a1
:102b2800e49d040001000000e49d04000100000091
:102b3800e49d040001000000e49d04000100000081
:102b4800e49d040001000000e49d04000100000071
:102b5800e49d040001000000e49d04000100000061
:102b6800e49d040001000000e49d04000100000051
:102b7800e49d040001000000e49d04000100000041
:102b8800e49d040001000000e49d04000100000031
:102b9800e49d040001000000e49d04000100000021
:102ba800e49d040001000000e49d04000100000011
:102bb800e49d040001000000e49d04000100000001
:102bc800e49d040001000000e49d040001000000f1
:102bd800e49d040001000000e49d040001000000e1
:102be800e49d040001000000e49d040001000000d1
:020000040000fa
:102c0000eff323008efe27000e0188000000000075
:102c10000c00070060822d00110020001f0007003b
:102c2000000020000000e00002003200000002006e
:102c30000000000062740200010000000040da00a1
:102c40000000fe004440a900c05627000000e0003c
:102c50000300320010002000a00188004440a800ba
:102c600000000600f03fb1000180b1000600350011
:102c7000ee03090000000000403fb1000180b100f8
:102c8000fbff3d001000b000203fb0000200350007
:102c9000008009000000000000000600910188008b
:102ca000800078000000eb0015003700e280400053
:102cb00032a0b4009101ba00e280400032a0b4001a
:102cc0009102ba00e280400032a0b4000002eb00a2
:102cd000472bde00f507b200602ce10004003a004b
:102ce0000059eb008301e900fdff3e0004003700be
:102cf0006128e100010032000082eb0004000700bf
:102d00001101ba000200e000e8ff3a0000000600ee
:102d10003159ba008301e9000c0032002159ba0090
:102d20008301e900080032000400e00003003a00db
:102d3000e280400032a0b400f5ff370011d9ba009c
:102d40008301e900faff3a008100e800e1804000d9
:102d500032a0b40000000600c8f504000000000026
:102d60000a00fa0080017800e20f500028003e00bf
:102d7000e0f18100e10f50000800320080232000c4
:102d80000000e0000500320004232000252320007d
:102d90004623200080017800040037000422200030
:102da000252220004622200083222000144090008b
:102db0000004e000040035008009eb00144090009e
:102dc0000074a00010429800154090000028a30055
:102dd00003003a00154090000024a00090429800a3
:102de0008001eb0007003700154090000008a300a9
:102df000fdff320063c078000000fb00000b78008c
:102e00008301e800828f5100f7ff3a000800370085
:102e100030002000b0bf9f00c3bf9f00d1bf9f0004
:102e2000e2bf9f006a80570000c0da006fb99700c8
:102e3000020078000080fa0000000600839f68000e
:102e40000100e00002003d0060001000e08018007a
:102e50000300e00002003d0060011100e081190064
:102e6000050007004f00e00002003b00600010007a
:102e7000e0801800000006006022b8000602200072
:102e80000000d0008180d2000482d2008582d2006e
:102e90000000a0000202520083825a0003003100a9
:102ea0000202420083824a000000a1000603e900fa
:102eb000f3ff3a0000000600811f78000100e000e7
:102ec00002003d0060001000e08018000300e000f8
:102ed00002003d0060011100e081190005000700bb
:102ee0004f00e00002003b0060001000e08018008e
:102ef00000000600e0ff07000400be00000006001e
:102f0000889fbe008a9fbe00010578000100e00096
:102f10000400350008003c000000e0002000320002
:102f20000500370060001000e080180002003b0040
:102f300001f02c001a0037000004be006011b80038
:102f40006b0920000982cf00020039000882cf00ff
:102f50000441b000694252000e00320008003b00fc
:102f600082817100610164008904d1000884d3006a
:102f70008b05e8000442e800f9ff3a00050037003d
:102f80000804440089844c008b05e9000442e900f0
:102f9000fbff3a00f40007000af0a70001f0a000d0
:102fa0004f05be004f04be000000060003f0a20063
:102fb000889fbe008a9fbe008c1f7800100107000a
:102fc000170133006450e1004f0032006420e1003b
:102fd0005200320003826c0007003b000905d0005c
:102fe0000306d000820f54000c065d000200390079
:102ff00002003200890178000306780085825500be
:1030000004003d000003fd008103fd008502ea008d
:103010008b854200840f720002003b0060001000ac
:10302000e08018006011b8000005eb007a28e1008c
:103030000a00390006007800c75ddd00f707b2001e
:10304000878075002d003700828171000a017800a9
:10305000610560008180d1000080d3008502e90015
:10306000f9ff3b00060440008784480002003b0053
:1030700060041400e0841c000988a30007003200eb
:103080008a81710082817100610164008904d1002c
:103090000884d3008b05e800170037000978a300e7
:1030a00013003a000b00e000130034008b05e90028
:1030b0000804440089844c000a4474000978a30081
:1030c0000d003a000b00e000070034008b05e9001a
:1030d0000804440089844c0001003a000b002000e1
:1030e0000978a300f7ff32000001eb00020037006f
:1030f000828171000a0178009b0007000cf0a70094
:1031000001f0a000cf0037006420e10002003a0087
:10311000838f6c00cf0033000801be000200be00a8
:10312000c8003700889fbe008a9fbe008c1f7800b1
:10313000b3000700ba00330003866c006450e1005e
:10314000240032006420e100270032006150e100d9
:10315000220032006120e100210032008b85420014
:10316000eb07b1000134b800003ab800080442008f
:1031700089844a00013ab8000030b80088804000d5
:1031800009014a000400330000004000818048002b
:10319000020149008b05e900c909dd0083017000c7
:1031a0000100320013002000c814de004814dd00c6
:1031b0004709de001200b200c808de000884700073
:1031c0006900070001f0a1000cf0a70001f0a000c9
:1031d0009c0037006120e1009e0032000801be0023
:1031e0000200be00f7ff37006150e100fcff3a002b
:1031f00098003700889fbe008a9fbe008c1f780011
:103200007f0007008600330003866c006450e100f5
:103210002e0032006420e100330032006150e100f2
:103220002f0032006120e100310032008585550019
:10323000eb07b0000900200008042000050037005b
:103240000804440089844c000a003100060343004e
:1032500087834b000001530081815b00f8ff33003e
:103260000203be000800a0000804440089844c004a
:10327000f6ff3900c639dd0083017300010032001a
:10328000130020008904d1000884d3000998a3000a
:10329000050032000800a7000300a0008904d10047
:1032a0000884d3008b05e8008904d1000884d3008a
:1032b0000001eb000281d2002b00070001f0a10009
:1032c0000cf0a70001f0a0005e0037006420e100d0
:1032d000600032000801be000200be00f7ff3700a8
:1032e0006120e1005b0032006000b800f3ff3700ae
:1032f0000000200001f82700f0ff37000001be00a9
:10330000570007000470a70003f0a10003f8a30012
:1033100013003a006509b1001000320009003500c1
:103320006928e100020035000100280000000500c6
:1033300000004000818048008502e900fcff3a005f
:1033400000000600f88f4200050035008100d10022
:103350000080d3008502e800fcff3a000000060070
:103360008000eb0000000500810020006180550016
:103370000b003d000b00200061fe2f000100e1006a
:103380001d00340082817100610164008904d10054
:103390000884d3000000e800faff3a007100200022
:1033a0006100640003007000020060000900320048
:1033b00061044400e0844c000988a5000500320047
:1033c0008b05e8006808e10002003a008904d1009a
:1033d0000884d300f20f20000258e10005003d00f0
:1033e000c75ddd00f907b20089807500080078002c
:1033f000000006000bf827008b0078000000050095
:103400000004be00160007000003be000405be0055
:103410000200be0012000700844f75000000060085
:103420000200be006450e100050036006420e100a7
:10343000020036000968a30001003a000800be003f
:103440000160a0004f0678004f05be004f04be008b
:1034500000000600f0ff2f00f1ff2700f9ff370002
:10346000c70ade00f107b200f50fb2000800320013
:10347000e1cf4200020032000170a00024000500ec
:10348000810f7000010032000408050044000500af
:10349000810f700002003a00140005008502e90067
:1034a0000000400081c04800fcff3b000170a0000c
:1034b00024000500881f7800000478005001be0039
:1034c0004000be000400400085804800060149001d
:1034d00087814900009cbe000294be000400e10008
:1034e0000588e1000690e1000798e1000200310044
:1034f000680044001008e8004f047800000006004f
:10350000f4874700889fbe008a9fbe008c9fbe0044
:103510008e1f78000205be000004be00d4b79f00d5
:10352000e5b79f00f6b79f0087bf9f000000eb0044
:10353000c0b79f00b0b79f00a0b79f0090b79f0093
:1035400080b79f000d042000bfb097004fb09700d8
:10355000000140000000e0000f003d004f08de00c9
:1035600000007100c0b79f009e00070001003d00f1
:1035700012002000a100070001003d001200200001
:10358000a6000700b1000700b60007000f004000ca
:10359000c8ff0700220037004f08de000006710058
:1035a000ccb79f008f00070001003d0012002000f3
:1035b0009200070001003d00120020009700070064
:1035c000a20007000fb297009fb297002fb3970099
:1035d000bfb39700a90007000000520081805a0085
:1035e00002015b0083815b0080b79f0091b79f0061
:1035f000a2b79f00b3b79f000007eb009f00070032
:103600000020e10001a8e10002b0e10003b8e10000
:10361000010031001e0020000e005600c0b79f00c0
:103620004fb297000400e0000700350010002000b2
:10363000010020006011b800080470008984700047
:103640000a0571008b8571008d06e900beff3a0006
:103650000400e00003003d00820007000f0040006e
:1036600094ff07004fa897000000e00004003a0014
:103670000fb497009fb497002fb59700bfb5970080
:10368000940007004f0778004f06be004f05be00ac
:103690004f04be004f01b10000000600881f7800f3
:1036a00018002000881f780095ff07008f87e90029
:1036b0004f04780000000600801feb0090ff070019
:1036c0008f87e90000000600889fbe008a9fbe0029
:1036d0008c1f78006e00070007003d007300070094
:1036e000e00f5b00e08f5b0007003d003200070049
:1036f0000006eb00040037003400070002003d0024
:103700002a0007001c00200072000700e3ff0700ea
:103710000203be000002be000c00e0000100320007
:10372000220007000400be000601be004f0678001c
:103730004f05be004f04be0000000600889fbe007b
:103740008a9fbe008c1f78005100070005003d00d5
:1037500056000700e00f5b00e08f5b0006003d00b5
:10376000040037001900070003003d006000b800a6
:103770006011b8001000070056000700ceff0700d8
:103780000203be000002be000c00e0000100320097
:10379000060007000400be000601be004f067800c8
:1037a0004f05be004f04be00000006006000b800d8
:1037b0006011b800000037000402500085825800f4
:1037c0000603590087835900000006000006eb003d
:1037d000e00f5200e08f5a00e00f5b00e08f5b00cb
:1037e000000006000180400090b79f000001eb0040
:1037f0008fb097000100e00000000600020070009a
:1038000090b79f000180400080b79f000001eb004f
:10381000ffa897000100e000000006000200700011
:1038200080b79f00018040006faa9700cf20de0084
:1038300001007000f0af9f00040242002500070065
:103840004f18de000002720000000600e4af9f0087
:103850000804440089844c000a054d008b854d0006
:10386000000006003fb29700cfb297005fb3970009
:10387000efb3970000fe2f00000006003fb0970056
:10388000cfb097005fb19700efb19700000006003e
:103890000205be000004be00e00f5000e08f58009b
:1038a000e00f5900e08f5900000006006000b800ea
:1038b0006011b80008045000898458000a055900b6
:1038c0008b8559001c002000e00f5200e08f5a0049
:1038d000000006000800be000a01be00000006004d
:1038e000500880000000060017e2a9009a20a900f5
:1038f0009a40a9008a20a9008a40a9000000060079
:10390000a1108800b0108800000006008a20a900dd
:103910008a40a900e7416000c419dd00c10b200006
:1039200091407800f2c8b30082c0600083c070008c
:103930008000fd00bce0b7008000fd008001780041
:103940000307b200c419de00d10b200091407800bb
:1039500082cfb30082c0600083c070008000fd0091
:10396000bde0b7008000fd00680160004311de008b
:1039700002414100a1092000914078000114a100fa
:1039800082c070008000fd009ae0b7008000fd005a
:103990000008b2004700de004200dd00a10920005f
:1039a000914078000124a10080c0700001007800df
:1039b0009ae0b700000006001622a80000000600ea
:1039c0001602a800000006000080fb00901088008e
:1039d0000080eb001842e2000800350019c2bf0069
:1039e0000068a300fdff3a0067010700e0ff2f0019
:1039f0001942e200010035000000eb000000060063
:103a00001642a80000000600889fbe008a9fbe00e4
:103a10008c9fbe0080057800810678000206780041
:103a2000800478000005eb00150037001662a8003e
:103a30000004eb00030037008c0f5400130031002a
:103a40000804e800630107000004e000faff320008
:103a50008010800080767d008904e90002003a0031
:103a600016a2a8000100370016a2a9001682a8001d
:103a700016c2bf000048a300fdff3a000a05e80097
:103a80008b0f5500e9ff3a008004eb000900780035
:103a90004f06be004f05be004f04be0000000600ea
:103aa0004003880051038800000006009780a900a9
:103ab000e7416000210b20009140780082cfb300e5
:103ac00082c0600083c070008000fd00b2e0b700db
:103ad0008000fd00680060004300de004400dd005f
:103ae00071092000914078000144a10080c070005d
:103af0000100780097e0b700000006001821ef00f1
:103b0000e108880000098800000006008500a9007f
:103b1000e7416000810a20009140780082cfb30025
:103b200082c0600083c070008000fd00a8e0b70084
:103b30008000fd00680060004300de0051092000a5
:103b4000914078000104a10080c07000010078005d
:103b500095e0b7000000060050088800000006004d
:103b60000a21ef0071088800900888000000060014
:103b70000621ef0061088800800888001061a90014
:103b80000000060084e0a900e7416000c419dd00e0
:103b9000710a200091407800f2c8b30082c0600032
:103ba00083c070008000fd00a7e0b7008000fd002a
:103bb000680060004300de004700dd00410920008e
:103bc000914078000174a10080c07000010078006d
:103bd00094e0b700000006004318200093417800ed
:103be00084cfb30084c161008001fd0084e1b7008f
:103bf0008001fd00010c8800120c8800200c880058
:103c0000000006008440a900e7416000510a20003e
:103c10009140780082cfb30082c0600083c0700002
:103c20008000fd00a5e0b7008000fd006800600096
:103c30004300de004200dd00410920009140780091
:103c40000124a10080c070000100780094e0b7005a
:103c50000000060086a0a900e7416000c419dd004d
:103c6000e10a200091407800f2c8b30082c06000f1
:103c700083c070008000fd00aee0b7008000fd0052
:103c8000680060004300de004500dd00610920009f
:103c9000914078000154a10080c0700001007800bc
:103ca00096e0b70000000600301b8800411b88002a
:103cb000000006008480a900e7416000610a20003e
:103cc0009140780082cfb30082c0600083c0700052
:103cd0008000fd00a6e0b7008000fd0070006000dd
:103ce0004400de004400dd004109200091407800de
:103cf0000144a10080c070000100780094e0b7008a
:103d0000000006008400a900e7416000410a20008d
:103d10009140780082cfb30082c0600083c0700001
:103d20008000fd00a4e0b7008000fd006801600095
:103d30004311de004109200091407800e3cfb30039
:103d400083c0600082c070008000fd0094e0b70076
:103d50008000fd00700060004400de0021082000ab
:103d60009140780083c0600080c07000010078003e
:103d700082e0b700000006006023a90000000600f2
:103d800055198800761988006419880087198800f9
:103d900093198800221988001119880000198800d9
:103da0000000d1006140600000404000013220006e
:103db000914078000114a10080c0700001007800db
:103dc00020e3b70000000600641b8800871b880002
:103dd000931b8800221b8800111b8800001b880091
:103de0000000d1006140600000404000013620002a
:103df000914078000114a10080c07000010078009b
:103e000060e3b70000000600111c8800221c880037
:103e1000331c8800441c8800551c8800001c880046
:103e200081e3a800000006003019880041198800cd
:103e3000000006002023a9000000060020c3bf00e8
:103e40000004a20061006000000006000080fb008a
:103e50000000400001302000608078000000060073
:103e6000c008880000000600c008800000000600ae
:103e700021e2a9009560a9009580a9008560a900ac
:103e80008580a9000000060042118800001188000a
:103e900011118800000006008560a9008580a90036
:103ea000e7416000c419dd00910a200091407800cc
:103eb000f2c8b30082c0600083c070008000fd00c3
:103ec000a9e0b7008000fd00800178000307b20080
:103ed000c419de00a10a20009140780082cfb3000f
:103ee00082c0600083c070008000fd00aae0b700bf
:103ef0008000fd00680160004311de004311dd0019
:103f000051092000914078000134a10082c0700066
:103f10008000fd0095e0b7008000fd000008b200c1
:103f20004700de004400dd00510920009140780088
:103f30000144a10080c070000100780095e0b70046
:103f4000000006008000780020c2bf0066406000cc
:103f5000e64f500001003200f10fb200211188003d
:103f60000000060020c2bf0066406000e64f50001f
:103f700002003a003011800000000600301180007d
:103f8000f00fb2000000060016c2bf000008a30038
:103f9000fdff3a0016c2bf000028a300faff3a0056
:103fa00016c2bf000038a300f7ff3a0016c2bf00d8
:103fb0000018a300f4ff3a0016c2bf000048a30097
:103fc000f1ff3a0019c2bf000068a300eeff3a00fb
:103fd0000000060018c2bf000000d10061006000b0
:103fe00000000600800078003004e000feff3a0088
:103ff000010050000000e900000006008001780088
:104000000001780031407800005978000004e00099
:10401000fcff3a0003007800000006000c00fa00e4
:10402000889fbe0000047800cfb09700f0ff270003
:10403000d0bf9f008004eb0099bf9f0088bf9f0006
:10404000a8bf9f00200c2000b0bf9f0078815700c0
:10405000708057001b0007000fb8970009487800d0
:104060000fb8970008045000080078004f04be0005
:104070000080fa00000006008001eb00020037001b
:10408000817178008301e800828f5100fcff3a00c3
:104090000000060080017800000178000100370070
:1040a0000201e8001204e000fdff3a003140780010
:1040b000005978000004e000fcff3a00030078009b
:1040c00000000600fe874700889fbe008a9fbe0052
:1040d0008c9fbe008e1f7800f0b79f00010778000c
:1040e00082bf9f000000eb00a0b79f009f02370037
:1040f0008006eb0050c2b30080cf500009003200b0
:104100000100fb00ffb09700a3020700e10f400091
:1041100096023200afb097008100e800a1b79f007f
:10412000920237009e407800d0c2b30080cf50008a
:104130000c00320007003c006d40500080cf500062
:104140000a0032006b40400080cf50000e003a0061
:104150000800370000c3b30080cf50000a003a00c7
:10416000060037000d30a000050037000d00a0004c
:10417000030037000d10a000010037000d20a00043
:104180000e07e800e7ff37000d18a300010032001a
:104190000d00a1000d38a300010032000d20a10088
:1041a0000100fb0002fd2f0002004000e90f50005b
:1041b0000e003e000002eb00c4b79f0082017800b1
:1041c000cfb297006a28b9001e01fb000001410030
:1041d00003014100c2b79f005e00fb0003004000e6
:1041e000e90f50000b003e00f5ff37000006eb0022
:1041f000ccb79f00a0c2b30080cf500005003a00aa
:104200000fb89700c000780080bf9f00c1b79f0023
:104210000e07e8000001eb00b2b79f00e0c2b30058
:104220009e4f100018003a000de0a0008e00e8003c
:1042300064405000914f10000200320001077800e6
:104240000c0037000fba9700c402780084bf9f00ab
:10425000b5b79f000e87e8000b0037003fb6970008
:104260006a60b9000000410003004000b0b79f0041
:104270000e07e8001e01fb0003fd2f0003004100b4
:10428000e90f5000f5ff3600be407800e1d79f00ef
:10429000c0c6b30080cf5000220032000f003c00a7
:1042a0006940500080cf50007700320004003c008d
:1042b0000104e000310232006b4050000f00370073
:1042c00040c6b30080cf50009300320065404000ec
:1042d00080cf50008b003a008f00370030c7b3000a
:1042e00080cf50001a00320007003c0064405000ac
:1042f00080cf5000110032000040e80080cf500015
:1043000080003a000f00370050c7b30080cf500044
:10431000800032006340400080cf500079003a00b6
:1043200009003700000028000d48a30001003a00f2
:104330000001200080867600d3ff37000d60a000ca
:10434000750037000d50a0000d70a00072003700fe
:104350008fb897004100780081bf9f00000478006b
:104360000000e00001003a00e8db23008004eb00dd
:10437000010037008104e8008900780008804400cb
:104380001004e000fbff3a003fb197000200e0009c
:1043900003003200890f51000100310082047800cf
:1043a0000002eb00e4af9f00cfb29700898f52006c
:1043b0000200360009805200e0af9f004368de0033
:1043c000e10660001b003a000d0678000900370086
:1043d000ffb0970000022000ef010700e10f40004e
:1043e000030032002fb097000000e800a0b79f0044
:1043f0000c06e800efa89700810f5600f4ff3a0082
:104400000081eb00e2af9f000a00370088007800cf
:104410003100fb0001047800ffb09700de010700c7
:10442000e10f4000030032002fb297000402e800c1
:10443000a4b79f000900e90080047800e10f400064
:10444000f2ff3a000006eb000d00e0000a003a001f
:10445000c6013700ffb0970000022000ce01070020
:10446000e10f400003003200afb297008502e80080
:10447000a5b79f000c06e8006fa89700800f5600b4
:10448000f4ff3a00b90137008fb897004100780077
:1044900081bf9f00cf80de0001017800820178009b
:1044a0000205be000004be000203be000002be0002
:1044b0004822de00482edd0004027600e4d79f008b
:1044c0000d48a3000a0032000404e0000800320096
:1044d000e14f42000600320071fd2f0001804700cd
:1044e0000448780018409800290020000200370096
:1044f000f0d79f001900200072fd2f0002844700b2
:10450000a1ff370064fd2f0004844700190020003c
:104510009dff37000d0cb3000d007800000cb200b9
:1045200028003a000d00e00005003d008fba97001a
:104530004505be004504be0085bf9f00140037003e
:104540000d48a3000b0032000fbe97004c00be00c8
:104550008cbf9f004f89de00cf91de000002be00bd
:1045600002037800820378000605be000404be0042
:10457000070037008fb897004100780081bf9f0087
:1045800000047800cfc4de00090578008a057800b1
:10459000e00f5400e08f5c00e00f5d00e08f5d00f5
:1045a0001f003d003d00b3006000b8006011b8007e
:1045b00008045000898458000a0559008b85590069
:1045c000170037000d00e00005003d000fb997000f
:1045d0004205be004204be0082bf9f0010003700ab
:1045e0000d48a300070032000fba97004400be0038
:1045f00084bf9f006011b8000205be000004be0029
:10460000070037008fba97004500780085bf9f00ec
:1046100000047800090020000a0020000b002000a0
:104620003fb697000c00e00007003a00e00f54008e
:10463000e08f5c00e00f5d00e08f5d0002003a005b
:1046400010002000b0b79f008d007800010cb20070
:10465000e1b79f0000042000808f5000300032003e
:1046600003003c000100e000080032004000370079
:10467000000820006fb19700800f51001400320035
:10468000000c2000800f510039003a0014c0b30024
:10469000e5d123000b0037000400fb004300dd00e0
:1046a000050040005001be004000be000040e10097
:1046b00001c8e10002d0e10003d8e1002b0039007d
:1046c0000442e800f44f5200f3ff3a00270037009d
:1046d00000012000010020006011b80014c0b300e8
:1046e0000040e10001c8e10002d0e10003d8e10090
:1046f0001e003900450020000000d0008180d2005b
:104700000281d2008381d2008502e900faff3a00db
:104710000442e800f04f5200f1ff3a001300370066
:1047200080002000010020006011b80014c0b30018
:104730000040e10001c8e10002d0e10003d8e1003f
:104740000a0039003c0020000000d0008180d20027
:104750000281d2008381d2000c06e900faff3a0000
:104760000442e800f54f5200f1ff3a00e4d79f0001
:10477000efd097000100fb003fb19700820f50007f
:1047800002003d00e2d79f00040037003fb29700cf
:10479000800f520001003d00b0b79f00cfb29700dc
:1047a0000500e00004003200638066000200320071
:1047b0008502e900c5b79f000de8a3000b00320099
:1047c0004fb697003fb09700800f560003003c00a3
:1047d0008000eb00c1b79f00040037004fb1970085
:1047e0003fb2970004015100c2b79f00efd297007b
:1047f0000500fb000006eb00dcaf9f00cfb0970088
:10480000808f50000200340000805000d0af9f0025
:104810000d28a30037003200e18066000d18a300c8
:104820000c003200d00220000100e00001003a003c
:104830000080e900ffb09700d7000700e10f4000bb
:104840000e0032002fb197000201e800a2b79f00ce
:104850000a0037000100e00008003200ffb09700b6
:1048600000022000cc000700e10f400003003200ee
:104870002fb297000402e800a4b79f00dfaa9700b8
:104880000500e0000f0032000006eb00ffb09700cb
:1048900000032000c0000700e10f400003003200c9
:1048a0002fb097000000e800a0b79f000c06e800ba
:1048b000dfa89700810f5600f4ff3a000001eb00db
:1048c000d2af9f003fb29700c320dd0060d123002c
:1048d0008080400091b79f004220dd0064005000be
:1048e00080b79f006320b900f0af9f0063065000bf
:1048f00084003700dfaa97000500e00011003200b5
:10490000688066000f003a0000067800ffb097004c
:1049100000022000a0000700e10f40000300320069
:104920002fb097000000e800a0b79f000c06e80039
:10493000dfa89700810f5600f4ff3a000001eb005a
:10494000d2af9f00e18066000d18a3000c0032007a
:10495000d00220000100e00001003a000080e900e0
:10496000ffb097008c000700e10f4000d5ff320038
:104970002fb297000402e800a4b79f00d1ff3700d0
:104980000100e000cfff3200ffb0970000022000de
:1049900081000700e10f4000caff3200afb297006c
:1049a0008502e800a5b79f00c6ff3700000420007d
:1049b000efb09700808f50003100320003003c00c0
:1049c0000100e000080032003e003700000820002f
:1049d0006fb19700800f510011003200000c2000d1
:1049e000800f510037003a001fb097003002be0020
:1049f0002003be000800be000a01be0027fb07001e
:104a0000a4002000050020006033b8002afb070046
:104a100004c3b30004424000e4d79f0029003700dc
:104a200055dc2300d5b79f000d58a30002003a00c3
:104a300060dd2300d0b79f00140020000500200097
:104a40006033b8008fb097008100e90005003300a3
:104a50000402d0008582d2000683d2008783d20070
:104a6000f9ff37000800be000a01be000bfb07007b
:104a70006f0060005fb1970062407800100037005f
:104a800014002000050020006033b8000c007800fe
:104a90000000e900050033000402d0008582d20046
:104aa0000683d2008783d200f9ff37000800be00da
:104ab0000a01be00f9fa0700674060000043b00039
:104ac000e0d79f00efd097000100fb00ffb09700f8
:104ad00031000700e10f4000030032002fb19700c2
:104ae0000201e800a2b79f001fb2970068025200bf
:104af00094b79f008fb29700e482520085b79f0061
:104b000063065600d0ff2f003fb197000090b90018
:104b10007faa97000000420063005000800f5600fb
:104b2000a2ff3a000d38a30010003200dfaa970060
:104b30000500e0000d0034000006eb00ffb0970018
:104b40000002200014000700e10f400003003200c3
:104b50002fb097000000e800a0b79f000c06e80007
:104b6000dfa89700810f5600f4ff3a00be4078009e
:104b7000e1d79f000104e0005dfd3a002fb09700ef
:104b80004f0778004f06be004f05be004f04be0021
:104b9000ef01b10000000600889fbe000001780010
:104ba00001047800b10090000118a3003d0032001c
:104bb0000198a30003003a00180090000000e000f4
:104bc00038003a000190a000310498008204780077
:104bd000f90fb200180090000000e00002003a0057
:104be00028009000000c7800ea8f540006003a007c
:104bf000380090000078a30003003a008800780095
:104c0000d0002000e4ff07009800900058009000ba
:104c1000808f50000b0032000100e8001004980063
:104c20001800780009587800000c780011c0b30013
:104c300020e3230001487800ea8f54000600320088
:104c40001900370088007800094078001900070033
:104c50008004780014003700380090000088a3001a
:104c60001100320018019000a80090004800900048
:104c70003bf8070098009000810f500004003200bc
:104c8000380090000003b300300498008084eb00eb
:104c90000000eb001004980028009000000c780041
:104ca000010037008084eb00090078004f04be004b
:104cb000000006000200fa00889fbe00a0ff9f00cf
:104cc00001047800b1009000810478000904b2006a
:104cd000020032000000fb00360037000118a3007c
:104ce00005003a000103b30031049800190498004c
:104cf0000080eb002f003700580090000000e0001b
:104d000006003a004800900012002000e68057009c
:104d100013f80700190498002400370028009000b9
:104d20000000e00008003a00e0e2230020049800c0
:104d3000000c780020002000500498001004980017
:104d40000130a0003104980018019000a8009000e4
:104d50004800900002f8070028009000000c78003e
:104d60000080eb001004980018007800aff897005e
:104d700001587800000c78002ff89700ea4f500097
:104d80000a003a00380090000088a30007003200b3
:104d900018019000a800900048009000f0f707006c
:104da00019049800a8009000010c7800aff8970053
:104db0000100fb004f04be000080fa000000060066
:020000040000fa
:0200000401f009
:04000000feff0000ff
:020000040000fa
:0200000401f009
:04000400feff0000fb
:020000040000fa
:0200000401f009
:04000800fbff0000fa
:020000040000fa
:0200000401f009
:04000c007bff000076
:020000040000fa
:0200000401f009
:04001000bdff000030
:020000040000fa
:0200000401f009
:040014007fff00006a
:020000040000fa
:0200000401f009
:04001800ffff0000e6
:020000040000fa
:0200000401f009
:04001c00deff000003
:020000040000fa
:020000040001f9
:100000000000000001040000550c00004200000048
:1000100040000000090000000a000000000000008d
:100020000100000005000000008000004801000001
:1000300043790000636c00006573000000ff00005e
:10004000ff0f00000000000001000000050000009c
:10005000008000004801000044650000736f00004c
:100060006c64000020630000796300006c65000090
:1000700073000000ffff00000f00000000020000fe
:10008000090500000000000000480000000000001a
:1000900018050000000800005500000000000000e6
:1000a00048000000ffff0000050000000001000004
:1000b000000500000000000080480000014800002a
:1000c00069620000657200006e61000074690000e2
:1000d0006f6e0000206800006f75000072730000f2
:1000e00000ff0000ff0f00000100000002090000f7
:1000f000050000000000000048000000001800009b
:100100000600000008550000000000000048000044
:1001100000ff0000ff0500000000000001000000db
:10012000050000000080000048010000486f00004a
:100130007572000073000000ffff00000f00000058
:1001400000010000000500000000000080480000e1
:10015000014e00006f200000746f00006f6c000003
:10016000206800006f7500007273000000ff00003f
:10017000ff0f00000200000002090000050000005f
:100180000000000048000000001800000600000009
:1001900008550000000000000048000000ff0000bb
:1001a000ff050000030000001a040000500d0000cd
:1001b0000200000048000000ffff00008000000077
:1001c000400000000500000003910000024800000c
:1001d00000010000350000004000000008000000a1
:1001e0002000000003690000024800000000000039
:1001f00001ff000004050000000a000000090000e3
:100200005000000000000000000000000008000096
:1002100001000000285c000002c000000200000095
:1002200000000000ff010000010a0000002800009b
:100230005c020000c00200000000000000ff00009f
:10024000010100000a000000285c000002c000005c
:100250000200000000000000ff010000010a000091
:100260000006000050020000110200000000000023
:100270000001000001010000000000002600000055
:100280002000000003690000024800000000000098
:1002900001ff0000040d0000000a0000002600001d
:1002a0000c02000051420000480100000001000063
:1002b0000101000010000000010f00000a00000012
:1002c000002600000c02000051420000480100001e
:1002d000000100000101000012000000010f0000f9
:1002e0000a000000012600000c020000514200003c
:1002f0004801000000010000010100000d000000a5
:10030000010f00000a000000022600000c0200009d
:1003100051420000480100000001000001010000fe
:1003200004000000010f00000a0000000326000086
:100330000c020000514200004801000000010000d2
:100340000101000007000000010f00000a0000008a
:10035000042600000c020000514200004801000089
:1003600000010000010100000b000000010f00006f
:100370000a000000052600000c02000051420000a7
:10038000480100000001000001010000020000001f
:10039000010f00000a000000060600000c03000028
:1003a000914200004801000001010000010100002d
:1003b0001e0000000f3f0000000a000000070000c0
:1003c0002000000003690000024800000000000057
:1003d00001ff0000087e0000000a00000026000067
:1003e0000c020000d10100004801000000010000e3
:1003f0000101000011000000020f00000a000000cf
:10040000260c000002d1000000480000010000009e
:100410000101000001130000000200000f0a0000ab
:10042000002600000c020000d1000000480100007e
:1004300000010000010100000e000000020f00009a
:100440000a000000260c000002d100000048000055
:100450000100000001010000010500000002000091
:100460000f0a0000002600000c020000d10000006e
:100470004801000000010000010100000800000028
:10048000020f00000a000000260c000002d100004c
:10049000004800000100000001010000010c000004
:1004a000000200000f0a0000002600000c020000fd
:1004b000d10000004801000000010000010100001f
:1004c00003000000020f00000a00000006500000b8
:1004d00003510000020000000000000001010000c4
:1004e000010a000000020000003c000000170000ac
:1004f000000500000555000000400000020000005b
:10050000000000002300000009500000002000004f
:1005100000000000000000001001000000080000c2
:1005200057010000402000000000000001ff000013
:10053000010300000000000057010000000000005f
:10054000000000002f000000ffff0000010000007d
:1005500008570000014100000200000001010000f6
:10056000ff01000001010000000000000001000088
:10057000000500000000000080480000015300005a
:100580006c65000065700000206300007963000066
:100590006c65000073000000ffff00000f190000f1
:1005a00000020000090500000000000000480000f3
:1005b00000000000180600000008000055000000c0
:1005c0000000000048000000ffff000005000000e0
:1005d000000100000005000000000000804800004d
:1005e000015300006c650000657000002068000089
:1005f0006f7500007273000000ff0000ff0f000025
:100600001a000000020900000500000000000000c0
:100610004800000000180000060000000855000017
:10062000000000000048000000ff0000ff0500007f
:1006300000000000010000000500000000000000b4
:100640004801000020000000ffff00000f00000034
:1006500000010000000500000000000080480000cc
:10066000015000006c7500006767000065640000c1
:10067000206800006f7500007273000000ff00002a
:10068000ff0f00001b000000020900000500000031
:1006900000000000480000000018000006000000f4
:1006a00008550000000000000048000000ff0000a6
:1006b000ff05000000000000010000000500000030
:1006c0000080000048010000576f0000726b0000be
:1006d000696e000067200000686f000075720000fe
:1006e00073000000ffff00000f1c0000000200006c
:1006f00009050000000000000048000000000000a4
:10070000180600000008000055000000000000006e
:1007100048000000ffff000005000000000100008d
:10072000000500000000000000480000013000004b
:1007300020310000203000002035000000ff0000c4
:10074000ff0f000000000000010000000500000095
:10075000000000004801000043680000616e0000d6
:100760006765000064000000ffff00000f1d00002f
:1007700000070000045000000c02000000480000c8
:100780000080000000400000000000005003000056
:10079000a9820000000000004f720000696700009d
:1007a000696e0000616c000020500000494e00009e
:1007b00000000000ff3f0000000f000000060000e6
:1007c00050030000a800000000010000010100002b
:1007d0000001000014000000033f0000001c0000a6
:1007e0000025000050030000680000000001000028
:1007f000011e000000400000030e00000036000053
:100800000000000057030000280000000000000066
:100810006300000006ff0000efff0000f6ff00008d
:100820002550000001c00000000000000101000090
:1008300022000000100300006d00000000570000bf
:1008400003680000000000000062000000060000d5
:10085000ffef0000fff60000ff1e0000000c00008c
:10086000045000000c02000000480000008000005e
:1008700000400000000000000003000091020000a2
:100880004800000000010000ff40000000060000da
:1008900000090000500000002000000000000000df
:1008a000001000000100000008500000034000009c
:1008b0006200000001030000ff01000003180000b7
:1008c00000230000000000000855000001000000a7
:1008d0006000000001ff0000ff010000031900009c
:1008e0000001000008550000010000006000000049
:1008f00001ff0000ff0100000319000000020000da
:1009000008550000010000006000000001ff000029
:10091000ff01000003190000000300000650000062
:10092000031000002000000000ff00000101000093
:10093000018a000000030000001d00000006000006
:10094000500300001020000000000000ff01000024
:10095000010100008a0000001c0000001d000000d2
:1009600006500000031000002000000000ff0000ff
:1009700001010000018a000000350000001d000098
:1009800000060000500300001020000000000000de
:10099000ff010000010100008a0000004e0000007d
:1009a0001d00000006500000035000002000000061
:1009b00000ff0000010100000142000000130000e0
:1009c0000005000000270000000b0000045000009c
:1009d0000c420000004800000080000000400000c1
:1009e00000000000500300006980000000000000cb
:1009f00057410000524e0000494e000047000000e1
:100a000003ff0000110000000f000000005700006d
:100a100001690000800000000023000000ff0000ca
:100a2000ff0400000009000050000000000000006a
:100a30000000000000000000020000000857000055
:100a4000014000000000000000ff0000ff01000066
:100a500003000000005000000369000002000000d5
:100a6000005000006f7200007400000000ff0000e2
:100a70002c0000001a0000000950000000000000d7
:100a80000048000000000000100000000008000006
:100a900057010000410000000001000001ff0000bc
:100aa00001010000040000000057000001000000e8
:100ab00000000000002f000000ff0000ff01000008
:100ac0000008000057010000410200000001000082
:100ad00001ff000001010000010000000d500000b6
:100ae0000e5100000200000000000000ffff0000a7
:100af00009020000020b0000001f0000007f000040
:100b000000200000002b0000000600000450000040
:100b10000c4200000048000000800000004000007f
:100b20000000000050030000698000000000000089
:100b300057410000524e0000494e0000470000009f
:100b400003ff0000110000000f000000005700002c
:100b500001690000800000000023000000ff000089
:100b6000ff04000000090000500000000000000029
:100b70000000000000000000020000000857000014
:100b8000014000000000000000ff0000ff01000025
:100b9000030000000d5000000e5100000200000094
:100ba00000000000ffff000009020000020b00002f
:100bb00000140000007f0000002b00000000000077
:100bc0000001000000550000009100008048000076
:100bd00000450000727200006f7200007300000098
:100be000ffff00002d00000009040000500c000071
:100bf00002000000480000008000000040000000eb
:100c00000000000003910000824800000041000045
:100c100063630000657300007300000001ff0000c3
:100c20004000000007000000005000000391000099
:100c30008000000001420000616300006b000000c2
:100c400001ff000003130000003500000005000054
:100c5000500300006000000000000000ff2c0000b6
:100c6000000c000000200000000500005003000000
:100c70006000000000000000ff2e00000067000080
:100c8000002000000006000050030000600000008b
:100c900000000000ff010000010100002d00000025
:100ca000300000001b00000006500000031100008f
:100cb000000000000101000001010000011a000015
:100cc000000300004000000035000000005000005c
:100cd0000391000080000000014d000061690000e8
:100ce0006e00000001ff0000036d000000300000f6
:100cf0000000000050030000a98000000001000077
:100d00006d6500006e75000000010000ff0300002b
:100d10006d0000003b00000000000000010000002a
:100d200055000000000000004800000056000000d0
:100d300006ff000000000000010000005500000058
:100d400000000000480000005500000006ff000001
:100d5000000000000100000005000000008000000d
:100d60004801000042610000636b000000ff0000ca
:100d7000ff0f00000000000001000000550000000f
:100d80000000000000000000ba46000000ff000064
:100d9000ff000000000100000055000000000000fe
:100da0000000000000ba000043000000ffff000048
:100db00000000000010000000500000000800000ad
:100dc000480100004c650000766500006c000000e2
:100dd000ffff00000f000000000100000005000000
:100de0000000000080480000014e0000657800000f
:100df00074000000ffff00000f0000000001000071
:100e000000050000000000008048000001500000c4
:100e10006f72000074000000ffff00000f00000070
:100e200000010000000500000000000080480000f4
:100e3000015400006f6f00006c000000ffff000015
:100e40000f2f000000080000045000000c420000ba
:100e500000480000007f0000003f00000006000086
:100e60005003000091000000480000000001000055
:100e700002030000260000004000000021000000e6
:100e80000050000003a900000048000000480000d6
:100e900069620000657200006e6100007469000004
:100ea0006f6e000000030000ff4000000013000010
:100eb0000000000050030000690200000000000074
:100ec0004163000074750000616c00002074000034
:100ed000656d00007000000001ff00000e000000c2
:100ee0003a00000009500000000000000048000027
:100ef0000000000018030000000800005701000077
:100f0000690300000000000001ff0000030600006c
:100f10000006000057000000280200004800000002
:100f200001010000000100001f000000005400004b
:100f300003a9000002000000004e00006f20000026
:100f4000686500006174000000000000ff400000c0
:100f500000f40000ff000000000100000055000048
:100f60000000000000480000005400006f6f000007
:100f70006c200000696e00002074000068650000ad
:100f800020730000746100006e6400002c200000db
:100f90006e6f0000206800006561000074000000b2
:100fa000ffff0000000000000100000055000000ed
:100fb0000000000048000000546f00006f6c00004b
:100fc000206900006e2000007468000065200000a9
:100fd000657800007472000061630000746f0000a7
:100fe000722c0000206e00006f2000006865000079
:100ff0006174000000ff0000ff32000000070000e5
:10100000045000000c420000004800000080000076
:10101000004000000000000050030000a900000094
:10102000480000004869000062650000726e000020
:1010300061740000696f00006e00000003ff000093
:101040003f0000000f0000000550000003000000fa
:101050000000000000040000c70000004300000082
:1010600016000000095000000000000000480000c9
:1010700000000000180300000005000050030000fd
:101080000002000000000000ff2700000001000037
:10109000003a0000000600005003000000000000bd
:1010a00000000000ff02000000000000c800000077
:1010b0005100000022000000065000000351000013
:1010c000024800000000000001010000015d000076
:1010d000000a0000000d00000032000000070000c0
:1010e000045000000c420000004800000080000096
:1010f000004000000000000050030000a9000000b4
:10110000480000004869000062650000726e00003f
:1011100061740000696f00006e00000003ff0000b2
:101120003f0000000f000000055000000300000019
:101130000000000000040000c700000043000000a1
:10114000160000000550000003000000020000002f
:1011500000ff0000260000000a0000003a00000026
:1011600009500000000000000048000000000000de
:1011700018030000000600005003000000000000fb
:1011800000000000ff02000000000000c800000096
:101190005100000023000000065000000351000031
:1011a000024800000000000001010000015d000095
:1011b000000a0000000d0000002a000000030000eb
:1011c000045000000c4200000048000000800000b5
:1011d000004000000000000050030000a980000053
:1011e00000000000494e0000464f0000524d000034
:1011f00041540000494f00004e00000001ff000074
:1012000040000000090000000d5000000e510000d9
:101210000200000000000000ffff000009020000c3
:10122000020d0000000e0000007f000000310000f1
:101230000034000000050000045000000c420000d3
:1012400000480000007f0000003f0000000a00008e
:10125000500f000080000000480000000000000067
:101260003f000000020000007f00000018000000a6
:101270000050000003a900000248000000770000b1
:10128000777700002e6a000062630000746f000030
:101290006f6c0000732e0000636f00006d00000093
:1012a00000ff00003f000000280000000550000083
:1012b0000369000002480000000000004400000034
:1012c00002000000380000000d5400000fc00000b4
:1012d0000000000000000000ffff00000903000004
:1012e000010a0000007d000000f80000ff36000049
:1012f000000a00000000000000010000005500008e
:10130000002900000000000000630000000600004b
:10131000ff0000000001000000550000002900004f
:101320000000000000530000454c00004543000051
:101330005400000000ff0000000000000100000059
:1013400055000000290000000000000062000000bd
:1013500006ff00003500000007040000550c0000e7
:1013600042000000480000005c0000001a0000007d
:10137000035500000f51000000480000000100006c
:1013800001000000010000005a00000018000000e9
:10139000025500000951000000480000004c000008
:1013a00000170000000000001503000068020000a4
:1013b000480000005500000006ff00000400000087
:1013c000090000000255000007000000004800006e
:1013d00000fd0000ff030000000c00000000000002
:1013e00015030000680200004800000056000000dd
:1013f00006ff0000030000000a0000008615000040
:1014000003a90000224800000003000001000000c2
:1014100004300000002900000000000000d8000097
:10142000fffb0000ff0000000001000000150000ad
:101430000000000000480000004500006e6700004a
:101440006c6900007368000000ff0000ff000000ee
:10145000000100000015000000000000004800002e
:10146000004500007370000061f100006f6c000027
:1014700000ff0000ff000000000100000015000058
:1014800000000000004800000046000072610000fb
:101490006ee700006169000073000000ffff0000bc
:1014a0000000000001000000150000000000000026
:1014b000480000004465000075740000736300007c
:1014c00068000000ffff00000000000001000000b5
:1014d00015000000000000004800000049740000f2
:1014e000616c0000696100006e6f000000ff000089
:1014f00001000000000100000005000000000000e5
:1015000080480000014300006f7500006e74000009
:101510006572000073000000ffff00000f00000074
:1015200000010000000500000000000080480000ed
:10153000014500007869000074000000ffff000012
:101540000f36000000100000045000000c020000e4
:101550000048000000800000004000000000000083
:101560000003000091820000480000004d6100006f
:10157000696e0000206d0000656e000075000000bf
:1015800001ff0000400000000800000020000000f3
:1015900003a90000024800000000000001ff000055
:1015a00008070000000a00000009000050000000c9
:1015b0000000000000000000000800000100000022
:1015c000285c000002000000020000000000000093
:1015d000ff010000020a0000002800005c02000079
:1015e000000200000000000000ff000001020000f7
:1015f0000a000000285c0000020000000200000059
:1016000000000000ff010000020a000000280000a6
:101610005c020000000200000000000000ff00006b
:10162000010200000a0000002000000003a90000e1
:10163000024800000000000001ff00000418000044
:10164000000a0000000600000c03000091420000a8
:101650004801000001010000010100003600000007
:101660000f3f0000000a000000050000260c0000eb
:10167000025100004248000001000000010100008a
:1016800001390000000100000f0a00000000000006
:10169000260c00000251000042480000010000003a
:1016a00001010000013a0000000100000f0a0000e3
:1016b00000010000260c000002510000424800001a
:1016c0000100000001010000013b000000010000da
:1016d0000f0a000000020000260c0000025100006a
:1016e0004248000001000000010100000135000037
:1016f000000100000f0a000000030000260c00009b
:1017000002510000424800000100000001010000f9
:1017100001380000000100000f0a00000004000072
:1017200006500000030000000000000000ff000061
:10173000010100000100000000030000000e000095
:101740000000000000010000000500000000000093
:101750008048000001500000726f000067720000b6
:10176000616d000020760000657200007369000062
:101770006f6e000000ff0000ff0f0000000000007f
:10178000010000000500000000800000480100008a
:10179000526500007365000074200000736500004e
:1017a00074740000696e00006773000000ff0000a1
:1017b000ff0f000000000000010000000500000015
:1017c00000800000480100005374000061740000b4
:1017d000696f00006e2000007365000074740000e3
:1017e000696e00006773000000ff0000ff0f00003b
:1017f0000000000001000000050000000080000063
:1018000048010000546f00006f6c0000207300005e
:1018100065740000746900006e67000073000000ca
:10182000ffff00000f000000000200000450000055
:101830000c42000000480000008000000040000052
:101840000000000050030000a9000000000000009c
:101850004e4f0000205400004f4f00004c0000008d
:1018600004ff0000400000002800000041000000cc
:1018700007040000550c0000420000004800000072
:10188000370000001a000000035500000f5100004f
:1018900000480000000100000100000001000000fd
:1018a000350000001800000002550000095100003a
:1018b00000480000002700000017000000000000a2
:1018c00015030000680200004800000055000000f9
:1018d00006ff00000400000009000000025500009f
:1018e000070000000048000000fd0000ff030000aa
:1018f000000c00000000000015030000680200005a
:10190000480000005600000006ff00000300000031
:101910000a000000865500000381000022480000f4
:101920000003000001000000013e00000022000052
:101930000000000000ea0000fffb0000ff000000c4
:101940000001000000050000000000000048000049
:10195000014f00004646000000ff0000ff0f00009e
:101960000000000001000000050000000000000071
:10197000480100004f4e000000ff0000ff0f000074
:101980000000000001040000500c000022000000d4
:10199000000000007f0000003f0000000000000089
:1019a00006040000550c0000420000004800000042
:1019b000520000002b000000035500000f11000032
:1019c00000480000000100000200000002000000ca
:1019d0004e0000002700000000550000030000003a
:1019e00000000000005400006f00000000ff000035
:1019f000060000000a000000005500000180000001
:101a000000000000004d0000616900006e20000031
:101a10006d6500006e75000000010000ff270000ea
:101a2000000000005503000000000000000000005e
:101a3000206800006f6c0000642000005345000027
:101a40004c4500004354000000000000fff8000077
:101a5000ff0c000000000000550300000000000023
:101a6000000000003220000073650000636f00007a
:101a70006e6400007300000000ff00000100000021
:101a80000c0000002a00000003040000550c0000b8
:101a90004200000048000000610000002c0000002f
:101aa000035500000f110000004800000002000074
:101ab00001000000010000005f0000002a0000009b
:101ac0000d1500000f280000024800000000000073
:101ad000ffff000009020000020b000000030000ed
:101ae0000002000000590000003000000034000037
:101af00000030000045000000c42000000480000f9
:101b0000007f0000003f00000005000050030000bf
:101b1000a90200004800000000440000003f00004f
:101b200000140000000d0000500f00000000000035
:101b30000000000003ff0000ff0900000202000097
:101b40000a0000003f000000190000007f000000b4
:101b5000100000000000000001000000050000006f
:101b60000080000048000000507200006f67000015
:101b7000726100006d200000766500007273000045
:101b8000696f00006e000000ffff00000000000011
:101b900002040000500c0000020000004800000099
:101ba000800000004000000005500000039100008c
:101bb000020000000001000044000000400000009e
:101bc000080000000000000004040000500c0000a9
:101bd00002000000480000008000000040000000fb
:101be00000000000039100000248000000500000c7
:101bf000494e000000010000ff4000000007000007
:101c00000000000000030000918200004800000076
:101c1000504900004e20000072650000736500000e
:101c200074200000746f00002064000065660000ee
:101c3000617500006c74000000000000ff400000af
:101c4000001800000000000000030000a9020000ce
:101c50004800000030310000303500000003000073
:101c6000ff400000002e00000026000000080000d9
:101c7000045000000c02000000480000008000003a
:101c80000040000000050000000300009102000079
:101c9000480000000139000000400000000800007a
:101ca00000000000000300009182000048010000d5
:101cb0004172000065200000796f0000752000006f
:101cc00073750000726500003f00000000ff000017
:101cd0000f400000001c0000000000005003000046
:101ce00040800000000100004e6f00000001000075
:101cf000ff0300000d000000350000000057000049
:101d0000032800000000000000630000000600003f
:101d1000ff0300000003000000000000500300006b
:101d2000c080000000010000596500007300000041
:101d300001ff000003650000003500000000000006
:101d400057030000280000000000000062000000af
:101d500006ff00000f000000030000000650000016
:101d6000001000000000000000ff00000101000062
:101d700001480000000000000002000004500000c4
:101d80000c42000000480000007f0000003f0000ff
:101d9000000000005003000081000000000000006f
:101da000526500007365000074200000746f00002d
:101db0002064000065660000617500006c7400001e
:101dc00000010000ff400000001e000000000000b5
:101dd00000040000040000000c4200000048000065
:101de00000ef0000007f000000230000500e000004
:101df0005104000048000000004400000a000000f8
:101e0000770000003500000003d700000511000036
:101e10000848000000000000ffff0000080000006c
:101e200025500000031100000c48000001000000d4
:101e30004a00000011010000040000000b00000037
:101e40000c42000000020000090500000000000034
:101e5000004800000000000010040000008800009e
:101e600005000000510200004801000000ff0000d2
:101e700009090000710000000000000000000000df
:101e8000010000001500000029a00000480000002b
:101e90004e6f00002068000069620000657200005b
:101ea00000ff0000ff00000000010000001500001e
:101eb00000290000a0480000004e00006f20000034
:101ec000736c00006565000070000000ffff0000fb
:101ed0000000000001000000550000002900000083
:101ee000000000002d2d00002d2d00002d00000011
:101ef000ffff000041000000010600005500000047
:101f00000120000048000000030100000001000063
:101f1000a6000000000000000100000055000000c5
:101f200000000000000000002d2d00002d2d0000fd
:101f30002d000000ffff000043000000030600002a
:101f4000550000000000000000000000ff0100003c
:101f5000000100001f000000090500000000000053
:101f60000048000000000000190400000008000004
:101f700056010000c000000000000000ffff00004c
:101f800002fa0000ff4500000003000006550000b3
:101f9000000000000000000000ff00000100000041
:101fa000011f000000090000050000000000000003
:101fb000480000000018000004000000085600005f
:101fc00001c000000000000000ff0000ff0400004e
:101fd000faff000047000000030000005500000069
:101fe00029000000000000006d6900006e00000084
:101ff000ffff00000905000000000000004800008d
:102000000000000018040000000800005601000055
:10201000c000000000000000ffff000001fa000007
:10202000ff440000000300000055000000290000ec
:1020300000000000006d0000696e000000ff00005d
:10204000ff0900000500000000000000480000003b
:1020500000180000040000000856000001c0000045
:102060000000000000ff0000ff020000faff000077
:10207000000000000100000055000000008000008a
:102080004800000053740000616e0000640000000e
:10209000ffff0000000000000100000055000000ec
:1020a0000000000048000000536c0000656500005f
:1020b00070000000ffff00000000000001000000b1
:1020c0005500000000800000480000004869000042
:1020d00062650000726e000061740000696f0000ac
:1020e0006e000000ffff0000000000000100000083
:1020f0005500000001800000280000004578000025
:102100007472000061630000746f000072000000d0
:10211000ffff00000000000001000000550000006b
:1021200001800000280000004e6f000020740000b5
:102130006f6f00006c000000ffff00000000000057
:102140000100000055000000008000004800000071
:1021500045720000726f000072000000ffff000077
:102160000000000002040000550c000042000000c6
:102170004800000050000000110000000055000061
:102180000311000000000000002d00002d2d0000b4
:1021900000ff0000ff050000000c00000000000030
:1021a00000020000045500000f420000000400007f
:1021b00000130000000700000047000000080000b6
:1021c000000000005603000069000000000000004d
:1021d000546f00006f6c0000206900006e2000004a
:1021e000746800006520000073740000616e0000d8
:1021f0006400000000ff0000010000000700000074
:102200004800000005240000550c000042000000ba
:102210000200000004700000001600000020000012
:10222000540300006900000000000000546f00002b
:102230006f6c0000206900006e20000074680000d0
:102240006520000073740000616e000064000000ef
:1022500000ff000001140000000700000020000043
:10226000540300004000000000000000446500002e
:102270006c61000079200000746f00002065000090
:102280006e74000065720000207300006c65000031
:102290006570000000ff0000ff0100000100000069
:1022a0000c000000095000000000000000000000c9
:1022b00000030000000400000008000057010000b7
:1022c000400300000000000000ff000003050000c4
:1022d0000000000000030000045500000c02000094
:1022e00000000000006f0000002300000003000059
:1022f0005a0f000001000000000000000001000073
:1023000000010000006d000000210000000b000033
:10231000550f00000100000000000000486f0000a1
:102320006c640000207400006865000020740000e8
:102330006f6f00006c200000746f000020630000cd
:10234000686100006e670000652000007465000091
:102350006d7000006572000061740000757200000d
:102360006500000001ff0000ff020000020d0000f8
:102370000001000000010000006b0000001e0000d2
:102380000049000000040000095000000020000087
:10239000000000000000000010000000000000002d
:1023a00055000000d0000000400000003200000096
:1023b00000ff000000560000011000000040000077
:1023c000002f000000000000fffe0000ff080000da
:1023d00056010000110000000000000000ff000096
:1023e00001fe0000ff000000000100000055000099
:1023f00000e8000002480000004e00006f200000ce
:10240000686500006174000000ff0000ff0000002c
:10241000000100000055000000e800000248000034
:10242000004e00006f20000068650000617400002d
:1024300000ff0000ff4a00000007000004500000f9
:102440000c42000000480000008000000040000036
:102450000006000050030000a90000004800000032
:1024600003010000000100006b0000003f000000bd
:102470000f000000055000000300000000000000f5
:1024800000040000c7000000430000001700000027
:102490000650000003910000020000000000000050
:1024a0000100000001690000000800000032000087
:1024b000000900005000000000000000480000007b
:1024c0000018000003000000065000000300000098
:1024d0000000000000ff00000200000000c8000033
:1024e000005100000023000000060000500300001f
:1024f000510200004800000000010000010100003e
:102500005d0000000a0000000d0000000000000057
:102510000100000055000000000000000000000065
:1025200050720000657300006574000000ff000039
:10253000ff00000000010000005500000000000046
:102540000000000000530000656c0000656300009f
:102550007465000064000000ffff00000000000040
:1025600001000000550000000000000048000000cd
:1025700053740000616e000064000000ffff000063
:1025800000000000010000005500000000000000f5
:1025900048000000536c00006565000070000000fa
:1025a000ffff0000000000000100000055000000d7
:1025b000000000004800000048690000626500005b
:1025c000726e000061740000696f00006e00000010
:1025d000ffff0000000000000100000055000000a7
:1025e0000000000048000000457800007472000000
:1025f00061630000746f000072000000ffff0000c4
:102600004e0000000306000055000000e802000034
:1026100048000000ff010000000100001f00000052
:102620000950000000000000004800000000000009
:10263000180300000008000056010000e903000034
:1026400000000000ffff000003fd0000ff5000003d
:1026500000030000045500000c42000000020000ce
:102660000070000000090000000000005503000099
:102670000100000004000000536c000065650000cc
:1026800070200000746500006d70000000ff000005
:10269000ff0e0000000700000006000057010000c8
:1026a00069000000000000000101000000010000be
:1026b000e0000000040000004800000004240000c6
:1026c000550c0000420000000200000004700000f1
:1026d0000009000000200000540300004100000039
:1026e00004000000446500006c61000079200000d7
:1026f000746f0000207300006c65000065700000be
:1027000000000000ff0100000d00000007000000b5
:10271000095000000000000000000000000300005d
:102720000004000000080000570100004003000002
:102730000000000000ff0000030500000000000092
:102740000001000000550000000000000000000033
:10275000004e00006f200000736c000065650000f3
:1027600070000000ffff00000000000001000000fa
:10277000550000000000000000000000536c000045
:102780006565000070000000ffff000051000000c0
:1027900002090000050000000000000048000000e1
:1027a00000100000040000000855000000000000b8
:1027b0000048000000ff0000ff01000000000000d2
:1027c00002040000550c00000200000000000000a0
:1027d000210000001300000080550000038100006c
:1027e00000000000002d00002d2d0000000300005f
:1027f000ff220000000f000004110000000f000085
:1028000000000000000100000005000000000000c2
:102810008048000001430000686100006e6700000e
:1028200065200000504900004e000000ffff00003e
:102830000f00000000010000000500000000000083
:102840008048000001480000656c00007020000016
:10285000746500007874000000ff0000ff0f0000a6
:10286000520000000106000005000000000000000a
:1028700048010000ff010000000100003e000000d0
:102880000f00000000010000000500000000000033
:1028900080480000014c0000616e00006775000078
:1028a0006167000065000000ffff00000f5300009b
:1028b00000010000060500000000000000480000c4
:1028c00001ff00000100000004300000000f0000c4
:1028d000540000000300000055000000000000004c
:1028e0000000000057000000ffff00000905000085
:1028f000000000000048000000000000100400007c
:102900000008000056000000e80000000000000081
:10291000ffff0000010000000001000000050000b2
:102920000000000080480000014d000061780000b8
:10293000696d0000756d000020740000656d000079
:1029400070000000ffff00000f55000000030000b2
:1029500006550000000000000000000000ff00001d
:1029600001000000011f0000000900000500000038
:1029700000000000480000000010000004000000fb
:102980000856000000e800000000000000ff000002
:10299000ff0400000000000001000000050000002e
:1029a0000000000048010000506f00007765000043
:1029b000722000006c6900006d6900007400000066
:1029c000ffff00000f0000000001000000050000f4
:1029d0000000000080480000014d0000696e00000a
:1029e000696d0000756d000020740000656d0000c9
:1029f00070000000ffff00000f5700000003000000
:102a000006550000000000000000000000ff00006c
:102a100001000000011f0000000900000500000087
:102a2000000000004800000000100000040000004a
:102a30000856000000e800000000000000ff000051
:102a4000ff0400000000000001000000050000007d
:102a500000800000480100004e6900007472000010
:102a60006f670000656e0000206d00006f6400005d
:102a700065000000ffff00000f590000000100008a
:102a800006050000000000000048000001ff0000f3
:102a900001000000013e0000000f000000000000e7
:102aa00001000000550000000000000000000000d0
:102ab0002d2d00002d2d000000ff0000ff5a00000a
:102ac00000030000095000000000000000000000aa
:102ad00000000000000000000000000055000000a1
:102ae000c0000000000000007365000063000000eb
:102af000ffff00000855000001d100000014000095
:102b000000000000ff010000f0ff00005b0000007b
:102b10002c040000500c00000200000048000000df
:102b2000800000004000000005000000039100004c
:102b300002480000000100003a00000040000000d0
:102b400008000000200000000369000002480000a7
:102b50000000000001ff000004050000000a000062
:102b6000000900005000000000000000000000000c
:102b70000008000001000000285c000002c0000006
:102b80000200000000000000ff010000010a000038
:102b9000002800005c020000c002000000000000ed
:102ba00000ff0000010100000a000000285c000096
:102bb00002c000000200000000000000ff01000051
:102bc000010a0000002800005c020000c0020000b2
:102bd0000000000000ff0000010100000a000000ea
:102be000200000000369000002480000000000000f
:102bf00001ff000004110000000a00000026000090
:102c00000c020000514200004801000000010000d9
:102c10000101000072000000010f00000a00000026
:102c2000002600000c0200001142000048010000d4
:102c3000000100000101000086000000010f0000fb
:102c40000a000000012600000c02000011420000f2
:102c500048010000000100000101000075000000b3
:102c6000010f00000a000000022600000c02000014
:102c700011420000480100000001000001010000b5
:102c800078000000010f00000a0000000326000089
:102c90000c02000011420000480100000001000089
:102ca000010100007a000000010f00000a0000008e
:102cb000042600000c020000114200004801000040
:102cc000000100000101000084000000010f00006d
:102cd0000a0000000b2600000c0200001142000058
:102ce0004801000000010000010100007000000028
:102cf000010f00000a000000052600000c02000081
:102d00001142000048010000000100000101000024
:102d100082000000010f00000a00000006260000eb
:102d20000c020000114200004801000000010000f8
:102d3000010100007f000000010f00000a000000f8
:102d4000072600000c0200001142000048010000ac
:102d5000000100000101000077000000010f0000e9
:102d60000a000000082600000c02000011420000ca
:102d70004801000000010000010100006f00000098
:102d8000010f00000a000000090600000c0300000b
:102d90009142000048010000010100000101000013
:102da0001e0000000f3f0000000a0000000a0000a3
:102db000200000000369000002480000000000003d
:102dc00001ff0000087e0000000a0000002600004d
:102dd0000c020000d10200004801000000010000c8
:102de0000101000073000000020f00000a00000053
:102df000260c000002d10000024800000100000083
:102e00000101000001870000000200000f0a00001d
:102e1000002600000c020000d10200004801000062
:102e2000000100000101000076000000020f000018
:102e30000a000000260c000002d100000248000039
:102e40000100000001010000017900000002000003
:102e50000f0a0000002600000c020000d102000052
:102e60004801000000010000010100007b0000009b
:102e7000020f00000a000000260c000002d1000032
:102e8000024800000100000001010000018500006f
:102e9000000200000f0a0000002600000c020000e3
:102ea000d102000048010000000100000101000003
:102eb00071000000020f00000a000000260c000054
:102ec00002d10000024800000100000001010000e2
:102ed00001830000000200000f0a0000002600002d
:102ee0000c020000d10200004801000000010000b7
:102ef0000101000080000000020f00000a00000035
:102f0000260c000002d10000024800000100000071
:102f10000101000001740000000200000f0a00001f
:102f200000060000500300000020000048000000e0
:102f3000ff010000010100002f0000002000000040
:102f400012000000065000000300000020480000ae
:102f500000ff000001010000018d0000000f0000d3
:102f6000001f0000000600005003000000200000c9
:102f700048000000ff010000010100008c0000007b
:102f80003d0000001100000006500000030000009a
:102f90002048000000ff000001010000018c00003b
:102fa000003d000000160000000600005003000075
:102fb0000020000048000000ff01000001010000a7
:102fc0003d000000450000000f000000065000001a
:102fd000030000002048000000ff00000101000085
:102fe000013d000000450000001600000006000042
:102ff000500300000020000048000000ff01000016
:10300000010100003d00000045000000120000002a
:1030100006500000030000002048000000ff0000f0
:1030200001010000013d0000004500000012000009
:1030300000060000500300000020000048000000cf
:10304000ff01000001010000900000003d000000b1
:103050001600000006500000030000002048000099
:1030600000ff000001010000018c0000003d000095
:1030700000160000000600005003000000200000c1
:1030800048000000ff010000010100003d000000b9
:10309000390000001400000006500000030000008a
:1030a0000000000000ff000001010000010000001e
:1030b00000ff0000ff3200000000000000010000df
:1030c0000005000000000000004800000152000060
:1030d0006f6200006f74000000ff0000ff0f00002f
:1030e0008100000001060000050000000000000053
:1030f00048010000ff010000000100003e00000048
:103100000f26000000080000045000000c02000020
:1031100000480000008000000040000000050000a2
:10312000000300009102000048000000013a000086
:103130000040000000080000000000000003000044
:103140009182000048010000536100007665000094
:1031500020630000686100006e6700006573000076
:103160003f00000000ff00000f400000001c0000b6
:10317000000000005003000040800000000100003b
:103180004e6f000000010000ff0300000d00000072
:103190003500000000570000032800000000000078
:1031a0000063000000060000ff03000000030000b1
:1031b0000000000050030000c0800000000100007b
:1031c000596500007300000001ff00000365000066
:1031d0000035000000000000570300002800000038
:1031e000000000006200000006ff00000f00000069
:1031f0000300000006500000031000000000000063
:1032000000ff00000101000001420000000d00006d
:10321000000c00000000000000010000000500009c
:103220000000000000480000014200006565000049
:1032300070000000ffff00000f820000000100008e
:1032400006050000000000000048000001ff00002b
:1032500001000000013e0000000f0000000000001f
:10326000010000000500000000000000480100000f
:103270004d650000747200006f6e00006f6d0000fd
:1032800065000000ffff00000f8300000001000048
:1032900006550000000000000000000000ff0000d4
:1032a00001000000017c000000000000000100009f
:1032b00000050000000000008048000001540000ec
:1032c000656d000070200000756e000069740000dc
:1032d00000ff0000ff0f0000840000000106000056
:1032e000050000000000000048010000ff01000090
:1032f000000100008e0000000f270000000b0000fe
:10330000045000000c420000004800000080000053
:103310000040000000000000500300006980000031
:1033200000000000535400004f5000000003000054
:10333000ff200000000f0000000000005701000007
:10334000698000000000000023000000ffff000073
:103350000400000009500000000000000000000010
:1033600000000000000200000008000057010000fb
:103370004000000000000000ffff0000010300000b
:10338000000000005003000069020000000000007f
:10339000506f00007274000000000000ff2c00005d
:1033a000001a0000000900005000000000000000aa
:1033b0004800000000100000000000000857000056
:1033c000014100000000000001010000ff010000b9
:1033d0000104000000000000570100000000000090
:1033e000000000002f000000ffff000001000000af
:1033f0000857000001410000020000000101000028
:10340000ff01000001010000000d0000500e00004f
:10341000510200000000000000ff0000ff09000052
:10342000020200000b0000001f0000007f000000ef
:10343000200000002b00000006040000500c0000db
:103440004200000048000000800000004000000032
:1034500000500000036900008000000000530000dd
:10346000544f00005000000003ff00001d0000004a
