:020000040000fa
:082800000016040000000000b6
:020000040000fa
:10280800f85a040000000000f85a04000000000014
:10281800f05a040000000000e85a0400000000001c
:10282800e05a040000000000f85a0400000000000c
:10283800f85a040000000000f85a040000000000e4
:102848007c34040000000000f85a04000000000076
:10285800f85a040000000000f85a040000000000c4
:10286800ee34040000000000f85a040000000000e4
:10287800f85a04000000000020390400000000009d
:102888005039040000000000f85a0400000000005d
:10289800f85a040000000000a439040002000000f7
:1028a800d839040002000000f85a040000000000b3
:1028b800f85a040000000000f85a04000000000064
:1028c800f85a040000000000f85a04000000000054
:1028d800f85a040000000000f85a04000000000044
:1028e800f85a040000000000f85a04000000000034
:1028f800f85a040000000000f85a04000000000024
:10290800f85a040000000000f85a04000000000013
:10291800f85a040000000000f85a04000000000003
:10292800683c040000000000f85a040000000000a1
:10293800f85a040000000000f85a040000000000e3
:10294800f85a040000000000f85a040000000000d3
:10295800f85a040000000000f85a040000000000c3
:10296800f85a040000000000f85a040000000000b3
:10297800f85a040000000000f85a040000000000a3
:10298800f85a040000000000f85a04000000000093
:10299800f85a040000000000f85a04000000000083
:1029a800f85a040000000000f85a04000000000073
:1029b800f85a040000000000f85a04000000000063
:1029c800f85a040000000000f85a04000000000053
:1029d8001e7c040000000000f85a040000000000fb
:1029e800f85a040000000000f85a04000000000033
:1029f800f85a040000000000f85a04000000000023
:102a0800f85a040000000000f85a04000000000012
:102a1800f85a040000000000f85a04000000000002
:102a2800f85a040000000000f85a040000000000f2
:102a3800f85a040000000000f85a040000000000e2
:102a4800f85a040000000000f85a040000000000d2
:102a5800f85a040000000000f85a040000000000c2
:102a6800f85a040000000000f85a040000000000b2
:102a7800f85a040000000000f85a040000000000a2
:102a8800f85a040000000000f85a04000000000092
:102a9800f85a040000000000f85a04000000000082
:102aa800f85a040000000000f85a04000000000072
:102ab800f85a040000000000f85a04000000000062
:102ac800f85a040000000000f85a04000000000052
:102ad800f85a040000000000f85a04000000000042
:102ae800f85a040000000000f85a04000000000032
:102af800f85a040000000000f85a04000000000022
:102b0800f85a040000000000f85a04000000000011
:102b1800f85a040000000000f85a04000000000001
:102b2800f85a040000000000f85a040000000000f1
:102b3800f85a040000000000f85a040000000000e1
:102b4800f85a040000000000f85a040000000000d1
:102b5800f85a040000000000f85a040000000000c1
:102b6800f85a040000000000f85a040000000000b1
:102b7800f85a040000000000f85a040000000000a1
:102b8800f85a040000000000f85a04000000000091
:102b9800f85a040000000000f85a04000000000081
:102ba800f85a040000000000f85a04000000000071
:102bb800f85a040000000000f85a04000000000061
:102bc800f85a040000000000f85a04000000000051
:102bd800f85a040000000000f85a04000000000041
:102be800f85a040000000000f85a04000000000031
:020000040000fa
:102c00008f2325008efe27000e01880000000000a3
:102c10000c00070040ea2700010020001f00070009
:102c2000000020000000e00002003200000002006e
:102c300000000000f4570200000000000040da002d
:102c40000000fe004440a90080fa27000000e000d8
:102c50000300320010002000a00188004440a800ba
:102c600000000600f03fb1000180b1000600350011
:102c7000ee03090000000000403fb1000180b100f8
:102c8000fbff3d001000b000203fb0000200350007
:102c9000008009000000000000000600910188008b
:102ca000800078000000eb0015003700e280400053
:102cb00032a0b4009101ba00e280400032a0b4001a
:102cc0009102ba00e280400032a0b4000002eb00a2
:102cd000472bde00f507b200602ce10004003a004b
:102ce0000059eb008301e900fdff3e0004003700be
:102cf0006128e100010032000082eb0004000700bf
:102d00001101ba000200e000e8ff3a0000000600ee
:102d10003159ba008301e9000c0032002159ba0090
:102d20008301e900080032000400e00003003a00db
:102d3000e280400032a0b400f5ff370011d9ba009c
:102d40008301e900faff3a008100e800e1804000d9
:102d500032a0b400000006000a00fa0080017800ea
:102d6000e20f500028003e00b0898200e10f5000c1
:102d700008003200802320000000e000050032003f
:102d80000423200025232000462320008001780012
:102d900004003700042220002522200046222000c3
:102da00083222000144090000004e000040035005d
:102db0008009eb00144090000074a00010429800bd
:102dc000154090000028a30003003a001540900031
:102dd0000024a000904298008001eb00070037001b
:102de000154090000008a300fdff320063c078008a
:102df0000000fb00000b78008301e800828f510087
:102e0000f7ff3a000800370030002000b0bf9f00f5
:102e1000c3bf9f00d1bf9f00e2bf9f006a805700e1
:102e200000c0da006fb99700020078000080fa0055
:102e300000000600839f68000100e00002003d00e2
:102e400060001000e08018000300e00002003d0078
:102e500060011100e0811900050007004f00e0004b
:102e600002003b0060001000e08018000000060037
:102e70006022b800060220000000d0008180d2004d
:102e80000482d2008582d2000000a000020252001b
:102e900083825a00030031000202420083824a000a
:102ea0000000a1000603e900f3ff3a00000006005d
:102eb000811f78000100e00002003d00600010006a
:102ec000e08018000300e00002003d0060011100f6
:102ed000e0811900050007004f00e00002003b0000
:102ee00060001000e080180000000600e0ff07000e
:102ef0000400be0000000600889fbe008a9fbe003e
:102f0000010578000100e0000400350008003c00e5
:102f10000000e000200032000500370060001000d3
:102f2000e080180002003b0001f02c001a0037007e
:102f30000004be006011b8006b0920000982cf00b8
:102f4000020039000882cf000441b00069425200fb
:102f50000e00320008003b008281710061016400b4
:102f60008904d1000884d3008b05e8000442e800fe
:102f7000f9ff3a00050037000804440089844c003a
:102f80008b05e9000442e900fbff3a00f40007006a
:102f90000af0a70001f0a0004f05be004f04be00dc
:102fa0000000060003f0a200889fbe008a9fbe00ba
:102fb0008c1f780010010700170133006450e100f6
:102fc0004f0032006420e1005200320003826c00a6
:102fd00007003b000905d0000306d000820f540013
:102fe0000c065d0002003900020032008901780001
:102ff000030678008582550004003d000003fd00b3
:103000008103fd008502ea008b854200840f720077
:1030100002003b0060001000e08018006011b80062
:103020000005eb007a28e1000a003900060078006c
:10303000c75ddd00f707b200878075002d003700ff
:10304000828171000a017800610560008180d100f1
:103050000080d3008502e900f9ff3b000604400030
:103060008784480002003b0060041400e0841c00d8
:103070000988a300070032008a81710082817100f3
:10308000610164008904d1000884d3008b05e80045
:10309000170037000978a30013003a000b00e00086
:1030a000130034008b05e9000804440089844c00b7
:1030b0000a4474000978a3000d003a000b00e000f8
:1030c000070034008b05e9000804440089844c00a3
:1030d00001003a000b0020000978a300f7ff32003e
:1030e0000001eb0002003700828171000a017800c4
:1030f0009b0007000cf0a70001f0a000cf003700f4
:103100006420e10002003a00838f6c00cf0033009e
:103110000801be000200be00c8003700889fbe0044
:103120008a9fbe008c1f7800b3000700ba003300ee
:1031300003866c006450e100240032006420e1004a
:10314000270032006150e100220032006120e100de
:10315000210032008b854200eb07b1000134b8003a
:10316000003ab8000804420089844a00013ab800d5
:103170000030b8008880400009014a000400330094
:103180000000400081804800020149008b05e900f1
:10319000c909dd0083017000010032001300200026
:1031a000c814de004814dd004709de001200b2003a
:1031b000c808de00088470006900070001f0a10063
:1031c0000cf0a70001f0a0009c0037006120e10096
:1031d0009e0032000801be000200be00f7ff37006b
:1031e0006150e100fcff3a0098003700889fbe0064
:1031f0008a9fbe008c1f78007f0007008600330086
:1032000003866c006450e1002e0032006420e1006f
:10321000330032006150e1002f0032006120e100f4
:103220003100320085855500eb07b0000900200011
:1032300008042000050037000804440089844c007d
:103240000a0031000603430087834b00000153004e
:1032500081815b00f8ff33000203be000800a0007c
:103260000804440089844c00f6ff3900c639dd00ab
:103270008301730001003200130020008904d10093
:103280000884d3000998a300050032000800a700b5
:103290000300a0008904d1000884d3008b05e80056
:1032a0008904d1000884d3000001eb000281d20020
:1032b0002b00070001f0a1000cf0a70001f0a00016
:1032c0005e0037006420e100600032000801be00ab
:1032d0000200be00f7ff37006120e1005b00320012
:1032e0006000b800f3ff37000000200001f827005d
:1032f000f0ff37000001be00570007000470a70070
:1033000003f0a10003f8a30013003a006509b1001f
:1033100010003200090035006928e1000200350084
:1033200001002800000005000000400081804800e6
:103330008502e900fcff3a0000000600f88f420019
:10334000050035008100d1000080d3008502e8002f
:10335000fcff3a00000006008000eb0000000500c2
:1033600081002000618055000b003d000b00200013
:1033700061fe2f000100e1001d0034008281710018
:10338000610164008904d1000884d3000000e800d2
:10339000faff3a0071002000610064000300700031
:1033a000020060000900320061044400e0844c0027
:1033b0000988a500050032008b05e8006808e100d7
:1033c00002003a008904d1000884d300f20f2000e3
:1033d0000258e10005003d00c75ddd00f907b200bd
:1033e0008980750008007800000006000bf82700af
:1033f0008b007800000005000004be0016000700e6
:103400000003be000405be000200be00120007005b
:10341000844f7500000006000200be006450e10009
:10342000050036006420e100020036000968a300b0
:1034300001003a000800be000160a0004f067800bd
:103440004f05be004f04be0000000600f0ff2f0035
:10345000f1ff2700f9ff3700c70ade00f107b200cd
:10346000f50fb20008003200e1cf42000200320046
:103470000170a00024000500810f700001003200df
:103480000408050044000500810f700002003a00a6
:10349000140005008502e9000000400081c04800da
:1034a000fcff3b000170a00024000500881f78008d
:1034b000000478005001be004000be00040040003f
:1034c000858048000601490087814900009cbe00b4
:1034d0000294be000400e1000588e1000690e100ce
:1034e0000798e10002003100680044001008e8007d
:1034f0004f04780000000600f4874700889fbe0054
:103500008a9fbe008c9fbe008e1f78000205be0001
:103510000004be00d4b79f00e5b79f00f6b79f0038
:1035200087bf9f000000eb00c0b79f00b0b79f00af
:10353000a0b79f0090b79f0080b79f000d042000a8
:10354000bfb097004fb09700000140000000e000be
:103550000f003d004f08de0000007100c0b79f0063
:103560009e00070001003d0012002000a10007009e
:1035700001003d0012002000a6000700b100070076
:10358000b60007000f004000c8ff07002200370008
:103590004f08de0000067100ccb79f008f000700c7
:1035a00001003d00120020009200070001003d00d4
:1035b0001200200097000700a20007000fb297003a
:1035c0009fb297002fb39700bfb39700a9000700e1
:1035d0000000520081805a0002015b0083815b0081
:1035e00080b79f0091b79f00a2b79f00b3b79f001d
:1035f0000007eb009f0007000020e10001a8e100a8
:1036000002b0e10003b8e100010031001e0020001b
:103610000e005600c0b79f004fb297000400e000b4
:103620000700350010002000010020006011b800e4
:1036300008047000898470000a0571008b85710090
:103640008d06e900beff3a000400e00003003d00e3
:10365000820007000f00400094ff07004fa897006a
:103660000000e00004003a000fb497009fb49700f8
:103670002fb59700bfb59700940007004f0778005b
:103680004f06be004f05be004f04be004f01b10003
:1036900000000600881f780018002000881f7800ae
:1036a00095ff07008f87e9004f04780000000600af
:1036b000801feb0090ff07008f87e90000000600e5
:1036c000889fbe008a9fbe008c1f78006e00070096
:1036d00007003d0073000700e00f5b00e08f5b0018
:1036e00007003d00320007000006eb000400370031
:1036f0003400070002003d002a0007001c002000e3
:1037000072000700e3ff07000203be000002be00d4
:103710000c00e00001003200220007000400be009f
:103720000601be004f0678004f05be004f04be00e4
:1037300000000600889fbe008a9fbe008c1f780094
:103740005100070005003d0056000700e00f5b0038
:10375000e08f5b0006003d00040037001900070001
:1037600003003d006000b8006011b80010000700c1
:1037700056000700ceff07000203be000002be0095
:103780000c00e00001003200060007000400be004b
:103790000601be004f0678004f05be004f04be0074
:1037a000000006006000b8006011b800000037009b
:1037b000040250008582580006035900878359008f
:1037c000000006000006eb00e00f5200e08f5a00f8
:1037d000e00f5b00e08f5b0000000600018040000e
:1037e00090b79f000001eb008fb097000100e00050
:1037f000000006000200700090b79f0001804000aa
:1038000080b79f000001eb00ffa897000100e000d7
:10381000000006000200700080b79f000180400099
:103820006faa9700cf20de0001007000f0af9f006c
:1038300004024200250007004f18de00000272005b
:1038400000000600e4af9f000804440089844c0097
:103850000a054d008b854d00000006003fb2970021
:10386000cfb297005fb39700efb3970000fe2f0031
:10387000000006003fb09700cfb097005fb19700ff
:10388000efb19700000006000205be000004be0074
:10389000e00f5000e08f5800e00f5900e08f590012
:1038a000000006006000b8006011b8000804500075
:1038b000898458000a0559008b8559001c00200096
:1038c000e00f5200e08f5a00000006000800be0022
:1038d0000a01be000000060050088000000006003b
:1038e00017e2a9009a20a9009a40a9008a20a900fd
:1038f0008a40a90000000600a1108800b0108800ce
:10390000000006008a20a9008a40a900e741600063
:10391000c419dd00c10b200091407800f2c8b3004b
:1039200082c0600083c070008000fd00bce0b70072
:103930008000fd00800178000307b200c419de009a
:10394000d10b20009140780082cfb30082c060008c
:1039500083c070008000fd00bde0b7008000fd0066
:10396000680160004311de0002414100a10920000e
:10397000914078000114a10082c070008000fd0019
:103980009ae0b7008000fd000008b2004700de00aa
:103990004200dd00a1092000914078000124a1002f
:1039a00080c07000010078009ae0b70000000600b7
:1039b0001622a800000006001602a800000006005b
:1039c0000080fb00901088000080eb001842e200ad
:1039d0000800350019c2bf000068a300fdff3a00cf
:1039e00067010700e0ff2f001942e20001003500e7
:1039f0000000eb00000006001642a80000000600d0
:103a0000889fbe008a9fbe008c9fbe008005780004
:103a10008106780002067800800478000005eb003b
:103a2000150037001662a8000004eb000300370001
:103a30008c0f5400130031000804e80063010700f4
:103a40000004e000faff32008010800080767d00e4
:103a50008904e90002003a0016a2a800010037001c
:103a600016a2a9001682a80016c2bf000048a30033
:103a7000fdff3a000a05e8008b0f5500e9ff3a0008
:103a80008004eb00090078004f06be004f05be0021
:103a90004f04be00000006000a21ef0071088800f4
:103aa000900888000000060050088800000006000a
:103ab000301b8800411b8800000006006023a9001d
:103ac00000000600551988007619880064198800de
:103ad0008719880093198800221988001119880015
:103ae000001988000000d1006140600000404000e3
:103af00001322000914078000114a10080c07000c4
:103b00000100780020e3b70000000600641b880075
:103b1000871b8800931b8800221b8800111b8800cc
:103b2000001b88000000d1006140600000404000a0
:103b300001362000914078000114a10080c070007f
:103b40000100780060e3b70000000600111c880047
:103b5000221c8800331c8800441c8800551c8800e7
:103b6000001c880081e3a8000000060030198800ce
:103b700041198800000006002023a900000006006b
:103b800020c3bf000004a200610060000000060026
:103b90000080fb00000040000130200060807800c1
:103ba000000006001821ef00e108880000098800e5
:103bb00000000600c008880000000600c008800061
:103bc000000006009780a900e7416000210b20005b
:103bd0009140780082cfb30082c0600083c0700043
:103be0008000fd00b2e0b7008000fd0068006000ca
:103bf0004300de004400dd007109200091407800a0
:103c00000144a10080c070000100780097e0b70077
:103c1000000006008500a900e7416000810a20003d
:103c20009140780082cfb30082c0600083c07000f2
:103c30008000fd00a8e0b7008000fd006800600083
:103c40004300de0051092000914078000104a100ea
:103c500080c070000100780095e0b7000000060009
:103c60000621ef0061088800800888001061a90023
:103c70000000060084e0a900e7416000c419dd00ef
:103c8000710a200091407800f2c8b30082c0600041
:103c900083c070008000fd00a7e0b7008000fd0039
:103ca000680060004300de004700dd00410920009d
:103cb000914078000174a10080c07000010078007c
:103cc00094e0b700000006004318200093417800fc
:103cd00084cfb30084c161008001fd0084e1b7009e
:103ce0008001fd00010c8800120c8800200c880067
:103cf000000006008440a900e7416000510a20004e
:103d00009140780082cfb30082c0600083c0700011
:103d10008000fd00a5e0b7008000fd0068006000a5
:103d20004300de004200dd004109200091407800a0
:103d30000124a10080c070000100780094e0b70069
:103d40000000060086a0a900e7416000c419dd005c
:103d5000e10a200091407800f2c8b30082c0600000
:103d600083c070008000fd00aee0b7008000fd0061
:103d7000680060004300de004500dd0061092000ae
:103d8000914078000154a10080c0700001007800cb
:103d900096e0b700000006008480a900e7416000bb
:103da000610a20009140780082cfb30082c0600099
:103db00083c070008000fd00a6e0b7008000fd0019
:103dc000700060004400de004400dd004109200076
:103dd000914078000144a10080c07000010078008b
:103de00094e0b700000006008400a900e7416000ed
:103df000410a20009140780082cfb30082c0600069
:103e000083c070008000fd00a4e0b7008000fd00ca
:103e1000680160004311de004109200091407800f4
:103e2000e3cfb30083c0600082c070008000fd005b
:103e300094e0b7008000fd00700060004400de00e8
:103e4000210820009140780083c0600080c070008d
:103e50000100780082e0b7000000060021e2a9001e
:103e60009560a9009580a9008560a9008580a900ba
:103e7000000006004211880000118800111188001e
:103e8000000006008560a9008580a900e741600068
:103e9000c419dd00910a200091407800f2c8b300f7
:103ea00082c0600083c070008000fd00a9e0b70000
:103eb0008000fd00800178000307b200c419de0015
:103ec000a10a20009140780082cfb30082c0600038
:103ed00083c070008000fd00aae0b7008000fd00f4
:103ee000680160004311de004311dd00510920002c
:103ef000914078000134a10082c070008000fd0074
:103f000095e0b7008000fd000008b2004700de0029
:103f10004400dd0051092000914078000144a100d7
:103f200080c070000100780095e0b7000000060036
:103f30008000780020c2bf0066406000e64f50005d
:103f400001003200f10fb2002111880000000600cc
:103f500020c2bf0066406000e64f500002003a00f9
:103f6000301180000000060030118000f00fb20018
:103f7000000006004003880051038800000006008e
:103f800016c2bf000008a300fdff3a0016c2bf0022
:103f90000028a300faff3a0016c2bf000038a300b1
:103fa000f7ff3a0016c2bf000018a300f4ff3a0062
:103fb00016c2bf000048a300f1ff3a0019c2bf00bb
:103fc0000068a300eeff3a000000060018c2bf0020
:103fd0000000d10061006000000006008001780050
:103fe0000001780031407800005978000004e000ba
:103ff000fcff3a0003007800000006008000780013
:104000003004e000feff3a00010050000000e9002b
:10401000000006000c00fa00889fbe000004780033
:10402000cfb09700f0ff2700d0bf9f008004eb00c7
:1040300099bf9f0088bf9f00a8bf9f00200c200051
:10404000b0bf9f0078815700708057003c00070088
:104050000fb89700094878000fb89700080450007f
:10406000080078004f04be000080fa00000006003f
:104070008001eb0002003700817178008301e800c5
:10408000828f5100fcff3a00000006008001eb0027
:104090000200370061f079008301e800828f51004f
:1040a000fcff3a00000006000400fa00e0bf9f0099
:1040b000e4815700812978000002eb000f003700ef
:1040c0006fb89700904078007fb897001040780054
:1040d0000402e80080cf5000040032008180fb0021
:1040e0000080fb0000805000070037006fb8970089
:1040f0000000e800e0bf9f009309e800820f520033
:10410000efff3a000000eb000080fa00000006001c
:104110008001780000017800010037000201e8000a
:104120001204e000fdff3a003140780000597800a9
:104130000004e000fcff3a000300780000000600e5
:10414000fe874700889fbe008a9fbe008c9fbe00ee
:104150008e1f7800f0b79f000107780082bf9f0094
:104160000000eb00a0b79f009f0237008006eb0025
:1041700050c2b30080cf5000090032000100fb00a4
:10418000ffb09700a3020700e10f40009602320043
:10419000afb097008100e800a1b79f0092023700fe
:1041a0009e407800d0c2b30080cf50000c00320097
:1041b00007003c006d40500080cf50000a003200e4
:1041c0006b40400080cf50000e003a0008003700de
:1041d00000c3b30080cf50000a003a000600370049
:1041e0000d30a000050037000d00a00003003700cf
:1041f0000d10a000010037000d20a0000e07e80000
:10420000e7ff37000d18a300010032000d00a100e8
:104210000d38a300010032000d20a1000100fb00b9
:1042200002fd2f0002004000e90f50000e003e008a
:104230000002eb00c4b79f0082017800cfb2970064
:104240006a28b9001e01fb00000141000301410082
:10425000c2b79f005e00fb0003004000e90f500062
:104260000b003e00f5ff37000006eb00ccb79f00c7
:10427000a0c2b30080cf500005003a000fb89700ed
:10428000c000780080bf9f00c1b79f000e07e80004
:104290000001eb00b2b79f00e0c2b3009e4f1000d8
:1042a00018003a000de0a0008e00e80064405000c5
:1042b000914f100002003200010778000c00370017
:1042c0000fba9700c402780084bf9f00b5b79f0063
:1042d0000e87e8000b0037003fb697006a60b90010
:1042e0000000410003004000b0b79f000e07e80047
:1042f0001e01fb0003fd2f0003004100e90f5000e9
:10430000f5ff3600be407800e1d79f00c0c6b3007d
:1043100080cf5000220032000f003c006940500066
:1043200080cf50007700320004003c000104e00020
:10433000310232006b4050000f00370040c6b3001e
:1043400080cf5000930032006540400080cf500085
:104350008b003a008f00370030c7b30080cf500089
:104360001a00320007003c006440500080cf50002b
:10437000110032000040e80080cf500080003a0079
:104380000f00370050c7b30080cf500080003200cc
:104390006340400080cf500079003a0009003700a8
:1043a000000028000d48a30001003a000001200091
:1043b00080867600d3ff37000d60a00075003700bf
:1043c0000d50a0000d70a000720037008fb897004c
:1043d0004100780081bf9f00000478000000e000e9
:1043e00001003a00a80b25008004eb000100370013
:1043f0008104e80089007800088044001004e0008f
:10440000fbff3a003fb197000200e00003003200da
:10441000890f510001003100820478000002eb0096
:10442000e4af9f00cfb29700898f520002003600a0
:1044300009805200e0af9f004368de00e1066000a3
:104440001b003a000d06780009003700ffb0970006
:1044500000022000ef010700e10f400003003200de
:104460002fb097000000e800a0b79f000c06e800fe
:10447000efa89700810f5600f4ff3a000081eb008f
:10448000e2af9f000a003700880078003100fb008f
:1044900001047800ffb09700de010700e10f400043
:1044a000030032002fb297000402e800a4b79f0077
:1044b0000900e90080047800e10f4000f2ff3a00b3
:1044c0000006eb000d00e0000a003a00c6013700cc
:1044d000ffb0970000022000ce010700e10f40006e
:1044e00003003200afb297008502e800a5b79f0035
:1044f0000c06e8006fa89700800f5600f4ff3a0002
:10450000b90137008fb897004100780081bf9f0044
:10451000cf80de0001017800820178000205be0034
:104520000004be000203be000002be004822de00fe
:10453000482edd0004027600e4d79f000d48a3005a
:104540000a0032000404e00008003200e14f42009b
:104550000600320071fd2f000180470004487800fa
:10456000184098002900200002003700f0d79f0073
:104570001900200072fd2f0002844700a1ff3700c0
:1045800064fd2f0004844700190020009dff3700c0
:104590000d0cb3000d007800000cb20028003a00aa
:1045a0000d00e00005003d008fba97004505be00f4
:1045b0004504be0085bf9f00140037000d48a300ce
:1045c0000b0032000fbe97004c00be008cbf9f0056
:1045d0004f89de00cf91de000002be0002037800aa
:1045e000820378000605be000404be000700370001
:1045f0008fb897004100780081bf9f0000047800c9
:10460000cfc4de00090578008a057800e00f540069
:10461000e08f5c00e00f5d00e08f5d001f003d005b
:104620003d00b3006000b8006011b80008045000fd
:10463000898458000a0559008b85590017003700f6
:104640000d00e00005003d000fb997004205be00d7
:104650004204be0082bf9f00100037000d48a30037
:10466000070032000fba97004400be0084bf9f00cd
:104670006011b8000205be000004be00070037004c
:104680008fba97004500780085bf9f00000478002e
:10469000090020000a0020000b0020003fb6970010
:1046a0000c00e00007003a00e00f5400e08f5c00cf
:1046b000e00f5d00e08f5d0002003a001000200076
:1046c000b0b79f008d007800010cb200e1b79f00e9
:1046d00000042000808f50003000320003003c00b6
:1046e0000100e00008003200400037000008200010
:1046f0006fb19700800f510014003200000c2000b1
:10470000800f510039003a0014c0b300a501250004
:104710000b0037000400fb004300dd0005004000f3
:104720005001be004000be000040e10001c8e100b1
:1047300002d0e10003d8e1002b0039000442e80078
:10474000f44f5200f3ff3a00270037000001200029
:10475000010020006011b80014c0b3000040e10067
:1047600001c8e10002d0e10003d8e1001e003900d9
:10477000450020000000d0008180d2000281d200dc
:104780008381d2008502e900faff3a000442e80082
:10479000f04f5200f1ff3a00130037008000200074
:1047a000010020006011b80014c0b3000040e10017
:1047b00001c8e10002d0e10003d8e1000a0039009d
:1047c0003c0020000000d0008180d2000281d20095
:1047d0008381d2000c06e900faff3a000442e800a7
:1047e000f54f5200f1ff3a00e4d79f00efd0970059
:1047f0000100fb003fb19700820f500002003d0016
:10480000e2d79f00040037003fb29700800f5200ac
:1048100001003d00b0b79f00cfb297000500e00057
:104820000400320063806600020032008502e90065
:10483000c5b79f000de8a3000b0032004fb69700ec
:104840003fb09700800f560003003c008000eb0053
:10485000c1b79f00040037004fb197003fb29700e7
:1048600004015100c2b79f00efd297000500fb0082
:104870000006eb00dcaf9f00cfb09700808f5000a8
:104880000200340000805000d0af9f000d28a3002c
:1048900037003200e18066000d18a3000c003200e2
:1048a000d00220000100e00001003a000080e90091
:1048b000ffb09700d7000700e10f40000e00320064
:1048c0002fb197000201e800a2b79f000a0037004d
:1048d0000100e00008003200ffb097000002200055
:1048e000cc000700e10f4000030032002fb2970018
:1048f0000402e800a4b79f00dfaa97000500e000cb
:104900000f0032000006eb00ffb09700000320000c
:10491000c0000700e10f4000030032002fb09700f5
:104920000000e800a0b79f000c06e800dfa8970091
:10493000810f5600f4ff3a000001eb00d2af9f0058
:104940003fb29700c320dd00200125008080400099
:1049500091b79f004220dd006400500080b79f00a7
:104960006320b900f0af9f00630650008400370059
:10497000dfaa97000500e0001100320068806600a1
:104980000f003a0000067800ffb0970000022000f8
:10499000a0000700e10f4000030032002fb0970095
:1049a0000000e800a0b79f000c06e800dfa8970011
:1049b000810f5600f4ff3a000001eb00d2af9f00d8
:1049c000e18066000d18a3000c003200d002200028
:1049d0000100e00001003a000080e900ffb097000c
:1049e0008c000700e10f4000d5ff32002fb2970086
:1049f0000402e800a4b79f00d1ff37000100e000e7
:104a0000cfff3200ffb097000002200081000700b6
:104a1000e10f4000caff3200afb297008502e80004
:104a2000a5b79f00c6ff370000042000efb0970035
:104a3000808f50003100320003003c000100e00094
:104a4000080032003e003700000820006fb19700d8
:104a5000800f510011003200000c2000800f510027
:104a600037003a001fb097003002be002003be009e
:104a70000800be000a01be0006fb0700a4002000db
:104a8000050020006033b80009fb070004c3b30031
:104a900004424000e4d79f0029003700150c250090
:104aa000d5b79f000d58a30002003a00200d250045
:104ab000d0b79f0014002000050020006033b8002c
:104ac0008fb097008100e900050033000402d00098
:104ad0008582d2000683d2008783d200f9ff370097
:104ae0000800be000a01be00eafa07006f0060007d
:104af0005fb197006240780010003700140020007a
:104b0000050020006033b8000c0078000000e900c8
:104b1000050033000402d0008582d2000683d20053
:104b20008783d200f9ff37000800be000a01be00eb
:104b3000d8fa0700674060000043b000e0d79f004c
:104b4000efd097000100fb00ffb097003100070095
:104b5000e10f4000030032002fb197000201e8008e
:104b6000a2b79f001fb297006802520094b79f003f
:104b70008fb29700e482520085b79f00630656000b
:104b8000d0ff2f003fb197000090b9007faa970097
:104b90000000420063005000800f5600a2ff3a0060
:104ba0000d38a30010003200dfaa97000500e000d6
:104bb0000d0034000006eb00ffb09700000220005b
:104bc00014000700e10f4000030032002fb09700ef
:104bd0000000e800a0b79f000c06e800dfa89700df
:104be000810f5600f4ff3a00be407800e1d79f00e5
:104bf0000104e0005dfd3a002fb097004f077800f8
:104c00004f06be004f05be004f04be00ef01b100cd
:104c100000000600889fbe000001780001047800b3
:104c2000b10090000118a3003d0032000198a300dc
:104c300003003a00180090000000e00038003a003d
:104c40000190a0003104980082047800f90fb200ae
:104c5000180090000000e00002003a0028009000d8
:104c6000000c7800ea8f540006003a0038009000eb
:104c70000078a30003003a0088007800d0002000ec
:104c8000e4ff07009800900058009000808f5000cb
:104c90000b0032000100e8001004980018007800b2
:104ca00009587800000c780011c0b300c01225002c
:104cb00001487800ea8f54000600320019003700de
:104cc0008800780009407800190007008004780007
:104cd00014003700380090000088a3001100320053
:104ce00018019000a8009000480090001af80700f2
:104cf00098009000810f50000400320038009000ae
:104d00000003b300300498008084eb000000eb0047
:104d10001004980028009000000c78000100370073
:104d20008084eb00090078004f04be0000000600fc
:104d30000200fa00889fbe00a0ff9f0001047800d7
:104d4000b1009000810478000904b2000200320032
:104d50000000fb00360037000118a30005003a00f0
:104d60000103b30031049800190498000080eb009f
:104d70002f003700580090000000e00006003a00c5
:104d80004800900012002000e6805700f2f707006c
:104d90001904980024003700280090000000e0006b
:104da00008003a008012250020049800000c7800ca
:104db0002000200050049800100498000130a0004a
:104dc0003104980018019000a8009000480090005d
:104dd000e1f7070028009000000c78000080eb004d
:104de0001004980018007800aff897000158780078
:104df000000c78002ff89700ea4f50000a003a00a4
:104e0000380090000088a3000700320018019000cd
:104e1000a800900048009000cff707001904980000
:104e2000a8009000010c7800aff897000100fb008b
:0c4e30004f04be000080fa0000000600e5
:020000040000fa
:0200000401f009
:04000000feff0000ff
:020000040000fa
:0200000401f009
:04000400feff0000fb
:020000040000fa
:0200000401f009
:04000800fbff0000fa
:020000040000fa
:0200000401f009
:04000c007bff000076
:020000040000fa
:0200000401f009
:04001000bdff000030
:020000040000fa
:0200000401f009
:040014007fff00006a
:020000040000fa
:0200000401f009
:04001800ffff0000e6
:020000040000fa
:0200000401f009
:04001c00deff000003
:020000040000fa
:020000040001f9
:1000000000ff0000048000008000000019000000d4
:10001000ffff0000ff010000ffff0000ff010000e4
:10002000ffff0000ff010000ffff0000ff010000d4
:10003000ffff0000ff010000ffff0000ff010000c4
:10004000ffff0000ff010000fff80000ff010000bb
:100050007ff00000ff0100007ff00000ff010000c2
:100060003f300000ff0100003f300000fe010000b3
:100070003f300000fe0100003f300000fc010000a6
:100080003f300000fc0100003f300000f80100009c
:100090003f300000f80100003f300000f801000090
:1000a0003f300000f80100003f300000f801000080
:1000b0003f300000f80100003f300000f801000070
:1000c0003f340000f80100003f3c0000f801000050
:1000d0003ffc0000f80100003ffc0000f8010000b8
:1000e0003ffc0000f80100003ffc0000f8010000a8
:1000f0003ffc0000f80100003ffc0000f801000098
:100100003f780000f80100003f000000f801000007
:100110003f000000f80100003f000000f80100006f
:100120003f000000f80100003f000000f80100005f
:100130003f000000f80100003f000000f80100004f
:100140007f000000f80100007f000000f8010000bf
:10015000ff000000f8010000ff000000fc010000ab
:10016000ff010000fc010000ff030000fe01000091
:10017000ffff0000ff010000fff90000ff01000089
:10018000fff00000ff0100007fe00000ff01000021
:100190007f600000fe0100003f200000fc01000025
:1001a0003f000000fc0100003f000000f8010000db
:1001b0003f000000f80100003f000000f8010000cf
:1001c0003f000000f80100003f000000f8010000bf
:1001d0003f000000f80100003f000000f8010000af
:1001e0003f000000f80100003f000000f80100009f
:1001f0003f000000f80100003f040000f80100008b
:100200003f4c0000f80100003fcc0000f801000066
:100210003fcc0000f80100003fcc0000f8010000d6
:100220003fcc0000f80100003fcc0000f8010000c6
:100230003fcc0000f80100003fcc0000f8010000b6
:100240003fcc0000f80100003f4c0000f801000026
:100250003f040000f80100003f000000f80100002a
:100260003f000000f80100003f000000f80100001e
:100270003f000000f80100003f000000f80100000e
:100280003f000000f80100003f000000f8010000fe
:100290003f000000f80100003f000000f8010000ee
:1002a0003f000000fe0100003fc00000ff01000011
:1002b0003ffc0000ff010000bfff0000ff01000045
:1002c000ff7f0000f8010000ff1f0000f8010000a0
:1002d000ff030000f8010000ff010000f80100002a
:1002e000ff000000f80100007f000000f80100009e
:1002f0007f000000f80100003f000000f80100004e
:100300003f000000f80100003f000000f80100007d
:100310003f000000f80100003f000000f80100006d
:100320003f000000fc0100003f000000fe01000053
:100330003f800000ff0100003fe00000ff010000df
:100340003ff80000ff0100003ffc0000ff0100003b
:100350003ffc0000ff0100003ffc0000ff01000027
:100360003ffc0000ff0100003ffc0000ff01000017
:100370003ffc0000ff0100003ff00000ff01000013
:100380003ff00000ff0100003ff00000ff0100000f
:100390003ff00000ff0100003ff00000ff010000ff
:1003a0003ff00000ff0100003ff00000ff010000ef
:1003b0003ff00000ff0100003ff00000ff010000df
:1003c0007ff00000ff0100007ff00000ff0100004f
:1003d000fff00000ff010000fff90000ff01000036
:1003e000ffff0000ff010000ffff0000ff01000011
:1003f000ffff0000ff010000ffff0000ff01000001
:10040000ffff0000ff010000ffff0000ff010000f0
:1004100000050000050500000101000001010000c9
:1004200001010000010100000101000001010000c4
:1004300001010000050500000505000001010000a4
:1004400001010000010100000101000001010000a4
:100450000109000001030000010200000101000089
:10046000090100000101000001010000010100007c
:100470000109000002040000010300000301000064
:10048000010100000101000001040000040100005e
:100490000101000001010000010100000101000054
:1004a0000101000001010000010100000101000044
:1004b0000101000001010000010100000101000034
:1004c0000101000001010000010100000101000024
:1004d0000101000001010000010100000101000014
:1004e00001040000010100000101000001040000fe
:1004f00004040000040100000101000001010000eb
:1005000001010000010100000101000001010000e3
:1005100004010000010400000401000001010000ca
:1005200001010000010100000101000001010000c3
:1005300001010000010100000101000001010000b3
:10054000010300000303000001010000000000009f
:10055000ce4d0000c84d0000c24d00002a4d0000e5
:10056000294d0000284d0000d44d0000b24d000080
:10057000ac4d0000b84d0000cc4d0000c64d000051
:10058000be4d0000d24d0000cd4d0000a04a00003d
:100590009f4a0000ba4d0000b44d0000ae4d00006f
:1005a000a84d0000a64d00009e4d0000a44d000087
:1005b000a24d0000a04d00009f4d0000a54d000081
:1005c000a34d0000a14d0000264d00009d4d0000f0
:1005d000244c00009b4d0000d64d00009a4d0000b9
:1005e000a14a0000a44a00006a4a0000f64a00003e
:1005f000274d00002f4d00002d4d00002c4d000018
:100600002b4d0000304d00002e4d0000e04a000050
:10061000344d0000d84a0000d64a0000d94a0000f4
:10062000f04a0000f24a0000ee4a0000a54a00002d
:10063000f44a0000894a0000c14a0000ba4a00009a
:10064000bc4a0000b44a0000b14a0000a94a0000b8
:10065000c04a0000a84a0000be4a0000b64a000096
:10066000b24a0000aa4a0000c24a0000ac4a000098
:10067000ae4a0000c34a0000c44a0000e94a000034
:10068000ca4a0000d24a0000ce4a0000e54a0000f3
:10069000eb4a0000db4a0000de4a0000da4a0000b4
:1006a000e64a0000df4a0000ad4a0000ab4a000005
:1006b000b04a0000a74a0000c94a0000c84a00002a
:1006c000ec4a0000e44a0000d34a0000d44a00008b
:1006d000dc4a0000e14a0000dd4a0000ea4a00006e
:1006e000e34a0000ed4a0000e74a0000e24a000049
:1006f0009c4a0000854a0000844a0000834a0000aa
:10070000864a0000824a0000944a0000904a000095
:100710008c4a0000984a0000874a00007c4a00008a
:100720009a4a00008a4a0000964a0000924a000055
:100730008e4a00007d4a0000804a0000884a00007e
:100740009e4a00009b4a0000324d00007e4a000095
:10075000814a00009c4d0000cc4a0000d04a0000b5
:10076000724a0000754a00006e4a0000734a000099
:10077000764a00006f4a0000744a0000774a000081
:10078000704a0000784a0000624a00007a4a00007d
:10079000714a0000634a0000204b0000214b00001a
:1007a000c64a0000c74a0000794a00006b4a0000b0
:1007b000684a0000664a0000644a00007b4a000064
:1007c000314d0000010000000100000001000000a8
:1007d0000100000001000000010000000100000015
:1007e0000100000001000000000000000100000006
:1007f00001000000010000000100000001000000f5
:1008000001000000010000000100000001000000e4
:1008100001000000000000000100000000000000d6
:1008200000000000000000000000000001000000c7
:1008300000000000010000000100000001000000b5
:1008400000000000010000000100000001000000a5
:100850000100000001000000000000000200000094
:100860000300000000000000000000000000000085
:100870000100000000000000010000000100000075
:100880000000000001000000010000000100000065
:100890000100000000000000010000000000000056
:1008a0000100000000000000010000000100000045
:1008b0000000000000000000000000000000000038
:1008c0000000000001000000000000000000000027
:1008d0000100000001000000010000000100000014
:1008e0000100000001000000010000000100000004
:1008f00001000000000000000100000002000000f4
:1009000003000000040000000500000000000000db
:1009100000000000010000000100000001000000d4
:1009200002000000030000000000000000000000c2
:1009300001000000000000000100000002000000b3
:1009400003000000010000000000000001000000a2
:100950000100000000000000010000000100000094
:100960000100000001000000010000000100000083
:100970000100000001000000010000000100000073
:100980000100000000000000010000000000000065
:100990000100000001000000000000000100000054
:1009a0000100000001000000010000000100000043
:1009b0000100000000000000000000000100000035
:1009c0000100000001000000010000000000000024
:1009d0000100000001000000010000000100000013
:1009e0000100000000000000010000000100000004
:1009f00001000000020000000300000001000000f0
:100a000001000000010000000100000001000000e2
:100a100001000000010000000100000001000000d2
:100a200001000000010000000100000000000000c3
:100a300001000000010000000100000001000000b2
:100a400001000000010000000100000001000000a2
:100a50000000000001000000000000000100000094
:100a60000000000001000000000000000100000084
:100a70000100000000000000010000000100000073
:100a80000000000001000000000000000000000065
:100a90000100000001000000010000000100000052
:100aa0000100000000000000010000000100000043
:100ab0000000000000000000010000000100000034
:100ac0000000000001000000010000000100000023
:100ad0000100000000000000000000000000000015
:100ae0000000000001000000010000000100000003
:100af00001000000010000000100000001000000f2
:100b000001000000010000000000000000000000e3
:100b100001000000000000000100000002000000d1
:100b200003000000040000000500000006000000b3
:100b30000700000008000000090000000a00000093
:100b40000b0000000c0000000d0000000e00000073
:100b50000f00000000000000010000000200000083
:100b60000100000053c0000038c000000fc00000aa
:100b7000f7bf0000c6bf0000aebf000095bf000079
:100b80006cbf000054bf000080bd00003cbd0000f1
:100b900015bd0000fdbc0000d8bc0000c0bc0000ba
:100ba000afbc000086bc00006ebc000045bc00006d
:100bb0002dbc000010bc0000f3bb000063bb0000b4
:100bc0009cba0000deb9000072b9000058b90000fc
:100bd0009bb800008bb800007bb8000064b8000030
:100be00052b8000040b8000027b8000010b800005c
:100bf000f9b70000e2b7000032b7000012b70000fa
:100c0000f6b60000acb6000035b6000025b6000010
:100c10000bb60000fbb50000dcb50000c5b5000058
:100c2000a1b4000074b4000049b400001ab400007c
:100c3000f1b30000cdb3000058b3000043b300008f
:100c400030b3000023b3000083b200004db20000b7
:100c500019b2000003b20000e7b1000071b100005a
:100c6000c6b0000088b000004db0000030b00000f9
:100c700012b00000f4af0000dcaf0000ccaf000009
:100c8000b4af00008baf000062af000035af0000d2
:100c900008af0000f0ae0000d8ae0000b4ae000017
:100ca00094ae000078ae000060ae00003cae0000e4
:100cb000f4ad0000a7ad000059ad00001fad00006d
:100cc00003ad0000e7ac00003bac000021ac00002d
:100cd00003ac0000ebab0000d3ab0000afab0000f7
:100ce0008fab000066ab000048ab000032ab0000e9
:100cf0001aab0000f2aa0000cfaa0000aeaa0000c2
:100d00009daa000076aa00004faa000028aa0000b1
:100d100003aa0000dca90000b5a900008ca900000e
:100d20007ba9000065a9000038a900000fa60000fb
:100d3000f6a50000e5a5000036a500001fa50000ef
:100d40000ea50000eda40000dda40000bca400007e
:100d5000aba40000f3a300008da3000010a30000cb
:100d600093a2000016a20000a1a100007ea1000035
:100d700061a10000d1a000009ea0000067a00000bb
:100d800036a00000489e0000179e0000f29d000063
:100d9000d69d0000ba9d00009e9d0000639d00004e
:100da0003e9d0000179d0000f09c0000e09c0000ac
:100db000d09c0000c09c0000b39c0000a69c0000da
:100dc000999c00006c9c00005b9c00004e9c000005
:100dd000419c0000319c0000009c0000f09b000042
:100de000d39b0000b69b0000999b0000209b000055
:100df000f99a0000e19a0000ba9a0000a29a000055
:100e00007b9a0000639a00003c9a0000249a00003c
:100e1000a19900007699000058990000d59800002b
:100e2000aa9800008c980000469600009795000054
:100e3000749500004d95000028950000189500005d
:100e4000f3940000639400007d930000549200002e
:100e5000479200003a92000012920000be910000fa
:100e60007f9100004491000030910000a8900000a4
:100e700069900000688e00001e8d0000e88b000065
:100e80007c8a0000648a00004c8a0000338a0000db
:100e90001b8a0000028a0000ea890000d189000054
:100ea000c4890000a18900009189000068890000c0
:100eb0000e890000fa880000e6880000d288000051
:100ec000be880000ae8800009c8800008a88000070
:100ed000788800006688000054880000428800007e
:100ee0002c8800001688000002880000ea870000b5
:100ef000d2870000be870000ac8700009887000002
:100f00008287000001000000550000000000000082
:100f1000000000000001000005040000ab88000094
:100f200009900000296e0000a65e0000000000008d
:100f30000100000055000000000000004800000013
:100f400000010000ff030000320000003400000038
:100f50003500000000000000010000005500000006
:100f6000000000004800000000010000ff02000037
:100f700041000000500000000000000001000000df
:100f800055000000000000004800000000010000c3
:100f9000ff030000320000003400000035000000b4
:100fa00000000000010000005500000000000000eb
:100fb0004800000000010000ff0500004e00000096
:100fc000500000003100000030000000350000003b
:100fd00000000000010000005500000000000000bb
:100fe0004800000000010000ff0500004e00000066
:100ff0005400000032000000300000003500000006
:10100000000000000100000055000000000000008a
:101010004800000000010000ff0300003200000053
:101020003400000035000000000000000100000056
:101030005500000000000000480000000001000012
:10104000ff04000034000000350000003000000004
:10105000300000000000000001000000550000000a
:10106000000000004800000000010000ff04000034
:1010700031000000350000003000000030000000aa
:10108000000000000100000055000000000000000a
:101090004800000000010000ff02000044000000c2
:1010a0005200000000000000010000005500000098
:1010b000000000004800000000010000ff020000e6
:1010c0004400000053000000000000000100000088
:1010d0005500000000000000480000000001000072
:1010e000ff02000044000000530000000000000068
:1010f0000100000055000000000000004800000052
:1011000000010000ff020000480000005400000041
:101110000000000001000000550000000000000079
:101120004800000000010000ff0200005000000025
:101130004100000000000000010000005500000018
:10114000000000004800000000010000ff02000055
:1011500050000000410000000000000001060000f7
:1011600055000000000000004800000000ff0000e3
:101170009d00000003000000e400000001000000ea
:1011800055000000000000004800000000010000c1
:10119000ff030000320000003400000035000000b2
:1011a00000000000010000005500000000000000e9
:1011b0004800000000010000ff03000032000000b2
:1011c00031000000300000000000000001000000bd
:1011d0005500000000000000480000000001000071
:1011e000ff0300003200000031000000300000006a
:1011f0000000000001000000550000000000000099
:101200004800000000010000ff0300002d00000066
:101210002d0000002d00000000000000050400006b
:10122000550f0000c0200000000000000001000079
:1012300000f80000ff1e000000150000000600007e
:1012400055030000ea2200004800000000ff0000f3
:10125000ff08000000ff0000240000000200000062
:101260001f000000095000000000000000480000be
:1012700000000000001000000300000008560000fd
:1012800001e800002350000000000000fdff000006
:10129000ff330000000000005603000000200000a3
:1012a00000000000001c0000000b00000001000016
:1012b000ff06000053000000650000006c00000005
:1012c00065000000630000007400000000000000e2
:1012d000030900005000000000000000480000006a
:1012e000000000001003000000080000550000008e
:1012f000690300005000000000ff000035000000fe
:1013000006570000016800000248000000000000cd
:1013100002000000ff24000000020000001f000087
:1013200000010000065500000069000000500000a8
:1013300000000000019c00000002000000d200003c
:101340000002000000550000004000000000000006
:101350000000000001050000024900007ba700001a
:101360007e00000000060000570100004000000061
:10137000000000000003000000ff00002400000047
:10138000020000001f00000001040000550c0000d6
:10139000200000000000000000130000000a000010
:1013a000000200000950000000000000004800009a
:1013b00000000000001800000000000008550000b8
:1013c000000a0000000000000100000003ff000010
:1013d0009b00000002090000500000000000000017
:1013e0004800000000000000180000000008000095
:1013f00055000000290000005000000000ff000020
:101400009b000000020900005000000000000000e6
:10141000480000000000000010000000000800006c
:10142000550000000a000000000100000003000059
:10143000ff9a0000000200000950000000000000b8
:101440000048000000000000001800000300000039
:1014500008550000002900000050000000000000b6
:10146000ff9a000000020000095000000000000088
:101470000048000000000000001000000000000014
:1014800008550000000a00000000000001000000f4
:1014900003ff000099000000020900005000000056
:1014a00000000000480000000000000010000000e4
:1014b0000008000055000000290000005000000056
:1014c00000ff00009900000001000000550000002e
:1014d000008000004800000000010000ff0500003f
:1014e0005200000065000000610000006400000080
:1014f000790000000000000011040000500c000002
:101500004200000048000000008000000040000091
:1015100000000000500200006902000050000000be
:10152000000700000001000000040000540000005b
:101530006f0000006f0000006c0000000000000061
:1015400006570000015100000048000000000000a4
:1015500004000000017f00000010000000d4000023
:1015600000090000500000000000000048000000da
:1015700000000000180000000008000054010000f6
:10158000c103000000010000000100008000000015
:10159000011100000000000056000000e8000000fb
:1015a0005000000000010000ff0100002f000000bb
:1015b000000000000856000000c10000000000000c
:1015c00001000000010100001000000000560000b2
:1015d00001d10000024800000100000002fc0000f0
:1015e000ff01000000040000500000006f00000038
:1015f00072000000740000000000000006500000af
:101600000310000020000000000000004d0000005a
:10161000feff0000ff0f00000001000000bc000002
:1016200000000000500200005100000048000000cf
:101630000024000000010000000000000000000085
:101640000050000003000000000000000000000047
:101650000500000028000000010300000553000001
:10166000006c0000006500000065000000700000d4
:101670000000000000000000500300000000000017
:1016800000000000005200000028000000010000df
:1016900001060000330000003500000030000000ab
:1016a00020000000ba00000043000000000000001d
:1016b00000500000030000000000000000000000d7
:1016c000200000001600000001000000115400007e
:1016d000006f0000006f0000006c000000200000a0
:1016e00000690000006e000000200000007400008f
:1016f000006800000065000000200000007300008a
:101700000074000000610000006e00000064000032
:101710000000000000000000500300000000000076
:1017200000000000001f0000003a0000000100005f
:10173000000f000050000000720000006500000073
:101740002d00000073000000650000007400000020
:1017500020000000200000002000000032000000f7
:101760003200000030000000ba000000430000001a
:1017700000000000095000000000000000480000c8
:1017800000000000001000000000000006500000f3
:1017900002000000220000000000000035000000f0
:1017a000009800000001000000ff0000ff0600009c
:1017b000500200002020000000000000000900008e
:1017c00000ff00009600000001000000b9000000ca
:1017d0000f040000500c0000420000004800000010
:1017e00000800000004000000000000050020000e7
:1017f0006902000050000000000700000001000026
:1018000000040000540000006f0000006f000000a2
:101810006c000000000000000657000001510000ad
:10182000004800000000000004000000017f0000ec
:101830000010000000d4000000090000500000006b
:101840000000000048000000000000001800000038
:101850000008000054010000c10300000001000066
:1018600000010000800000000111000000000000e5
:1018700056000000e80000005000000000010000d9
:10188000ff0100002f0000000000000008560000cb
:1018900000c1000000000000010000000101000084
:1018a000100000000056000001d1000002480000b6
:1018b0000100000002fc0000ff0100000004000025
:1018c000500000006f000000720000007400000073
:1018d000000000000650000003100000200000007f
:1018e000000000004d000000feff0000ff0f0000a0
:1018f0000001000000bc00000000000050020000d9
:101900005100000048000000002400000001000019
:101910000000000000000000005000000200000075
:1019200000000000000000002b0000000103000088
:101930000b48000000690000006200000065000024
:1019400000720000006e00000061000000740000e2
:1019500000690000006f0000006e00000000000041
:1019600000090000500000000000000048000000d6
:101970000000000010000000000000005003000004
:10198000000000000000000000610000002b0000cb
:1019900000010000010500003300000035000000d8
:1019a00030000000ba00000043000000000000000a
:1019b00000500000030000000000000000000000d4
:1019c0002900000016000000010000000b4100008b
:1019d0000066000000740000006500000072000056
:1019e0000020000000730000006c00000065000093
:1019f0000065000000700000000000000000000012
:101a00005003000000000000000000000032000051
:101a1000003c000000010000000700004e00000034
:101a20006f0000002000000068000000650000005a
:101a30006100000074000000000000000f040000be
:101a4000500c000042000000480000000080000030
:101a50000040000000000000500200006902000089
:101a6000500000000007000000010000000400001a
:101a7000540000006f0000006f0000006c000000c8
:101a8000000000000657000001510000004800005f
:101a90000000000004000000017f000000100000b2
:101aa00000d4000000090000500000000000000009
:101ab00048000000000000001800000000080000be
:101ac00054010000c10300000001000000010000fb
:101ad000800000000111000000000000560000001e
:101ae000e80000005000000000010000ff010000bd
:101af0002f000000000000000856000000c1000098
:101b000000000000010000000101000010000000c2
:101b10000056000001d10000024800000100000052
:101b200002fc0000ff010000000400005000000063
:101b30006f00000072000000740000000000000050
:101b4000065000000310000020000000000000000c
:101b50004d000000feff0000ff0f0000000100002c
:101b600000bc000000000000500200005100000016
:101b700048000000002400000001000000000000f8
:101b80000000000000500000020000000000000003
:101b90000000000029000000010300000b480000c5
:101ba0000069000000620000006500000072000093
:101bb000006e000000610000007400000069000079
:101bc000006f0000006e000000000000000900002f
:101bd000500000000000000048000000000000006d
:101be0001000000000000000500300000000000092
:101bf000000000000061000000290000000100005a
:101c00000105000033000000350000003000000036
:101c1000ba00000043000000000000000050000077
:101c2000030000000000000000000000150000009c
:101c3000160000000100000015540000006f0000b5
:101c4000006f0000006c0000002000000069000030
:101c5000006e00000020000000740000006800001a
:101c60000065000000200000006500000078000012
:101c700000740000007200000061000000630000ba
:101c800000740000006f00000072000000000000ff
:101c900000000000500300000000000000000000f1
:101ca00000320000003a00000001000000070000c0
:101cb0004e0000006f0000002000000068000000df
:101cc00065000000610000007400000000000000da
:101cd00021040000500c00004200000048000000f9
:101ce00000800000004000000006000050030000db
:101cf000000000000000000000160000000e0000c0
:101d000000ff00008e00000002000000bf00000085
:101d100006500000035100000248000000000000cf
:101d20000f0000000c000000008f00000001000008
:101d300000e7000000060000540100005100000010
:101d400000000000000600000000000090000000fd
:101d500001000000bd0000000657000001690000fe
:101d6000005000000000000004000000019100008d
:101d70000001000000d10000000600005400000037
:101d80005102000048000000000000009200000026
:101d900001000000d00000000655000001e900002d
:101da00003500000000000005d00000001850000fd
:101db0000001000000cd00000006000055000000fa
:101dc000e90000005000000000ff00008600000055
:101dd00001000000ce0000000655000000e90000f0
:101de0000050000000000000ff870000000100001c
:101df00000c100000006000055010000e9000000dd
:101e00005000000000e70000ffff00008800000015
:101e100001000000cb0000000655000000e90000b2
:101e20000050000000000000ff89000000010000d9
:101e300000cc00000006000055000000e900000092
:101e40005000000000ff00008a00000001000000b8
:101e5000c10000000655000001e90000005000002c
:101e600000000000e7ff0000ff8b00000001000001
:101e700000c900000006000055000000e900000055
:101e80005000000000ff00008c0000000100000076
:101e9000ca000000065500000029000000500000a4
:101ea00000000000ff8d00000001000000c10000e4
:101eb000000000005003000051020000000000007c
:101ec00000050000003b00000001000005020000ca
:101ed0009f520000877300000000000000540000c3
:101ee00001d10000020000000100000003390000e1
:101ef00000010000010100002500000000000000ba
:101f00000950000000000000004800000000000030
:101f100000180000030000000856000001c1000086
:101f200002000000080000000e0000000601000092
:101f3000fdff0000019300000002000054050000b6
:101f40004100000000000000003c000000430000d1
:101f50000002000054090000000000000000000022
:101f6000004d000000fe0000ff02000054090000c8
:101f70000000000000000000005e000000fc000007
:101f8000ff020000540900000000000000000000f3
:101f9000006f000000fe0000ff0200005409000076
:101fa0000000000000000000007f000000fc0000b6
:101fb000ff04000054490000410000004000000000
:101fc000003c000000fa0000ff940000000900003f
:101fd00050000000000000000000000000000000b1
:101fe000090000000008000050030000000000008d
:101ff00000000000005500000028000000ff000065
:102000002500000006500000030000000000000052
:10201000000000005100000020000000ff2500002b
:102020000001000000bb000000090000500000009b
:102030000000000000000000000000001800000088
:1020400000060000500200002022000000000000f6
:10205000000d000000ff00009500000001000000de
:10206000ba0000000650000002200000200000001e
:10207000000000000d000000ff96000000010000bd
:1020800000b90000000600005003000051020000eb
:1020900048000000000e0000000d000000000000dd
:1020a0009700000001000000be0000000650000084
:1020b0000351000002480000000000001000000072
:1020c0000d000000002700000001000000c2000019
:1020d00000020000045500000c0200000000000097
:1020e0000000000058000000260000000b55000012
:1020f0000d010000000000000000000011000000c1
:10210000360000002500000001030000ff0200006f
:1021100002120000000d00004f00000075000000da
:1021200074000000200000006f0000006600000046
:10213000200000006c000000690000006d0000003d
:10214000690000007400000073000000000000003f
:1021500003040000550c0000020000000000000015
:102160000064000000290000000300005a0f000076
:10217000010000000000000000010000000100005c
:102180000062000000270000000000000b55000066
:102190000f0100000000000000000000010000002e
:1021a00001000000600000002500000001010000a7
:1021b000ff020000020d000000280000480000009f
:1021c0006f0000006c0000006400000020000000b0
:1021d0006f0000006e0000006c000000790000003d
:1021e000200000006f0000006e000000650000008d
:1021f00020000000740000006f0000006f0000006d
:102200006c00000020000000740000006f0000005f
:102210002000000063000000680000006100000072
:102220006e00000067000000650000002000000054
:1022300074000000650000006d00000070000000e8
:1022400065000000720000006100000074000000e2
:102250007500000072000000650000000000000032
:10226000010000005500000029000000500000009f
:1022700000010000ff0300002d0000002d00000001
:102280002d0000000000000004040000550c0000b8
:102290000100000000000000005d000000220000be
:1022a000000900005000000000000000480000008d
:1022b00000000000180300000008000056030000a2
:1022c0004a0300000008000000220000000d00008a
:1022d00001030000001a00000004000023000000b9
:1022e0000657000000280000005000000000000019
:1022f0000424000000020000001f00000004000091
:10230000045500000d020000000000000000000065
:10231000010000005d0000002200000009500000e4
:10232000000000000048000000000000001800004d
:1023300003000000085600000351000003000000e5
:1023400008000000220000000d010000060000004f
:1023500018000000042300000006000057020000df
:10236000280000005000000000f90000ff030000fa
:1023700024000000020000001f0000000304000011
:10238000550c000002000000000000000069000081
:1023900000290000000300005a0f000001000000a7
:1023a00000000000000100000001000000660000c5
:1023b00000270000000000000b5500000f01000086
:1023c000000000000000000001000000010000000b
:1023d000630000002500000001050000ff0200006e
:1023e00002130000000e0000296e0000a65e00002f
:1023f000f25d0000fa5600009a5b00002c0000001d
:1024000020000000db8f0000fa5100003b4e00006e
:10241000dc83000055530000e3890000649600004f
:102420000000000002040000550e00000200000041
:1024300000000000000200000048000000f300005f
:10244000ff0000005603000001800000480000006b
:102450000001000000fe0000ff0100000504000074
:10246000969300009a5b0000ab6e0000a65e000031
:102470000000000001040000550c000042000000b4
:102480004000000000320000000a000000010000cf
:10249000045500000c0200000000000000000000d5
:1024a000140000000c0000000f040000550c000098
:1024b0004200000048000000007f000000320000e1
:1024c0000000000055030000a900000050000000bb
:1024d000003f0000000a00000001000001090000a8
:1024e00053000000650000006c0000006500000063
:1024f0006300000074000000690000006e0000002e
:1025000067000000000000000055000003a9000063
:102510000250000000000000faff00000e00000062
:10252000010000001254000000650000006d000072
:1025300000700000006500000072000000610000f3
:1025400000740000007500000072000000650000cb
:1025500000200000006c0000006500000076000014
:1025600000650000006c0000007300000000000027
:1025700000060000570100000000000000000000fd
:102580000008000000ff000024000000020000001e
:102590001f00000000140000036800000248000053
:1025a000000000000300000017000000010600000a
:1025b00001630000000000000000000014010000a2
:1025c00068020000480000000071000000010000e7
:1025d0000601000062000000000000000656000036
:1025e00003e900000050000000000000f9ff0000b7
:1025f000fdff0000018500000001000000cd00008b
:102600000006000055000000e90000005000000036
:1026100000ff00008600000001000000ce00000066
:102620000655000000e90000005000000000000016
:10263000ff8700000001000000c10000000600004c
:1026400057010000e90200005000000000de000019
:10265000ffff00008800000001000000cb00000028
:102660000655000000e900000050000000000000d6
:10267000ff8900000001000000cc000000060000ff
:1026800055000000e90000005000000000ff0000bd
:102690008a00000001000000c10000000657000091
:1026a00001e900000050000000000000deff000013
:1026b000ff8b00000001000000c9000000060000c0
:1026c00055000000e90000005000000000ff00007d
:1026d0008c00000001000000ca0000000655000048
:1026e00000e900000050000000000000ff8d000025
:1026f0000001000000c10000000e00004450000076
:102700000c4200000048000000000000447f000070
:10271000003f00000000000055030000a902000077
:1027200050000000003f0000001100000001000008
:1027300005060000e55d00005c4f0000296e00000a
:10274000a65e000009900000e962000000000000a1
:10275000405000000328000000500000000000006e
:102760001116000000220000000100000502000018
:10277000006700000f5c000000000000095000002e
:1027800000000000004800000000000000100000f1
:10279000030000000817000001690000234000004a
:1027a0000000000003000000008300000040000063
:1027b000540100002800000050000000000100004b
:1027c0003e00000001050000020000006727000035
:1027d0005900000000090000500000000000000047
:1027e0004800000000000000100300000008000086
:1027f00017010000692300004000000000030000f2
:1028000000000000840000000657000001290000bd
:102810000250000000000000010000000024000041
:1028200000020000001f000000000000150300006f
:10283000680200004800000000f40000ff130000e0
:10284000000100000601000062000000000000001e
:1028500006550000012900000250000000000000a1
:10286000e6ff00000324000000020000001f00003b
:1028700000090000500000000000000048000000b7
:10288000000000001803000000080000160100000e
:10289000e92300004000000000fa0000ff030000f0
:1028a000330000000015000001680000024800002d
:1028b00000000000cbff00000106000001630000e3
:1028c0000000000000080000045000000c4200005e
:1028d00000480000000000008000000040000000f0
:1028e0000950000000000000004800000000000047
:1028f00000100000000000000850000003c10000ac
:102900000000000001000000017f0000000700003f
:10291000000000001100000000560000010000004f
:102920000000000000000000ffff000001ff0000a9
:10293000012f000000000000000800005601000008
:10294000c10000000001000000010000feff0000c7
:10295000ff100000000600005003000010200000df
:1029600000000000006c000000ff0000ffff0000fe
:102970008200000001000000bc00000000500000c8
:1029800003910000800000000000000040000000f3
:10299000160000000103000007570000004100007e
:1029a00000520000004e000000490000004e0000f0
:1029b0000047000000000000000d0000500e000065
:1029c000510200000000000000180000007f00001d
:1029d0000027000000000000ff21000000020000ae
:1029e000020a000000030000055500000069000015
:1029f0000250000000000000002300000009000059
:102a00005000000020000000000000000000000056
:102a100010010000000800005701000040200000e5
:102a20000000000000040000000100001000000091
:102a300001060000550000002800000050000000c2
:102a400000ff00008100000002000000af00000055
:102a500001000000050000000080000048010000a7
:102a6000000f000001ff00000b530000006c00008d
:102a700000650000006500000070000000200000fc
:102a80000064000000650000006c000000610000b0
:102a9000007900000000000000030000065500005f
:102aa000000000000000000000000000ff24000003
:102ab00000020000001f00000009000005000000e7
:102ac00000000000480000000000000010040000aa
:102ad0000008000056000000e80000005000000060
:102ae00000ff000080000000010000000500000061
:102af0000080000048010000000f000001ff0000fe
:102b00000a530000006c0000006500000065000032
:102b1000007000000020000000740000006500004c
:102b2000006d0000007000000000000000080000c0
:102b3000045000000c0200000048000000000000eb
:102b4000800000004000000005000000039100002c
:102b500002480000000000004000000008000000e3
:102b6000013300000000000000030000918200001b
:102b700048010000000f0000400000001c000000a1
:102b8000010000000d53000000610000007600000d
:102b900000650000002000000063000000680000e5
:102ba00000610000006e000000670000006500008a
:102bb00000730000003f0000000000000000000063
:102bc00050030000408000000001000000030000ee
:102bd0000d0000003500000001010000024e000061
:102be000006f00000000000000000000570300001c
:102bf0002800000050000000000300000003000057
:102c00000001000006010000630000000000000059
:102c10000050000003c00000800000000100000020
:102c20000365000000350000000100000103000002
:102c30005900000065000000730000000000000063
:102c400000570000032800000050000000000000b2
:102c50000f000000030000000106000001620000f8
:102c600000000000000600005003000010000000fb
:102c700000000000000d0000000c000000ff00003c
:102c80001f000000010000003a00000020040000c6
:102c9000500c00000200000048000000008000000e
:102ca0000040000000050000000300009102000049
:102cb0004800000000400000000800000001000083
:102cc00033000000400000000369000002480000db
:102cd0000000000004050000000a000000010000e0
:102ce000010000000000000009500000000000008a
:102cf00000000000000000000008000001000000cb
:102d0000485c000002c0000002000000000000005b
:102d1000010a00000000000004000000485c000000
:102d200002c000000200000000000000010a0000d4
:102d30000000000005000000485c000002c0000028
:102d40000200000000000000010a00000000000076
:102d50000600000040000000036900000248000077
:102d600000000000040d0000000a00000001000047
:102d70000100000000000000460c000002510000ad
:102d80004248000001000000010f00000a0000009e
:102d9000000000007500000001000000910000002c
:102da000460c0000025100004248000001000000f3
:102db000010f00000a000000010000007600000082
:102dc0000100000098000000460c000003510000c4
:102dd0004248000001000000010f00000500000053
:102de0000a0000000200000077000000010000005f
:102df00095000000460c000003510000424800000e
:102e000001000000010f0000050000000a000000a2
:102e100003000000780000000100000096000000a0
:102e2000460c000003510000424800000100000071
:102e3000010f0000050000000a000000040000006f
:102e4000790000000100000097000000460c00001f
:102e5000021100004248000001000000010f0000c4
:102e60000a000000050000007a00000001000000d8
:102e7000b5000000460c00000211000042480000ae
:102e800001000000010f00000a0000000600000021
:102e90007b00000001000000b3000000460c0000b1
:102ea000021100004248000001000000010f000074
:102eb0000a000000070000007c0000000100000084
:102ec0009d000000460c0000021100004248000076
:102ed00001000000010f00000a00000008000000cf
:102ee0007d000000010000008f000000060c0000c3
:102ef0000391000042480000010000000f3f000065
:102f0000000a000000090000017e0000000100002e
:102f1000001e0000004000000003000069020000e5
:102f200048000000000800007e0000000a000000c9
:102f30000101000000000000004600000c0200003b
:102f4000d102000048010000000200000f0a00004a
:102f50000000000075000000010000009c0000005f
:102f6000460c000002d100000248000001000000f1
:102f7000020f00000a0000000076000000010000bf
:102f800000990000004600000c020000d102000081
:102f900048010000000200000f0a000000000000cd
:102fa000770000000100000092000000460c0000c5
:102fb00002d100000248000001000000020f0000e2
:102fc0000a000000007800000001000000930000eb
:102fd000004600000c020000d10200004801000081
:102fe000000200000f0a000000000000790000004d
:102ff0000100000094000000460c000002d1000017
:103000000248000001000000020f00000a0000005a
:10301000007a00000001000000b600000046000039
:103020000c020000d1020000480100000002000074
:103030000f0a0000000000007b00000001000000fb
:10304000b4000000460c000002d10000024800005d
:1030500001000000020f00000a000000007c0000d8
:1030600000010000009e0000004600000c0200006d
:10307000d102000048010000000200000f0a000019
:10308000000000007d000000010000009000000032
:10309000065000000328000000200000000000008f
:1030a000020000003c000000ff0f000000010000d3
:1030b00000b700000006000054010000e902000013
:1030c00050000000007d0000000100007f000000b3
:1030d00010000000d40000000556000001e90000c7
:1030e0000250000000000000fcff0000002400006f
:1030f0000006000050030000000000000000000077
:1031000000ff0000ff26000000ff00007e0000001e
:103110000100000000000000010000005500000058
:10312000008000000000000000010000ff08000017
:103130004e0000006f00000020000000730000003f
:103140006c000000650000006500000070000000d9
:1031500000000000030000005500000029000000ee
:103160005000000000010000ff0300006d0000009f
:10317000690000006e00000000000000090500006a
:1031800000000000004800000000000000100000e7
:10319000040000000856000000c00000000000000d
:1031a00000000000ff74000000070000045500004c
:1031b0000c42000000480000000000007800000001
:1031c0001a000000035500000f51000000480000e5
:1031d0000000000001000000010000007600000077
:1031e0001800000001020000550900005100000015
:1031f0004800000000680000001700000000000008
:1032000015030000680200004800000000050000ef
:10321000000700000001000006010000550000004a
:1032200000000000025500000700000000480000f8
:1032300000000000fcff0000050000000c00000082
:1032400000150000036800000248000000000000b4
:103250000400000008000000010600000156000004
:1032600000000000000000001503000081a2000023
:1032700048080000006300000000000000c70000d4
:10328000fffd0000ff010000030800004e000000e9
:103290006f00000020000000730000006c000000c0
:1032a00065000000650000007000000000000000e4
:1032b0000100000055000000008000000000000038
:1032c00000010000ff0800004e0000006f00000039
:1032d000200000006800000069000000620000009b
:1032e0006500000072000000000000000300000004
:1032f0005500000000000000000000000001000078
:10330000ff0300006d000000690000006e00000077
:103310000000000009050000000000000048000057
:10332000000000000010000004000000085600002b
:1033300000c000000040000000000000ff7300001b
:1033400000070000045500000c4200000048000087
:1033500000000000710000001a000000035500008a
:103360000f510000004800000000000001000000b4
:10337000010000006f0000001800000001020000c2
:1033800055090000510000004800000000610000e5
:103390000017000000000000150300006802000094
:1033a00048000000000500000007000000010000c8
:1033b000060100005500000000000000025500005a
:1033c000070000000048000000000000fcff0000b3
:1033d000050000000c00000000150000036800005c
:1033e0000248000000000000040000000800000087
