:020000040000fa
:082800000016040000000000b6
:020000040000fa
:10280800ae99040001000000ae9904000100000028
:10281800a6990400010000009e9904000100000030
:102828009699040001000000ae9904000100000020
:10283800ae99040001000000ae99040001000000f8
:10284800c476040001000000ae99040001000000f5
:10285800ae99040001000000ae99040001000000d8
:102868002a77040001000000ae990400010000006e
:10287800ae99040001000000e27a040001000000a3
:10288800127b040001000000ae9904000100000062
:10289800ae99040001000000b4d204000100000059
:1028a800e8d2040001000000ae9904000100000015
:1028b800ae99040001000000ae9904000100000078
:1028c800ae99040001000000ae9904000100000068
:1028d800ae99040001000000ae9904000100000058
:1028e800ae99040001000000ae9904000100000048
:1028f800ae99040001000000ae9904000100000038
:10290800ae99040001000000ae9904000100000027
:10291800ae99040001000000ae9904000100000017
:102928000e7e040001000000ae99040001000000c2
:10293800ae99040001000000ae99040001000000f7
:10294800ae99040001000000ae99040001000000e7
:10295800ae99040001000000ae99040001000000d7
:10296800ae99040001000000ae99040001000000c7
:10297800ae99040001000000ae99040001000000b7
:10298800ae99040001000000ae99040001000000a7
:10299800ae99040001000000ae9904000100000097
:1029a800ae99040001000000ae9904000100000087
:1029b800ae99040001000000ae9904000100000077
:1029c800ae99040001000000ae9904000100000067
:1029d8004879040000000000ae99040001000000de
:1029e800ae99040001000000ae9904000100000047
:1029f800ae99040001000000ae9904000100000037
:102a0800ae99040001000000ae9904000100000026
:102a1800ae99040001000000ae9904000100000016
:102a2800ae99040001000000ae9904000100000006
:102a3800ae99040001000000ae99040001000000f6
:102a4800ae99040001000000ae99040001000000e6
:102a5800ae99040001000000ae99040001000000d6
:102a6800ae99040001000000ae99040001000000c6
:102a7800ae99040001000000ae99040001000000b6
:102a8800ae99040001000000ae99040001000000a6
:102a9800ae99040001000000ae9904000100000096
:102aa800ae99040001000000ae9904000100000086
:102ab800ae99040001000000ae9904000100000076
:102ac800ae99040001000000ae9904000100000066
:102ad800ae99040001000000ae9904000100000056
:102ae800ae99040001000000ae9904000100000046
:102af800ae99040001000000ae9904000100000036
:102b0800ae99040001000000ae9904000100000025
:102b1800ae99040001000000ae9904000100000015
:102b2800ae99040001000000ae9904000100000005
:102b3800ae99040001000000ae99040001000000f5
:102b4800ae99040001000000ae99040001000000e5
:102b5800ae99040001000000ae99040001000000d5
:102b6800ae99040001000000ae99040001000000c5
:102b7800ae99040001000000ae99040001000000b5
:102b8800ae99040001000000ae99040001000000a5
:102b9800ae99040001000000ae9904000100000095
:102ba800ae99040001000000ae9904000100000085
:102bb800ae99040001000000ae9904000100000075
:102bc800ae99040001000000ae9904000100000065
:102bd800ae99040001000000ae9904000100000055
:102be800ae99040001000000ae9904000100000045
:020000040000fa
:102c0000aff323008efe27000e01880000000000b5
:102c10000c00070080322d00110020001f0007006b
:102c2000000020000000e00002003200000002006e
:102c300000000000f06f0200010000000040da0018
:102c40000000fe004440a900003427000000e0001e
:102c50000300320010002000a00188004440a800ba
:102c600000000600f03fb1000180b1000600350011
:102c7000ee03090000000000403fb1000180b100f8
:102c8000fbff3d001000b000203fb0000200350007
:102c9000008009000000000000000600910188008b
:102ca000800078000000eb0015003700e280400053
:102cb00032a0b4009101ba00e280400032a0b4001a
:102cc0009102ba00e280400032a0b4000002eb00a2
:102cd000472bde00f507b200602ce10004003a004b
:102ce0000059eb008301e900fdff3e0004003700be
:102cf0006128e100010032000082eb0004000700bf
:102d00001101ba000200e000e8ff3a0000000600ee
:102d10003159ba008301e9000c0032002159ba0090
:102d20008301e900080032000400e00003003a00db
:102d3000e280400032a0b400f5ff370011d9ba009c
:102d40008301e900faff3a008100e800e1804000d9
:102d500032a0b400000006009cf304000000000054
:102d60000a00fa0080017800e20f500028003e00bf
:102d7000c0f18100e10f50000800320080232000e4
:102d80000000e0000500320004232000252320007d
:102d90004623200080017800040037000422200030
:102da000252220004622200083222000144090008b
:102db0000004e000040035008009eb00144090009e
:102dc0000074a00010429800154090000028a30055
:102dd00003003a00154090000024a00090429800a3
:102de0008001eb0007003700154090000008a300a9
:102df000fdff320063c078000000fb00000b78008c
:102e00008301e800828f5100f7ff3a000800370085
:102e100030002000b0bf9f00c3bf9f00d1bf9f0004
:102e2000e2bf9f006a80570000c0da006fb99700c8
:102e3000020078000080fa0000000600839f68000e
:102e40000100e00002003d0060001000e08018007a
:102e50000300e00002003d0060011100e081190064
:102e6000050007004f00e00002003b00600010007a
:102e7000e0801800000006006022b8000602200072
:102e80000000d0008180d2000482d2008582d2006e
:102e90000000a0000202520083825a0003003100a9
:102ea0000202420083824a000000a1000603e900fa
:102eb000f3ff3a0000000600811f78000100e000e7
:102ec00002003d0060001000e08018000300e000f8
:102ed00002003d0060011100e081190005000700bb
:102ee0004f00e00002003b0060001000e08018008e
:102ef00000000600e0ff07000400be00000006001e
:102f0000889fbe008a9fbe00010578000100e00096
:102f10000400350008003c000000e0002000320002
:102f20000500370060001000e080180002003b0040
:102f300001f02c001a0037000004be006011b80038
:102f40006b0920000982cf00020039000882cf00ff
:102f50000441b000694252000e00320008003b00fc
:102f600082817100610164008904d1000884d3006a
:102f70008b05e8000442e800f9ff3a00050037003d
:102f80000804440089844c008b05e9000442e900f0
:102f9000fbff3a00f40007000af0a70001f0a000d0
:102fa0004f05be004f04be000000060003f0a20063
:102fb000889fbe008a9fbe008c1f7800100107000a
:102fc000170133006450e1004f0032006420e1003b
:102fd0005200320003826c0007003b000905d0005c
:102fe0000306d000820f54000c065d000200390079
:102ff00002003200890178000306780085825500be
:1030000004003d000003fd008103fd008502ea008d
:103010008b854200840f720002003b0060001000ac
:10302000e08018006011b8000005eb007a28e1008c
:103030000a00390006007800c75ddd00f707b2001e
:10304000878075002d003700828171000a017800a9
:10305000610560008180d1000080d3008502e90015
:10306000f9ff3b00060440008784480002003b0053
:1030700060041400e0841c000988a30007003200eb
:103080008a81710082817100610164008904d1002c
:103090000884d3008b05e800170037000978a300e7
:1030a00013003a000b00e000130034008b05e90028
:1030b0000804440089844c000a4474000978a30081
:1030c0000d003a000b00e000070034008b05e9001a
:1030d0000804440089844c0001003a000b002000e1
:1030e0000978a300f7ff32000001eb00020037006f
:1030f000828171000a0178009b0007000cf0a70094
:1031000001f0a000cf0037006420e10002003a0087
:10311000838f6c00cf0033000801be000200be00a8
:10312000c8003700889fbe008a9fbe008c1f7800b1
:10313000b3000700ba00330003866c006450e1005e
:10314000240032006420e100270032006150e100d9
:10315000220032006120e100210032008b85420014
:10316000eb07b1000134b800003ab800080442008f
:1031700089844a00013ab8000030b80088804000d5
:1031800009014a000400330000004000818048002b
:10319000020149008b05e900c909dd0083017000c7
:1031a0000100320013002000c814de004814dd00c6
:1031b0004709de001200b200c808de000884700073
:1031c0006900070001f0a1000cf0a70001f0a000c9
:1031d0009c0037006120e1009e0032000801be0023
:1031e0000200be00f7ff37006150e100fcff3a002b
:1031f00098003700889fbe008a9fbe008c1f780011
:103200007f0007008600330003866c006450e100f5
:103210002e0032006420e100330032006150e100f2
:103220002f0032006120e100310032008585550019
:10323000eb07b0000900200008042000050037005b
:103240000804440089844c000a003100060343004e
:1032500087834b000001530081815b00f8ff33003e
:103260000203be000800a0000804440089844c004a
:10327000f6ff3900c639dd0083017300010032001a
:10328000130020008904d1000884d3000998a3000a
:10329000050032000800a7000300a0008904d10047
:1032a0000884d3008b05e8008904d1000884d3008a
:1032b0000001eb000281d2002b00070001f0a10009
:1032c0000cf0a70001f0a0005e0037006420e100d0
:1032d000600032000801be000200be00f7ff3700a8
:1032e0006120e1005b0032006000b800f3ff3700ae
:1032f0000000200001f82700f0ff37000001be00a9
:10330000570007000470a70003f0a10003f8a30012
:1033100013003a006509b1001000320009003500c1
:103320006928e100020035000100280000000500c6
:1033300000004000818048008502e900fcff3a005f
:1033400000000600f88f4200050035008100d10022
:103350000080d3008502e800fcff3a000000060070
:103360008000eb0000000500810020006180550016
:103370000b003d000b00200061fe2f000100e1006a
:103380001d00340082817100610164008904d10054
:103390000884d3000000e800faff3a007100200022
:1033a0006100640003007000020060000900320048
:1033b00061044400e0844c000988a5000500320047
:1033c0008b05e8006808e10002003a008904d1009a
:1033d0000884d300f20f20000258e10005003d00f0
:1033e000c75ddd00f907b20089807500080078002c
:1033f000000006000bf827008b0078000000050095
:103400000004be00160007000003be000405be0055
:103410000200be0012000700844f75000000060085
:103420000200be006450e100050036006420e100a7
:10343000020036000968a30001003a000800be003f
:103440000160a0004f0678004f05be004f04be008b
:1034500000000600f0ff2f00f1ff2700f9ff370002
:10346000c70ade00f107b200f50fb2000800320013
:10347000e1cf4200020032000170a00024000500ec
:10348000810f7000010032000408050044000500af
:10349000810f700002003a00140005008502e90067
:1034a0000000400081c04800fcff3b000170a0000c
:1034b00024000500881f7800000478005001be0039
:1034c0004000be000400400085804800060149001d
:1034d00087814900009cbe000294be000400e10008
:1034e0000588e1000690e1000798e1000200310044
:1034f000680044001008e8004f047800000006004f
:10350000f4874700889fbe008a9fbe008c9fbe0044
:103510008e1f78000205be000004be00d4b79f00d5
:10352000e5b79f00f6b79f0087bf9f000000eb0044
:10353000c0b79f00b0b79f00a0b79f0090b79f0093
:1035400080b79f000d042000bfb097004fb09700d8
:10355000000140000000e0000f003d004f08de00c9
:1035600000007100c0b79f009e00070001003d00f1
:1035700012002000a100070001003d001200200001
:10358000a6000700b1000700b60007000f004000ca
:10359000c8ff0700220037004f08de000006710058
:1035a000ccb79f008f00070001003d0012002000f3
:1035b0009200070001003d00120020009700070064
:1035c000a20007000fb297009fb297002fb3970099
:1035d000bfb39700a90007000000520081805a0085
:1035e00002015b0083815b0080b79f0091b79f0061
:1035f000a2b79f00b3b79f000007eb009f00070032
:103600000020e10001a8e10002b0e10003b8e10000
:10361000010031001e0020000e005600c0b79f00c0
:103620004fb297000400e0000700350010002000b2
:10363000010020006011b800080470008984700047
:103640000a0571008b8571008d06e900beff3a0006
:103650000400e00003003d00820007000f0040006e
:1036600094ff07004fa897000000e00004003a0014
:103670000fb497009fb497002fb59700bfb5970080
:10368000940007004f0778004f06be004f05be00ac
:103690004f04be004f01b10000000600881f7800f3
:1036a00018002000881f780095ff07008f87e90029
:1036b0004f04780000000600801feb0090ff070019
:1036c0008f87e90000000600889fbe008a9fbe0029
:1036d0008c1f78006e00070007003d007300070094
:1036e000e00f5b00e08f5b0007003d003200070049
:1036f0000006eb00040037003400070002003d0024
:103700002a0007001c00200072000700e3ff0700ea
:103710000203be000002be000c00e0000100320007
:10372000220007000400be000601be004f0678001c
:103730004f05be004f04be0000000600889fbe007b
:103740008a9fbe008c1f78005100070005003d00d5
:1037500056000700e00f5b00e08f5b0006003d00b5
:10376000040037001900070003003d006000b800a6
:103770006011b8001000070056000700ceff0700d8
:103780000203be000002be000c00e0000100320097
:10379000060007000400be000601be004f067800c8
:1037a0004f05be004f04be00000006006000b800d8
:1037b0006011b800000037000402500085825800f4
:1037c0000603590087835900000006000006eb003d
:1037d000e00f5200e08f5a00e00f5b00e08f5b00cb
:1037e000000006000180400090b79f000001eb0040
:1037f0008fb097000100e00000000600020070009a
:1038000090b79f000180400080b79f000001eb004f
:10381000ffa897000100e000000006000200700011
:1038200080b79f00018040006faa9700cf20de0084
:1038300001007000f0af9f00040242002500070065
:103840004f18de000002720000000600e4af9f0087
:103850000804440089844c000a054d008b854d0006
:10386000000006003fb29700cfb297005fb3970009
:10387000efb3970000fe2f00000006003fb0970056
:10388000cfb097005fb19700efb19700000006003e
:103890000205be000004be00e00f5000e08f58009b
:1038a000e00f5900e08f5900000006006000b800ea
:1038b0006011b80008045000898458000a055900b6
:1038c0008b8559001c002000e00f5200e08f5a0049
:1038d000000006000800be000a01be00000006004d
:1038e000500880000000060017e2a9009a20a900f5
:1038f0009a40a9008a20a9008a40a9000000060079
:10390000a1108800b0108800000006008a20a900dd
:103910008a40a900e7416000c419dd00c10b200006
:1039200091407800f2c8b30082c0600083c070008c
:103930008000fd00bce0b7008000fd008001780041
:103940000307b200c419de00d10b200091407800bb
:1039500082cfb30082c0600083c070008000fd0091
:10396000bde0b7008000fd00680160004311de008b
:1039700002414100a1092000914078000114a100fa
:1039800082c070008000fd009ae0b7008000fd005a
:103990000008b2004700de004200dd00a10920005f
:1039a000914078000124a10080c0700001007800df
:1039b0009ae0b700000006001622a80000000600ea
:1039c0001602a800000006000080fb00901088008e
:1039d0000080eb001842e2000800350019c2bf0069
:1039e0000068a300fdff3a0067010700e0ff2f0019
:1039f0001942e200010035000000eb000000060063
:103a00001642a80000000600889fbe008a9fbe00e4
:103a10008c9fbe0080057800810678000206780041
:103a2000800478000005eb00150037001662a8003e
:103a30000004eb00030037008c0f5400130031002a
:103a40000804e800630107000004e000faff320008
:103a50008010800080767d008904e90002003a0031
:103a600016a2a8000100370016a2a9001682a8001d
:103a700016c2bf000048a300fdff3a000a05e80097
:103a80008b0f5500e9ff3a008004eb000900780035
:103a90004f06be004f05be004f04be0000000600ea
:103aa0004003880051038800000006009780a900a9
:103ab000e7416000210b20009140780082cfb300e5
:103ac00082c0600083c070008000fd00b2e0b700db
:103ad0008000fd00680060004300de004400dd005f
:103ae00071092000914078000144a10080c070005d
:103af0000100780097e0b700000006001821ef00f1
:103b0000e108880000098800000006008500a9007f
:103b1000e7416000810a20009140780082cfb30025
:103b200082c0600083c070008000fd00a8e0b70084
:103b30008000fd00680060004300de0051092000a5
:103b4000914078000104a10080c07000010078005d
:103b500095e0b7000000060050088800000006004d
:103b60000a21ef0071088800900888000000060014
:103b70000621ef0061088800800888001061a90014
:103b80000000060084e0a900e7416000c419dd00e0
:103b9000710a200091407800f2c8b30082c0600032
:103ba00083c070008000fd00a7e0b7008000fd002a
:103bb000680060004300de004700dd00410920008e
:103bc000914078000174a10080c07000010078006d
:103bd00094e0b700000006004318200093417800ed
:103be00084cfb30084c161008001fd0084e1b7008f
:103bf0008001fd00010c8800120c8800200c880058
:103c0000000006008440a900e7416000510a20003e
:103c10009140780082cfb30082c0600083c0700002
:103c20008000fd00a5e0b7008000fd006800600096
:103c30004300de004200dd00410920009140780091
:103c40000124a10080c070000100780094e0b7005a
:103c50000000060086a0a900e7416000c419dd004d
:103c6000e10a200091407800f2c8b30082c06000f1
:103c700083c070008000fd00aee0b7008000fd0052
:103c8000680060004300de004500dd00610920009f
:103c9000914078000154a10080c0700001007800bc
:103ca00096e0b70000000600301b8800411b88002a
:103cb000000006008480a900e7416000610a20003e
:103cc0009140780082cfb30082c0600083c0700052
:103cd0008000fd00a6e0b7008000fd0070006000dd
:103ce0004400de004400dd004109200091407800de
:103cf0000144a10080c070000100780094e0b7008a
:103d0000000006008400a900e7416000410a20008d
:103d10009140780082cfb30082c0600083c0700001
:103d20008000fd00a4e0b7008000fd006801600095
:103d30004311de004109200091407800e3cfb30039
:103d400083c0600082c070008000fd0094e0b70076
:103d50008000fd00700060004400de0021082000ab
:103d60009140780083c0600080c07000010078003e
:103d700082e0b700000006006023a90000000600f2
:103d800055198800761988006419880087198800f9
:103d900093198800221988001119880000198800d9
:103da0000000d1006140600000404000013220006e
:103db000914078000114a10080c0700001007800db
:103dc00020e3b70000000600641b8800871b880002
:103dd000931b8800221b8800111b8800001b880091
:103de0000000d1006140600000404000013620002a
:103df000914078000114a10080c07000010078009b
:103e000060e3b70000000600111c8800221c880037
:103e1000331c8800441c8800551c8800001c880046
:103e200081e3a800000006003019880041198800cd
:103e3000000006002023a9000000060020c3bf00e8
:103e40000004a20061006000000006000080fb008a
:103e50000000400001302000608078000000060073
:103e6000c008880000000600c008800000000600ae
:103e700021e2a9009560a9009580a9008560a900ac
:103e80008580a9000000060042118800001188000a
:103e900011118800000006008560a9008580a90036
:103ea000e7416000c419dd00910a200091407800cc
:103eb000f2c8b30082c0600083c070008000fd00c3
:103ec000a9e0b7008000fd00800178000307b20080
:103ed000c419de00a10a20009140780082cfb3000f
:103ee00082c0600083c070008000fd00aae0b700bf
:103ef0008000fd00680160004311de004311dd0019
:103f000051092000914078000134a10082c0700066
:103f10008000fd0095e0b7008000fd000008b200c1
:103f20004700de004400dd00510920009140780088
:103f30000144a10080c070000100780095e0b70046
:103f4000000006008000780020c2bf0066406000cc
:103f5000e64f500001003200f10fb200211188003d
:103f60000000060020c2bf0066406000e64f50001f
:103f700002003a003011800000000600301180007d
:103f8000f00fb2000000060016c2bf000008a30038
:103f9000fdff3a0016c2bf000028a300faff3a0056
:103fa00016c2bf000038a300f7ff3a0016c2bf00d8
:103fb0000018a300f4ff3a0016c2bf000048a30097
:103fc000f1ff3a0019c2bf000068a300eeff3a00fb
:103fd0000000060018c2bf000000d10061006000b0
:103fe00000000600800078003004e000feff3a0088
:103ff000010050000000e900000006008001780088
:104000000001780031407800005978000004e00099
:10401000fcff3a0003007800000006000c00fa00e4
:10402000889fbe0000047800cfb09700f0ff270003
:10403000d0bf9f008004eb0099bf9f0088bf9f0006
:10404000a8bf9f00200c2000b0bf9f0078815700c0
:10405000708057001b0007000fb8970009487800d0
:104060000fb8970008045000080078004f04be0005
:104070000080fa00000006008001eb00020037001b
:10408000817178008301e800828f5100fcff3a00c3
:104090000000060080017800000178000100370070
:1040a0000201e8001204e000fdff3a003140780010
:1040b000005978000004e000fcff3a00030078009b
:1040c00000000600fe874700889fbe008a9fbe0052
:1040d0008c9fbe008e1f7800f0b79f00010778000c
:1040e00082bf9f000000eb00a0b79f009f02370037
:1040f0008006eb0050c2b30080cf500009003200b0
:104100000100fb00ffb09700a3020700e10f400091
:1041100096023200afb097008100e800a1b79f007f
:10412000920237009e407800d0c2b30080cf50008a
:104130000c00320007003c006d40500080cf500062
:104140000a0032006b40400080cf50000e003a0061
:104150000800370000c3b30080cf50000a003a00c7
:10416000060037000d30a000050037000d00a0004c
:10417000030037000d10a000010037000d20a00043
:104180000e07e800e7ff37000d18a300010032001a
:104190000d00a1000d38a300010032000d20a10088
:1041a0000100fb0002fd2f0002004000e90f50005b
:1041b0000e003e000002eb00c4b79f0082017800b1
:1041c000cfb297006a28b9001e01fb000001410030
:1041d00003014100c2b79f005e00fb0003004000e6
:1041e000e90f50000b003e00f5ff37000006eb0022
:1041f000ccb79f00a0c2b30080cf500005003a00aa
:104200000fb89700c000780080bf9f00c1b79f0023
:104210000e07e8000001eb00b2b79f00e0c2b30058
:104220009e4f100018003a000de0a0008e00e8003c
:1042300064405000914f10000200320001077800e6
:104240000c0037000fba9700c402780084bf9f00ab
:10425000b5b79f000e87e8000b0037003fb6970008
:104260006a60b9000000410003004000b0b79f0041
:104270000e07e8001e01fb0003fd2f0003004100b4
:10428000e90f5000f5ff3600be407800e1d79f00ef
:10429000c0c6b30080cf5000220032000f003c00a7
:1042a0006940500080cf50007700320004003c008d
:1042b0000104e000310232006b4050000f00370073
:1042c00040c6b30080cf50009300320065404000ec
:1042d00080cf50008b003a008f00370030c7b3000a
:1042e00080cf50001a00320007003c0064405000ac
:1042f00080cf5000110032000040e80080cf500015
:1043000080003a000f00370050c7b30080cf500044
:10431000800032006340400080cf500079003a00b6
:1043200009003700000028000d48a30001003a00f2
:104330000001200080867600d3ff37000d60a000ca
:10434000750037000d50a0000d70a00072003700fe
:104350008fb897004100780081bf9f00000478006b
:104360000000e00001003a00a8db23008004eb001d
:10437000010037008104e8008900780008804400cb
:104380001004e000fbff3a003fb197000200e0009c
:1043900003003200890f51000100310082047800cf
:1043a0000002eb00e4af9f00cfb29700898f52006c
:1043b0000200360009805200e0af9f004368de0033
:1043c000e10660001b003a000d0678000900370086
:1043d000ffb0970000022000ef010700e10f40004e
:1043e000030032002fb097000000e800a0b79f0044
:1043f0000c06e800efa89700810f5600f4ff3a0082
:104400000081eb00e2af9f000a00370088007800cf
:104410003100fb0001047800ffb09700de010700c7
:10442000e10f4000030032002fb297000402e800c1
:10443000a4b79f000900e90080047800e10f400064
:10444000f2ff3a000006eb000d00e0000a003a001f
:10445000c6013700ffb0970000022000ce01070020
:10446000e10f400003003200afb297008502e80080
:10447000a5b79f000c06e8006fa89700800f5600b4
:10448000f4ff3a00b90137008fb897004100780077
:1044900081bf9f00cf80de0001017800820178009b
:1044a0000205be000004be000203be000002be0002
:1044b0004822de00482edd0004027600e4d79f008b
:1044c0000d48a3000a0032000404e0000800320096
:1044d000e14f42000600320071fd2f0001804700cd
:1044e0000448780018409800290020000200370096
:1044f000f0d79f001900200072fd2f0002844700b2
:10450000a1ff370064fd2f0004844700190020003c
:104510009dff37000d0cb3000d007800000cb200b9
:1045200028003a000d00e00005003d008fba97001a
:104530004505be004504be0085bf9f00140037003e
:104540000d48a3000b0032000fbe97004c00be00c8
:104550008cbf9f004f89de00cf91de000002be00bd
:1045600002037800820378000605be000404be0042
:10457000070037008fb897004100780081bf9f0087
:1045800000047800cfc4de00090578008a057800b1
:10459000e00f5400e08f5c00e00f5d00e08f5d00f5
:1045a0001f003d003d00b3006000b8006011b8007e
:1045b00008045000898458000a0559008b85590069
:1045c000170037000d00e00005003d000fb997000f
:1045d0004205be004204be0082bf9f0010003700ab
:1045e0000d48a300070032000fba97004400be0038
:1045f00084bf9f006011b8000205be000004be0029
:10460000070037008fba97004500780085bf9f00ec
:1046100000047800090020000a0020000b002000a0
:104620003fb697000c00e00007003a00e00f54008e
:10463000e08f5c00e00f5d00e08f5d0002003a005b
:1046400010002000b0b79f008d007800010cb20070
:10465000e1b79f0000042000808f5000300032003e
:1046600003003c000100e000080032004000370079
:10467000000820006fb19700800f51001400320035
:10468000000c2000800f510039003a0014c0b30024
:10469000a5d123000b0037000400fb004300dd0020
:1046a000050040005001be004000be000040e10097
:1046b00001c8e10002d0e10003d8e1002b0039007d
:1046c0000442e800f44f5200f3ff3a00270037009d
:1046d00000012000010020006011b80014c0b300e8
:1046e0000040e10001c8e10002d0e10003d8e10090
:1046f0001e003900450020000000d0008180d2005b
:104700000281d2008381d2008502e900faff3a00db
:104710000442e800f04f5200f1ff3a001300370066
:1047200080002000010020006011b80014c0b30018
:104730000040e10001c8e10002d0e10003d8e1003f
:104740000a0039003c0020000000d0008180d20027
:104750000281d2008381d2000c06e900faff3a0000
:104760000442e800f54f5200f1ff3a00e4d79f0001
:10477000efd097000100fb003fb19700820f50007f
:1047800002003d00e2d79f00040037003fb29700cf
:10479000800f520001003d00b0b79f00cfb29700dc
:1047a0000500e00004003200638066000200320071
:1047b0008502e900c5b79f000de8a3000b00320099
:1047c0004fb697003fb09700800f560003003c00a3
:1047d0008000eb00c1b79f00040037004fb1970085
:1047e0003fb2970004015100c2b79f00efd297007b
:1047f0000500fb000006eb00dcaf9f00cfb0970088
:10480000808f50000200340000805000d0af9f0025
:104810000d28a30037003200e18066000d18a300c8
:104820000c003200d00220000100e00001003a003c
:104830000080e900ffb09700d7000700e10f4000bb
:104840000e0032002fb197000201e800a2b79f00ce
:104850000a0037000100e00008003200ffb09700b6
:1048600000022000cc000700e10f400003003200ee
:104870002fb297000402e800a4b79f00dfaa9700b8
:104880000500e0000f0032000006eb00ffb09700cb
:1048900000032000c0000700e10f400003003200c9
:1048a0002fb097000000e800a0b79f000c06e800ba
:1048b000dfa89700810f5600f4ff3a000001eb00db
:1048c000d2af9f003fb29700c320dd0020d123006c
:1048d0008080400091b79f004220dd0064005000be
:1048e00080b79f006320b900f0af9f0063065000bf
:1048f00084003700dfaa97000500e00011003200b5
:10490000688066000f003a0000067800ffb097004c
:1049100000022000a0000700e10f40000300320069
:104920002fb097000000e800a0b79f000c06e80039
:10493000dfa89700810f5600f4ff3a000001eb005a
:10494000d2af9f00e18066000d18a3000c0032007a
:10495000d00220000100e00001003a000080e900e0
:10496000ffb097008c000700e10f4000d5ff320038
:104970002fb297000402e800a4b79f00d1ff3700d0
:104980000100e000cfff3200ffb0970000022000de
:1049900081000700e10f4000caff3200afb297006c
:1049a0008502e800a5b79f00c6ff3700000420007d
:1049b000efb09700808f50003100320003003c00c0
:1049c0000100e000080032003e003700000820002f
:1049d0006fb19700800f510011003200000c2000d1
:1049e000800f510037003a001fb097003002be0020
:1049f0002003be000800be000a01be0027fb07001e
:104a0000a4002000050020006033b8002afb070046
:104a100004c3b30004424000e4d79f0029003700dc
:104a200015dc2300d5b79f000d58a30002003a0003
:104a300020dd2300d0b79f001400200005002000d7
:104a40006033b8008fb097008100e90005003300a3
:104a50000402d0008582d2000683d2008783d20070
:104a6000f9ff37000800be000a01be000bfb07007b
:104a70006f0060005fb1970062407800100037005f
:104a800014002000050020006033b8000c007800fe
:104a90000000e900050033000402d0008582d20046
:104aa0000683d2008783d200f9ff37000800be00da
:104ab0000a01be00f9fa0700674060000043b00039
:104ac000e0d79f00efd097000100fb00ffb09700f8
:104ad00031000700e10f4000030032002fb19700c2
:104ae0000201e800a2b79f001fb2970068025200bf
:104af00094b79f008fb29700e482520085b79f0061
:104b000063065600d0ff2f003fb197000090b90018
:104b10007faa97000000420063005000800f5600fb
:104b2000a2ff3a000d38a30010003200dfaa970060
:104b30000500e0000d0034000006eb00ffb0970018
:104b40000002200014000700e10f400003003200c3
:104b50002fb097000000e800a0b79f000c06e80007
:104b6000dfa89700810f5600f4ff3a00be4078009e
:104b7000e1d79f000104e0005dfd3a002fb09700ef
:104b80004f0778004f06be004f05be004f04be0021
:104b9000ef01b10000000600889fbe000001780010
:104ba00001047800b10090000118a3003d0032001c
:104bb0000198a30003003a00180090000000e000f4
:104bc00038003a000190a000310498008204780077
:104bd000f90fb200180090000000e00002003a0057
:104be00028009000000c7800ea8f540006003a007c
:104bf000380090000078a30003003a008800780095
:104c0000d0002000e4ff07009800900058009000ba
:104c1000808f50000b0032000100e8001004980063
:104c20001800780009587800000c780011c0b30013
:104c3000e0e2230001487800ea8f540006003200c9
:104c40001900370088007800094078001900070033
:104c50008004780014003700380090000088a3001a
:104c60001100320018019000a80090004800900048
:104c70003bf8070098009000810f500004003200bc
:104c8000380090000003b300300498008084eb00eb
:104c90000000eb001004980028009000000c780041
:104ca000010037008084eb00090078004f04be004b
:104cb000000006000200fa00889fbe00a0ff9f00cf
:104cc00001047800b1009000810478000904b2006a
:104cd000020032000000fb00360037000118a3007c
:104ce00005003a000103b30031049800190498004c
:104cf0000080eb002f003700580090000000e0001b
:104d000006003a004800900012002000e68057009c
:104d100013f80700190498002400370028009000b9
:104d20000000e00008003a00a0e223002004980000
:104d3000000c780020002000500498001004980017
:104d40000130a0003104980018019000a8009000e4
:104d50004800900002f8070028009000000c78003e
:104d60000080eb001004980018007800aff897005e
:104d700001587800000c78002ff89700ea4f500097
:104d80000a003a00380090000088a30007003200b3
:104d900018019000a800900048009000f0f707006c
:104da00019049800a8009000010c7800aff8970053
:104db0000100fb004f04be000080fa000000060066
:020000040000fa
:0200000401f009
:04000000feff0000ff
:020000040000fa
:0200000401f009
:04000400feff0000fb
:020000040000fa
:0200000401f009
:04000800fbff0000fa
:020000040000fa
:0200000401f009
:04000c007bff000076
:020000040000fa
:0200000401f009
:04001000bdff000030
:020000040000fa
:0200000401f009
:040014007fff00006a
:020000040000fa
:0200000401f009
:04001800ffff0000e6
:020000040000fa
:0200000401f009
:04001c00deff000003
:020000040000fa
:020000040001f9
:100000000000000001040000550c00004200000048
:1000100040000000090000000a000000000000008d
:100020000100000005000000008000004801000001
:1000300043790000636c00006573000000ff00005e
:10004000ff0f00000000000001000000050000009c
:10005000008000004801000044650000736f00004c
:100060006c64000020630000796300006c65000090
:1000700073000000ffff00000f00000000020000fe
:10008000090500000000000000480000000000001a
:1000900018050000000800005500000000000000e6
:1000a00048000000ffff0000050000000001000004
:1000b000000500000000000080480000014800002a
:1000c00069620000657200006e61000074690000e2
:1000d0006f6e0000206800006f75000072730000f2
:1000e00000ff0000ff0f00000100000002090000f7
:1000f000050000000000000048000000001800009b
:100100000600000008550000000000000048000044
:1001100000ff0000ff0500000000000001000000db
:10012000050000000080000048010000486f00004a
:100130007572000073000000ffff00000f00000058
:1001400000010000000500000000000080480000e1
:10015000014e00006f200000746f00006f6c000003
:10016000206800006f7500007273000000ff00003f
:10017000ff0f00000200000002090000050000005f
:100180000000000048000000001800000600000009
:1001900008550000000000000048000000ff0000bb
:1001a000ff050000030000001a040000500d0000cd
:1001b0000200000048000000ffff00008000000077
:1001c000400000000500000003910000024800000c
:1001d00000010000330000004000000008000000a3
:1001e0002000000003690000024800000000000039
:1001f00001ff000004050000000a000000090000e3
:100200005000000000000000000000000008000096
:1002100001000000285c000002c000000200000095
:1002200000000000ff010000010a0000002800009b
:100230005c020000c00200000000000000ff00009f
:10024000010100000a000000285c000002c000005c
:100250000200000000000000ff010000010a000091
:100260000006000050020000110200000000000023
:100270000001000001010000000000002600000055
:100280002000000003690000024800000000000098
:1002900001ff0000040d0000000a0000002600001d
:1002a0000c02000051420000480100000001000063
:1002b0000101000010000000010f00000a00000012
:1002c000002600000c02000051420000480100001e
:1002d000000100000101000012000000010f0000f9
:1002e0000a000000012600000c020000514200003c
:1002f0004801000000010000010100000d000000a5
:10030000010f00000a000000022600000c0200009d
:1003100051420000480100000001000001010000fe
:1003200004000000010f00000a0000000326000086
:100330000c020000514200004801000000010000d2
:100340000101000007000000010f00000a0000008a
:10035000042600000c020000514200004801000089
:1003600000010000010100000b000000010f00006f
:100370000a000000052600000c02000051420000a7
:10038000480100000001000001010000020000001f
:10039000010f00000a000000060600000c03000028
:1003a000914200004801000001010000010100002d
:1003b0001e0000000f3f0000000a000000070000c0
:1003c0002000000003690000024800000000000057
:1003d00001ff0000087e0000000a00000026000067
:1003e0000c020000d10100004801000000010000e3
:1003f0000101000011000000020f00000a000000cf
:10040000260c000002d1000000480000010000009e
:100410000101000001130000000200000f0a0000ab
:10042000002600000c020000d1000000480100007e
:1004300000010000010100000e000000020f00009a
:100440000a000000260c000002d100000048000055
:100450000100000001010000010500000002000091
:100460000f0a0000002600000c020000d10000006e
:100470004801000000010000010100000800000028
:10048000020f00000a000000260c000002d100004c
:10049000004800000100000001010000010c000004
:1004a000000200000f0a0000002600000c020000fd
:1004b000d10000004801000000010000010100001f
:1004c00003000000020f00000a00000006500000b8
:1004d00003510000020000000000000001010000c4
:1004e000010a000000020000003c000000170000ac
:1004f000000500000555000000400000020000005b
:10050000000000002300000009500000002000004f
:1005100000000000000000001001000000080000c2
:1005200057010000402000000000000001ff000013
:10053000010300000000000057010000000000005f
:10054000000000002f000000ffff0000010000007d
:1005500008570000014100000200000001010000f6
:10056000ff01000001010000000000000001000088
:10057000000500000000000080480000015300005a
:100580006c65000065700000206300007963000066
:100590006c65000073000000ffff00000f190000f1
:1005a00000020000090500000000000000480000f3
:1005b00000000000180600000008000055000000c0
:1005c0000000000048000000ffff000005000000e0
:1005d000000100000005000000000000804800004d
:1005e000015300006c650000657000002068000089
:1005f0006f7500007273000000ff0000ff0f000025
:100600001a000000020900000500000000000000c0
:100610004800000000180000060000000855000017
:10062000000000000048000000ff0000ff0500007f
:1006300000000000010000000500000000000000b4
:100640004801000020000000ffff00000f00000034
:1006500000010000000500000000000080480000cc
:10066000015000006c7500006767000065640000c1
:10067000206800006f7500007273000000ff00002a
:10068000ff0f00001b000000020900000500000031
:1006900000000000480000000018000006000000f4
:1006a00008550000000000000048000000ff0000a6
:1006b000ff05000000000000010000000500000030
:1006c0000080000048010000576f0000726b0000be
:1006d000696e000067200000686f000075720000fe
:1006e00073000000ffff00000f1c0000000200006c
:1006f00009050000000000000048000000000000a4
:10070000180600000008000055000000000000006e
:1007100048000000ffff000005000000000100008d
:10072000000500000000000000480000013000004b
:1007300020310000203000002035000000ff0000c4
:10074000ff0f000000000000010000000500000095
:10075000000000004801000043680000616e0000d6
:100760006765000064000000ffff00000f1d00002f
:1007700000070000045000000c02000000480000c8
:100780000080000000400000000000005003000056
:10079000a9820000000000004f720000696700009d
:1007a000696e0000616c000020500000494e00009e
:1007b00000000000ff3f0000000f000000060000e6
:1007c00050030000a800000000010000010100002b
:1007d0000001000014000000033f0000001c0000a6
:1007e0000025000050030000680000000001000028
:1007f000011e000000400000030e00000036000053
:100800000000000057030000280000000000000066
:100810006300000006ff0000efff0000f6ff00008d
:100820002550000001c00000000000000101000090
:1008300022000000100300006d00000000570000bf
:1008400003680000000000000062000000060000d5
:10085000ffef0000fff60000ff1e0000000c00008c
:10086000045000000c02000000480000008000005e
:1008700000400000000000000003000091020000a2
:100880004800000000010000ff40000000060000da
:1008900000090000500000002000000000000000df
:1008a000001000000100000008500000034000009c
:1008b0006200000001030000ff01000003180000b7
:1008c00000230000000000000855000001000000a7
:1008d0006000000001ff0000ff010000031900009c
:1008e0000001000008550000010000006000000049
:1008f00001ff0000ff0100000319000000020000da
:1009000008550000010000006000000001ff000029
:10091000ff01000003190000000300000650000062
:10092000031000002000000000ff00000101000093
:100930000186000000030000001d0000000600000a
:10094000500300001020000000000000ff01000024
:1009500001010000860000001c0000001d000000d6
:1009600006500000031000002000000000ff0000ff
:10097000010100000186000000350000001d00009c
:1009800000060000500300001020000000000000de
:10099000ff01000001010000860000004e00000081
:1009a0001d00000006500000035000002000000061
:1009b00000ff0000010100000140000000130000e2
:1009c0000005000000270000000b0000045000009c
:1009d0000c420000004800000080000000400000c1
:1009e00000000000500300006980000000000000cb
:1009f00057410000524e0000494e000047000000e1
:100a000003ff0000110000000f000000005700006d
:100a100001690000800000000023000000ff0000ca
:100a2000ff0400000009000050000000000000006a
:100a30000000000000000000020000000857000055
:100a4000014000000000000000ff0000ff01000066
:100a500003000000005000000369000002000000d5
:100a6000005000006f7200007400000000ff0000e2
:100a70002c0000001a0000000950000000000000d7
:100a80000048000000000000100000000008000006
:100a900057010000410000000001000001ff0000bc
:100aa00001010000040000000057000001000000e8
:100ab00000000000002f000000ff0000ff01000008
:100ac0000008000057010000410200000001000082
:100ad00001ff000001010000010000000d500000b6
:100ae0000e5100000200000000000000ffff0000a7
:100af00009020000020b0000001f0000007f000040
:100b000000200000002b0000000600000450000040
:100b10000c4200000048000000800000004000007f
:100b20000000000050030000698000000000000089
:100b300057410000524e0000494e0000470000009f
:100b400003ff0000110000000f000000005700002c
:100b500001690000800000000023000000ff000089
:100b6000ff04000000090000500000000000000029
:100b70000000000000000000020000000857000014
:100b8000014000000000000000ff0000ff01000025
:100b9000030000000d5000000e5100000200000094
:100ba00000000000ffff000009020000020b00002f
:100bb00000140000007f0000002b00000000000077
:100bc0000001000000550000009100008048000076
:100bd00000450000727200006f7200007300000098
:100be000ffff00002d00000009040000500c000071
:100bf00002000000480000008000000040000000eb
:100c00000000000003910000824800000041000045
:100c100063630000657300007300000001ff0000c3
:100c20004000000007000000005000000391000099
:100c30008000000001420000616300006b000000c2
:100c400001ff000003130000003500000005000054
:100c5000500300006000000000000000ff2a0000b8
:100c6000000c000000200000000500005003000000
:100c70006000000000000000ff2c00000067000082
:100c8000002000000006000050030000600000008b
:100c900000000000ff010000010100002b00000027
:100ca000300000001b00000006500000031100008f
:100cb000000000000101000001010000011a000015
:100cc000000300004000000035000000005000005c
:100cd0000391000080000000014d000061690000e8
:100ce0006e00000001ff0000036d000000300000f6
:100cf0000000000050030000a98000000001000077
:100d00006d6500006e75000000010000ff0300002b
:100d10006d0000003b00000000000000010000002a
:100d200055000000000000004800000056000000d0
:100d300006ff000000000000010000005500000058
:100d400000000000480000005500000006ff000001
:100d5000000000000100000005000000008000000d
:100d60004801000042610000636b000000ff0000ca
:100d7000ff0f00000000000001000000550000000f
:100d80000000000000000000ba46000000ff000064
:100d9000ff000000000100000055000000000000fe
:100da0000000000000ba000043000000ffff000048
:100db00000000000010000000500000000800000ad
:100dc000480100004c650000766500006c000000e2
:100dd000ffff00000f000000000100000005000000
:100de0000000000080480000014e0000657800000f
:100df00074000000ffff00000f0000000001000071
:100e000000050000000000008048000001500000c4
:100e10006f72000074000000ffff00000f00000070
:100e200000010000000500000000000080480000f4
:100e3000015400006f6f00006c000000ffff000015
:100e40000f2f000000080000045000000c420000ba
:100e500000480000007f0000003f00000006000086
:100e60005003000091000000480000000001000055
:100e700002030000260000004000000021000000e6
:100e80000050000003a900000048000000480000d6
:100e900069620000657200006e6100007469000004
:100ea0006f6e000000030000ff4000000013000010
:100eb0000000000050030000690200000000000074
:100ec0004163000074750000616c00002074000034
:100ed000656d0000702e000000010000ff0e000094
:100ee000003a00000009000050000000000000006f
:100ef0004800000000180000030000000857000030
:100f0000016900000300000000010000ff03000071
:100f100006000000065700000028000002480000fc
:100f20000001000001000000011f0000000000009f
:100f300054030000a9020000000000004e6f0000f2
:100f400020680000656100007400000000ff0000e0
:100f500040000000f4ff000000000000010000005d
:100f6000550000000000000048000000546f000021
:100f70006f6c0000206900006e20000074680000a3
:100f80006520000073740000616e000064200000a2
:100f9000616600007465000072200000736c000040
:100fa0006565000070000000ffff00000000000009
:100fb0000100000055000000000000004800000093
:100fc000546f00006f6c0000206900006e2000006c
:100fd00074680000652000006578000074720000ed
:100fe00061630000746f000072000000ffff0000ea
:100ff0002a00000003040000500c00004200000022
:101000004800000080000000400000000050000088
:1010100003a9000080000000004900004e460000c7
:101020004f5200004d410000544900004f4e000057
:1010300000010000ff40000000090000000d00005a
:10104000500e0000510200000000000000ff0000f0
:10105000ff090000020200000d0000000e00000069
:101060007f00000031000000320000000504000095
:10107000500c000042000000480000007f0000000b
:101080003f0000000a5000000f80000000480000f0
:1010900000000000003f000000020000007f000090
:1010a000001800000000000050030000a90200002a
:1010b0004800000077770000772e00006a62000089
:1010c000637400006f6f00006c7300002e630000fb
:1010d0006f6d000000000000ff3f000000280000ce
:1010e00000050000500300006902000048000000f5
:1010f000004200000002000000380000000d000067
:10110000540f0000c00000000000000000ff0000bd
:10111000ff090000030100000a0000007d0000003c
:10112000f8ff0000360000000a0000000000000088
:101130000100000055000000290000000000000030
:101140006300000006ff0000000000000100000036
:101150005500000029000000000000005345000079
:101160004c4500004354000000000000ff00000058
:1011700000010000005500000029000000000000f0
:101180000062000000060000ff33000000070000be
:10119000045500000c42000000480000005c000004
:1011a000001a000000030000550f0000510000006d
:1011b000480000000101000000010000005a00008a
:1011c0000018000000020000550900005100000056
:1011d000480000004c00000017000000001500004f
:1011e00003680000024800000055000000060000ef
:1011f000ff04000000090000000200005507000085
:101200000000000048000000fdff00000300000097
:101210000c000000001500000368000002480000f8
:101220000056000000060000ff030000000a000056
:101230000086000015030000a922000048000000fd
:1012400003010000000400002e000000290000003f
:1012500000000000d8ff0000fbff000000000000bd
:101260000100000015000000000000004800000020
:10127000456e0000676c00006973000068000000a4
:10128000ffff00000000000001000000150000004a
:10129000000000004800000045730000706100007d
:1012a000f16f00006c000000ffff00000000000074
:1012b00001000000150000000000000048000000d0
:1012c00046720000616e0000e76100006973000073
:1012d00000ff0000ff0000000001000000150000fa
:1012e0000000000000480000004400006575000098
:1012f000747300006368000000ff0000ff0000003e
:10130000000100000015000000000000004800007f
:1013100000490000746100006c690000616e00000b
:101320006f000000ff01000000000000010000004d
:10133000050000000080000048010000436f00002d
:10134000756e0000746500007273000000ff0000fd
:10135000ff0f000000000000010000000500000079
:10136000008000004801000045780000697400001a
:1013700000ff0000ff0f0000340000001004000018
:10138000500c000002000000480000008000000037
:1013900040000000000000000391000082480000af
:1013a000004d0000616900006e2000006d650000c6
:1013b0006e75000000010000ff4000000008000002
:1013c0000020000000030000a90200004800000007
:1013d00000010000ff080000070000000a000000f4
:1013e00009500000000000000000000000000000a4
:1013f00008010000002800005c020000000200005c
:101400000000000000ff0000010200000a000000d0
:10141000285c000002000000020000000000000044
:10142000ff010000020a0000002800005c0200002a
:10143000000200000000000000ff000001020000a8
:101440000a000000285c000002000000020000000a
:1014500000000000ff010000020a00000020000060
:1014600000030000a9020000480000000001000085
:10147000ff040000180000000a000000060c000035
:10148000039100004248000001010000010100003a
:1014900001340000000f00003f0000000a000000bf
:1014a000052600000c020000514200004801000027
:1014b000000100000101000037000000010f0000e2
:1014c0000a000000002600000c020000514200004b
:1014d0004801000000010000010100003800000088
:1014e000010f00000a000000012600000c020000ad
:1014f000514200004801000000010000010100000d
:1015000039000000010f00000a0000000226000060
:101510000c020000514200004801000000010000e0
:101520000101000033000000010f00000a0000006c
:10153000032600000c020000514200004801000098
:10154000000100000101000036000000010f000052
:101550000a00000004060000500300000000000024
:1015600000000000ff010000010100000000000079
:10157000030000000e000000000000000100000059
:1015800005000000008000004801000050720000cb
:101590006f670000726100006d200000766500003a
:1015a00072730000696f00006e000000ffff000012
:1015b0000f00000000010000000500000000000016
:1015c000804800000152000065730000657400004f
:1015d0002073000065740000746900006e670000ed
:1015e00073000000ffff00000f000000000100007a
:1015f00000050000000000008048000001530000ca
:1016000074610000746900006f6e000020730000b8
:1016100065740000746900006e67000073000000cc
:10162000ffff00000f0000000001000000050000a7
:101630000000000080480000015400006f6f0000af
:101640006c2000007365000074740000696e000077
:101650006773000000ff0000ff0f000000000000a3
:1016600002040000500c000042000000480000008e
:1016700080000000400000000050000003a90000ae
:1016800000000000004e00004f200000544f0000fa
:101690004f4c000000040000ff4000000028000044
:1016a000003f000000070000045500000c4200004d
:1016b0000048000000370000001a0000000300008e
:1016c000550f00005100000048000000010100001b
:1016d00000010000003500000018000000020000ba
:1016e00055090000510000004800000027000000dc
:1016f0001700000000150000036800000248000009
:101700000055000000060000ff0400000009000072
:101710000002000055070000000000004800000023
:10172000fdff0000030000000c0000000015000099
:101730000368000002480000005600000006000098
:10174000ff030000000a00000086000055030000af
:101750008122000048000000030100000001000099
:101760003c0000002200000000000000eaff000032
:10177000fbff000000000000010000000500000069
:1017800000000000480100004f4600004600000035
:10179000ffff00000f000000000100000005000036
:1017a0000000000000480000014f00004e00000053
:1017b000ffff00000f0000000001000004500000c7
:1017c0000c22000000000000007f0000003f00002d
:1017d0000000000000060000045500000c4200005c
:1017e0000048000000520000002b00000003000031
:1017f000550f000011000000480000000102000029
:1018000000020000004e0000002700000000000061
:10181000550300000000000000000000546f0000ad
:1018200000000000ff060000000a000000000000a9
:101830005501000080000000000000004d61000024
:10184000696e0000206d0000656e000075000000ec
:1018500001ff000027000000005500000300000009
:101860000000000000200000686f00006c640000b1
:1018700020530000454c0000454300005400000088
:1018800000ff0000f8ff00000c0000000055000001
:101890000300000000000000003200002073000080
:1018a000656300006f6e00006473000000000000bc
:1018b000ff010000000c0000002a000000030000ef
:1018c000045500000c4200000048000000610000c8
:1018d000002c000000030000550f00001100000064
:1018e000480000000201000000010000005f00004d
:1018f000002a0000000d0000150f00002802000063
:101900004800000000ff0000ff0900000202000084
:101910000b0000000300000002000000590000005e
:10192000300000003200000003040000500c0000f2
:1019300042000000480000007f0000003f0000005f
:101940000550000003a9000002480000000000004c
:10195000420000003f000000140000000d50000095
:101960000f0000000000000000030000ffff000067
:1019700009020000020a0000003f000000190000f8
:10198000007f0000001000000000000000010000c7
:10199000000500000000000080480000005000002a
:1019a000726f000067720000616d00002076000019
:1019b00065720000736900006f6e000000ff000098
:1019c000ff00000000020000045000000c020000b4
:1019d00000480000008000000040000000050000fa
:1019e00050030000910200000000000001420000ce
:1019f000004000000008000000000000000400009b
:101a0000045000000c0200000048000000800000ac
:101a100000400000000000000003000091020000f0
:101a200048000000504900004e00000001ff000087
:101a300040000000070000000000000003910000cb
:101a40008248000000500000494e00002072000053
:101a50006573000065740000207400006f200000b2
:101a60006465000066610000756c00007400000091
:101a700000ff00004000000018000000000000000f
:101a800003a90000024800000030000031300000cf
:101a90003500000003ff0000400000002e000000a1
:101aa0002600000008040000500c000002000000a6
:101ab0004800000080000000400000000500000019
:101ac0000391000002480000000100003700000000
:101ad000400000000800000000000000039100002a
:101ae000824800000141000072650000207900007a
:101af0006f7500002073000075720000653f0000e4
:101b000000000000ff0f0000400000001c0000006b
:101b1000005000000340000080000000014e000063
:101b20006f00000001ff0000030d00000035000001
:101b30000000000057030000280000000000000023
:101b40006300000006ff0000030000000300000027
:101b50000050000003c00000800000000159000098
:101b60006573000000010000ff0300006500000035
:101b700035000000005700000328000000000000ae
:101b80000062000000060000ff0f000000030000dc
:101b900000060000500000001000000000000000df
:101ba000ff010000010100004600000000000000ed
:101bb00002040000500c0000420000004800000039
:101bc0007f0000003f000000005000000381000083
:101bd0000000000000520000657300006574000002
:101be000207400006f200000646500006661000042
:101bf000756c00007400000001ff00004000000050
:101c00001e0000000000000004040000000c0000a2
:101c10004200000048000000ef0000007f000000cc
:101c2000235000000e510000044800000000000096
:101c3000440a0000007700000035000000030000a7
:101c4000d7050000110800004800000000ff000058
:101c5000ff0800000025000050030000110c0000e8
:101c600048010000004800000011000001040000cd
:101c7000000b0000000c0000400000000209000002
:101c800005000000000000004800000000100000f7
:101c90000400000088050000005100000248000018
:101ca00001000000ff0900000971000000000000b1
:101cb00000000000000100000015000000290000e5
:101cc000a0480000004e00006f200000686900007e
:101cd0006265000072000000ffff000000000000cd
:101ce000010000001500000029a0000048000000cd
:101cf0004e6f0000207300006c65000065700000ee
:101d000000ff0000ff00000000010000005500007f
:101d10000029000000000000002d00002d2d000013
:101d20002d2d000000ff0000ff3f0000000100001b
:101d300006550000000100002048000000030000dc
:101d40000100000001a200000000000000010000ee
:101d5000005500000000000000000000002d000001
:101d60002d2d00002d2d000000ff0000ff41000080
:101d70000003000006550000000000000000000005
:101d800000ff000001000000011f0000000900002a
:101d900005000000000000004800000000190000dd
:101da000040000000856000001c000000000000010
:101db00000ff0000ff020000faff000043000000e7
:101dc00003060000550000000000000000000000b5
:101dd000ff010000000100001f00000009050000d5
:101de000000000000048000000000000180400008f
:101df0000008000056010000c000000000000000c4
:101e0000ffff000004fa0000ff450000000300008f
:101e1000005500000029000000000000006d0000d7
:101e2000696e000000ff0000ff09000005000000cf
:101e3000000000004800000000180000040000003e
:101e40000856000001c000000000000000ff000074
:101e5000ff010000faff0000420000000300000044
:101e60005500000029000000000000006d6900001e
:101e70006e000000ffff00000905000000000000e8
:101e800000480000000000001804000000080000e6
:101e900056010000c000000000000000ffff00002d
:101ea00002fa0000ff0000000001000000550000e1
:101eb0000000000080480000005300007461000032
:101ec0006e64000000ff0000ff0000000001000041
:101ed0000055000000000000004800000053000012
:101ee0006c6500006570000000ff0000ff0000004e
:101ef00000010000005500000000000080480000c4
:101f00000048000069620000657200006e61000018
:101f1000746900006f6e000000ff0000ff00000009
:101f200000010000005500000001000080280000b2
:101f300000450000787400007261000063740000c6
:101f40006f72000000ff0000ff00000000010000b1
:101f5000005500000001000080280000004e000035
:101f60006f200000746f00006f6c000000ff000025
:101f7000ff0000000001000000550000000000000c
:101f80008048000000450000727200006f7200007f
:101f900000ff0000ff0000000002000004550000e8
:101fa0000c4200000048000000500000001100003a
:101fb00000000000550300001100000000000000b8
:101fc0002d2d00002d000000ffff00000500000087
:101fd0000c0000000000000002040000550f00008b
:101fe0004200000004000000130000000700000091
:101ff00047000000080000000056000003690000d0
:1020000000000000005400006f6f00006c20000012
:10201000696e0000207400006865000020730000f5
:10202000746100006e64000000000000ff01000009
:1020300000070000004600000005000024550000d5
:102040000c420000000200000004000070000000cc
:10205000160000002054000003690000000000008a
:10206000005400006f6f00006c200000696e0000db
:102070002074000068650000207300007461000097
:102080006e64000000000000ff010000140000006a
:102090000700000020540000034000000000000082
:1020a00000440000656c00006179000020740000ad
:1020b0006f200000656e0000746500007220000053
:1020c000736c00006565000070000000ffff0000f9
:1020d00001010000000c0000000900005000000099
:1020e00000000000000000000300000004000000e9
:1020f000085700000140000003000000000000003d
:10210000ff030000050000000000000003040000c1
:10211000550c000002000000000000006f000000ed
:1021200023000000035a00000f010000000000001f
:102130000000000001000000010000006d00000030
:10214000210000000b5500000f01000000000000fe
:10215000004800006f6c00006420000074680000fc
:1021600065200000746f00006f6c00002074000098
:102170006f20000063680000616e0000676500006a
:1021800020740000656d0000706500007261000041
:10219000747500007265000000010000ffff000080
:1021a000020200000d00000001000000010000001c
:1021b0006b0000001e000000470000000409000042
:1021c000500000002000000000000000001000008f
:1021d000000000000055000000d00000004000009a
:1021e0000032000000000000ff0000005601000067
:1021f00010000000400000002f00000000ff000061
:10220000feff000008560000011100000000000061
:1022100000000000ff010000feff000000000000c1
:102220000100000055000000e80200004800000026
:102230004e6f00002068000065610000740000001f
:10224000ffff00000000000001000000550000003a
:10225000e8020000480000004e6f00002068000007
:102260006561000074000000ffff000048000000ee
:1022700008040000500c000042000000480000006c
:1022800080000000400000000650000003a900008c
:10229000004800000003000001000000016700008a
:1022a0000040000000130000000600005003000082
:1022b000d102000000000000000100000001000049
:1022c00059000000080000001a0000000050000043
:1022d0000369000002480000004100006374000030
:1022e000756100006c200000746500006d700000d6
:1022f0002e00000001ff00000e0000003a00000068
:10230000095000000000000000480000000000002c
:1023100018030000000800005701000069030000d6
:102320000000000001ff000003060000000600009e
:1023300057000000280200004800000001010000d2
:10234000000100001f0000000650000003510000c3
:10235000024800000000000001010000015b0000d5
:10236000000a0000000d0000000000000001000055
:1023700000550000000000000000000000500000b8
:10238000726500007365000074000000ffff00002c
:1023900000000000010000005500000000000000e7
:1023a00000000000536500006c65000063740000cd
:1023b0006564000000ff0000ff0000000001000055
:1023c000005500000000000000480000005300001d
:1023d000746100006e64000000ff0000ff00000058
:1023e000000100000055000000000000004800004f
:1023f000005300006c6500006570000000ff0000e5
:10240000ff00000000010000005500000000000077
:10241000004800000048000069620000657200008a
:102420006e610000746900006f6e000000ff000024
:10243000ff00000000010000005500000000000047
:102440000048000000450000787400007261000040
:10245000637400006f72000000ff0000ff4d000079
:10246000000300000655000000e8000002480000dc
:1024700000ff000001000000011f00000009000033
:10248000500000000000000048000000001800009c
:10249000030000000856000001e9000003000000ee
:1024a00000ff0000ff030000fdff0000000000002f
:1024b00001000000550000000000000000000000c6
:1024c0004e6f0000207300006c6500006570000016
:1024d00000ff0000ff0000000001000000550000a8
:1024e0000000000000000000005300006c650000c8
:1024f0006570000000ff0000ff4f000000020000b8
:102500000905000000000000004800000000000075
:10251000100400000008000055000000000000004a
:1025200048000000ffff0000010000000002000062
:10253000045500000c020000000000000021000013
:10254000001300000080000055030000810000001f
:10255000000000002d2d00002d00000003ff0000f2
:10256000220000000f040000110000000f00000016
:1025700000000000010000000500000000800000d5
:102580004801000043680000616e000067650000bc
:1025900020500000494e000000ff0000ff0f000027
:1025a00000000000010000000500000000800000a5
:1025b00048010000486500006c70000020740000b5
:1025c0006578000074000000ffff00000f5000005d
:1025d00000010000060500000000000000480000a7
:1025e00001ff000001000000013c0000000f00009e
:1025f0000000000001000000050000000080000055
:10260000480100004c6100006e6700007561000029
:102610006765000000ff0000ff0f00005100000090
:102620000106000005000000000000004801000055
:10263000ff010000000400002e0000000f52000007
:102640000003000000550000000000000000000032
:102650000057000000ff0000ff0900000500000017
:10266000000000004800000000100000040000000e
:102670000856000000e800000000000000ff000015
:10268000ff01000000000000010000000500000044
:1026900000800000480100004d61000078690000e2
:1026a0006d7500006d200000746500006d70000005
:1026b00000ff0000ff0f00005300000003060000b1
:1026c000550000000000000000000000ff010000b5
:1026d000000100001f0000000905000000000000cc
:1026e0000048000000000000100400000008000086
:1026f00056000000e800000000000000ffff00009e
:1027000004000000000100000005000000000000bf
:1027100000480000015000006f7700006572000063
:10272000206c0000696d00006974000000ff00006b
:10273000ff0f000000000000010000000500000085
:1027400000800000480100004d6900006e69000033
:102750006d7500006d200000746500006d70000054
:1027600000ff0000ff0f00005500000003060000fe
:10277000550000000000000000000000ff01000004
:10278000000100001f00000009050000000000001b
:1027900000480000000000001004000000080000d5
:1027a00056000000e800000000000000ffff0000ed
:1027b000040000000001000000050000000000000f
:1027c00080480000014e000069740000726f000034
:1027d000676500006e2000006d6f000064650000fa
:1027e00000ff0000ff0f000057000000010600007e
:1027f000050000000000000048010000ff0100008b
:10280000000100003c0000000f000000000100007b
:10281000005500000000000000000000002d000036
:102820002d2d00002d000000ffff000058000000cb
:10283000030900005000000000000000000000003c
:1028400000000000000000000055000000c0000073
:1028500000000000007300006563000000ff00003e
:10286000ff08000055010000d10000001400000026
:1028700000ff000001f00000ff590000002c0000e4
:10288000045000000c02000000480000008000001e
:10289000004000000005000000030000910200005d
:1028a000480000000138000000400000000800005f
:1028b0000020000000030000690200004800000042
:1028c00000010000ff040000050000000a000000f5
:1028d000095000000000000000000000000000009f
:1028e00008010000002800005c020000c002000097
:1028f0000000000000ff0000010100000a000000cd
:10290000285c000002c0000002000000000000007f
:10291000ff010000010a0000002800005c02000026
:10292000c00200000000000000ff000001010000e4
:102930000a000000285c000002c000000200000045
:1029400000000000ff010000010a0000002000005c
:1029500000030000690200004800000000010000c0
:10296000ff040000110000000a000000260c000017
:102970000251000042480000010000000101000077
:10298000016e0000000100000f0a000000000000be
:10299000260c000002110000424800000100000067
:1029a0000101000001820000000100000f0a000088
:1029b00000010000260c0000021100004248000047
:1029c0000100000001010000017100000001000091
:1029d0000f0a000000020000260c00000211000097
:1029e00042480000010000000101000001740000e5
:1029f000000100000f0a000000030000260c000088
:102a00000211000042480000010000000101000026
:102a100001760000000100000f0a00000004000021
:102a2000260c0000021100004248000001000000d6
:102a30000101000001800000000100000f0a0000f9
:102a4000000b0000260c00000211000042480000ac
:102a50000100000001010000016c00000001000005
:102a60000f0a000000050000260c00000211000003
:102a7000424800000100000001010000017e00004a
:102a8000000100000f0a000000060000260c0000f4
:102a90000211000042480000010000000101000096
:102aa000017b0000000100000f0a00000007000089
:102ab000260c000002110000424800000100000046
:102ac0000101000001730000000100000f0a000076
:102ad00000080000260c000002110000424800001f
:102ae0000100000001010000016b00000001000076
:102af0000f0a000000090000060c0000039100000e
:102b0000424800000101000001010000011e000018
:102b1000000f00003f0000000a0000000a20000033
:102b200000030000690200004800000000010000ee
:102b3000ff0800007e0000000a000000260c0000d4
:102b400002d1000002480000010000000101000065
:102b5000016f0000000200000f0a000000260000c4
:102b60000c020000d102000048010000000100003a
:102b70000101000083000000020f00000a000000b5
:102b8000260c000002d100000248000001000000f5
:102b90000101000001720000000200000f0a0000a5
:102ba000002600000c020000d102000048010000d5
:102bb000000100000101000075000000020f00008c
:102bc0000a000000260c000002d1000002480000ac
:102bd0000100000001010000017700000002000078
:102be0000f0a0000002600000c020000d1020000c5
:102bf0004801000000010000010100008100000008
:102c0000020f00000a000000260c000002d10000a4
:102c1000024800000100000001010000016d0000f9
:102c2000000200000f0a0000002600000c02000055
:102c3000d102000048010000000100000101000075
:102c40007f000000020f00000a000000260c0000b8
:102c500002d1000002480000010000000101000054
:102c6000017c0000000200000f0a000000260000a6
:102c70000c020000d1020000480100000001000029
:102c80000101000070000000020f00000a000000b7
:102c900006500000030000002048000000ff000074
:102ca00001010000012d00000020000000120000c2
:102cb0000006000050030000002000004800000053
:102cc000ff01000001010000890000000f0000006a
:102cd0001f00000006500000030000002048000014
:102ce00000ff00000101000001880000003d00001d
:102cf000001100000006000050030000002000004a
:102d000048000000ff0100000101000088000000f1
:102d10003d00000016000000065000000300000007
:102d20002048000000ff000001010000013b0000fe
:102d300000450000000f00000006000050030000e6
:102d40000020000048000000ff0100000101000019
:102d50003b00000045000000160000000650000087
:102d6000030000002048000000ff000001010000f7
:102d7000013b0000004500000012000000060000ba
:102d8000500300000020000048000000ff01000088
:102d9000010100003b00000045000000120000009f
:102da00006500000030000002048000000ff000063
:102db00001010000018c0000003d00000016000031
:102dc0000006000050030000002000004800000042
:102dd000ff01000001010000880000003d0000002c
:102de000160000000650000003000000204800000c
:102df00000ff000001010000013b0000003900005d
:102e00000014000000060000500300000000000055
:102e100000000000ff0100000101000000000000b0
:102e2000ffff000032000000000000000100000071
:102e3000050000000000000048010000526f000083
:102e4000626f000074000000ffff00000f7f0000b1
:102e5000000100000605000000000000004800001e
:102e600001ff000001000000013c0000000f000015
:102e70002600000008040000500c000002000000c2
:102e80004800000080000000400000000500000035
:102e9000039100000248000000010000380000001b
:102ea0004000000008000000000000000391000046
:102eb0008248000001530000617600006520000098
:102ec00063680000616e000067650000733f0000ea
:102ed00000000000ff0f0000400000001c00000088
:102ee000005000000340000080000000014e000080
:102ef0006f00000001ff0000030d0000003500001e
:102f0000000000005703000028000000000000003f
:102f10006300000006ff0000030000000300000043
:102f20000050000003c000008000000001590000b4
:102f30006573000000010000ff0300006500000051
:102f400035000000005700000328000000000000ca
:102f50000062000000060000ff0f000000030000f8
:102f600000060000500300001000000000000000f8
:102f7000ff01000001010000400000000d00000002
:102f80000c0000000000000001000000050000002f
:102f9000000000004801000042650000657000006c
:102fa00000ff0000ff0f000080000000010600008d
:102fb000050000000000000048010000ff010000c3
:102fc000000100003c0000000f00000000010000b4
:102fd000000500000000000000480000014d000056
:102fe00065740000726f00006e6f00006d65000078
:102ff00000ff0000ff0f000081000000010600003c
:10300000550000000000000000000000ff0100006b
:103010000001000078000000000000000100000036
:103020000500000000800000480100005465000019
:103030006d700000207500006e69000074000000d3
:10304000ffff00000f8200000001000006050000e5
:10305000000000000048000001ff00000100000027
:10306000018a0000000f0000270000000b04000090
:10307000500c0000420000004800000080000000ea
:1030800040000000005000000369000080000000c4
:1030900000530000544f00005000000003ff0000e8
:1030a000200000000f000000005700000169000030
:1030b000800000000023000000ff0000ff0400006b
:1030c00000090000500000000000000000000000a7
:1030d000000000000200000008570000014000004e
:1030e0000000000000ff0000ff01000003000000de
:1030f00000500000036900000200000000500000c2
:103100006f7200007400000000ff00002c0000003f
:103110001a000000095000000000000000480000f4
:10312000000000001000000000080000570100002f
:10313000410000000001000001ff0000010100004b
:103140000400000000570000010000000000000023
:10315000002f000000ff0000ff0100000008000039
:1031600057010000410200000001000001ff0000c3
:1031700001010000010000000d5000000e51000090
:103180000200000000000000ffff00000902000034
:10319000020b0000001f0000007f00000020000064
:1031a000002b000000060000045000000c4200004c
:1031b0000048000000800000004000000000000007
:1031c000500300006980000000000000535400001c
:1031d0004f50000000030000ff1d0000000f000022
:1031e000000000005701000069800000000000009e
:1031f00023000000ffff0000040000000950000051
:1032000000000000000000000000000000020000bc
:10321000000800005701000040000000000000000e
:10322000ffff000001030000000d0000500e000031
:10323000510200000000000000ff0000ff09000034
:10324000020200000b000000140000007f000000dc
:103250002b0000004500000008040000550c000091
:103260004200000048000000260000001a00000094
:10327000035500000f51000000480000000100004d
:103280000100000001000000240000001800000000
:10329000025500000951000000480000001600001f
:1032a0000017000000000000150300006802000085
:1032b000480000005500000006ff00000400000068
:1032c000090000000255000007000000004800004f
:1032d00000fd0000ff030000000c000000000000e3
:1032e00015030000680200004800000056000000be
:1032f00006ff0000030000000a0000000950000063
:10330000000000000048000000000000180100005c
:103310000088000015030000a923000048000000f9
:1033200003ff0000011100000000000000f2000097
:10333000fffc0000ff4200000008000004550000f0
:103340000c4200000048000000360000001a000097
:1033500000030000550f000051000000480000006d
:10336000010100000001000000340000001800000e
:103370000002000055090000510000004800000054
:103380002600000017000000001500000368000080
:10339000024800000055000000060000ff04000085
:1033a00000090000000200005507000000000000b6
:1033b00048000000fdff0000030000000c000000ba
:1033c00000150000036800000248000000560000dd
:1033d00000060000ff030000000a000000090000d2
:1033e000500000000000000048000000001800002d
:1033f000030000008815000003e9000023480000d6
:1034000000030000ff020000220000000000000096
:10341000f9ff0000fbff000044000000080400006a
:10342000550c000042000000480000003f00000072
:103430001a000000035500000f5100000048000072
:103440000001000001000000010000003d0000003c
:10345000180000000255000009510000004800005b
:10346000002f0000001700000000000015030000fe
