:020000040000fa
:082800000016040000000000b6
:020000040000fa
:102c00006fca22000e7f24000e0188000000000021
:102c10000c000700e07c2600010020001f000700d8
:102c2000000020000000e00002003200000002006e
:102c300000000000481c0200000000000040da0014
:102c40000000fe004440a900a00320000000e000b6
:102c50000300320000002000a00188004440a800ca
:102c600000000600f03fb1000180b1000600350011
:102c7000ee03090000000000403fb1000180b100f8
:102c8000fbff3d001000b000203fb0000200350007
:102c9000008009000000000000000600910188008b
:102ca000800078000000eb0015003700e280400053
:102cb00032a0b4009101ba00e280400032a0b4001a
:102cc0009102ba00e280400032a0b4000002eb00a2
:102cd000472bde00f507b200602ce10004003a004b
:102ce0000059eb008301e900fdff3e0004003700be
:102cf0006128e100010032000082eb0004000700bf
:102d00001101ba000200e000e8ff3a0000000600ee
:102d10003159ba008301e9000c0032002159ba0090
:102d20008301e900080032000400e00003003a00db
:102d3000e280400032a0b400f5ff370011d9ba009c
:102d40008301e900faff3a008100e800e1804000d9
:102d500032a0b40000000600c062040000000000c1
:102d6000f66204000000000036630400000000006a
:102d700062630400000000007063040000000000b3
:102d80007e63040000000000b8630400000000003f
:102d9000d463040000000000206404000000000070
:102da0003064040000000000b85d04000000000072
:102db000f25d040000000000325e0400000000002c
:102dc0005e5e0400000000006c5e04000000000075
:102dd0007a5e040000000000d05e040000000000e5
:102de000065f040000000000ae5f04000000000069
:102df00014600400000000003200f800023b88006c
:102e0000910188000008bb000500fc00510520006e
:102e1000313b8800a10a2000313b880061e7a8000f
:102e200000000000000000003200f9000000060071
:102e30000400a100010037000400a0003200f800e7
:102e40009101880011002400013b8800f10f20004f
:102e50003208bb000400a700b20078000198bb0054
:102e60008301e900faff3a00680151000400a7005d
:102e700068015100680050001208bb00e2ff3700f3
:102e8000f30f20003200f800910188003100240087
:102e9000013b88000208bb000388bb00daff370053
:102ea0003200f800003b8800d7ff37006022b800ee
:102eb000060220000000d0008180d2000482d200ef
:102ec0008582d2000000a0000202520083825a00d4
:102ed000030031000202420083824a000000a10088
:102ee0000603e900f3ff3a000000060007e2a9002c
:102ef0009600a9009620a9008600a9008620a900b6
:102f00000000060021108800301088000000060034
:102f10008600a9008620a900e7416000c10a2000c0
:102f20009140780082cfb30082c0600083c07000ff
:102f30008000fd00ace0b7008000fd0001c7b300d9
:102f400081416000c10a200091407800f2c8b300be
:102f500082c0600083c070008000fd00ace0b7005c
:102f60008000fd00680160004311de00610920005f
:102f7000914078000104a10082c070008000fd0033
:102f800096e0b7008000fd000008b2004700de00b8
:102f90000040400061092000914078000114a10028
:102fa00080c070000100780096e0b70000000600c5
:102fb0000622a800000006000602a8000000060085
:102fc0000080fb00101088000080eb000842e20047
:102fd0000800350009c2bf000068a300fdff3a00e9
:102fe0006c010700e0ff2f000942e20001003500fc
:102ff0000000eb00000006000642a80000000600ea
:10300000889fbe008a9fbe008c9fbe00800578000e
:103010008106780002067800800478000005eb0045
:10302000150037000662a8000004eb00030037001b
:103030008c0f5400130031000804e80068010700f9
:103040000004e000faff32000010800080767d006e
:103050008904e90002003a0006a2a8000100370036
:1030600006a2a9000682a80006c2bf000048a3006d
:10307000fdff3a000a05e8008b0f5500e9ff3a0012
:103080008004eb00090078004f06be004f05be002b
:103090004f04be000000060017e2a9009a20a90014
:1030a0009a40a9008a20a9008a40a90000000600d1
:1030b000a1108800b0108800000006008a20a90036
:1030c0008a40a900e7416000c419dd00c10b20005f
:1030d00091407800f2c8b30082c0600083c07000e5
:1030e0008000fd00bce0b7008000fd00800178009a
:1030f0000307b200c419de00d10b20009140780014
:1031000082cfb30082c0600083c070008000fd00e9
:10311000bde0b7008000fd00680160004311de00e3
:1031200002414100a1092000914078000114a10052
:1031300082c070008000fd009ae0b7008000fd00b2
:103140000008b2004700de004200dd00a1092000b7
:10315000914078000124a10080c070000100780037
:103160009ae0b700000006001622a8000000060042
:103170001602a800000006000080fb0090108800e6
:103180000080eb001842e2000800350019c2bf00c1
:103190000068a300fdff3a0015010700e0ff2f00c3
:1031a0001942e200010035000000eb0000000600bb
:1031b0001642a80000000600889fbe008a9fbe003d
:1031c0008c9fbe008005780081067800020678009a
:1031d000800478000005eb00150037001662a80097
:1031e0000004eb00030037008c0f54001300310083
:1031f0000804e800110107000004e000faff3200b3
:103200008010800080767d008904e90002003a0089
:1032100016a2a8000100370016a2a9001682a80075
:1032200016c2bf000048a300fdff3a000a05e800ef
:103230008b0f5500e9ff3a008004eb00090078008d
:103240004f06be004f05be004f04be000000060042
:1032500030088800000006000621ef0061088800a1
:10326000800888001061a9000000060084e0a90021
:10327000e7416000c419dd00710a20009140780028
:10328000f2c8b30082c0600083c070008000fd00ff
:10329000a7e0b7008000fd00680060004300de008a
:1032a0004700dd0041092000914078000174a10031
:1032b00080c070000100780094e0b70000000600b4
:1032c00050088800000006000a21ef0071088800fd
:1032d00090088800000006008500a900e741600012
:1032e000810a20009140780082cfb30082c0600044
:1032f00083c070008000fd00a8e0b7008000fd00e2
:10330000680060004300de00510920009140780011
:103310000104a10080c070000100780095e0b700b2
:103320000000060055198800761988006419880085
:1033300087198800931988002219880011198800bc
:10334000001988000000d10061406000004040008a
:1033500001322000914078000114a10080c070006b
:103360000100780020e3b70000000600c2118800c9
:1033700080118800911188000000060087c0a90014
:1033800087e0a900e7416000310b20009140780000
:1033900082cfb30082c0600083c070008000fd0057
:1033a000b3e0b7008000fd0001c7b30081416000b9
:1033b000310b200091407800f2c8b30082c0600059
:1033c00083c070008000fd00b3e0b7008000fd0006
:1033d000680160004311de004611dd007109200024
:1033e000914078000164a10082c070008000fd005f
:1033f00097e0b7008000fd000008b2004700de0043
:103400004700dd0071092000914078000174a1009f
:1034100080c070000100780097e0b700000006004f
:1034200031e2a90097c0a90097e0a90087c0a900d0
:1034300087e0a9000000060030c2bf0066406000bf
:10344000e64f500002003a00b01180000000060074
:10345000b0118000f00fb20000000600800078007c
:1034600030c2bf0066406000e64f500001003200ed
:10347000f10fb200a11188000000060021e2a900ae
:103480009560a9009580a9008560a9008580a900a4
:103490000000060042118800001188001111880008
:1034a000000006008560a9008580a900e741600052
:1034b000c419dd00910a200091407800f2c8b300e1
:1034c00082c0600083c070008000fd00a9e0b700ea
:1034d0008000fd00800178000307b200c419de00ff
:1034e000a10a20009140780082cfb30082c0600022
:1034f00083c070008000fd00aae0b7008000fd00de
:10350000680160004311de004311dd005109200015
:10351000914078000134a10082c070008000fd005d
:1035200095e0b7008000fd000008b2004700de0013
:103530004400dd0051092000914078000144a100c1
:1035400080c070000100780095e0b7000000060020
:1035500020c2bf0066406000e64f500002003a0003
:10356000301180000000060030118000f00fb20022
:10357000000006008000780020c2bf0066406000a6
:10358000e64f500001003200f10fb2002111880017
:103590000000060006c2bf000008a300fdff3a00bd
:1035a00006c2bf000028a300faff3a0006c2bf000f
:1035b0000038a300f7ff3a0006c2bf000018a300be
:1035c000f4ff3a0006c2bf000048a300f1ff3a0032
:1035d00009c2bf000068a300eeff3a000000060029
:1035e00008c2bf000000d1006100600000000600ba
:1035f00016c2bf000008a300fdff3a0016c2bf00bc
:103600000028a300faff3a0016c2bf000038a3004a
:10361000f7ff3a0016c2bf000018a300f4ff3a00fb
:1036200016c2bf000048a300f1ff3a0019c2bf0054
:103630000068a300eeff3a000000060018c2bf00b9
:103640000000d100610060000000060080007800ea
:103650003004e000feff3a00010050000000e900e5
:103660000000060010417800b141510003003a000b
:103670000000e8000204e000faff3a000300fb004b
:1036800000000600800178000001780031407800d9
:10369000005978000004e000fcff3a0003007800c5
:1036a000000006008001780000017800010037006a
:1036b0000201e8001204e000fdff3a00314078000a
:1036c000005978000004e000fcff3a000300780095
:1036d000000006008001eb000200370061f0790075
:1036e0008301e800828f5100fcff3a0000000600d1
:1036f000889fbe000004be000000e00003003a0006
:10370000286581000800e000130032000800be00b8
:1037100014000700000444001804e00004003a000c
:103720000000eb0020658900000478000a003700e3
:103730000800be001e00070000004400206589004c
:103740001004e000020032000058eb0001003700d6
:103750000000eb0020658900080078004f04be00df
:1037600000000600889fbe008a1f780000057800d0
:10377000810478000004eb00010037000804e80031
:1037800068407d000004e000050032008000fb007e
:1037900009007800190007000000e000f7ff3a0078
:1037a000080078004f0578004f04be0000000600b6
:1037b000889fbe008a1f7800000578008104780089
:1037c0000004eb00010037000804e80068407d00b9
:1037d0000004e000050032008000fb0009007800d2
:1037e000060007000000e000f7ff32000800780044
:1037f0004f0578004f04be0000000600104178001d
:10380000814f5100040032000000e8000204e00093
:0c381000faff3a000000eb000000060088
:020000040000fa
:0200000401f009
:04000000feff0000ff
:020000040000fa
:0200000401f009
:04000800fbff0000fa
:020000040000fa
:0200000401f009
:04000c007bff000076
:020000040000fa
:0200000401f009
:04001000bdff000030
:020000040000fa
:0200000401f009
:040014007fff00006a
:020000040000fa
:0200000401f009
:04001800ffff0000e6
:020000040000fa
:0200000401f009
:04001c00deff000003
:020000040000fa
:102808003a250400000000003a25040000000000fa
:102818002e2504000000000022250400000000000e
:1028280016250400000000003a25040000000000fe
:102838003a250400000000003a25040000000000ca
:102848003a250400000000003a25040000000000ba
:102858003a250400000000003a25040000000000aa
:102868003a250400000000003a250400000000009a
:102878003a250400000000007a240400000000004b
:102888000e250400000000003a25040000000000a6
:102898003a25040000000000ca610400000000009e
:1028a8000e620400000000003a2504000000000049
:1028b8003a250400000000003a250400000000004a
:1028c8003a250400000000008248040000000000cf
:1028d8003a250400000000003a250400000000002a
:1028e8003a250400000000003a250400000000001a
:1028f8003a250400000000003a250400000000000a
:102908003a250400000000003a25040000000000f9
:102918003a250400000000003a25040000000000e9
:102928003a250400000000003a25040000000000d9
:10293800205f040000000000645f04000000000045
:102948003a250400000000003a25040000000000b9
:102958003a250400000000003a25040000000000a9
:102968003a250400000000003a2504000000000099
:102978003a250400000000003a2504000000000089
:102988003a250400000000003a2504000000000079
:102998003a250400000000003a2504000000000069
:1029a8003a250400000000003a2504000000000059
:1029b8003a250400000000003a2504000000000049
:1029c8003a250400000000003a2504000000000039
:1029d800fc4d0400000000003a250400000000003f
:1029e8003a250400000000003a2504000000000019
:1029f8003a250400000000003a2504000000000009
:102a08003a250400000000003a25040000000000f8
:102a18003a250400000000003a25040000000000e8
:102a28003a250400000000003a25040000000000d8
:102a38003a250400000000003a25040000000000c8
:102a48003a250400000000003a25040000000000b8
:102a58003a250400000000003a25040000000000a8
:102a68003a250400000000003a2504000000000098
:102a78003a250400000000003a2504000000000088
:102a88003a250400000000003a2504000000000078
:102a98003a250400000000003a2504000000000068
:102aa8003a250400000000003a2504000000000058
:102ab8003a250400000000003a2504000000000048
:102ac8003a250400000000003a2504000000000038
:102ad8003a250400000000003a2504000000000028
:102ae8003a250400000000003a2504000000000018
:102af8003a250400000000003a2504000000000008
:102b08003a250400000000003a25040000000000f7
:102b18003a250400000000003a25040000000000e7
:102b28003a250400000000003a25040000000000d7
:102b38003a250400000000003a25040000000000c7
:102b48003a250400000000003a25040000000000b7
:102b58003a250400000000003a25040000000000a7
:102b68003a250400000000003a2504000000000097
:102b78003a250400000000003a2504000000000087
:102b88003a250400000000003a2504000000000077
:102b98003a250400000000003a2504000000000067
:102ba8003a250400000000003a2504000000000057
:102bb8003a250400000000003a2504000000000047
:102bc8003a250400000000003a2504000000000037
:102bd8003a250400000000003a2504000000000027
:102be8003a250400000000003a2504000000000017
:020000040000fa
:10200000303200003a500000443a000038380000f6
:102010003836000030360000303a00003030000022
:102020003131000039390000353a0000420000002b
:020000040000fa
:101f8000303200003a500000443a00003030000087
:101f90003030000030300000303a000030300000b7
:101fa0003131000039390000353a000042000000ac
:020000040000fa
:10381c0030320000004e0000554c00004c000000ff
:10382c0050440000004d0000530000004d560000b5
:10383c00004d00004e000000465300000038000010
:10384c003838000036300000363000000030000000
:10385c003031000031390000393500000000000023
:10386c0039390000393600003837000030000000cc
:10387c0039390000393600003839000036000000b4
:04388c003a000000fe
:020000040000fa
:103890000800fa00889fbe000040eb001047980027
:1038a0000040eb00004f78006f0107000000eb00c4
:1038b000706389000040eb00604798000040eb0017
:1038c000504798000040eb0040479800e7c2bf0017
:1038d0000080fb004400de00614060008040780012
:1038e000b0c4220001487800b0c4220090407800a3
:1038f00000c7220001487800e7c2bf000080fb003b
:103900004700de0080407800a0c422000148780013
:10391000a0c422009040780010c72200014878001f
:10392000ea0107008040780080c722000148780043
:10393000d0638100e10f50000b003a00e7c2bf00e6
:103940000080fb004400de00e1406000e7c2bf00f1
:103950000080fb004700de0080cf500002003200f4
:1039600010002000406489000040eb00e666020081
:10397000000000000040eb00f665020000000000bf
:1039800080bb2000606389000000eb00930107000a
:1039900010002000910107000000370040c82200fd
:1039a00010407800e14f500001003a00110107007b
:1039b00040c72200104078000004e00015003a00e3
:1039c000e7c2bf000080fb004400de0061406000f1
:1039d00030479800b0c42200904078003e409000ec
:1039e00080cf500007003200b0c42200be409000db
:1039f0000148780041c7220040c1b30080487800e8
:103a000004003700b0c422009040780000c72200b4
:103a10000148780050c72200104078000004e00000
:103a200014003a00e7c2bf000080fb004700de0040
:103a300020479800a0c42200904078002e409000bb
:103a400080cf500007003200a0c42200ae4090009a
:103a50000148780051c7220040c1b3008048780077
:103a600004003700a0c422009040780010c7220054
:103a70000148780020c72200104078000004e000d0
:103a800010003a0000c7220010407800e14f5000bb
:103a90000c003a0010c7220010407800e14f50009f
:103aa00008003a0060c72200104078000004e000df
:103ab00019003a0021c7220010c0b30080487800e6
:103ac0001500370020c7220010407800e14f500059
:103ad0000e003a0000c722009040780010c7220074
:103ae0001040780080cf50000800320060c72200ec
:103af000104078000004e00007003a0021c72200cf
:103b00000040eb00804878000300370061c72200c6
:103b100080ceb3008048780030c722001040780083
:103b20000004e00010003a0000c7220010407800b6
:103b30000004e0000c003a0010c72200104078009a
:103b40000004e00008003a0070c72200104078002e
:103b50000004e00019003a0031c7220010c0b30091
:103b6000804878001500370030c7220010407800e8
:103b7000e14f50000e003a0000c72200904078004c
:103b800010c722001040780080cf5000080032009b
:103b900070c72200104078000004e00007003a00df
:103ba00031c722000040eb00804878000300370056
:103bb00071c7220080ceb300804878000000eb007f
:103bc000f80107000004e0006c003200fe6602000d
:103bd000000000000040eb004047980084670200ae
:103be000000000000004e00004003a009c660200af
:103bf000000000000004e000060032000040eb007e
:103c0000e6660200000000000040eb00f6650200de
:103c10000000000078670200000000000004e000df
:103c200022003200a8670200000000000004e0004b
:103c30001e0032006e4090000004e00006003200da
:103c40009067020000000000804078001e40900055
:103c500080cf50001200320010002000d101070078
:103c60008044780090670200000000000040e800f7
:103c700000447800906702000000000009417800cd
:103c800088407800846802000000000010c0b30083
:103c900060479800906702000000000010479800fd
:103ca0009a68020000000000060037000040eb00a8
:103cb000604798000000eb00c800070010002000db
:103cc000c600070010002000b60107000004e00055
:103cd000270032001a660200000000009066020011
:103ce000000000000004e0001c003200c06602007a
:103cf000000000000004e000180032005e40900068
:103d00000004e00004003200a86602000000000089
:103d10009e4f50000e003200a86602000000000016
:103d20000040e80000447800a8660200000000009f
:103d300088407800d26802000000000010c0b30084
:103d400050479800a866020000000000004f78006d
:103d5000e46802000000000010ff37000040eb00a4
:103d600050479800100020009c0007000bff370010
:103d70000040eb005047980008ff37004e4090008d
:103d80000004e0000a003a000040eb0060479800a1
:103d90000040eb00504798006a60020000000000fd
:103da000b85d02000000000010c0b300404798005a
:103db000f25d0200000000000004e0000400320098
:103dc000325e0200000000007a6102000000000084
:103dd0009c600200000000000004e000effe3200e2
:103de000dc60020000000000d05e02000000000065
:103df000eafe37000000fa0040c822008040eb00d5
:103e0000014878000000eb00660107000004e000b4
:103e1000130032006a67020000000000866602009c
:103e20000000000078670200000000000004e000cd
:103e300003003200b06802000000000002003700fa
:103e40000040eb00d5000700906602000000000073
:103e50000004e00002003200fa68020000000000e6
:103e60000080fa00000006000000fa004174200003
:103e70009140780000ceb30000c0600044e7b70076
:103e8000313a800000e02f0000806000e104200053
:103e900001007000303a880044c7bf00f043b20010
:103ea00044e7b700317420009140780080cfb30020
:103eb00000c060000004a00043e7b7005174200078
:103ec00091407800f0c8b30000c0600045e7b7003b
:103ed0004567a900517420009140780080cfb3005d
:103ee00000c0600045e7b700c622a800c602a800cf
:103ef000cc42a800cc22a800e582a800e5e2a800f8
:103f0000c6a2a800fd0107001a0207000000eb008e
:103f100032000700100020003000070050000700aa
:103f20000000eb006063890041c722000040eb0005
:103f30008048780051c722000040eb00804878009c
:103f400061c7220080ceb3008048780071c722008c
:103f500080ceb300804878005c0007008040780085
:103f600080c722000148780001c722000040eb0012
:103f70008048780011c722000040eb00804878009c
:103f80000040eb00e6660200000000000041eb008c
:103f90008040eb000040eb0084680200000000005d
:103fa0000040eb00f6650200000000008040eb00de
:103fb0000040eb00d2680200000000003c38020024
:103fc00000000000d262a900d662a8000000eb0049
:103fd000003a88000080fa00000006000400fa00a1
:103fe000000f78000000eb00ee0007000004e00086
:103ff00009003a0010002000ea0007000004e00079
:1040000005003a000040eb006400070010002000ab
:10401000100798000f0037001e007800e10007002d
:10402000e14f500009003a001e007800cd00070063
:104030000004e00005003a000040eb0057000700d4
:104040001000200010079800020037000000eb006d
:10405000100798001e0090000080fa000000060083
:104060000000fa000000eb00281902000000000028
:1040700081382100d0f92f002c1902000000000027
:1040800084e0a90094e0a80090ff2f0036190200f8
:10409000000000000000eb006019020000000000ba
:1040a000915f2100d0f92f00641902000000000088
:1040b0008500a9009500a80090ff2f006c19020050
:1040c000000000000080fa00000006000200fa0074
:1040d0000040eb00004f7800cec2bf000080fb0024
:1040e0000000d1000004a200614060006140600057
:1040f00061406000e1406000e0cfb3001e4f60000f
:104100001ecf7000cec2bf000080fb004200de0068
:104110000004a200614060006140600061406000f6
:104120006140600080404000d0cfb3001e4f60006f
:104130001ecf7000c8c2bf000004a2006140600032
:10414000614060006140600061406000c200dd00cd
:10415000b0cfb3001e4f60001ecf7000c8c2bf00ba
:104160000080fb000000d1000004a200614060005c
:10417000614060006140600061406000c300dd009c
:1041800070cfb3001e4f60001ecf70001e4078003d
:104190000080fb000080fa00000006000600fa0024
:1041a000004f78001e80fb00200798002e00900032
:1041b0000000e000040032002e009000e10f5000eb
:1041c000160032002f0037000000eb003064890039
:1041d000d06381000000e00003003a00d202a90091
:1041e000d602a9000a003700d242a900d642a9008f
:1041f0000000eb00500c88000000eb00200c880051
:10420000d222a900d622a900d202a900d602a80073
:1042100010002000100798001c003700d0638100b8
:104220000000e00003003a00d202a900d602a80074
:1042300011003700d242a900d642a80030648100a4
:104240000000e0000a003a0080c722001040780019
:10425000e24f500002003a0052010700040037000c
:10426000d202a900d602a900d222a900d622a80013
:104270001000200030648900100020001007980012
:10428000020037000000eb00100798001e009000ad
:104290000080fa00000006000200fa00d0638100ee
:1042a0000000e00005003a00d6c2bf000080fb001d
:1042b00061006000000f7800030037003064810067
:1042c0000080fb00000f78001e0078000080fa00dc
:1042d000000006000200fa0000c72200104078002b
:1042e0008000eb00010f78000004e00002003a00bb
:1042f00010002000000f78001e0078000080fa00f7
:10430000000006000200fa0010c7220010407800ea
:104310008000eb00010f78000004e00002003a008a
:1043200010002000000f78001e0078000080fa00c6
:10433000000006000000fa0020c7220010407800ac
:104340000080fb000080fa00000006000000fa0078
:1043500030c72200104078000080fb000080fa0087
:10436000000006000400fa00000f78001e0078002c
:104370001c00070061c12900321b02000000000080
:104380008000eb00110798000000e00002003a00f6
:1043900010002000100798001e0090000080fa0016
:1043a000000006000400fa00000f78001e007800ec
:1043b0000c00070011c12900321b020000000000a0
:1043c000100798001e0090000000e000020032007c
:1043d00010002000100798001e0090000080fa00d6
:1043e000000006000800fa00000f78001e00e00040
:1043f0004e003a0080c72200104078000080fb0089
:10440000300798003e009000e40f50002c0032006e
:104410003e009000e40f50000a003c003e00900077
:10442000e20f50001a0032003e009000e20f5000f0
:104430001a003c003e009000e10f50000b003200db
:10444000370037003e009000e60f50002800320091
:104450003e009000e60f50001c0035003e0090002a
:10446000e70f5000250032002d003700d063810097
:104470000000e00003003a0060c129002007980016
:104480009b00370010c129002007980098003700d2
:1044900090c129002007980095003700d063810063
:1044a0000000e00003003a0090c1290020079800b6
:1044b0008f003700c0c12900200798008c0037000a
:1044c000f0c129002007980089003700d0638100df
:1044d0000000e00003003a00f0c129002007980026
:1044e0008300370010c129002007980080003700a2
:1044f00020c22900200798007d003700d06381008a
:104500000000e00003003a0020c2290020079800c4
:104510007700370010c12900200798007400370089
:1045200010c12900200798007100370080c72200c1
:10453000104078000080fb00100798001e009000db
:10454000e40f5000380032001e009000e40f5000cd
:104550000a003c001e009000e20f500014003200e0
:104560001e009000e20f500020003c001e00900052
:10457000e10f50000b0032005b0037001e0090007e
:10458000e60f5000400032001e009000e60f500081
:10459000340035001e009000e70f50004900320043
:1045a0005100370010c12900200798005000370043
:1045b000d06381000000e00003003a0010c1290030
:1045c000200798004a003700406481000000e000a6
:1045d0000300320060c12900200798004400370022
:1045e00010c129002007980041003700d0638100e6
:1045f0000000e00003003a0060c129002007980095
:104600003b003700406481000000e00003003200fe
:1046100060c12900200798003500370010c129002b
:104620002007980032003700d06381000000e000ce
:1046300003003a0010c12900200798002c00370021
:10464000406481000000e0000300320060c12900e6
:10465000200798002600370010c129002007980085
:1046600023003700d06381000000e00003003a001f
:1046700060c12900200798001d00370010c12900e3
:10468000200798001a003700d06381000000e00086
:1046900003003a0010c129002007980014003700d9
:1046a000406481000000e0000300320060c1290086
:1046b000200798000e00370010c12900200798003d
:1046c0000b003700d06381000000e00003003a00d7
:1046d00060c12900200798000500370010c129009b
:1046e000200798000200370010c129002007980019
:1046f0002e0090000080fa00000006001000fa0072
:1047000021e3a900d08127007007980000842000d1
:1047100060079800604026005007980080ff2f0037
:10472000400798000000eb00100798000000eb0025
:10473000000f78000080eb00300798000080eb004d
:10474000200798009e0378001e039000be02900090
:104750002e029000ce0190005e019000ee009000cd
:104760007e00900092190200000000000080fa0014
:10477000000006000000fa00c8c2bf000042b200fc
:104780000004e0000300320010002000d063890024
:10479000020037000000eb00d06389000080fa00bf
:1047a000000006000000fa00c012200070638900bb
:1047b000d222a900d622a800d202a900d602a900be
:1047c0000080fa00000006000400fa000000eb0080
:1047d00060190200000000008500a9000000eb0045
:1047e000500c8800700880006103b80086007800d3
:1047f00080022000000ab8006030b900050178008e
:10480000000141008002200000b8b9000001410011
:104810008202780042062000030020000400be004f
:104820005617020000000000008fbe001e00780036
:10483000400c880070088000300c88008ba1a90013
:104840008a81a9008a61a800a118200091407800ff
:1048500080cfb30000c060005040b3008ae1b700d1
:1048600094c0a9000000eb00200c880070088000b4
:104870006103b8008600780080022000000ab800ba
:104880006030b9000501780000014100800220007d
:1048900000b8b90000014100820278004206200001
:1048a000030020000400be005617020000000000b4
:1048b000008fbe000000eb00100c88001e00780086
:1048c000000c880085a1a9008481a9008461a8004a
:1048d000411820009140780080cfb30000c06000f4
:1048e0006040b30084e1b7009440a9000080fa0062
:1048f000000006003600f800809fbe00829fbe00c8
:10490000849fbe00869fbe000000fa0040c82200bf
:1049100011c0b300014878007e4a02000000000088
:10492000606381000000e0000300320060638100ea
:104930000000e9006063890040c722001040780051
:104940000004e0000500320040c72200104078005b
:104950008040e90040c722000148780050c722008b
:10496000104078000004e0000500320050c722002b
:10497000104078008040e90050c7220001487800cc
:1049800060c72200104078000004e00005003200fb
:1049900060c72200104078008040e90060c7220014
:1049a0000148780070c72200104078000004e00041
:1049b0000500320070c72200104078008040e900f6
:1049c00070c7220001487800706381000000e00099
:1049d0000a00320030648100e10f500007003a0005
:1049e000706381000000e9007063890070638100da
:1049f0000000e00001003a0073ff070084e0a90016
:104a00000080fa004f03be004f02be004f01be00ff
:104a10004f00be003600f900004006000000fa001a
:104a20008500a9000080fa00004006000000fa009e
:104a30000000000000000000000000000080fa00fc
:104a4000004006000000fa00000000000000000026
:104a5000000000000080fa00004006000000fa009c
:104a60000000000000000000000000000080fa00cc
:104a7000004006000000fa000000000000000000f6
:104a8000000000000080fa00004006000000fa006c
:104a9000a1c822000040eb0080487800b1c8220085
:104aa0000040eb0080487800c1c822000040eb00c5
:104ab00080487800d1c822000040eb008048780090
:104ac000b8590200000000000080fa000000060053
:104ad0009800fa00463d02000000000010579800c0
:104ae000523d0200000000000080fb00100f980003
:104af0003a3d02000000000000579800323d0200dd
:104b000000000000600798005e3d02000000000009
:104b1000704f98006a3d020000000000604f98004e
:104b20001e0890006101b800228f9800338f980012
:104b3000200b2000010020002e899000be899000eb
:104b4000800f5100818f5900e4033e002e889000b1
:104b5000be88900000600100b2003700df0337001c
:104b6000de033700dd033700bb003700db0337000f
:104b7000be003700d9033700d8033700d70337000a
:104b8000d6033700d5033700d4033700d3033700eb
:104b9000d2033700d1033700d0033700cf033700eb
:104ba000ce033700cd033700cc033700bc003700fd
:104bb000c8003700c9033700c8033700c7033700f0
:104bc000c6033700c5033700c4033700ce003700e3
:104bd000da003700e7003700f7003700040137003c
:104be00034013700a5013700ed01370035023700e9
:104bf0007b023700a4023700b8033700b703370041
:104c0000b6033700b5033700b4033700b3033700ea
:104c1000b2033700b1033700b0033700af033700ea
:104c2000ae033700ad033700ac033700ab033700ea
:104c3000aa033700a9033700a8033700a7033700ea
:104c4000a6033700a5033700a4033700a3033700ea
:104c5000a2033700a1033700a00337009f033700ea
:104c60009e0337009d0337009c0337009b033700ea
:104c70009a033700990337009803370097033700ea
:104c800096033700950337009403370093033700ea
:104c90009203370091033700900337008f033700ea
:104ca0008e0337008d0337008c0337008b033700ea
:104cb0008a033700890337008803370087033700ea
:104cc00086033700850337008403370083033700ea
:104cd0008203370081033700800337007f033700ea
:104ce0007e0337007d0337007c0337007b033700ea
:104cf0007a033700790337007803370077033700ea
:104d000076033700750337007403370073033700e9
:104d10007203370071033700700337006f033700e9
:104d20006e0337006d0337006c0337006b033700e9
:104d30006a033700690337006803370067033700e9
:104d400066033700650337006403370063033700e9
:104d50006203370061033700600337005f033700e9
:104d60005e0337005d0337005c0337005b033700e9
:104d70005a033700590337005803370057033700e9
:104d800056033700550337005403370053033700e9
:104d90005203370051033700500337004f033700e9
:104da0004e0337004d0337004c0337004b033700e9
:104db0004a033700490337004803370047033700e9
:104dc00046033700450337004403370043033700e9
:104dd0004203370041033700400337003f033700e9
:104de0003e0337003d0337003c0337003b033700e9
:104df0003a0337003903370038033700a60237007b
:104e0000b702370015033700230337003303370099
:104e100032033700310337002802370054023700cd
:104e2000ca023700f400470060c0b3008048780031
:104e30001e089000804078007400470014c0b30042
:104e4000800178001e5190006e489000763d02006f
:104e500000000000390337009c67020000000000da
:104e6000e66602000000000034033700f40047004b
:104e700060c0b300804878001e0890008040780031
:104e80007400470014c0b300800178001e519000e8
:104e90006e489000763d02000000000027033700b6
:104ea000f400470060c0b300804878001e089000fe
:104eb000804078007400470014c0b300800178007f
:104ec0001e5190006e489000763d020000000000e8
:104ed0001a033700f400470060c0b3008048780030
:104ee0001e089000804078007400470014c0b30092
:104ef000800178001e5190006e489000763d0200bf
:104f0000000000000d033700f400470060c0b3004c
:104f1000804878001e0890008040780074004700a8
:104f200014c0b300800178001e5190006e489000bc
:104f3000763d0200000000000003370074004700c7
:104f40003c37020000000000005798001e08900047
:104f500080407800740047000e5290008001780075
:104f60001e5190006e489000763d02000000000047
:104f7000f20237008e5090006e009000e83602007a
:104f800000000000f400470060c0b30080487800d3
:104f90001e089000804078007400470014c0b300e1
:104fa000800178001e5190006e489000763d02000e
:104fb00000000000e1023700f400470060c0b300c9
:104fc000804878001e0890008040780074004700f8
:104fd00014c0b300800178001e5190006e4890000c
:104fe000763d02000000000017030700d3023700df
:104ff000f4004700a0c3b300804878000040eb00f5
:10500000904098006e009000e1c02900421b020011
:1050100000000000f40047006e009000521b0200e8
:10502000000000000000eb00f22102000000000080
:10503000800078006e009000521b0200000000000b
:10504000f40047006e009000521b020000000000b8
:105050006e00900051c22900521b020000000000a7
:10506000f40047006e009000521b02000000000098
:105070006e009000d1c22900521b02000000000007
:105080006e009000261b02000000000080407800a7
:105090001e08900001427800ee0190001e51900021
:1050a000804078006e489000763d020000000000cd
:1050b000a20237000e5090000081fb0074004700f0
:1050c000ee0090006a1b0200000000000e509000ed
:1050d0000080fb00800078006e009000808040001f
:1050e0000040eb00804878006e00900061c4290009
:1050f000781b02000000000060079800ee0090009e
:1051000080c32200421b02000000000061c429008d
:105110000000eb00781b0200000000006007980010
:10512000ee00900080c12200421b0200000000003f
:1051300061c429000000eb00781b020000000000a1
:1051400060079800ee00900080bf2200421b020022
:105150000000000061c429000000eb00781b020081
:105160000000000060079800ee00900080bd220063
:10517000421b020000000000d1c2290080bd2200b5
:10518000321b0200000000000000e00022003a0094
:10519000740047008e509000da59020000000000b1
:1051a000a1c8220010c0b30080487800b0c8220017
:1051b000ee489000014878001e089000804078007a
:1051c000c0c8220001487800d0c822001e519000bb
:1051d00002487800f400470020c5b30080487800fa
:1051e000f40047000040eb0090409800b0c8220057
:1051f000904278007400470024c0b300800178001a
:10520000e2cfb30081c2b30005407800763d0200d2
:105210000000000049023700f400470030c0b3002e
:10522000804878001e089000804078007400470095
:1052300011409800f40047000040eb00a0409800a7
:10524000f40047000040eb00b0409800f400470035
:105250000040eb00c04098007400470054c0b30009
:10526000800178001e51900051c1b3006e4890003b
:10527000763d02000000000030023700a0c8220086
:1052800010407800e14f500019003a00f400470048
:1052900070c0b300804878001e08900080407800fd
:1052a0007400470011409800f40047000040eb00f4
:1052b000a0409800f40047000040eb00b040980088
:1052c000f40047000040eb00c04098007400470025
:1052d00054c0b300800178001e51900051c1b3004a
:1052e0006e489000763d0200000000001302370077
:1052f0008e5090006e0090005e5a02000000000088
:10530000e14f50000d003a00f400470060c0b300c8
:10531000804878001e0890008040780074004700a4
:1053200014c0b300800178001e5190006e489000b8
:10533000763d02000000000000023700f400470044
:1053400030c0b300804878001e089000804078008c
:105350007400470011409800f40047000040eb0043
:10536000a0409800f40047000040eb00b0409800d7
:10537000f40047000040eb00c04098007400470074
:1053800054c0b300800178001e51900051c1b30099
:105390006e489000763d020000000000e7013700f3
:1053a000a0c8220010407800e14f500019003a00d8
:1053b000f400470070c0b300804878001e089000d9
:1053c000804078007400470011409800f4004700c6
:1053d0000040eb00a0409800f40047000040eb00c4
:1053e000b0409800f40047000040eb00c040980037
:1053f0007400470054c0b300800178001e51900033
:1054000051c1b3006e489000763d020000000000dc
:10541000ca0137008e5090006e009000485b020079
:1054200000000000e14f50000d003a00f40047007a
:1054300060c0b300804878001e089000804078006b
:105440007400470014c0b300800178001e51900022
:105450006e489000763d020000000000b701370062
:10546000f400470030c0b300804878001e08900068
:10547000804078007400470011409800f400470015
:105480000040eb00a0409800f40047000040eb0013
:10549000b0409800f40047000040eb00c040980086
:1054a0007400470054c0b300800178001e51900082
:1054b00051c1b3006e489000763d0200000000002c
:1054c0009e013700a0c8220010407800e14f500034
:1054d00019003a00f400470070c0b300804878001b
:1054e0001e0890008040780074004700114098002a
:1054f000f40047000040eb00a0409800f400470093
:105500000040eb00b0409800f40047000040eb0082
:10551000c04098007400470054c0b3008001780078
:105520001e51900051c1b3006e489000763d0200bc
:105530000000000081013700645c020000000000f0
:10554000e14f50000d003a00f400470060c0b30086
:10555000804878001e089000804078007400470062
:1055600014c0b300800178001e5190006e48900076
:10557000763d02000000000070013700f400470093
:1055800070c0b300804878001e089000804078000a
:105590007400470011409800f40047000040eb0001
:1055a000a0409800f40047000040eb00b040980095
:1055b000f40047000040eb00c04098007400470032
:1055c00054c0b300800178001e51900051c1b30057
:1055d0006e489000763d0200000000005701370041
:1055e000a0c8220010407800e14f500019003a0096
:1055f000f400470070c0b300804878001e08900097
:10560000804078007400470011409800f400470083
:105610000040eb00a0409800f40047000040eb0081
:10562000b0409800f40047000040eb00c0409800f4
:105630007400470054c0b300800178001e519000f0
:1056400051c1b3006e489000763d0200000000009a
:105650003a013700f400470060c0b300804878008a
:105660001e089000804078007400470014c0b3000a
:10567000800178001e5190006e489000763d020037
:10568000000000002d013700f400470060c0b300a7
:10569000804878001e089000804078007400470021
:1056a00014c0b300800178001e5190006e48900035
:1056b000763d020000000000200137000000eb00f2
:1056c000b2210200000000000004e0000f003a00d8
:1056d0004c21020000000000804078007400470068
:1056e000014878001e089000804078007400470050
:1056f00014c0b300800178001e5190006e489000e5
:10570000763d0200000000000c013700f400470065
:1057100040c0b300804878001e08900080407800a8
:105720007400470011409800f40047000040eb006f
:10573000a0409800f40047000040eb00b040980003
:10574000f40047000040eb00c040980074004700a0
:1057500054c0b300800178001e51900051c1b300c5
:105760006e489000763d020000000000f300370014
:105770000000eb00b2210200000000000004e00085
:105780002c003a006e00900010407800ce200200fd
:1057900000000000e14f50000d003a00f400470007
:1057a00060c0b300804878001e08900080407800f8
:1057b0007400470014c0b300800178001e519000af
:1057c0006e489000763d020000000000db003700cc
:1057d000f400470030c0b300804878001e089000f5
:1057e000804078007400470011409800f4004700a2
:1057f0000040eb00a0409800f40047000040eb00a0
:10580000b0409800f40047000040eb00c040980012
:105810007400470054c0b300800178001e5190000e
:1058200051c1b3006e489000763d020000000000b8
:10583000c2003700f400470040c0b3008048780041
:105840001e089000804078007400470011409800c6
:10585000f40047000040eb00a0409800f40047002f
:105860000040eb00b0409800f40047000040eb001f
:10587000c04098007400470054c0b3008001780015
:105880001e51900051c1b3006e489000763d020059
:1058900000000000a900370074004700ce35020068
:1058a0000000000074004700261b020000000000fa
:1058b000804078001e089000804278007400470005
:1058c00001427800800178001e51900085407800e8
:1058d0006e489000763d02000000000097003700ff
:1058e0000e5090000080fb00800078006e00900059
:1058f000808040000040eb00804878006e009000ff
:10590000ff0040000040eb00804878006e009000ef
:105910008035020000000000f400470060c0b300c2
:10592000804878001e08900080407800740047008e
:1059300014c0b300800178001e5190006e489000a2
:10594000763d0200000000007c0037000000eb0004
:10595000b2210200000000000004e0002600320036
:105960006a210200000000008040780074004700b7
:1059700001487800f40047000040eb009040980098
:105980009a210200000000000004e000060032003e
:105990007400470010409000804078000104a0008f
:1059a0007400470011409800a6210200000000008a
:1059b0000004e00006003200740047001040900030
:1059c000804078000114a000740047001140980046
:1059d0001e089000804078007400470024c0b30087
:1059e000800178001e5190006e489000763d0200c4
:1059f0000000000051003700f400470040c0b30031
:105a0000804878001e0890008040780074004700ad
:105a100011409800f40047000040eb00a0409800bf
:105a2000f40047000040eb00b0409800f40047004d
:105a30000040eb00c04098007400470054c0b30021
:105a4000800178001e51900051c1b3006e48900053
:105a5000763d02000000000038003700a867020011
:105a60000000000080407800740047000148780082
:105a70001e089000804078007400470014c0b300f6
:105a8000800178001e5190006e489000763d020023
:105a900000000000290037006e00900010407800e0
:105aa000b467020000000000f400470060c0b300cb
:105ab000804878001e0890008040780074004700fd
:105ac00014c0b300800178001e5190006e48900011
:105ad000763d02000000000018003700f400470087
:105ae00040c0b300804878001e08900080407800d5
:105af0007400470011409800f40047000040eb009c
:105b0000a0409800f40047000040eb00b04098002f
:105b1000f40047000040eb00c040980074004700cc
:105b200054c0b300800178001e51900051c1b300f1
:105b30006e489000763d0200000000000080fa00f0
:105b4000000006000200fa00a0c822001040780001
:105b5000e14f500034003a0090c422001040780019
:105b60008040e80090c422000148780090c42200e0
:105b700010407800ea4f50003100360091c42200f6
:105b80000040eb0080487800185a02000000000036
:105b900080407800a0c822000148780020c5b300ea
:105ba000004f7800e0c822001040780010479800ad
:105bb000b0c822001040780024c0b3008e017800e5
:105bc000e2cfb30081c2b300763d020000000000c6
:105bd000a0c82200104078000004e0000c003a0049
:105be00060c0b300004f7800d0c822001041780098
:105bf000c0c8220090407800b0c822001040780051
:105c000014c0b3008e017800763d02000000000051
:105c1000e0c82200104078008040e800e0c8220080
:105c2000014878000600370091c422000040eb00d4
:105c300080487800e1c8220010c0b3008048780096
:105c40000080fa00000006000000fa00b0610200c7
:105c5000000000000000e000fcff320000a821006e
:105c60006100200032160200000000000000fe006b
:105c70000080fa00000006009a00fa00ce420200fe
:105c80000000000010579800da42020000000000f7
:105c9000100f9800c2420200000000000057980058
:105ca000ba4202000000000060079800e6420200cd
:105cb00000000000704f98006a3d020000000000e4
:105cc000604f98001e0890006101b800328f980064
:105cd000438f9800200b2000010020003e89900097
:105ce000ce899000800f5100818f5900f0023e0054
:105cf0003e889000ce88900000600100b20037001e
:105d0000eb023700ea023700e9023700bd00370036
:105d1000e7023700c0003700e5023700e402370031
:105d2000e3023700e2023700e1023700e002370009
:105d3000df023700de023700dd023700dc02370009
:105d4000db023700da023700d9023700d802370009
:105d5000c0003700ce003700d5023700d40237002c
:105d6000d3023700d2023700d1023700d002370009
:105d7000d6003700e4003700f50037000701370090
:105d8000170137004801370056013700640137001a
:105d900072013700800137008e013700c4023700de
:105da000c3023700c2023700c1023700c002370009
:105db000bf023700be023700bd023700bc02370009
:105dc000bb023700ba023700b9023700b802370009
:105dd000b7023700b6023700b5023700b402370009
:105de000b3023700b2023700b1023700b002370009
:105df000af023700ae023700ad023700ac02370009
:105e0000ab023700aa023700a9023700a802370008
:105e1000a7023700a6023700a5023700a402370008
:105e2000a3023700a2023700a1023700a002370008
:105e30009f0237009e0237009d0237009c02370008
:105e40009b0237009a023700990237009802370008
:105e50009702370096023700950237009402370008
:105e60009302370092023700910237009002370008
:105e70008f0237008e0237008d0237008c02370008
:105e80008b0237008a023700890237008802370008
:105e90008702370086023700850237008402370008
:105ea0008302370082023700810237008002370008
:105eb0007f0237007e0237007d0237007c02370008
:105ec0007b0237007a023700790237007802370008
:105ed0007702370076023700750237007402370008
:105ee0007302370072023700710237007002370008
:105ef0006f0237006e0237006d0237006c02370008
:105f00006b0237006a023700690237006802370007
:105f10006702370066023700650237006402370007
:105f20006302370062023700610237006002370007
:105f30005f0237005e0237005d0237005c02370007
:105f40005b0237005a023700590237005802370007
:105f50005702370056023700550237005402370007
:105f60005302370052023700510237005002370007
:105f70004f0237004e0237004d0237004c02370007
:105f80004b0237004a023700490237004802370007
:105f90004702370046023700450237004402370007
:105fa000a6013700b80137001d0237002d02370067
:105fb0003f0237003e0237003d0237001401370030
:105fc00045013700cd013700f400470060c0b30041
:105fd000804878001e5090000081fb006e489000c1
:105fe0008082fb00740047001400200080017800cc
:105ff0009e08900005007800fe42020000000000ac
:1060000046023700b466020000000000f665020098
:106010000000000041023700f400470060c0b300f8
:10602000804878001e5090000081fb006e48900070
:106030008082fb007400470014002000800178007b
:106040009e08900005007800fe420200000000005b
:1060500032023700f400470060c0b3008048780087
:106060001e5090000081fb006e4890008082fb0073
:106070007400470014002000800178009e08900002
:1060800005007800fe4202000000000023023700f5
:10609000f400470060c0b300804878001e509000b4
:1060a0000081fb006e4890008082fb007400470076
:1060b00014002000800178009e0890000500780000
:1060c000fe4202000000000014023700f400470006
:1060d00060c0b300804878001e5090000081fb0033
:1060e0006e4890008082fb0074004700140020007e
:1060f000800178009e08900005007800fe420200b2
:10610000000000000502370074004700e03702007d
:1061100000000000005798000e5090008080fb00a7
:106120001e5090000081fb006e4890008082fb00b2
:106130007400470001027800800178009e089000fa
:1061400005007800fe42020000000000f301370065
:106150008e5090006e0090008c370200000000000e
:10616000f400470060c0b300804878001e509000e3
:106170000081fb006e4890008082fb0074004700a5
:1061800014002000800178009e089000050078002f
:10619000fe42020000000000e0013700f40047006a
:1061a00060c0b300804878001e5090000081fb0062
:1061b0006e4890008082fb007400470014002000ad
:1061c000800178009e08900005007800fe420200e1
:1061d000000000000e66020000000000cf01370042
:1061e000f4004700a0c3b300804878000040eb00f3
:1061f000904098006e009000e1c02900421b020010
:1062000000000000f40047006e009000521b0200e6
:106210000000000010002000f22102000000000039
:10622000800078006e009000521b02000000000009
:10623000f40047006e009000521b020000000000b6
:106240006e00900051c22900521b020000000000a5
:10625000f40047006e009000521b02000000000096
:106260006e009000d1c22900521b02000000000005
:106270006e009000261b02000000000080007800e5
:106280001e5090000081fb006e4890000080fb00d3
:1062900001027800ee0190009e089000fe4202008c
:1062a000000000009d013700f400470060c0b3000b
:1062b000804878001e5090000081fb006e489000de
:1062c0008082fb00740047001400200080017800e9
:1062d0009e08900005007800fe42020000000000c9
:1062e0008e013700f400470060c0b300804878009a
:1062f0001e5090000081fb006e4890008082fb00e1
:106300007400470014002000800178009e0890006f
:1063100005007800fe420200000000007f01370007
:10632000f400470060c0b300804878001e50900021
:106330000081fb006e4890008082fb0074004700e3
:1063400014002000800178009e089000050078006d
:10635000fe4202000000000070013700f400470018
:1063600060c0b300804878001e5090000081fb00a0
:106370006e4890008082fb007400470014002000eb
:10638000800178009e08900005007800fe4202001f
:106390000000000061013700f400470060c0b30056
:1063a000804878001e5090000081fb006e489000ed
:1063b0008082fb00740047001400200080017800f8
:1063c0009e08900005007800fe42020000000000d8
:1063d00052013700f400470060c0b30080487800e5
:1063e0001e5090000081fb006e4890008082fb00f0
:1063f0007400470014002000800178009e0890007f
:1064000005007800fe420200000000004301370052
:1064100010002000b2210200000000000004e00093
:1064200011003a004c21020000000000804078007a
:1064300074004700014878001e5090000081fb0066
:106440006e4890008082fb0074004700140020001a
:10645000800178009e08900005007800fe4202004e
:10646000000000002d013700f400470040c0b300d9
:10647000804878001e089000804078007400470033
:1064800011409800f40047000040eb00a040980045
:10649000f40047000040eb00b0409800f4004700d3
:1064a0000040eb00c04098001e5090000081fb00af
:1064b0006e4890008082fb0074004700540020006a
:1064c000800178005101200005007800fe420200a2
:1064d000000000001101370010002000b22102006e
:1064e000000000000004e00038003a006e00900058
:1064f000104078008040eb0041579900e14f500078
:1065000002003a0012c0b300425799004e50910069
:10651000ce200200000000000004e0000f00320066
:10652000f400470060c0b300804878001e5090001f
:106530000081fb006e4890008082fb0074004700e1
:1065400014002000800178009e089000050078006b
:10655000fe42020000000000f0003700f400470097
:1065600030c0b300804878001e089000804078005a
:106570007400470011409800f40047000040eb0011
:10658000a0409800f40047000040eb00b0409800a5
:10659000f40047000040eb00c04098001e509000ff
:1065a0000081fb006e4890008082fb007400470071
:1065b000540020008001780051012000050078007f
:1065c000fe42020000000000d4003700f400470043
:1065d00040c0b300804878001e08900080407800da
:1065e0007400470011409800f40047000040eb00a1
:1065f000a0409800f40047000040eb00b040980035
:10660000f40047000040eb00c04098001e5090008e
:106610000081fb006e4890008082fb007400470000
:10662000540020008001780051012000050078000e
:10663000fe42020000000000b80037006e0090002b
:10664000823602000000000074004700261b020092
:1066500000000000800078001e5090000081fb00c8
:106660006e4890008082fb007400470001027800b1
:10667000800178009e08900005007800fe4202002c
:1066800000000000a50037000e5090000080fb00c5
:10669000800078006e009000808040000040eb0099
:1066a000804878006e009000ff0040000040eb0042
:1066b000804878006e009000343602000000000030
:1066c000f400470060c0b300804878001e5090007e
:1066d0000081fb006e4890008082fb007400470040
:1066e00014002000800178009e08900005007800ca
:1066f000fe42020000000000880037001000200069
:10670000b2210200000000000004e0002800320076
:106710006a210200000000008040780074004700f9
:1067200001487800f40047000040eb0090409800da
:106730009a210200000000000004e0000600320080
:106740007400470010409000804078000104a000d1
:106750007400470011409800a621020000000000cc
:106760000004e00006003200740047001040900072
:10677000804078000114a000740047001140980088
:106780001e5090000081fb006e4890008082fb004c
:106790007400470024002000800178009e089000cb
:1067a00005007800fe420200000000005b00370098
:1067b000f400470040c0b300804878001e089000f5
:1067c000804078007400470011409800f4004700b2
:1067d0000040eb00a0409800f40047000040eb00b0
:1067e000b0409800f40047000040eb00c040980023
:1067f0001e5090000081fb006e4890008082fb00dc
:1068000074004700540020008001780051012000ee
:1068100005007800fe420200000000003f00370043
:10682000c06602000000000080407800740047004d
:10683000014878001e5090000081fb006e489000d7
:106840008082fb0074004700140020008001780063
:106850009e08900005007800fe4202000000000043
:106860002e0037006e00900010407800cc660200c9
:1068700000000000f400470060c0b30080487800ca
:106880001e5090000081fb006e4890008082fb004b
:106890007400470014002000800178009e089000da
:1068a00005007800fe420200000000001b003700d7
:1068b000f400470040c0b300804878001e089000f4
:1068c000804078007400470011409800f4004700b1
:1068d0000040eb00a0409800f40047000040eb00af
:1068e000b0409800f40047000040eb00c040980022
:1068f0001e5090000081fb006e4890008082fb00db
:1069000074004700540020008001780051012000ed
:1069100005007800fe420200000000000080fa003e
:10692000000006000400fa00100798001e00900006
:10693000261b0200000000000040e80010479800fd
:106940001e409000f04f50000200340000c1b30020
:10695000104798001e4090000001fb009e00900030
:106960000000eb007a470200000000000040eb004e
:10697000004f78000a0037001e01fb001e00fb00dc
:10698000800078001e0090000080400010407800d9
:106990008040780060b32200017178001e4fe8004b
:1069a0001e4090009e4f1000f3ff35000080fa005b
:1069b000000006000400fa00100798000040eb00f9
:1069c000004f78001e00fb00800078001e00900041
:1069d000008140009e00fb0050c229006140780009
:1069e000004978001e4fe8009e00fb0050c22900bd
:1069f000614078000004e00003003200f0c0b30002
:106a00009e4f1000efff34000080fa0000000600e7
:106a10000400fa00100798001e009000261b0200d8
:106a2000000000000040e800104798001e40900061
:106a3000f04f50000200340000c1b300104798002e
:106a40001e4090000001fb009e009000000120000d
:106a50007a470200000000000040eb00004f780081
:106a60000b0037001e00fb00700140001e00fb0001
:106a7000800078001e0090000080400010407800e8
:106a80008040780060b32200017178001e4fe8005a
:106a90001e4090009e4f1000f2ff35000080fa006b
:106aa000000006000400fa00100798000040eb0008
:106ab000004f78001e00fb00800078001e00900050
:106ac000008140009e00fb00d0c229006140780098
:106ad000004978001e4fe8009e00fb00d0c229004c
:106ae000614078000004e00003003200f0c0b30011
:106af0009e4f1000efff34000080fa0000000600f7
:106b00000400fa00100798001e009000261b0200e7
:106b1000000000000040e800104798009e409000f0
:106b200000c2b30080cf50000200340000c2b300a6
:106b3000104798001e4090000001fb009e0090004e
:106b4000000220007a470200000000000040eb0035
:106b5000004f78000c0037001e00fb0002022000ee
:106b6000000141001e00fb00800078001e00900024
:106b700000804000104078008040780060b3220020
:106b8000017178001e4fe8001e4090009e4f1000db
:106b9000f1ff35000080fa00000006000400fa0052
:106ba000100798000040eb00104798001a003700cb
:106bb0001e4090000000fb00010220008080400089
:106bc00060b3220061407800004f7800f0c1b3004c
:106bd0009e4f100003003400f0c7b3009e4f10001a
:106be00004003a009e0090000040eb0080487800ce
:106bf0001b0037001e4090000000fb008000780062
:106c00001e009000008040001e4878001e4090004a
:106c10000040e800104798001e4090000000fb0074
:106c2000010220008080400060b3220061407800b3
:106c30000004e000030032001e409000ff4f5000af
:106c4000dbff34001e4090000000fb008000780055
:106c50001e009000808040000040eb0080487800db
:106c60000080fa00000006000400fa0010079800f7
:106c70001e009000261b0200000000000040e800fb
:106c8000104798009e40900000c2b30080cf500093
:106c90000200340000c2b300104798001e4090006c
:106ca0000001fb009e009000000420007a470200d3
:106cb000000000000040eb00004f78000c0037009f
:106cc0001e00fb0002042000000141001e00fb002a
:106cd000800078001e009000008040001040780086
:106ce0008040780060b32200017178001e4fe800f8
:106cf0001e4090009e4f1000f1ff35000080fa000a
:106d0000000006000400fa00100798000040eb00a5
:106d1000104798001a0037001e4090000000fb004a
:106d2000010420008080400060b3220061407800b0
:106d3000004f7800f0c1b3009e4f100003003400f4
:106d4000f0c7b3009e4f100004003a009e00900070
:106d50000040eb00804878001b0037001e40900088
:106d60000000fb00800078001e00900000804000c2
:106d70001e4878001e4090000040e8001047980030
:106d80001e4090000000fb000104200080804000b5
:106d900060b32200614078000004e000030032008c
:106da0001e409000ff4f5000dbff34001e4090005b
:106db0000000fb00800078001e00900080804000f2
:106dc0000040eb00804878000080fa0000000600d8
:106dd0000600fa001007980041479800ce40900046
:106de00000c2b30080cf50000200360000c2b300e2
:106df000404798004e4090000081fb009e009000ac
:106e0000000620007a47020000000000e40047006e
:106e100012002000000820007a4702000000000055
:106e20000040eb00004f78000b0037001e80fb0095
:106e300002062000000141001e80fb008000780057
:106e40001e009000008040009040780060b3220057
:106e5000017178001e4fe8004e4090009e4f1000d8
:106e6000f2ff3900ce40900060bb2200014878005c
:106e70000080fa00000006000400fa0010079800e5
:106e800060bb22009040780000c2b30080cf500069
:106e90000300360061bb220000c2b30080487800c6
:106ea0000040eb00104798000f0037001e40900094
:106eb0000000fb00800078001e0090000081400070
:106ec0001e4090000000fb00010620008080400072
:106ed00060b3220061407800004978001e409000b5
:106ee0000040e800104798001e4090008000fb0022
:106ef00060bb2200104078000080fb00808f5000b3
:106f0000eaff350060bb2200104078000080fb00e3
:106f10000080fa00000006000600fa001007980042
:106f200041479800ce40900000c2b30080cf50008f
:106f30000200360000c2b300404798004e40900067
:106f40000081fb009e009000100820007a4702009c
:106f500000000000e400470012002000100a20009a
:106f60007a470200000000000040eb00004f78006c
:106f70000b0037001e80fb001208200000014100ba
:106f80001e80fb00800078001e0090000080400002
:106f90009040780060b32200017178001e4fe80035
:106fa0004e4090009e4f1000f2ff3900ce409000fe
:106fb00070bd2200014878000080fa000000060041
:106fc0000400fa001007980070bd2200904078007d
:106fd00000c2b30080cf50000300360071bd220014
:106fe00000c2b300804878000040eb0010479800d2
:106ff0000f0037001e4090000000fb00800078006a
:107000001e009000008140001e4090000000fb0028
:10701000110820008080400060b3220061407800a9
:10702000004978001e4090000040e800104798009a
:107030001e4090008000fb0070bd220010407800d0
:107040000080fb00808f5000eaff350070bd2200f9
:10705000104078000080fb000080fa00000006006d
:107060000000fa00d84a0200000000000000fb0007
:107070000080fa00000006001a00fa000040eb0051
:10708000404798007645020000000000e7004700f6
:10709000020120000000eb00b645020000000000e5
:1070a000804078004e4090000140700040479800ba
:1070b0000040eb00304798000040eb00504798003c
:1070c0005e4090008000fb0067004700614178004f
:1070d0005e4090008000fb0050c2290061407800b3
:1070e000804f51000200320010c0b30030479800ba
:1070f0005e4090000040e800504798005e409000dd
:107100008000fb0050c22900614078000004e000cc
:10711000030032005e409000ef4f5000e8ff340063
:107120003e409000e14f5000d0003a000040eb009c
:1071300060479800260037000040eb003047980079
:107140000040eb00504798005e4090008000fb003c
:1071500050c22900e14178006e4090000001fb0020
:107160005e4090008000fb004310dd008100400085
:1071700060c329006140780080cf510002003200d6
:1071800010c0b300304798005e4090000040e80017
:10719000504798005e4090008000fb0050c22900dc
:1071a000614078000004e000030032005e4090007f
:1071b000ef4f5000e4ff34003e4090000004e00038
:1071c000060032006e4090000040e80060479800e2
:1071d0006e409000e14f5000d7ff36003e409000d7
:1071e0000004e00011003a000000eb00000f7800fe
:1071f000050037001e01780061b322000040eb005b
:1072000000f178001e0fe800100a20009e0f100009
:10721000f8ff3600a900070050c22900c1fd070091
:10722000d0c22900fafd0700900037000040eb00b3
:10723000304798000040eb00504798005e409000b7
:107240008000fb0067004700e1407800f0c2b30017
:1072500080cf5000070034005e4090008000fb00ab
:1072600067004700e140780090c3b30080cf500032
:107270001e0034005e4090008000fb006700470065
:10728000e140780000c4b30080cf50000700340014
:107290005e4090008000fb0067004700e1407800fe
:1072a000a0c5b30080cf5000100034005e409000b5
:1072b0008000fb0067004700e140780000c6b30093
:1072c00080cf5000070034005e4090008000fb003b
:1072d00067004700e1407800a0c7b30080cf5000ae
:1072e0000200340010c0b300304798005e409000a8
:1072f0000040e800504798005e4090008000fb008e
:1073000067004700614078000004e000030032009d
:107310005e409000ef4f5000c8ff34003e409000a8
:10732000e14f500011003a000000eb00000f780020
:10733000050037001e01780061b322000040eb0019
:1073400000f178001e0fe800100a20009e0f1000c8
:10735000f8ff36005900070050c2290071fd0700f0
:10736000d0c22900aafd0700400037000040eb0012
:1073700060479800260037000040eb003047980037
:107380000040eb00504798005e4090008000fb00fa
:1073900067004700e14178006e4090000001fb006b
:1073a0005e4090008000fb004310dd008100400043
:1073b00060c329006140780080cf51000200320094
:1073c00010c0b300304798005e4090000040e800d5
:1073d000504798005e4090008000fb006700470027
:1073e000614078000004e000030032005e4090003d
:1073f000ef4f5000e4ff34003e4090000004e000f6
:10740000060032006e4090000040e800604798009f
:107410006e409000e14f5000d7ff36003e40900094
:107420000004e0000f003a000000eb00000f7800bd
:10743000050037001e01780061b322000040eb0018
:1074400000f178001e0fe800100a20009e0f1000c7
:10745000f8ff36001900070050c2290031fd07006f
:107460000200370050c229002efd070061b3220040
:10747000220a20000000eb00b645020000000000d8
:10748000804078004e4090000140700040479800d6
:107490004e4090000004e000030032000080eb004a
:1074a000400f9800020037000000eb00400f9800ea
:1074b0004e0890000080fa00000006000000fa006c
:1074c0000000eb000080fa00000006000200fa0055
:1074d000004f7800f0a122001e487800e1a12200b0
:1074e0000040eb00804878006a6002000000000065
:1074f00069020700b402070021a222000040eb004d
:107500008048780031a222000040eb0080487800db
:107510000000eb00005189000080fa000000060026
:107520000e00fa00889fbe005d003700dc6002009c
:1075300000000000004f78000051810060079800b3
:107540006e009000e10f5000120032006e009000bb
:10755000e10f5000070039006e009000e20f50006c
:10756000190032006e009000e30f50002600320038
:107570004b00370000c1b3009e4f100048003a0096
:1075800010002000005189005a6202000000000033
:10759000430037001e80fb00e20f50000100320064
:1075a0000600370020002000005189003a02070041
:1075b0001e40780025020700390037000000eb006c
:1075c000005189003600370000c1b3009e4f100003
:1075d00003003a00300020000051890030003700dd
:1075e000d150810060102000808f500003003e00c9
:1075f0001e407800150207002900370070002000a7
:1076000000518900260037001e80fb0050079800bb
:107610005e009000e30f50000d0032005e0090000d
:10762000f00f5000100032005e009000e20f50009a
:1076300001003200180037002000200000518900ae
:10764000150207001e4078000002070014003700f2
:107650005d02070040002000005189001e407800b4
:10766000fa0107000e0037002000200000518900b9
:10767000d150810060102000808f500003003e0038
:107680001e407800f101070005003700700020005f
:10769000005189000200370070002000005189006d
:1076a0009c600200000000000004e00003003200c3
:1076b00000518100e30f50009cff36000051810013
:1076c000400798004e009000e60f50002500320061
:1076d0004e009000e70f5000040032004e00900072
:1076e000e40f50003e003200af0037008e00e8008b
:1076f00020c0b300804878008e00e80050c1b3007d
:10770000904098008e00e8000040eb00a0409800f8
:107710008e00e8000040eb00b04098008e00e800ca
:107720000040eb00c0409800d800070000447800fb
:10773000e8000700804278000e00e80054c0b30063
:10774000800178000841780051c1b30005407800fd
:10775000e60007000000eb0000518900ce010700a1
:10776000910037008e00e80010c0b3008048780018
:10777000cc000700804078000e00e800114098001f
:107780008e00e8000040eb00a04098008e00e8006a
:107790000040eb00b04098008e00e8000040eb0095
:1077a000c0409800b900070000447800c9000700f5
:1077b000804278000e00e80054c0b30080017800d9
:1077c0000841780051c1b30005407800c7000700a8
:1077d0000000eb0000518900af0107007200370084
:1077e000c9010700300798003e0090000000e0004b
:1077f000040032003e009000e10f500065003200ae
:1078000067003700a70007000004e0002b003a00e3
:1078100020a22200104078000004e00023003a007b
:107820000000eb000051890021a2220010c0b3002b
:10783000804878008b00070090407800e0a122008b
:10784000014878008e00e80060c0b30080487800ee
:107850008e00070000447800920007008044780002
:107860009c000700804278000e00e80014c0b300be
:107870008001780008417800894078000540780050
:107880009a000700f0a12200904278000e00e80064
:107890000042eb0080017800d2cfb30061c1b30099
:1078a00005407800910007003f00370031a2220018
:1078b00010c0b300804878003b00370040912200a0
:1078c000104078008080fb00f0072000808060007e
:1078d000e0a12200104078000080fb00808f500063
:1078e00003003a0050002000005189002e003700ac
:1078f00040912200104078008080fb0000072000ab
:1079000000816000e0a12200104078008080fb0030
:107910000007200000806000800f51000b003a003b
:1079200040912200104078000080fb006f00600052
:10793000ef0f500005003a006a62020000000000ec
:1079400050002000005189001700370040912200ac
:10795000104078008080fb00f007200080806000ed
:10796000f0072000808f500005003a006a62020094
:107970000000000050002000005189000a0037007c
:107980006a620200000000000000eb000051890064
:107990000500370060002000005189000200370018
:1079a00070002000005189004f04be000080fa00e2
:1079b000000006000000fa0020a22200104078001b
:1079c0000080fb000080fa00000006000000fa00c2
:1079d00030a22200104078000080fb000080fa00f6
:1079e000000006000200fa00f2ff0700e14f50001d
:1079f00005003a00e0a12200104078000080fb0062
:107a0000000f7800020037000000eb00000f780044
:107a10001e0078000080fa00000006000000fa0056
:107a2000f0a12200104078000080fb000080fa00e6
:107a3000000006000200fa0000518100e50f50002e
:107a400003003a0010002000000f78000200370009
:107a50000000eb00000f78001e0078000080fa00a4
:107a6000000006000000fa00809122000080fa0069
:107a7000000006000000fa0070912200104078001b
:107a80000080fb000080fa00000006000000fa0001
:107a900050912200104078000080fb000080fa0026
:107aa000000006000000fa006091220010407800fb
:107ab0000080fb000080fa00000006000000fa00d1
:107ac00080912200104078000080fb000080fa00c6
:107ad000000006000000fa003091220010407800fb
:107ae0000080fb000080fa00000006002203fa007c
:107af000881f7800a53120008e824200804a7800dd
:107b0000b03120000e00400001487800c031200054
:107b10000e00400002487800730f9b0000322000e6
:107b20000e0040000448780000518100e50f50002d
:107b300002003a000000eb0000518900d600070067
:107b40000000eb0010079800e500470020c0b300dc
:107b500080487800e0a12200104078008040780042
:107b600000c8b30000c040008040780065004700b6
:107b700011409800e5004700a03120000e004000b1
:107b800010417800a2409800e5004700c031200075
:107b90000e00400010417800b2409800e500470018
:107ba000b03120000e00400010417800c240980023
:107bb000e5004700003220000e0040001041780030
:107bc000d24098000040eb00404798000e0037007c
:107bd0004e4090000080fb00660140004e40900047
:107be0000080fb00800078007e0893000080400049
:107bf0009040780065004700017178004e40900089
:107c00000040e80040479800013220008e8040008c
:107c10004e409000914f5000edff3900003220009f
:107c20000e0040001080fb0066014000e5004700a8
:107c30000040eb0000f17800003220000e00400010
:107c40001080fb0067014000e500470030c0b30032
:107c500000f17800003220000e0040001080fb0090
:107c600066044000003220000e0040001080fb003f
:107c70006800400080007800650047008b00070026
:107c80008040780065004700017478000000eb0038
:107c900010079800650f47001e007800104078001c
:107ca000c11020008e8040008001eb001e0190007a
:107cb00033000700100798001e0fe8000040eb009b
:107cc000404798000c0037001e00780010407800f4
:107cd000c11020008e804000130020001e01900083
:107ce00027000700100798001e0fe8004e40900084
:107cf0000040e800404798004e4090008080fb0024
:107d0000003220000e0040001080fb0065004000a3
:107d1000808f5000ecff35001e0078001040780086
:107d2000c11020008e804000230020001e01900022
:107d300013000700100798001e0fe8001e007800cf
:107d400010407800c11020008e8040008001eb00c0
:107d50001e0190000a00070010079800c0102000c4
:107d60000e0040009e009000246102000000000010
:107d7000100020004f0478000080fa000000060088
:107d80000a00fa00004f78001107980022079800b7
:107d9000330798003e009000400798004e00900086
:107da0000000e000040032004e009000e20f50009e
:107db00023003e0010003700ae0090001e0090002f
:107dc0008080400000c1b300804878002e00900001
:107dd0000000e80020079800ae0090001e00900010
:107de000008040001e4878002e0090000000e8004f
:107df000200798001200370000c1b3009e4f10000a
:107e000008003a00ae0090001e0090008080400004
:107e100000c1b300804878002e0090000000e80008
:107e200020079800ae0090001e00900000804000e7
:107e30001e4878002e0090000000e80020079800ff
:107e40002e0090000080fa00000006000200fa00f8
:107e5000004f7800d150810060102000808f5000ca
:107e600008003e00d1508100209122001e41780080
:107e700082707800d05081000000e800d050890066
:107e8000030037000000eb000051890002000700ea
:107e90000080fa00000006000000fa000000eb007d
:107ea000d05089000080fa00000006000800fa00a7
:107eb00020079800310798000000eb00000f7800c1
:107ec0000040eb0020479800080037009e00780033
:107ed0002e00900000804000904078002e409000de
:107ee00001406800204798001e0fe8003e00900007
:107ef0009e0f1000f5ff39002e4090000000fb009f
:107f00000080fa00000006000200fa00d050810054
:107f1000e70f500003003e0020002000000f780013
:107f20001500370070912200104078000080fb009f
:107f30006800400080007800d0508100808f5000a1
:107f40000300320020002000000f78000a003700f4
:107f5000d150810020912200d4ff07000004e000ee
:107f60000300320010002000000f780002003700ec
:107f70000000eb00000f78001e0078000080fa007f
:107f8000000006000200fa00e1508100309c200051
:107f9000808f50000a003e00e05081000000e800a1
:107fa000e0508900e1508100409c2000808f50000b
:107fb00003003a00f0a122001040780043fd0700c2
:107fc0000080fa00000006000000fa000000eb004c
:107fd000e05089000080fa00000006000200fa006c
:107fe000004f780010b322001e48780001b3220031
:107ff0000040eb008048780086640200000000002a
:1080000069020700b402070041b322000040eb0000
:108010008048780051b322000040eb00804878008f
:108020000000eb00905989000080fa000000060073
:108030000e00fa00889fbe005d003700a6640200b3
:1080400000000000004f7800905981006007980000
:108050006e009000e10f5000120032006e009000a0
:10806000e10f5000070039006e009000e20f500051
:10807000190032006e009000e30f5000260032001d
:108080004b00370000c1b3009e4f100048003a007b
:108090001000200090598900906502000000000047
:1080a000430037001e80fb00e20f50000100320049
:1080b0000600370020002000905989003a0207008e
:1080c0001e40780025020700390037000000eb0051
:1080d000905989003600370000c1b3009e4f100050
:1080e00003003a003000200090598900300037002a
:1080f0006159810060102000808f500003003e0015
:108100001e4078001502070029003700700020008b
:1081100090598900260037001e80fb005007980008
:108120005e009000e30f50000d0032005e009000f2
:10813000f00f5000100032005e009000e20f50007f
:1081400001003200180037002000200090598900fb
:10815000150207001e4078000002070014003700d7
:108160005d02070040002000905989001e40780001
:10817000fa0107000e003700200020009059890006
:108180006159810060102000808f500003003e0084
:108190001e407800f1010700050037007000200044
:1081a0009059890002003700700020009059890022
:1081b0008c640200000000000004e00003003200b4
:1081c00090598100e30f50009cff360090598100c8
