S0030000FC
S329000037C030323A5053455F4C45445F30323A303030303030303A30303132343038433A420000000084
S3290000380030323A5053455F4C45445F30323A383838363033303A30303132343038433A420000000022
S3510000400000FC0020D1B502009D4500009D4500009D4500009D4500009D45000000000000000000000000000000000000614400009D450000000000000B4500009D4500009D4500009D4500009D45000001
S3510000404C9D4500009D4500009D4500009D4500009D4500009D4500009D4500009D4500009D4500009D4500009D4500009D4500009D4500009D4500009D4500009D4500009D4500009D4500009D4500005C
S351000040989D4500009D4500009D4500009D4500009D4500009D4500009D4500009D4500009D4500009D4500009D4500009D4500009D4500009D4500009D4500009D4500009D4500009D4500009D45000010
S351000040E49D4500009D4500009D4500009D4500009D4500009D4500009D4500009D4500009D4500009D4500009D4500009D4500009D4500009D4500009D4500009D4500009D4500009D4500009D450000C4
S351000041309D4500009D4500009D4500009D4500009D4500009D4500009D4500009D4500009D4500009D4500009D4500009D4500009D4500009D4500009D4500009D4500009D4500009D4500009D45000077
S3510000417C9D4500009D4500009D4500009D4500009D4500009D4500009D4500009D4500009D4500009D4500009D4500009D4500009D4500009D4500009D4500009D4500009D4500009D4500009D4500002B
S351000041C89D4500009D4500009D4500009D4500009D4500009D4500009D4500009D4500009D4500009D4500009D4500009D4500009D4500009D4500009D4500009D4500009D4500009D4500009D450000DF
S351000042149D4500009D4500009D4500009D4500009D4500009D4500009D4500009D4500009D4500009D4500009D4500009D4500009D4500009D4500009D4500009D4500009D4500009D4500009D45000092
S351000042609D4500009D4500009D4500009D4500009D4500009D4500009D4500009D4500009D4500009D4500009D4500009D4500009D4500009D4500009D4500009D4500009D4500009D4500009D45000046
S351000042AC9D4500009D4500009D4500009D4500009D4500009D4500009D4500009D4500009D4500009D4500009D4500009D4500009D4500009D4500009D4500009D4500009D4500009D4500009D450000FA
S351000042F89D4500009D4500009D4500009D4500009D4500009D4500009D4500009D4500009D4500009D4500009D4500009D4500009D4500009D4500009D4500009D4500009D4500009D4500009D450000AE
S351000043449D4500009D4500009D4500009D4500009D4500009D4500009D4500009D4500009D4500009D4500009D4500009D4500009D4500009D4500009D4500009D4500009D4500009D4500009D45000061
S351000043909D4500009D4500009D4500009D4500009D4500009D4500009D4500009D4500009D4500009D4500009D4500009D4500009D4500009D4500009D4500009D4500009D4500009D4500009D45000015
S329000043DC9D4500009D4500009D4500009D4500009D4500009D4500009D4500009D4500009D450000C5
S31500000400FFFFFFFFFFFFFFFFFFFFFFFFFEFFFFFFF7
S3510000442001DF704701DFFFF7FEBFDFF8E802D0F8000072B6B0F8181051B9D0F82410D0F81C20D2F81C30994200F0028062B603DF62B6704703DF7047FFF7FEBF02DF704772B61EF0040F0CBFEFF3088106
S3510000446CEFF30981D1F8181011F8021C032940F008804DF804ED00F02CF85DF804EB00F026B8012940F00680DFF87C02D0F8000000F048B8022940F01A80DFF86C02D0F80000D0F81C10D1F8082042F034
S351000044B80102C1F808204DF804EDD1F80420D1F80030C2F80030C3F8042000F004F85DF804EB62B670472DE90740DFF83402D0F8041011F0805F40F00A80EFF31182A2F1100280F82220DFF81C12C0F879
S351000045040410BDE8078072B6EFF3098CDFF80C1291F80220EFF311832CE9FC4FDFF8F001D0F80000D0F81C30C3F814C072B6D0F82410D1F800208A4240F01680D1F808105FEA01017FF4F5AF81F31188EE
S35100004550DFF8CC11DFF8CC2181F8022062B6AFF3038072B6D0F82010FFF7E5BFC0F82410C0F81C20B2F82430A0F81A30D2F814C0BCE8FC4F83F311888CF30988DFF88801DFF89411C0F8041062B670472C
S3510000459C72B64DF804EDDFF87031D3F80030B3F8181001F10101A3F81810DFF874014DF8040DEFF31182EFF30581D3F834002DE90700EFF30880C3F834004FEA0100D3F830200AB900F04BB8904200F2AF
S351000045E84880D3F82C20811AC0F24380D3F838204FEAD1014FEA810152F8011009B900F038B8D1F8002042B1824200F00880D1F8101011EA010F7FF4F4AF00F02AB8D1F80C00D1F804204DF8043D62B658
S35100004634904772B65DF8043BBDE80700C3F834005DF8040BB3F81810491EA3F81810D3F81C20D2F8280010F4805F40F0098039B9D3F82410D1F80010914218BFFFF735FF62B65DF804FBD3F82820FFF7FD
S35100004680D6BF72B62DE9F100DFF88830D3F80030D3F834C00CF1100C5CF804EBDFF8900020F00100CCF818009CE8FF005DF804CBACF1040C2CE9FF00BDE8F0008CF3088862B6704770474FF08002D0E820
S351000046CC4F1F00290CBFC0E8432F40F00380002B7FF4F5AF4FEA01007047EFF309807047EFF30880704780F308887047EFF30380704762B6704772B670477046704778467047EFF3148070478006FF1FC0
S3510000471800ED00E00000001020ED00E0FF00000000000008000000003746000010B5044600F02AF9DFF84C00206018202DF04CF808B100F0ABF8A06018202DF045F808B100F08CF8E06018202DF03EF8CD
S3510000476408B100F06DF8206118202DF037F808B100F04EF86061002084F82000A061E0612046BDE810407047E828030038B5044600F00CF9E069401CE0612828A3BF0020E0610125002594F820000122DE
S351000047B000B1002284F82020A0682946D2B200F0ABF8E06894F82020294600F0A5F8206994F82020294600F09FF8606994F82020294600F099F8A069401CA06105280DDB0020A061A06800F085F8E06861
S351000047FC00F082F8206900F07FF8606900F07CF8BDE838407047000010B58321C8F200010122044600F058F8DFF80C0020602046BDE810407047C046F4280300DFF80430032118474D49000010B5822119
S35100004848C8F200010122044600F040F8DFF80C0020602046BDE810407047C04600290300DFF80430022118474D49000010B58021C8F200010122044600F028F8DFF80C0020602046BDE810407047C046EB
S351000048940C290300DFF80430012118474D49000010B58121C8F200010122044600F010F8DFF80C0020602046BDE810407047C04618290300DFF80430002118474D49000070B51546DFF82420064640F8F2
S351000048E0042B01220023002423F054FF301D294623F07CFF74613046BDE870407047C0462429030010B501680446096888476061BDE810407047000008B54369032B11D8DFE803F00206090308E0001D18
S3510000492C012107E001B1FAE702E0002A00D0F6E7001D002123F07CFFBDE808407047000010B59AB000A80C461AF05CFE019888B1DFF82C00214601F0CDFA801E04D0C01E04D0401E02D003E0032004E0D5
S35100004978012002E0022000E000201AB0BDE810407047C0469822FF1FDFF80810016000214160704730290300DFF8081001600021416070473029030008B54168491C4160142903DB0021416000F0BCF83D
S351000049C4BDE80840704700007047000000214160DFF8083008300A210222184795F302000EB5002201920091083000A901222AF07BFDBDE80E4070470EB5012201920091083000A901222AF06FFDBDE883
S35100004A100E40704708B5416809B900F003F8BDE80840704718B583B00021002204460091083001A913462AF0B5FCE0B9029810B1401E0BD017E09C202CF0CAFE10B1019900F016F8206000F031F809E0D5
S35100004A5C9C202CF0BFFE10B1019900F00BF8206000F014F820682CF0CFFE03B0BDE8184070470000C0F88810097880F89110002180F88410C0F898007047000010B5202180F89310002180F894108C3099
S35100004AA8012101241AF0EEFD00B900242046BDE810407047262180F89310002180F89410DFF808308C3000211847C0468DF6010010B504461AF060FE002814BF0120002084F82800012084F8290020469A
S35100004AF4BDE810407047000010B590F82810044681B1806970B125F007FB48B1DFF81E0001F0E6F920B1DFF81A002146FFF760FF012000E00020BDE810407047C0469822FF1FF008FF1F000010B5DFF809
S35100004B4022406068002807D090F8291031B12CF061FE00206060FFE700F006F8BDE8104070478809FF1F000070B5DFF8A850A87848BB2878B0B12C202CF032FE014631B12978491E2970C9B2FFF7A6FF3D
S35100004B8C0146696091F8280018B1DFF88000FFF72FFF0120E87010E01AF0EAFDA870E97849B1C2B28A4203BF0020E8706A70002018BFA87001E0C0B2687001240026A8781AE02C202CF006FE20B1A978B4
S35100004BD8491EC9B2FFF77CFF686064B1297801B106E0FFF787FF002818BF002403D168682CF00CFE6E60A878401EA870C0B208B1002CE0D1BDE870407047C0468809FF1FF008FF1F78B583B006464FF487
S35100004C2443702AF0A1FFDFF89C400025C4F82C08C4F81C5840202AF0D1FDC4F8200840202AF0CCFDC4F82408C4F80058C4F80458C4F80858C4F81058C4F80C58C4F814580120C4F83008DFF8600025F06D
S35100004C7065F800F039F820202AF078FFC4F82808002808BF04201AD04FF47E712AF020FFD4F8280801212AF037FADFF83400DFF834100090DFF83000DFF830200190D4F828080290DFF82830304627F027
S35100004CBC33FC03B0BDE878407047C0469009FF1F3406FF1FCD4D0000E54C0000214E0000594D00005D4D00000020704710B594B0DFF85000DFF850100690DFF8500002230890002003220A900B90DFF888
S35100004D084400DFF844400C90DFF840000093079209910D910F90D4F82C080E90012100A801714371827100A801F0F0FCC4F8180814B0BDE8104070471402FF1FA811FF1F294F0000614F00009009FF1FC8
S35100004D54F802FF1F002070472DE9F8438846174600262BF07FF8DFF85A50D5F800982BF08DF800241CE0D5F80808285C88F80000D5F80808401CC5F80808B0F5806F28BFC5F808482BF066F8D5F8000887
S35100004DA0A0F10109C5F800982BF072F87F1E08F10108761C17B1B9F1000FDED13046BDE8F8437047C0469009FF1F000038B50020DFF84640844617E0D4F814380D78E31883F80054D4F814385B1CC4F844
S35100004DEC1438B3F5806F28BFC4F814C8D4F804385B1CC4F80438521E491C401C22B1D4F80438B3F5806FE1D3BDE8384070479009FF1F000038B540F6015300241546994208D815D2092931D806292FD3B6
S35100004E3824D0092912D02BE0A1F603510E2927D8DFE801F01228262626262626262815281A28181826F04AFD28601BE00E2010604A205460906015E04FF4E1300EE0082010700FE00320FBE70120F9E7C1
S35100004E84DFF81C00D0F80008002814BF01200020106001E040F609242046BDE8384070479009FF1F08B502F0BDFCDFF87220D2F8040888B3D2F8300870B30023194619E0D2F81008101890F800C4D2F896
S35100004ED0240800F803C0D2F810085B1C401CDBB2C2F81008B0F5806F28BFC2F81018D2F80408401EC2F80408D2F8040808B1402BE0D3D2F81C0848B10020C2F83008D2F81808D2F82428022101F0BAFCCE
S35100004F1CBDE8084070479009FF1F000008B548B9DFF82A000021C0F81C18D0F8180801F0BBFB08E0022801BF0121DFF81200C0F81C18C0F83018BDE808407047C0469009FF1F000070B5DFF8824005465A
S35100004F68D4F81C3812686BB304282BD1D1F804C00023002018E00E68D4F80CE8F65C04F80E60D4F80CE80EF1010EC4F80CE8BEF5806F28BFC4F80C08D4F800E80EF1010E5B1CC4F800E8DBB2634504D29E
S35100004FB4D4F800E8BEF5806FDFD31046D4F820280321402301F0B4FC032D03D0232D01D0212D02D10120C4F83008BDE870407047C0469009FF1F0000F8B5DFF87450069CDDF81CC003291ED133B9E869FB
S35100005000206095F82000CCF8000026E06F6A00203E880121B34203D1032A38BF114600E001200C234343F818406850F822002060686AC0188068405CE5E708290CD2DFF8280050F82100206008B9CE204A
S3510000504C06E0DFF81C0050F82100D6E7F7E70020BDE8F8407047C0460002FF1FB402FF1F9402FF1F02293FBFDFF80C00405C1070002028BFCE207047C811FF1F02293DBFDFF8080042540020CE207047A7
S35100005098C811FF1FDFF8183002201A78914208BF012003D05B1C401EF7DC00207047C0460002FF1F00207047DFF804007047C0461402FF1F02293DBFDFF8080010600020CE2070470A02FF1F022911D2B3
S351000050E4DFF824104FF0000C07201368401E63441B7A0CF1010C01F8013BCCF3070CF4DC00207047CE2070470A02FF1F02293DBFDFF8080010600020CE207047C411FF1F02293DBFDFF80800106000209D
S35100005130CE207047C611FF1F022911D2DFF824104FF0000C02201368401E13F80C300CF1010C01F8013BCCF3070CF4DC00207047CE207047C411FF1F022911D2DFF824104FF0000C02201368401E13F833
S3510000517C0C300CF1010C01F8013BCCF3070CF4DC00207047CE207047C611FF1F08B5213904D0891E07D0491E0AD00EE011461A46FFF78EFF0AE011461A46FFF7ABFF05E011461A46FFF7B0FF00E0CE2031
S351000051C8BDE808407047000008B5203904D0491F07D0491E0AD00EE011461A46FFF77CFF0AE011461A46FFF7A3FF05E011461A46FFF7B6FF00E0CE20BDE808407047000030B585B0DFF8B8504D210446CE
S351000052142846C8F200010122002323F0B9FA2846012123F0E1FA00F0FDFE08B9FFF714F92846012123F000FBDFF88C000021C0F8A41041678167C167C0F88410C0F88010C0F8881004F0C2FF08B1FFF758
S35100005260FDF803AD284600F0E5FE0020294605F05FFD08B1FFF7F2F82020DFF854502AF075FC2860002808BF042018D04FF47E712AF01EFC2868012129F036FFDFF83400DFF834100090DFF83400DFF8D6
S351000052AC342001902868DFF830300290204627F033F905B0BDE830407047C0468822FF1FCC21FF1F5822FF1FC5530000E95200003D5400002D5300005153000010B5DFF83440204628F070FC2046082146
S351000052F828F00AFEDFF82400214628F013FDDFF82000214628F00EFD204628F0A9FC0020BDE810407047C046CC11FF1FE011FF1F1012FF1F08B5DFF8180028F0ABFCDFF8140028F0A7FC0020BDE80840DC
S351000053447047C046E011FF1F1012FF1FF8B5DFF85E400F462046164628F042FD0025DFF852204FF0000CDFF84E10DFF84E0012E00B68C31893F874303B700B685B1C0B60B3F5006F28BFC1F800C0136807
S35100005390761E5B1E13607F1C6D1C16B11368002BE8D1204628F0F4FD2846BDE8F8407047C046E011FF1F4022FF1F4822FF1FCC11FF1F0000F8B5DFF862400F462046164628F008FD0025DFF856204FF06D
S351000053DC000CDFF85210DFF8520013E00B6897F800E0C31883F874E80B685B1C0B60B3F5006F28BFC1F800C01368761E5B1C13607F1C6D1C1EB11368B3F5006FE6D3204628F0B8FD2846BDE8F840704752
S35100005428C0461012FF1F4422FF1F5422FF1FCC11FF1F000038B540F6015300241546994208D815D2092930D806292ED324D0092912D02AE0A1F603510E2926D8DFE801F01227252525252525252715274E
S351000054741A27181826F03CFA28601AE00E2010604A205460906014E04FF4E1300DE0082010700EE00320FBE70120F9E7DFF81C00406F002814BF01200020106001E040F609242046BDE838407047C04658
S351000054C0CC21FF1F2DE9F041DFF87A52DFF87A42284628F087FC0026DFF872020027DFF87212DFF8722219E0D4F8A430042B0BD1D4F88430C31893F874C8B646D4F89430761C03F80EC0F6B20B685B1C6C
S3510000550C0B60B3F5006F28BF0F6013685B1E1360136813B1B6F5807FE0DB284628F032FDDFF82A522868042800F20381DFE800F003233350A8A80020002605F039F8002800F0F78000F01EF998B100F045
S3510000555861FA002800F0EF8000F002FB00281CBF0320286040F0E780D4F89C00102104F089FF2E60DFE001203AE000200146002405F0FCFA41F60151884200F0D480002806BF022028602C60CDE0002053
S351000055A401460246002605F093FB41F60151884200F0C38078B900F029F900F02DFA002800F0BB8000F0CEFA00281CBF0320286040F0B380CAE7CEE700F0C6F860B1D4F8A000102104F050FFD4F89C0014
S351000055F0102104F04BFF00202860A0E00020C0434FF0FF3704F0D4FA0646DFF852010068864240F0948010B1B0F1FF3F02D14FF0FF370DE044F253318268C5F254218A4206D1C1690B691BB100210A466B
S3510000563C98470746DFF81E81B7F1FF3FC8F8007000F07780304604F04FFF002840F07180D8F8000004F032FFC8F800004FF480702AF0B8F8C4F890004FF480702AF0B2F8C4F894003046102104F002FF9B
S35100005688042079E700F06EF838B1D4F8A000102104F0F8FE00F00AFCA9E700F039F948B900F004FC00F0B6F900281CBF0320286041D13BE0002E3ED0DFF89E7001203A681AB1B2F1FF3F18BF002010B12B
S351000056D44FF0FF3018E044F253309168C5F25420814218BF4FF0FF300ED1D069D0F828C0BCF1000F08BF4FF0FF3005D03868D4F8941032460023E047B0F1FF3F15D1386804F000FF0146DFF84A0025F004
S35100005720DDFF00F0C7FB00F079F900281CBF0320286004D1D4F8A000102104F0A7FEBDE8F0417047C0461012FF1FCC21FF1FCC11FF1F5022FF1F4422FF1F7022FF1F6822FF1F6422FF1F8703FF1F0000FD
S3510000576C10B50020002404F023FF28B100F08CF810B900F031FA00B901242046BDE810407047000078B5ADF5017D00A819F050FFDFF85E4049984A992060DFF85A00DFF85A50C0F8AC104B99C0F8B01023
S351000057B84899DFF84E00002901604C98286001D0002012E00020214605F014F806462968002004F019FF06400020214605F00AF8064201D0FEF736FE01200DF5017DBDE878407047C0467422FF1FCC21CD
S35100005804FF1F8422FF1F8022FF1F000078B5ADF5017D0020014604F0E7FE04460020012104F0E2FEDFF8606005460020314604F015FF18B300A819F0FFFE33684998984201BF4A9ADFF84400D0F8AC1030
S351000058508A4201BF4C99A1424B99D0F8B00008BF81420DD0DFF828004993D0F8AC104A914C944D95D0F8B0004B9000A819F0F2FE0DF5017DBDE878407047C0467422FF1FCC21FF1FF0B5ADF5017D0020C1
S3510000589C014604F0A5FE054600200121012404F09FFE00A819F0C4FE0120DFF85CE0DDF830C1DEF8B860014602460346B44501BF4B9FDEF8B060B74200232BB9499EDEF8A8309E4208BF00222AB94A9BB7
S351000058E8DEF8AC20934208BF002111B9AC4508BF002028B94899DEF8B400814208BF002420460DF5017DBDE8F0407047CC21FF1F2DE9F0410125DFF8DE40012022681AB1B2F1FF3F18BF002010B14FF046
S35100005934FF361AE044F253309168C5F25420814218BF4FF0FF3610D1D069C669002E08BF4FF0FF3609D0DFF8A6102068D1F890104FF480720023B0470646B6F1FF3F09D12068002504F0CEFD0146DFF81A
S35100005980860025F0ABFE33E0DFF87E40204628F029FA0021DFF876300027DFF87620DFF87600DFF85EC019E0DCF89080D2F800E018F8018086448EF87480D2F800E00EF1010EC2F800E0BEF5006F28BF1D
S351000059CC1760D3F800E00EF1010EC3F800E0491CB14204D2D3F800E0BEF5006FDED3204628F0D0FA0DB1002E93D12846BDE8F04170476422FF1FCC21FF1FA103FF1FE011FF1F4022FF1F4C22FF1FCC1116
S35100005A18FF1F000070B584B0012601A886804FF69B41C1800024DFF82611012000220394DFF81E5104F008FD2860B0F1FF3F04BFDFF81201C0F8A44000F07B80DFF80A4101963CB104210091D4F804C0BB
S35100005A642146092201ABE04744B1042000902868D4F804C02146062201ABE0474FF47A70019044B1042000902868D4F804C02146172201ABE04748F2A060C0F2010001903CB10420009021462868646884
S35100005AB0012201ABA0472A6801201AB1B2F1FF3F18BF002010B141F2047014E044F253309168C5F25420814218BF41F204700AD1D0694368002B08BF41F2197003D0286802A908229847002822D12A68ED
S35100005AFC01201AB1B2F1FF3F18BF002010B141F2047013E044F253309168C5F25420814218BF41F2047009D1D069C268002A08BF41F2197002D028680021904708B9012006E0FFE7DFF81A000021C0F85F
S35100005B48A410002004B0BDE870407047C046242B03006822FF1FCC21FF1F602B030000001CB5012100A801804FF69B41418000200190DFF85E1001200022DFF85A4004F063FC2060B0F1FF3F08BF00209D
S35100005B941ED010B1B0F1FF3F02D141F2047013E044F253318268C5F254218A4218BF41F2047009D1C1694B68002B08BF41F2197002D000A90822984700280CBF01200020BDE81C407047682B03006C22B1
S35100005BE0FF1F00002DE9F047ADF5567D03A8082102AF96AC08252AF047FEDFF84862002230680121059005A8D2434FF0010803F089FF002800F010817D80326822B1B2F1FF3F18BF4FF00008B8F1000FFF
S35100005C2C18BF4FF0FF301AD144F253309168C5F25420814218BF4FF0FF3010D1D069056A002D08BF4FF0FF3009D003A8009002A802300190306896A9FF220023A847B0F1FF3F08BF002000F0E280DFF8AC
S35100005C78D08100252554204641462AF0B5FB002840F0D68015A819F0D5FC10A8009012A802300DF122090DAB0DF1180A0190504649460BAA023300F0C9F92046414687F850522AF089FBDFF88C81204672
S35100005CC441462AF083FBDFF8841120462AF07EFB204641462AF07AFB20462AF017FB201800F0BEF8204641462AF070FB204651462AF06CFB204641462AF068FB204649462AF064FB204641462AF060FBF4
S35100005D1020462AF0FDFA201800F0B8F8204641462AF056FBDFF82C1120462AF051FB204641462AF04DFB3D9802A9387020467D702AF046FB204641462AF042FB3D984E2803D020463EA92AF03BFBDFF8BF
S35100005D5CF050204629462AF035FBDFF8F01020462AF030FB204629462AF02CFB4E9802A938700020787020462AF024FB204629462AF020FB4E984E2803D020464FA92AF019FBDFF8AC50204629462AF097
S35100005DA813FBDFF8B01020462AF00EFB204629462AF00AFB669802A938700020787020462AF002FB204629462AF0FEFADFF8881020462AF0F9FA326801201AB1B2F1FF3F18BF002010B14FF0FF301CE05F
S35100005DF444F253309168C5F25420814218BF4FF0FF3012D1D069C56A002D08BF4FF0FF300BD020462AF07AFA024603A8009078882146019030680023A847B0F1FF3F08BF002000D001200DF5567DBDE8A6
S35100005E40F04770476C22FF1FB103FF1FC503FF1FC703FF1FCA03FF1FCE03FF1FD203FF1FD803FF1F10B5A8B0044600A819F0A8FB002804BF0020207003D0204605A92AF051FA28B0BDE8104070470000EA
S35100005E8C18B59BB0044600A819F0A8FB002804BF0020207003D0204601A92AF03DFA1BB0BDE818407047000010B5DFF82440D4F8900029F013FDD4F8940029F00FFDD4F89800102104F0DCFABDE8104062
S35100005ED87047C046CC21FF1F7047000008B5A8B000A819F069FB279801280CBF0120002028B0BDE80840704708B59AB000A819F083FB0C981AB0BDE80840704710B5DFF820000021002425F085FCDFF8A9
S35100005F2418100028086000D001242046BDE810407047C046D903FF1F9C22FF1F2DE9FC41DFF8DA800746D8F8000001240E461546002861D0C7F3022141F0500101914FF4816101AA25F0D0FB00B100244C
S35100005F70D8F8000000A9002225F052FBD8F80000032101AA25F0C2FB50B9019848B1D8F8000040F20C41002225F0B8FB01203DE0002400A80770D8F8000000A9012225F037FB012818BF0024D8F8000045
S35100005FBC25F080FC00B10024D8F8000040F20B41002225F09DFB00B10024D8F8000040F20A4101AA019525F093FB00B10024D8F8000031462A4625F043FBA84218BF0024D8F8000025F05EFC00B1002432
S35100006008D8F8000040F20C41002225F07BFB00B100242046BDE8FC4170479C22FF1F0000DFF804301847C046155F0000DFF808300146FA2006221847415F000070B50E46DFF8401014461D462AF068F947
S35100006054DFF8381030462AF063F92046DFF8304021462AF05DF9DFF82C1028462AF058F90498DFF824102AF053F9059821462AF04FF9BDE870407047DF03FF1FE703FF1FF003FF1FF303FF1FF703FF1FBB
S351000060A038B53424C8F200040022054688302146134622F06FFB05F18800012122F096FB05F19800012129F0A1FD28460221002228F04CFFDFF8A030284605F128010022009528F075FF05F144000A21AE
S351000060EC002228F03DFFDFF8883005F1440005F16C010022009528F065FF05F1C00004F14D010122002322F03FFB05F1C000012122F066FB05F1D00004F14C010122002322F032FB05F1D000012122F030
S3510000613859FB05F1E00004F14E010122002322F025FB05F1E000012122F04CFB05F1F00004F14F010122002322F018FB05F1F000012122F03FFB2846BDE838407047C046296300003963000008B54FF484
S3510000618480702BF02BFB08B1FFF788FFDFF81410DFF8142088600020014626F0DDFEBDE808407047A022FF1F802A030010B5DFF81E40A068002298300121134629F00EFEA068D0F8BC000168096888472A
S351000061D0F1E7A022FF1F00002DE9F84392B00DF1340905AE0AAC03AF023608AD0234CDF800900DF13E08CDF80480384631462A462346FFF71FFFCDF800800197DFF8C400294622464B46029625F060FA0E
S3510000621C26F0E4FF26F064FEDFF8B00025F058FADFF8AC00FEF7F4FCDFF8A840204625F04FFADFF8A40025F04BFADFF8A000FEF7DDFF204625F044FA0020DFF89420014626F07EFEDFF88C50A86800F0D9
S351000062686FF860B124202BF0B7FA08B1FEF75EFAA968C1F8BC001020DFF870100BE008202BF0AAFA08B1FEF787FBA968C1F8BC00DFF85C101020DFF85C3003AA19F012F90020DFF85420014626F054FE10
S351000062B4A868002298300221134629F08FFD19F077F9142419F064F9641EFBDCF0E7C0461604FF1F2C04FF1F4704FF1F4D04FF1F5404FF1F6F04FF1F402A0300A022FF1F602903009829030034290300CE
S35100006300602A030010B5DFF81A402046FEF760FB2046FEF77FFBFEF7C7FDFFF7D3F8F7E7C046F008FF1F0000DFF80830983002211847C04619FC0200DFF80830983001211847C04619FC020008B5883069
S3510000634C22F082FA01280CBF01200020BDE808407047000008B529F081FDBFF3408FDFF82610D1F8000000F4E062DFF81E0042EA000040F00402A1F10000C0F80020BFF3408FFEE7C0460CED00E00000B1
S35100006398FA0500000020DFF8162003E052F8201019B1401C0128F9D3C1207047C046AC22FF1F000038B50546012888BFFF2009D8DFF8184054F8200029F08AFA002044F825000020BDE838407047C0462A
S351000063E4AC22FF1F01288EBF0020DFF8081051F820007047AC22FF1FC368002093F800C006E05A6812F83020914203D0401CC0B26045F6D37047000010B584B002460C4611792046FFF7E8FF626C00EBA0
S35100006430801002EB8001921CCB7812F82010491C02F82010616C01EB80029078984213D0C10FC1EB007001EB307002EB0010031D03CB00AA03C203CB03C200A960680979029A039B01F090F9E36A1BB13D
S3510000647C226B03200021984704B0BDE81040704738B586B005460C4629792046FFF7B0FF626C00EB801002EB8001921CCB7812F82010491C02F82010616C01EB80029078984213D0C10FC1EB007001EB08
S351000064C8307002EB0010031D03CB02AA03C203CB03C200A96068097B049A059B01F058F9E36B3BB1286900A9009068690190226C0320984706B0BDE8384070470EB502698C46009240690190CB6B23B128
S35100006514DCF84020042000A99847BDE80E4070472DE9FE4F824689469046022835D10025D768DFF888B0DFF888402AE07868012200EBC506D8F80800314601F07FFB7078801E06D0401E11D1D8F80800A8
S351000065603178224609E0B07831780028D8F8080001D15A4601E0DFF85020434601F08CFB3178D8F8080041F01001C9B2002201F0DBF96D1CEDB238788542D1D305E020B9404601A900AA00F057FDD8F86F
S351000065AC2C3023B1D8F83020504649469847BDE8FE4F7047056500001D6400008D640000F8B50578864605F06005CE248C461646202D5ED1477800250024212F0CDC39DA042F06DC002F51DBDFE807F057
S351000065F80D161D1E2525202F35D049E0222F01DC38D045E0232F3CD042E0184671466246334600F0CFFA0446356043E0184671466246334600F0F0FA3BE00EE0184671466246334600F048FA33E018694B
S351000066441060086805700868421C0A604570184671466246334600F061FA24E0184671466246334600F0B2F91DE0184671466246334600F0BFF916E0184671466246334600F0CEF90FE018467146624602
S35100006690334600F011FA08E00020106006E0402D04D15D6B15B19B6BA84704462046BDE8F840704710B5FFF797FE002200214FF0000E20E0646802EB821314F832C0446C04F823C0C468D0F844C064685E
S351000066DC0CEB830C04EBC2046478521C8CF80140D0F844C00CEB830C8CF80210D0F844C00CEB830383F803E0D2B2C46823789A42DAD3BDE8104070472DE9F843804608B9FF20AAE0582029F023FA064698
S3510000672808B98120A3E0FFF735FE0746C128304603D129F0D5F88D2099E000215822002529F040FDD8F838007064D8F8184098F8140086F8280006F1480008F14001062229F026FDD8F848003065D8F8C7
S351000067744C0070652278DFF80201521C06F10801D2B201F0E5F9C0F30709B9F1000F69D1D8F83C000760D8F83C000090B068DFF8DE10DFF8DE20334600F086FF7060304608F1300100F0D0F88146002801
S351000067C052D1F460002000231BE0626805EB851112F835C0726C02F821C0626802EBC50292F801C0726C6D1C02EB810282F801C0726CEDB202EB81029070726C02EB8101CB7021788D42E0D3D8F820006F
S3510000680CF062D8F824003063D8F828007063D8F82C00B063D8F83000F063D8F834003064D8F80000306198F8040030750020707598F80500B07598F80600F075D8F80800B061D8F80C00F061D8F8100052
S351000068583062DFF82E00376040F82760384606E03846FFF7A7FD304629F03AF84846BDE8F8437047C0463406FF1F25650000CD650000AC22FF1F00002DE9F041884617461E460025FFF7A4FD044608B9FC
S351000068A4FF2041E04146FFF7A7FD00EB801E606C00EB8E01CA788B78D01AC0B2102831D04FEAD27CCCEB02700CEB3070C0B201EB001181F80880616C521C01EB8E0101EB0011CF60616CD2B201EB8E0133
S351000068F001EB00110E61616CD4F808C001EB8E0101EB0010C0F804C0606C00EB8E00C270D01AC0B2012808D1606841463A46334600F03AFF054600E0C1252846BDE8F0417047000070B50E4615461C460E
S3510000693CFFF754FD002808BFFF2006D0806831462A46234601F0B6F8C0B2BDE870407047F8B5064660200F4629F002F9044608B9812029E000216022002529F029FCDFF8501020460A2229F019FC386855
S35100006988E060786820617462012084F82000042060634FF0FF30E063706D2C302063A5627C20656229F0DEF8A06200B9DAE74C2029F0D8F8606200B981252846BDE8F8407047C0468004FF1F08B5D0F8BB
S351000069D424C01346BCF1000F08BFFF2007D08A8821218CF81C204068D2B200F01DFFBDE8084070470FB408B500211960436A002B08BFFF2008D003998A8820211A774068D2B203AB00F01EFFBDE80840C7
S35100006A2004B0704710B5446A0CB9FF2040E000221A6049882176E283E168C1B3217E11F0020119BFE18B41F00201E28B4FF6FD7108BF1140E183217E11F0010119BFE18B41F00101E28B4FF6FE7108BF64
S35100006A6C1140E183217E11F0010114BF01210021616100F077F8207E10F0020001D0222000E021202269E36800219847207E10F0010001D0242000E023202269E368002198470020BDE810407047000027
S35100006AB8426A002A0FBFFF200020186048881CBF508300207047000010B5D0F824C01446BCF1000F08BFFF201AD002694FF0000E1A608A888CF81C204988012902D14068232106E0022918BFC3F800E044
S35100006B0407D1406824219CF81C20234600F08CFE86467046BDE810407047000010B5D0F824C01446BCF1000F08BFFF201AD002694FF0000E1A608A888CF81C204988012902D14068252106E0022918BF9A
S35100006B50C3F800E007D1406826219CF81C20234600F07AFE86467046BDE810407047000008B5426A034642B1117F1171D18B1181197D00680A23FFF783FEBDE80840704708B5416A034651B10A7FDFF8C4
S35100006B9C18100A71197D0068DFF810200823FFF771FEBDE8084070477804FF1F7804FF1F70B5456A06460DB9FF2020E08A882A7790F82800D2B2824228BFCE2017D2CA884C2A88BFFF2012D8686A083106
S35100006BE829F0E6FA686A04683046032C02D100F057FA01E0FFF7C8FF022C04BF012068630020BDE87040704738B59446426A1D46CC880AB9FF2031E000211960516A0968082924D8DFE801F0232305238E
S35100006C340A0F14191E1E61462A4600F025F81AE061462A4600F0A4F815E061462A4600F097F910E061462A4600F0FCF90BE061462A4600F01DFA06E061462A4600F06AF801E0CE2004E02868844234BFFF
S35100006C80CE200020BDE83840704700002DE9FC41466A88461746002E52D00221B06AC8F200010160B06A34214160B06A716A08300831042229F080FA96F8200001280EBF00210121CCF20001B06A0422F4
S35100006CCCC160B06A716A10300C3129F06FFAB06A716A14301031042229F068FAB06A01258561B06A0024C461B06A00A90562706A04224069F062306B0090B06A243029F055FAB06A03218162B06AC46236
S35100006D18B06A0463B06AC8F8000034203860022086F820007463F56334647464B464F46434657465B465F465BDE8FC417047000070B5446A0E461546E4B10821A06AC8F200010160A06A10214160A06A4A
S35100006D64616A08300831042229F024FA94F8200003280EBF00210121CCF20001A06AC160A06A306010202860BDE87040704700002DE9F047466A80460F46924600250024002E00F0E5800421D6F82490B2
S35100006DB0B06AC8F200010160B06A716A08300831042229F0F9F9B06A10214161D9F80C10B1F1013F37D880F0A48040F20212C0F2020291421FD880F0908040F21410C0F2010081420FD81338081A00F10E
S35100006DFCAC80DFE800F0464D5256AA575BAAAA65696D7178AAAA7BAAAA7E40F20110C0F20200814200F0708097E0901C814207D880F07380A2F1FF30814200F06B808CE0D01C814200F06C8087E040F200
S35100006E480412C0F2011291420CD880F07680901E814202D800F06A8079E0501E814200F0668074E040F20210C0F20210814205D880F06780401E814260D068E0A0F1FF30814261D063E0B06ADFF8E810AF
S35100006E9464241830642248E0716B0424B06A81615AE0B06A0424856156E0FAE70424D8F85410F3E7F3680424002B4DD0B16A326925201831984747E00424D8F81C10E5E70424D8F81810E1E704246FF00B
S35100006EE0FE01DDE7B06A10241830DFF894101022D3E70424B16BD3E70424316BD0E70424F16BCDE70424316CCAE70424716CC7E70424B16CC4E70424F16CC1E70424316DBEE7B06A0624183008F1480170
S35100006F2C062229F043F913E0F5E7B06A06248561B06AC5610CE0B0E70424716DAAE70424B16DA7E70424F16DA4E7BB25CCF20005B06A04F11801C560CAF80010B06A4160B06A0461B06A3860BDE8F047D4
S35100006F787047C0468C04FF1FF004FF1FF8B5456A00240F46002D5FD005216E6AA86AC8F20001016010211160A86A04224160A86A696A0830083129F003F940F20E10F168C0F20100091A06D04FF6F57008
S35100006FC4C0F2FF00091A24D039E0306904281CBF1524CCF2010435D10094696A706908188068A863EB681BB12A69262000A99847A86B40B10098012801BF032085F820000020E8631ED0022085F82000C8
S351000070100120E86318E0306906281CBF1524CCF2010411D1696A706909188868C96880F0000081F0000108431CBFBB24CCF2000402E0BB24CCF20004A86AC460A86A3860BDE8F84070470000D0F824C010
S3510000705CBCF1000F1ED00623DCF82800C8F20003036010231360DCF828004360DCF8280000228260DCF82800C260DCF8280008600220CCF8340001208CF820004FF0FF30CCF83C00704700007047000071
S351000070A8416A29B1012081F82000C8630420486370470000DFF8101000220968002906BF02600020C1207047B022FF1F2DE9FC4180464C200F4616461D4628F043FD044608B981202DE000A8FFF7E4FFF9
S351000070F4C12804D1204628F0F5FBFF2023E00898A06400202061542028F02EFD2061002808BF812017D0C4F804806661A561E761099904F124002422256229F043F8DFF81C2040460021234600F0ACFD1B
S351000071400098DFF8101041F82040BDE8FC41704759710000B022FF1F2DE9F04184B00D4600210DF10408A8F80010039106460068012101AA02AFCE2400F0A2FBB068012847D1316905F10800082229F060
S3510000718C15F8287A10F060011BD1697ADFF8CC0050F821C0BCF1000F34D0B8F80020032A30D20C204143DFF8B800401850F82200012827D1284605F1080103AA02ABE0471FE0E9890291A1B110F0800061
S351000071D811D101F1080054283DD8286905F10801082228F0E5FF2A693068029B0021083200F062FC2FE06E6936B1AB6905F1080003A902AAB04704461DE0B8F80000042803D1284600F0E6F81DE0287AD1
S3510000722410F0800019D1F068B8B9E889A8B1D5F81480B8F1000F08D0706903A9083002902869AB6902AAC04704462846214605F1080203AB009700F009F804B0BDE8F0417047C0460005FF1F3405FF1F6D
S3510000727038B505461446DDF810C0CE2905D140689021012200F060FB18E0D288DCF80010914288BFCCF800201A68806CDCF80030002100F079FA207800F08000802805D1002168680A460B4600F002FCD1
S351000072BCBDE838407047000070B515460A780646FF201C4612F003020AD170680621324600F0F0FA3188C0B201F00301318015E0012A07D18988706A336BC9B23246984701210CE0022A0BD18988706887
S35100007308C9B241F01001C9B2324600F0D5FAC0B2022121602E60BDE8704070472DE9FC4100221A604A780DF1000802F00202C2F34F040A78CE2507460E4612F0030225D1498811F0030138D000AA40681C
S351000073540621023200F0B2FA012CB8F8022006D17088012101FA00F080B2104306E07088012101FA00F0C04380B21040A8F802007868B8F80220062100F0DCFAC5B216E0022A14D18988224688F8001058
S351000073A0C9B241F010014068C9B200F0CDFAC5B2072004B90820FB69C0B213B13A6A00A998472846BDE8FC417047000038B50C4600211960054640680121042200F0B4FA608868800020BDE8384070473E
S351000073EC10B5044661884068C9B200F097FC012160680A4600F0A2FA60686288032100F09DFA0020BDE810407047000038B50121196005461446406804212A4600F04AFA25600020BDE8384070470000AB
S35100007438F8B500271F60498800AD04462980406AA26B04269047C8B1288800B90127606801213A4600F074FA00AA60681288042100F06EFAE369C6B243B1226A012000A99847226AE36902200021984744
S351000074843046BDE8F840704738B5144601221A6005468988406A2B6BC9B22A4698472560BDE838407047000008B500221A600A78864602F003028C46012A18BF042009D18988BCF80220406ADEF83430CE
S351000074D0C9B2D2B298470020BDE808407047000038B50221196005461446406805212A4600F0E6F9C0B22560BDE83840704700007CB54D880646C5F3072CFF244FF0FF0EBCF1030F02D1B1F804E0ECB259
S3510000751C009201932246406AB46A61467346A047BDE87C407047000008B5012888BFFF200DD8DFF820C05CF820C0BCF1000F08BFFF2004D0DCF82400DCF844C0E047BDE808407047B022FF1F08B5012865
S3510000756888BFFF200DD8DFF820C05CF820C0BCF1000F08BFFF2004D0DCF82400DCF840C0E047BDE808407047B022FF1F08B5012888BFFF200AD8DFF81C1051F82010002908BFFF2002D0486AC96B88475E
S351000075B4BDE808407047C046B022FF1F0020DFF8162003E052F8201019B1401C0128F9DBC1207047C046B422FF1F0000704700007047000008B5017931B941F010010068C9B2002200F0A6F9BDE808405A
S3510000760070470000036900681A7811028AB25978DFF808300A4305211847C046497900002DE9FC4105460C46B9B3002200AEB27032704021019172700DF10008006841460122012700F004FB3178286825
S3510000764C41F01001C9B2002200F078F9B77028684146012200F0F6FA3178286841F08001C9B241F01001C9B2002200F067F9E3681BB1A26800200021984728680121022200F05CF928680621012200F0B0
S3510000769857F9BDE8FC41704708B584460A4631B1CB6823B1DCF81010926805209847BDE8084070472DE9FE4381461020884617461E4628F04FFA044608B981204EE0FFF773FF0546C12804D1204628F05A
S351000076E401F9C12044E0C4F80490C4F80C80A66000900A984146019048463A463346FFF7E7FC2060FF282ED0DFF86C2048461021234600F0BFFADFF8642048461221234600F0B8FADFF8582048461421FB
S35100007730234600F0B1FADFF8502048461321234600F0AAFADFF8442048461721234600F0A3FADFF83C2048461621234600F09CFA48460121032200F0EFF8DFF8280040F825402846BDE8FE437047C046C6
S3510000777C2176000005760000E1750000E5750000E9750000A1760000B422FF1F2DE9F8438846DFF88210174651F8205000241E460DB9FF2034E000AA68680121023200F081F86868062100AA00F07CF833
S351000077C80DF10009B9F80200802817D1B9F8000010F0020012D02868FFF7D8FE01280DD128F03EFB686800F00DF9A9F8024068680121002200F0A4F828F046FB00A84088802806D0686841463A463346FC
S3510000781400F00EF9C4B22046BDE8F8437047B422FF1F00007047000008B5012888BFFF200AD8DFF81CC05CF82000002808BFFF2002D00068FFF774FEBDE808407047C046B422FF1F08B5012888BFFF201E
S351000078600AD8DFF81CC05CF82000002808BFFF2002D00068FFF776FEBDE808407047C046B422FF1F7CB506460D46144608B9FF2013E0009028F0E8FA00988068C06940B1009B30469B682946DB6922462D
S351000078AC9847044600E0ECE728F0ECFA2046BDE87C4070477CB506460D461446002800D00AB9FF2036E0009028F0C8FA062D17D8DFE805F016042D0B0F1308080098008E208024E00098408EFAE70098A3
S351000078F890F84000F6E70098B0F83E00F2E70098808EEFE715F010000FD000988068006A40B1009B30469B6805F00F011B6A2246984706E028F0B0FACDE728F0ADFA822002E028F0A9FA0020BDE87C4037
S3510000794470470000F8B5002407460E46154608B9FF2042E0009028F085FA062E23D8DFE806F0220439110A0E07070098058631E0009845862EE00098A0F83E502AE00098858627E00098E9B280F84010B0
S3510000799000988068C06A002808BFFF241CD00098009A9268D26A904710E016F010000FD000988068406A002808BFFF240CD0009B38469B6831465B6A2A469847C4B203E028F05EFA822002E028F05AFA61
S351000079DC2046BDE8F840704708B508B9FF200BE00090009B9B68DB6B002B08BFFF2003D0009B9B68DB6B9847BDE808407047000008B508B9FF200BE0009000998968896B002908BFFF2003D00099896816
S35100007A28896B8847BDE8084070470000F8B507460E4615461C4608B9FF2039E0009028F00FFA0098C06A18B928F01EFA03202FE00098016A0098006A58B10098006AC0690268009802620098006A10B991
S35100007A740098002242620098C06A421E0098C2620E70012048708C604D600020C8600620C87000988068806830B1009A3846926892689047044600E0C8E728F0EFF904B193242046BDE8F8407047000083
S35100007AC0F8B507460E4615461C4608B9FF2026E028F0CAF9F86A18B928F0DAF903201EE0396A21B1C8690068386200B97862F86A401EF8620E70002048708C604D60C8600620C870B868C2681AB138460C
S35100007B0C9047044600E0DBE728F0BCF904B194242046BDE8F840704738B504460D4628F09DF9206A00280FBF2562606AC06905606562E86900210160E06A401CE06228F0A1F9BDE838407047F8B504469A
S35100007B580F4600B90BE0006800B9FBE728F080F9042027F0EBF8064618B928F08DF9C02067E04FF0000C0022022183185D6863689D4204D00C320CF1010C491EF5DCBCF1020F00D1E9E70C210CFB01F5D7
S35100007BA400F10804615921B1396028F06FF9C12049E04059016809B100A88847009A1AB928F064F987203EE0715970199160426800990A6022F08EF890B128F057F90098806927F07FFE0098C06827F0EB
S35100007BF07BFE0098C06927F077FE009827F074FEC42022E000988168496811B18847064601E0FF2019E090B128F03AF90098806927F062FE0098C06827F05EFE0098C06927F05AFE009827F057FE8D20D6
S35100007C3C05E000983860605128F024F93046BDE8F840704708B508B9FF201BE091F800C0836983F800C091F802C0836983F801C0D1F804C08369A3F810C04B7881698B7081694A6181684A69002A08BFC8
S35100007C88FF2001D081699047BDE8084070470000F8B504460F4616461D4608B9FF2020E028F0DEF8143408E00878B84203D128F0EBF8842015E001F10C0421680029F3D1102027F04FFF18B928F0DEF89E
S35100007CD4812008E00770466085600021C160206028F0D4F80020BDE8F840704770B50C6806460D4628F0B6F862690BE01078B04207D1916852682846904728F0BFF8002005E0D268002AF1D128F0B8F8B9
S35100007D208320BDE87040704708B508B9FF2006E08268D26A002A08BFFF2000D09047BDE80840704770B506460D46144628F08CF8B06803692BB13046294622469847C4B201E0FF2002E028F093F82046B7
S35100007D6CBDE87040704700001CB500900C4628F075F80098006A20600098006A58B10098006AC0690168009801620098006A10B90098002141620098C06A411E0098C16228F070F8BDE81C40704700002A
S35100007DB81CB500A90446FFF7D9FF0098002202700098012142700098826000988270009841610098C26000988161DFF87010A2F50070084094F85D1001F0010140EAC1014A6800994A60E16C002907BF2E
S35100007E040099E164009A216D1CBFC9690A600099002221650099C9690A6094F85C1081F0010184F85B2084F85C10B4F8562040F2FF311140090441F0880294F85D1001F0010140EAC1000260BDE81C4018
S35100007E507047C0460000FF1FF8B507460E4615461C4608B9FF2041E0406800900098002808BFFF203AD027F0F7FF342206FB02F1DFF86E30A2F50D72134006F00F0207F15D0043EA4212435C7E1803F0D7
S35100007E9C010342EAC3035B687367435C03F0010342EAC3035D6040F2FF3323401B0443F0880496F85B30405C03F0010300F0010044EA831342EAC000036027F0DBFF009890F8940000F0DF01009880F8E2
S35100007EE894100020BDE8F84070470000FF1F00007CB51C4608B9FF2043E045680095009D05B9F8E7342501FB05FC00EB0C05B5F85650AB4288BF2C46069B4FF600651C6000F15C03DFF86060CFF6FF758E
S35100007F34354001F00F0145EA411113F80C5041F0100105F0010541EAC5056A6040F2FF326044224090F85A00120442F0880200F0010042EA801213F80C0000F0010041EAC0000260009890F8940000F0DC
S35100007F80DF01009880F894100020BDE87C4070470000FF1F2DE9FE4F864608B9FF207DE041680291029901B9F8E70299FF2281F888200299002491F8941041F002020299254681F8942002994FF00008D6
S35100007FCC4FF0000C81F89880DFF8CC20ACF5007102EA01092346224621462646274600950195102508F00F0A49EA4A1ACAF800404AF0080BCBF800304AF0100BCBF800204AF0180ACAF8001000EB0C0AFA
S351000080188AF85D608AF85C70DDF800B0CAF860B04FF0FF3BCAF874B0B8F1000F04BF4FF0010B8AF85CB0DDF808A00AEB880BDDF804A08BF8C0A008F101080CF1340C6D1ECADCDFF84C1000200860029958
S3510000806491F8941001F0FD02029981F894200221AEF830108EF840000299FF2281F88C2002999F2281F88420029991F8941001F0DF02029981F89420BDE8FE4F7047C0460000FF1FB822FF1F1CB54FF085
S351000080B0340E01FB0EFC00EB0C035B6CDFF86A40AEF50D7E009304EA0E0401F00F0144EA411100F15C0341F0100413F80C1001F0010144EAC1014968116013F80C1081F0010100F15A0203F80C1012F8E9
S351000080FC0C1081F0010102F80C10009951B10099CA68009989688A4204D0009900F0C2FD022000E00020BDE81C407047C0460000FF1F00007CB505460C464FF0340E01FB0EF600EB060CDCF84C60009655
S35100008148DFF82C61AEF50D7E06EA0E0E01F00F064EEA461E9CF85D6006F001064EEAC60676681E6012F0080301D0012300E00023DBB212F0040201D0012200E0002202F0010C03F00106DFF8E8304FF63A
S351000081940062CFF6FF72134001F00F0243EA421242EA061242EACC02166840F2FF3202EA1643C6F38302E1B90D2A1AD12846214601260122FFF7BCFD342004FB00F2A81880F85A6080F85B6005F15D0141
S351000081E0885C80F00100885405F15C01885C80F0010088543BE000F15B0C342401FB04FE1CF80E2082F001020CF80E2000F15D0C1CF80E2082F001020CF80E2000EB0E02506FB0F1FF3F13D0DFF84CC044
S3510000822CA4F50D740CEA040401F00F0144EA411492F85D1081F0010144EAC10148604FF0FF305067009860B10098C16800988068814206D22BB12846009900F0A9FD022000E00020BDE87C407047C046FF
S351000082780000FF1F08B588B0002100AA117043680193019B23B3019B4FF0020C93F890E0019B83F880C0019B93F888C0019B93F88C300CEA0303137002900EF0F00000111073CEF3C000059000A8069030
S351000082C404910791162002A9FFF710FD0198FF2180F8881008B0BDE808407047F0B587B0044640680090009848B30098012180F880100098002690F8900000F0F000C0F30717102520463146002200F0D4
S3510000831077FC20463146012200F072FC761CF6B26D1EF1DC2046FFF735FE019400A8077200200390049005900690102001A9FFF7D7FC07B0BDE8F040704700002DE9F84789B000230093416882460291D3
S3510000835C0299002900F005810299082291F89070029981F8802007F0F001C1F3071917F0080118BF012307F004020124D9B202B900244FF60062DFF8E231CFF6FF72134009F00F0243EA421201F00103A6
S351000083A804F0010442EA031343EAC4031C6840F2FF3303EA1445C4F383030D2B0CBF01230023DCB2002955D0342109FB01F800F1440101EB080251F8081001910199C9684B190199CB600199C9680891FA
S351000083F401994968079101998B680199C9685E1A05D000EB0801B1F85610A94216D9019B0021D97000F1440353F80800019053F8080028B1C069006843F8080000B95160019818B101995046FFF772FB51
S351000084405046494600AAFFF731FE002840F08F800AEB0800B0F85600854268D1002E66D1B9F1000F63D1DFF81201012101600022504649461346FFF7DDFA78E0DFF8FA100B68012B04BF00230B603421EA
S3510000848C09FB01F68119C86C01900198806988B991F85D0000F0010042EAC0004268019841680198C0680818824203D011462A4627F07CFE0198C06841190198C1600198C0680890019840680790019863
S351000084D881680198C068091A0198806830B129B10AEB0600B0F85600A84215D9019800220AF14C01C27088590190885930B1C0690068885110B90AEB06000265019818B101995046FFF702FB50464946D0
S351000085243A4600ABFFF702FEF8B9B9F1000F07D135B9DFF84200006810B95046FFF73AFCCDF80CA000A880F81090C7F3C0000690484603A90594FFF7C9FB029890F8940000F0DF01029880F8941009B0E5
S35100008570BDE8F84770470000FF1FB822FF1F000018B587B0416804460091009931B30099202281F880200099102281F88020012100F13802FFF78CF9204601218022FFF7CBF90194FF2100A8017200208F
S351000085BC0390049005900690142001A9FFF792FB009890F8840040F02001009880F8841007B0BDE81840704718B587B04168044600910099E1B10099202281F88020028F0121FFF7A3F90194FF2100A86D
S35100008608017200200390049005900690132001A9FFF76AFB009890F8840000F0DF01009880F8841007B0BDE81840704700B587B041680091009931B30099042281F88020009991F8A41089B209028186E2
S351000086548AB2009991F8A010114381860099202281F88020009991F8901001F0F00101900A1100A90A72002134300590039104910691122001A9FFF731FB07B05DF804EB704700000CB4406800900098E8
S351000086A018B10098402180F880100CBC70470000F8B588B0002400AE34804168054601910199E1B10199802281F88020FF27102100AA02900494059706940794FFF7F0F8308801280CBF347337731720BF
S351000086EC02A9FFF7FFFA00A8007B10B92846FFF75DFB08B0BDE8F8407047000038B5054600283BD0416800910099002936D0009991F88020009991F884101140CCB214F0020101D0FFF7A4FD14F0010086
S3510000873802D02846FFF7D0FD14F0080002D02846FFF700FE14F0100002D02846FFF714FF14F0200002D02846FFF740FF14F0040002D02846FFF762FF14F0400002D02846FFF78EFF14F0800002D028464C
S35100008784FFF794FFBDE83840704700002DE9F84306464FF4617027F0E7F9054600283BD04FF4286027F0E0F9E86120B9284627F099F8812032E04FF4C07027F0D5F9E86018B9E86927F08EF8F0E75420D0
S351000087D027F0CCF9A86118B9E86827F085F8F2E7002028626862E862D5F81C80D5F80C90DFF832702024C8F81C90C9F80470D8F81C00056028464146FFF78CF908F1540809F10C09641EEEDC356000E010
S3510000881CCBE70020BDE8F8437047257B000000003EB5019001980268019808B98B2054E011680198FF2441605168019880F83B1001980486D168019880F83D10106800900099019841605168019880F8F7
S351000088683B10009808B9FF2039E00198DFF8741090F83B00019A27F08BFB002808BF8A202DD0DFF86450002128464FF4007227F099FC0198FFF77AFB0098290A80F89C100098290C80F8B0100098290E1B
S351000088B480F8B41000989F2180F88040009880F884100098012180F89410009890F8000100F07F01009880F800110098842101770020BDE83E407047098700000000FF1F2DE9F04186B00490049A0C461C
S351000089000AB9FF2074E1049A52680392039A02B9F7E78A78032A02D84A78012A01D9952066E109783423049D4B43EB1803EB8203DB6E012B01D100F063F921783420049A484311186078012501EB800046
S3510000894CC566049800218162E068C8B96078B8B9049805A9FFF708FA217805980170617805984170A1680598816005988561E1680598C160A17805988170616905984161A6780120012E08BF0020218A2B
S35100008998C0B240F00000402988BF402122788DB23421049B4A439A1882F854602278049B4A439A186678049B82F85560227805264A439A18A2F856502278049B4A439A18A2F864602278049B514300266F
S351000089E459188E66039901F1C002217802EB81010291029904220978014302980170607800B90822039800F1C001207801EB8000019001980178D0B20143019801706078002840F0A980DFF8CC1100A82C
S35100008A300A7834260270497800224170207804997043081880F85B20680027F08FF82178049A7143511808662278049902FB06F00918096E09B98120C2E0DFF89031A6F50D710B40049909180F6E02F05F
S35100008A7C0F0143EA41120499081890F85D0000F0010042EAC0004760E06890BB607880BB2778049907F00F0043EA401207FB06F0081890F85D0000F0010042EAC000416805984160207800FB06F20498A3
S35100008AC88018C06C002801BF059904988018C1641FBF059904988018006D1CBFC0690160217834204843049A059E1018066505980021C069016094F8008008F00F02DDF810E040F2FF304FF0340C43EABC
S35100008B14421708FB0CF2724492F85D2002F0010200AE05EA0001307847EAC20240EA014010602778049807FB0CF28018006E401907F00F0543EA451E049DAA1892F85D2082F001024EEAC2025060257890
S35100008B60707840EA014405F00F0043EA4012049905FB0CF0081890F85D0033E020780499342358430022081880F85A2040F2FF30284027780104DFF86420A3F50D70024007F00F0542EA451545F0100CDC
S35100008BAC049E07FB03F5751995F85C5005F0010541F008004CEAC5052860257841F0480405F00F0042EA401040F01002049905FB03F0081890F85C0080F0010042EAC0000460002006B0BDE8F0417047C4
S35100008BF8E02A03000000FF1FFEB50190019B0F4616460BB9962042E0019B5B680093009B03B9F7E7FFF792F80098002400EB870080F8C04076B93420019907FB00F54819006E38B101984019006E26F044
S35100008C4451FE0198401904664FF60060DFF84810CFF6FF70014007F00F0041EA401006F0010240EA02104FF0FF31416040F008004160342007FB00F201984FF6FF718018A0F8561001980021801800EBE2
S35100008C908600C1660020BDE8FE4070470000FF1F3EB58B68CA6801909B1A01980D46029308B9FF207FE0CAB90A783420424301988018406C002803BF01988018416401981FBF8018806CC06901600A786D
S35100008CDC34205043019B002218188164C8690260029B02A8002B00902DD1019809786A68FFF7FCF8044628B329783422019B514300205918E8704D6C019B297851435B185B6C93B1019B5B185B6CDB69CC
S35100008D28D3F800C0019B5918C1F844C029784A4301998918496C11B90199891888641DB101982946FEF7EAFE30E06C68EA6801980978A218FFF7CCF80446002826D0297834230020019A5943E8705118A6
S35100008D744A6C019D117859436D186D6C95B1019D6D186D6CED69D5F800C0019D6918C1F844C011784B430199C918496C11B90199C9188864002A03D001981146FEF7B8FE2046BDE83E4070471CB5009024
S35100008DC0009A0C4602B109B9FF206CE0D1F80CC08A68BCF1000FA2EB0C0320D191F800C034220CFB02FC009A6244D26C002A03BF009A6244D164009A1FBF6244126DD269116091F800C034220CFB02F25F
S35100008E0CDDF800E072441165CA694FF0000CC2F800C00978342201FB02FC009A6244B2F85620934282BF009A6244B2F85630D4F804C0E268624413F0030C02D112F0030C08D00021A16121783422DDF84F
S35100008E5800C04A436244126EFEF7FAFFF8B122783421009B4A439A18D46C227802FB01FC009A6244D26C92B1009A6244D26CD2691368009A6244D364227802FB01F30099C918C96C19B900990022C9180D
S35100008EA40A65BDE81C4070472DE9FC410090009B884617460BB9FF204CE0009B5D6805B9F9E73424009B01FB04F64FF0010C9B19C3F868C0FEF734FFCFB10098DFF87A208019B0F8561040F2FF300840D2
S35100008EF0A4F50D710A4008F00F0142EA411141F0100200990004891940F08C0091F85C1016E00098DFF846208019B0F8561040F2FF300840A4F50D710A4008F00F0142EA411200990004891991F85D10DE
S35100008F3C40F08C0001F0010142EAC101086095F8940000F0DF0085F894000020BDE8FC4170470000FF1F00002DE9FC41009000980C4608B9FF2092E00098466806B9F9E74FF03408009801FB08F70025CF
S35100008F88C019856606F1C00010F8213003F0FD0300F821301AB310F8212042F0050200F821200098DFF8F230C019B0F8562040F2FF301040A5F500721A4001F00F0142EA411141F0100200990004C9191F
S35100008FD491F85C1001F0010140F0080042EAC10151E010F8212042F0090200F82120009801A9FEF7BDFE01983A46047001984570019885600098801890F8541001988170019801214161019881610198EB
S35100009020C56000988018C06C002801BF01990098C019C1641FBF01990098C019006D1CBFC0690160009801998018016501980021C06901600098A1F500718018B0F8563040F2FF301840DFF83A300004D3
S3510000906C0B4004F00F0143EA4113009940F08800891891F85D1001F0010143EAC101086096F8940000F0DF0086F894000020BDE8FC417047C0460000FF1F0000FEB500900098174608B9FF2048E034203C
S351000090B801FB00F600250024EFB100988019406C019000988019406C70B100988019406CC069016800988019416400988019406C10B9009880198564019828B30198C470019808B31CE000983018C06C7D
S35100009104019000983018C06C70B100983018C06CC069016800983018C16400983018C06C10B9009830180465019838B10198C470019818B100980199FEF7F2FC01980028BCD10020BDE8FE4070470000CC
S351000091500CB40190019A0AB9FF200FE0019A52680092009A02B9F7E739B1009A82F89810019A82F840100121018600200CBC70470EB50190019909B9FF2010E00199496800910099002908BFFF2008D088
S3510000919C0099002281F894200121FF22FEF7CEFB0020BDE80E4070470CB40090009808B9FF2022E002B9FBE74FF60060DFF84030CFF6FF70034001F00F0043EA401C3420009B4843181890F85D0000F0FC
S351000091E801004CEAC00040680023019008200199C95CD1545B1CDBB2401EF8DC00200CBC7047C0460000FF1F0CB40090009808B9FF2024E00098406801900198002808BFFF201CD00198202180F88010CB
S35100009234019890F8940000F0DF01019880F89410019890F8940040F00401019880F89410019890F8940000F0FB01019880F8941000200CBC704700000CB400900098002808BFFF2007D03420009B4843D3
S351000092801818B0F86400108000200CBC704700001CB5009001F00F03C1F3C01E00994FF0FF0C09B9FF2020E0102B88BFFF201CD8342103FB01F400990919A1F86420012A04D119467246FEF78DFB0CE042
S351000092CC62B900990919896E012907D10099091991F855201946FEF7CFFA84466046BDE81C4070470CB400900098052308B9FF2031E0009840680190019800B9F7E7102928D20198002300EB810090F89E
S35100009318C0C01CF00C0008BF05231DD00CF00200022808BF012317D002F0010CDFF83020A3F50070024001F00F0042EA401040EA0C11086810F0800005D141F00800006810F0800000D0032318460CBC5F
S351000093647047C0460000FF1F7F2888BF4FF0FF30411CDFF80C00405C00F040007047C046185E03007F2888BF4FF0FF30411CDFF80C00405C00F004007047C046185E030018B591B0DFF8201004461090DD
S351000093B000A800F0DBFF28B9002020830598C4F88400002011B0BDE81840704791ED000030B591B0038B05460C4613B141F2057022E00B88012B04D1082A05D241F206701AE041F2027017E0D0F884007E
S351000093FC10B941F2396011E0059048684988079000A841840384DFF81C1000A800F0A8FF20B96088A88101202883002011B0BDE830407047EDED000038B5A8B0038B05460C46981E02D0401E03D005E06B
S3510000944841F20B7060E041F20A705DE009880120012908BF002010B141F2027054E0082A38BF41F206704FD3D5F8841011B941F2396049E053B9012100A80180002141800191284600A90822FFF79EFFEA
S35100009494E0BB606861880B9000A84186A96A00220491296A0591696A0691A96C0E91E96C0291296D0391696D0791A96D0891E96D0D91296E0F91696E1091A96E1191A96F1491E96F1591D5F880101691D5
S351000094E080F82620FF2180F8271080F82520D5F884101C9102A91D91698BA0F87C10DFF81A1017A800F032FF10B903202883002028B0BDE838407047C046EDEE0000000010B5A6B0018B044621B1891EE2
S3510000952C05D0491E06D008E041F209704AE041F20B7047E041F20A7044E0D0F8841011B941F239603EE0418B0122012908BF002212B141F2027035E00021099100AA5185836A0293036A0393436A0C91DE
S351000095780493C36C0093036D0193436D0593836D0693C36D0B93036E0D93436E0E93836E0F93836F1293D0F8803014939177FF23D3775177D0F884101A9100A91B912590408BDFF81C10A2F8740015A813
S351000095C400F0D2FE10B902202083002026B0BDE810407047EDEE00002DE9F84191B00F46018B80461646002904D0491E09D0891E08D00AE041F20C7100F0A0FF4FF0FF3085E0F7E741F20A71F6E70020B6
S3510000961023F008FE0146DFF8020100F00BFB054618B9404641F22211E8E7D8F884100591B8F81A1041831090DFF8E21000A800F095FE044628B1284600F050FB40462146D4E703242846394632462C8326
S3510000965C00F04CF9064628B1284600F041FB40463146C5E7D8F820002862D8F824006862D8F82800A862D8F82C00E862D8F830002863D8F834006863D8F83800A863D8F83C00E863D8F840002864D8F86F
S351000096A844006864D8F84800A864D8F84C00E864D8F850002865D8F854006865D8F85800A865D8F85C00E865D8F860002866D8F864006866D8F86800A866D8F86C00E866D8F870002867D8F87800A867D2
S351000096F4B8F80C00A881B8F81A00688308F1980305F1980203CB03C2641EFBD1284611B0BDE8F8417047242B03008DF3000000000FB42DE9F84191B018989046048B032C02D041F20D712AE0D0F884403F
S3510000974014B941F23961F8E75BB9446B0CB143F01003846B0CB143F08003C46B0CB143F02003D0F8844005940A910B921090806A0C9000A8838613F001000FD0DFF8641000A800F0F3FD0146002908BFD3
S3510000978C0B9824D0189800F0D5FE4FF0FF301EE0DFF84450002718AC00AE3046294600F0DFFD014601B1EDE70B98002818BF3F1804D1012120460A4600F0AEF90A990B9808180A90B8EB07000B90E6D15A
S351000097D8384611B0BDE8F84104B07047D5D9000030B591B0B0F818C00446BCF1030F06D041F20D7100F0A0FE0020C0433BE0D0F884C0BCF1000F02D141F23961F2E77BB9D0F840C0BCF1000F14BF43F008
S35100009824100343F08003D0F830C0BCF1000F18BF43F02003D0F884C00A91CDF814C00B921090C06ADFF83A100C9000A8838600A800F08AFD054678B12046294600F06EFE41F24960854206D1059AD16C59
S35100009870906B814201D0506D08B9C1E70B9811B0BDE830407047B9E2000000001CB5038B144613B941F209702AE0D0F8843013B941F2396024E012B31288082A13D24FF0010C00ABA3F800C0D0F884C0FF
S351000098BCBCF82EC0A3F802C0D0F88400406A0190084600A926F072FC09E001220A80D0F88420D28D4A80D0F88400406A4860082020800020BDE81C40704700001CB5038B1446032B18BF41F20D702AD187
S35100009908D0F8843013B941F2396024E012B31288082A13D24FF0010C00ABA3F800C0D0F884C0BCF830C0A3F802C0D0F88400806A0190084600A926F03BFC09E001220A80D0F88420128E4A80D0F884005D
S35100009954806A4860082020800020BDE81C40704700B591B0D0F8840060B10590102900A802D1DFF81A1001E0DFF8161000F0F4FC00B9002011B05DF804EB7047C046A1E80000B5E70000000010B1B0F112
S351000099A0FF3F02D141F20470704700EB8200C06904211860009801600020704710B1B0F1FF3F02D141F204707047196800EB8200C161002070470000D0F88430002283B159B9B3F8600038B9988A0A2817
S351000099EC04D0D96E986E081A00280CDD0AE0D3F8C00040B906E0D0F88800002802D0006908B1FFE7012210467047000010B50446012025F091F981680A69A26012B104F10800D0600C6101F11000E06033
S35100009A38E06A40B12061DFF81400A461606104F1100002F0B5FFBDE810407047599A000008B5806882680AB1C168D1608268C1680A6000210163002100F0B0FC0020BDE80840704738B5826805460C468A
S35100009A840AB1C168D1608268C1680A60C16A11B1103002F0B1FF0A2C01D0152C03D1284641F20F7101E02846002100F091FCBDE8384070472DE9F041804601200F46164625F03EF98068B8F1000F26D070
S35100009AD004691DE0216AA56821B1404600F02EF9A8B10EE0002E0CD10020A26A05E0616A51F82010884502D0401C9042F7D3904205D220463946C4F83080FFF7B7FF2C46002CDFD1D8F8741009B140460D
S35100009B1C8847BDE8F041704700B58DB00A910990DFF81C1000A80B9200F01AFC002814BF4FF0FF300C980DB05DF804EB7047C046519B0000F8B50546866A0027002411E0686A10EB84000CD0B0F1FF3F40
S35100009B6809D0006838B10021FFF732FF18B1686A50F8247002E0641CB442EBD32FB12F632846002100F022FC0AE0E86AB0F1FF3F03D1002129632846F4E72846FFF738FFBDE8F8407047000018B58DB07F
S35100009BB40446002023F034FB0890DFF81C1000A80B9400F0D1FB002814BF4FF0FF300C980DB0BDE818407047E19B000038B50546012025F0ADF8806884680AE0296A204600F0A2F820B120460021FFF779
S35100009C00EBFE10B92468002CF2D12CB12C632846002100F0DFFB0AE0E86AB0F1FF3F03D1002129632846F4E72846FFF7F5FEBDE838407047F8B5074601200C4625F082F88568806A02F0EAF806460028F5
S35100009C4C49D005F1180025F01BFB68682146401C6860304600F06EF8A86800281DBFE8680660E868AE6008BF002070600024346005F11800EE6025F0C3FA44F25330C5F25420B06045F20030C0F2070074
S35100009C98306240F6B83070624AF68010C0F20300B062F462012131637463B463F16334647464B1644FF0FF30F06430657465B465F46534667466B466F466376774674FF4FA60B067C6F88010F7613046BB
S35100009CE4BDE8F8407047000038B50546012025F027F884680020A86004F1180025F0C4FA6968286800290CBFA06008602968686800290CBFE0604860284602F08BF86068401E606004F1180025F06EFACC
S35100009D30BDE838407047000001207047012070470120704710B58AB0DFF83410044600A800F00CFB80B9002020830399C4F88810608BA1F8480003984C30C4F8900003985030C4F8940000200AB0BDE87D
S35100009D7C1040704791BF000070B58AB005460C46164600F079F9E8B92046314600F088F9C0B9D5F8881022880391099500A90A83012A0BD160884883DFF82000DFF8201004906068059000A800F0D2FA98
S35100009DC810B90120288300200AB0BDE87040704755C80000E9BF000070B58CB005460C460020298B082A38BF41F2067000B9002089B920BB012100A801800021418000AE301D0021042226F0DDF92846A6
S35100009E1431460822FFF7B4FF98B90121298361686288079100A94A84D5F8881005910B90DFF8181002A800F097FA10B90220288300200CB0BDE870407047C04649C100000EB5038B13B941F2097023E0B7
S35100009E600AB3B2F800C0BCF1080F10D2012300AA1380D0F888301B895380D0F88800006B62460190084600A926F096F90BE001230B80D0F888301B894B80D0F88800006B4860082010800020BDE80E4044
S35100009EAC704700000EB5038B022B18BF41F20D7025D11AB3B2F800C0BCF1080F11D2012300AA1380D0F88830B3F86C305380D0F88800806D62460190084600A926F066F90CE001230B80D0F88830B3F831
S35100009EF86C304B80D0F88800806D4860082010800020BDE80E4070470EB54FF0000CCDE900CC00F003F8BDE80E407047F8B58CB0068B0746129D139C36B941F2097100F003FB0020C0432BE0D0F88800F8
S35100009F440A910590DFF854100B9200AE02A8B38400F00AFA014609B13846EAE7CCB12088082821BF01202880708C688021BF07986860082020800CD201203080708C00A97080079801902288284626F05D
S35100009F9013F9082020800B980CB0BDE8F840704729C200000EB54FF0000CCDE900CC00F003F8BDE80E407047F0B58FB00E461546082200A90A80149907461C4631B114A98988082902D241F2067135E0E8
S35100009FDC149949B9384603A900AAFFF763FF38B1384641F20D71F2E703A8082226F0DEF8388B68B9012100A881800021C1800291384601A90822FFF7B7FE014601B114E004980A9000A8C189C185D7F8DB
S3510000A028881008910D960E950486DFF8261005A800F098F90146002908BF284604D0384600F07AFA0020C0430FB0BDE8F0407047C046D1C20000000008B58AB0D0F888000390DFF8141000A800F07CF966
S3510000A07400B900200AB0BDE808407047F9C80000008B002208B141F205720888012803D0022818BF41F20272012803D0022808BF41F202721046704700880022012801D1082902E0022803D1182938BFCF
S3510000A0C041F2067210467047DFF814104A681218500C40EAC2304860012008607047C046C022FF1F2DE9F84FDFF8EA40DFF8EA802068002844D06168D8F8000081EA00094DF28D214DF28D20C7F6FF71E3
S3510000A10CC7F6FF7001E0A9EB01098145FBD242F61A664DF28D254DF28D2BC0F2010646F67647C7F6FF75C7F6FF7B484646F6774128F0C6FA8A4642F61B614846C0F2010128F0BEFABAF1000F09D0BAF1DB
S3510000A158010F06D0BA4504D019B1012901D0B14206D109F10309A94528BFA9EB0B09DEE7C8F80090002020604DF28D224DF28D23D8F800700026C7F6FF72C7F6FF73202100204FF080450BE0400098422B
S3510000A1A400D3801A17EA050418BFC019904200D3801A6D08002DF1D100F00104074644EA4606491EE6DCC8F800003046BDE8F84F7047C022FF1FD005FF1F00007CB50120012424F0ADFD10B14FF49850CD
S3510000A1F09BE0302001F0A0FD054610B941F2021492E041F2010125F063FC0120294624F0ADFD342001F090FD064610B941F202147AE041F20E0125F053FC34600024B46006F118000121F46024F06EFFFC
S3510000A23C012024F081FD8660DFF8EA00DFF8EA100460DFF8EA000460DFF8E60004604FF4423028600968002089B223F0EFFE2884DFF8D210DFF8D220DFF8D230096812681B68102089B292B29BB224F06D
S3510000A28839FAE8610028009409D10022032041F23511134641F2351400F0D4F82FE0DFF8A6100194DFF8A220DFF8A230096812681B68B02001F04EFDA8620028009409D10022012041F22111134641F262
S3510000A2D4211400F0B9F810E0DFF87A10DFF87A20DFF87A0009681268DFF8763001F09CFC044610B1A86A01F0ADFD14B1E86924F0C7F93CB1012024F01BFD00218160304625F0E8FA34B10120002124F0D8
S3510000A32025FD284625F0E0FA2046BDE87C407047C046D822FF1F0806FF1FD422FF1FD022FF1FEC05FF1FE805FF1FE405FF1FE005FF1FDC05FF1FD805FF1FFC05FF1FF805FF1F0C06FF1F19CE0000000011
S3510000A36C2DE9F04104460120884624F0E5FC0646C06924F0ABFA074610B94FF4895013E000256560002022F047FF2060308C7880BD8010203880C7F808803846FC6024F017F810B941F232106060606812
S3510000A3B8BDE8F0417047000010B5002204464260026088476068BDE81040704708B501B14160006808B122F0CBFEBDE80840704770B5064601200D4624F0A8FC0446C06924F06EFA002808BF002009D02A
S3510000A404218C418000218180102101808560C66023F0DAFFBDE870407047000010B5036804466BB90160426022F0F2FEA06022F0E1FEE06025F052FB206122F0C1FE6061BDE81040704700007047000015
S3510000A45038B505460C46002022F0E4FE01462046FFF7E8FB044610B90020C0430AE04583C169096829B1884718B12046FFF736FCF2E72046BDE838407047000038B50024054648B1B0F1FF3F06D044F2C0
S3510000A49C53328368C5F25422934202D041F2047008E0C269926B0AB1904704462846FFF717FC2046BDE838407047000010B50446002022F0A9FE01462046FFF733FC0028204605D141F2021100F02CF86E
S3510000A4E80020C043BDE810407047000038B505460020002422F092FE01462846FFF718FC08B941F20E742046BDE838407047000010B1B0F1FF3F02D141F20470704744F253318268C5F254218A4214BF86
S3510000A53441F20470D0F88C0070470000C0F88C1070470000DFF818100022896D814218BF0122012AA8BF4FF0FF3210467047C046F022FF1F10B50122B0F1FF3F0CD0012814D2DFF83A404FEAC01C54F89B
S3510000A5800C306BB944F80C10024609E0DFF826000022806D002806BFDFF8160001600122012AA8BF4FF0FF321046BDE810407047C0464823FF1FF022FF1F000008B501280BD2C101DFF81A00405830B184
S3510000A5CCDFF816004058006F1CF0AEFF00E00020BDE8084070475C23FF1F4823FF1F00000023012808D2C201DFF81000805818B111B9DFF80C000368184670475C23FF1FBC22FF1F0023012808D2C201A6
S3510000A618DFF81000805818B1DFF80C0001230160184670475C23FF1FBC22FF1F002301280BD2C201DFF81800805830B1DFF8140002688A4204BF0360012318467047C0465C23FF1FBC22FF1F0B46012825
S3510000A6640DD2C101DFF81C00405840B1DFF81800421803CA03C3106818600120704700207047C0465C23FF1F6023FF1F2DE9F041DFF87E40C50161590646B9B1DFF876004059042801D0062805D1DFF8F8
S3510000A6B06E00405900F028FC0AE0032803D0052801D0072804D1DFF85600405900F0DCFBDFF84E8058F8050018B10021002200F0E3FBDFF84270795911B13046FFF7A2FF00217951DFF832006151415190
S3510000A6FC48F80510DFF82A004151DFF81200012141510020BDE8F04170476023FF1F5C23FF1F4823FF1F6823FF1F6C23FF1F6423FF1F4423FF1F0000F8B50746C501DFF896000E46441904F11C0024F090
S3510000A74845FD10B941F601503BE03846FFF79CFF0EB904F16006DFF8760031684059726841F6045700F0F0FB30BB3168DFF8620041517168DFF85E004151B168DFF85A0041513168DFF85600415171681E
S3510000A794DFF852004151B06840B10021002200F007FC18B9B168DFF842004151DFF83E0003214151DFF83A000027415104F11C0024F022FD3846BDE8F8407047C046F022FF1F4823FF1F5023FF1F542332
S3510000A7E0FF1F5823FF1F6023FF1F6423FF1F6823FF1F4C23FF1F5C23FF1F0000F8B507460E46012828BF41F602501AD2C501DFF83A00405910B941F6035012E0DFF82E40601924F0D7FC002808BF41F604
S3510000A82C015008D038463146FFF77EFF0646601924F0E6FC3046BDE8F8407047C0465C23FF1FF022FF1F00002DE9F04104468846FFF718FFB8F1000F02BFDFF8BE0000EBC41000F16008DFF8B200E701AE
S3510000A87841F60455C6194FF48074D8E90012B06D00F062FB70BBD8F80010DFF89600C151D8F80410DFF88E00C151D8F80810DFF88A00C151D8F80010DFF88200C151D8F80410DFF87E00C151D8F80800FD
S3510000A8C448B100210A4600F073FB20B9D8F80810DFF86600C151DFF866000521C151DFF862000025C15117E0D8F80420D8F8000000EA0201401C90430843C8F80000D8F80400B0F1FF3F0CBF01200020E4
S3510000A910D8F800100842E9D1641EB2DC2846BDE8F0417047C046F022FF1F5023FF1F5423FF1F5823FF1F6023FF1F6423FF1F6823FF1F4C23FF1F5C23FF1F000001207047F8B5074610460E46FFF7F6FD93
S3510000A95C054601286AD2002F5CD0002E5AD0C401787C397C0004BA7C40EA016040EA0220FB7C012243EA0001DFF8B80001513846314608F025F880B1417804290DD3437902798178C078000440EA016026
S3510000A9A840EA022043EA0001DFF89000015138463146032208F00EF880B1417804290DD3437902798178C078000440EA016040EA022043EA0001DFF86800015138463146062207F0F7FF80B141780429F8
S3510000A9F40DD3437902798178C078000440EA016040EA022043EA0001DFF83C000151DFF83C100859012804BF02200851DFF82C00E9014058022805D1DFF824004018383024F0EAFBBDE8F8407047C0469D
S3510000AA406023FF1F6423FF1F6823FF1F6C23FF1F5C23FF1FF022FF1F08B51046FFF774FD012828BF002009D2DFF81820C1015358581C50500120062B28BF0020BDE808407047C0464423FF1F01207047E6
S3510000AA8C08B5FFF75BFD012806D2DFF8141001EBC010383024F0B4FB0020BDE808407047F022FF1F2DE9F843CCB088464FF480710DF10409DFF8A050044603914B46052215F8011B03F8011B521EF9D1E5
S3510000AAD8C601DFF88C000025871907F11C0024F075FB10B941F6015034E02046FFF7CCFDDFF870000CAC0590DFF86C0004940690DFF8680003A90890DFF8640037220990DFF860004B460B90052000904E
S3510000AB2404A807F081FFDFF85400049B805905A922461B1B00F0C8F968B1B8F1000F04D007F1380024F060FB05E007F11C0024F05BFB41F6045528464CB0BDE8F8437047B02B0300F022FF1F4DA90000E0
S3510000AB7051A9000089AA00008DAA000059AA00004823FF1FF8B507460E46012828BF41F602501AD2C501DFF83A00405910B941F6035012E0DFF82E40601924F013FB002808BF41F6015008D038463146F7
S3510000ABBCFFF778FF0646601924F022FB3046BDE8F8407047C0465C23FF1FF022FF1F00002DE9F84F8246C601DFF8CA008946851905F13800904641F6015724F0EDFA002855D0DFF8B640A05902283CD135
S3510000AC08DFF8AEB000275BF8061029B15046FFF7FBFC08B94BF80670DFF89AA05AF8060040B100210A464FF0000B00F0BFF908B14AF806B0B8F1000F08BF05F16008D8F80010DFF87600B9F1000F81515B
S3510000AC54D8F80410DFF86A008151D8F80810DFF8660081511DBFDFF862108A190620DFF85A1004BF8A190420885110680EE041F60457B9F1000F0AD050464146FFF7E0FD074620B9DFF832100620885175
S3510000ACA0A05105F11C0024F0B1FA3846BDE8F84F7047F022FF1F5C23FF1F6C23FF1F6823FF1F5023FF1F5423FF1F5823FF1F4C23FF1F00002DE9F04180460F461646012828BF41F602501AD2C501DFF830
S3510000ACEC3A00405910B941F6035012E0DFF82E40601924F069FA002808BF022009D0404639463246FFF764FF0646601924F078FA3046BDE8F0417047C0465C23FF1FF022FF1F00003EB5002201AB0546DC
S3510000AD381CF00AFE0446B0B9DFF832100198096800AA00F0E9F80446002809D10099284600F010F8044630B1009800F083F8FFE701981CF00DFC2046BDE83E407047B82B030000002DE9F843884601B958
S3510000AD8423E0FFF7EFFBB0F1FF3F08BF41F603504ED0DFF8A260C701F05910B141F6015046E0DFF89690012109EB07042046012524F0A8F900B1E3E704F11C00012124F0A1F928B1204624F0FDF941F6B8
S3510000ADD003502FE004F138000021002424F094F938B109EB0704204624F0EEF904F11C00EBE7DFF84E00C451DFF84A0040F80780DFF84600C451DFF84600C451DFF84200C451DFF84200C451DFF83E00A1
S3510000AE1CC451DFF83E00C451DFF83A00C451DFF83A00C551F5510020BDE8F84370475C23FF1FF022FF1F4423FF1F4823FF1F5023FF1F5423FF1F5823FF1F6023FF1F6423FF1F6823FF1F6C23FF1F4C23B6
S3510000AE68FF1F000008B58AB0DFF81010039000A8FFF778FA0AB0BDE8084070478516010008B58AB005910390DFF8101000A8FFF769FA0AB0BDE808407047C046B516010008B58AB00590079100200690CD
S3510000AEB4DFF8101000A80892FFF756FA0AB0BDE808407047ED16010008B58CB0002808BF41F205100ED0029004200390DFF81C0006910068DFF818100B9000A804920593FFF73AFA0CB0BDE80840704728
S3510000AF00D405FF1F692A01000EB5DFF81010029000A8FFF72BFABDE80E407047F934010010B58AB0144610B941F2051009E004910290DFF8161000A8FFF718FA08B9039921600AB0BDE8104070471117FA
S3510000AF4C010000002DE9F8438AB081468846174610B941F205101EE005914FF0FF36012500AC0390DFF836102046069608920995FFF7F6F978B94FF4FA7021F01BFBDFF822102046CDF80C90CDF814804D
S3510000AF98069608970995FFF7E5F90AB0BDE8F84370479D170100FD170100000008B58AB00590079100200690DFF8101000A80892FFF7D0F90AB0BDE8084070475D1801000020704738B50446006F1CF070
S3510000AFE4C9FA10F480511EBFD4F8AC1041F00101C4F8AC1010F400511EBFD4F8AC1041F00201C4F8AC1010F480411EBFD4F8AC1041F00401C4F8AC1010F400401EBFD4F8AC0040F00800C4F8AC00204696
S3510000B03000F0C8F9002847D1206FDFF894204FF4006123461CF0CCFB054620B1204600F007FA284638E0206FDFF8782040F6060123461CF0BDFB05460028206F04D04FF400611CF081FCE9E71CF06EFA3B
S3510000B07CC4F880000120C4F890000620C4F89400206F04F198011CF0AFFC94F89800FFF715F894F89900FFF711F894F89A00FFF70DF894F89B00FFF709F894F89C00FFF705F894F89D00FFF701F80020B2
S3510000B0C8BDE838407047C04615B2000029B2000038B50546002400F0BFF900B10446286F4FF400611CF044FC08B104B90446286F40F606011CF03CFC08B104B904462046BDE8384070470000FEB5164653
S3510000B1140A680B6D521C0A60826804469A180F460A6505F08FF8054628B97868401C78602046216868E0C468227812F001011DD0FF2A16D16178FF2913D1A178FF2910D1E178FF290DD12179FF290AD1C0
