:020000040000fa
:082800000016040000000000b6
:020000040000fa
:102808002c620400000000002c620400000000009c
:1028180020620400000000001462040000000000b0
:1028280008620400000000002c62040000000000a0
:102838002c620400000000002c620400000000006c
:1028480084500400000000002c6204000000000016
:102858002c620400000000002c620400000000004c
:10286800c0530400000000002c62040000000000b7
:102878002c620400000000007e5c040000000000e0
:10288800dc5c0400000000002c6204000000000072
:102898002c62040000000000a4b204000000000044
:1028a800e8b20400000000002c62040000000000f0
:1028b8002c620400000000002c62040000000000ec
:1028c8002c620400000000002c62040000000000dc
:1028d8002c620400000000002c62040000000000cc
:1028e80052510400000000002c62040000000000a7
:1028f8002c620400000000002c62040000000000ac
:102908002c620400000000002c620400000000009b
:102918002c620400000000002c620400000000008b
:10292800886104000000000020520400000000003c
:1029380018b50400000000005cb5040000000000a9
:102948002c620400000000002c620400000000005b
:102958002c620400000000002c620400000000004b
:102968002c620400000000002c620400000000003b
:102978002c620400000000002c620400000000002b
:102988002c620400000000002c620400000000001b
:102998002c620400000000002c620400000000000b
:1029a8002c620400000000002c62040000000000fb
:1029b8002c620400000000002c62040000000000eb
:1029c8002c620400000000002c62040000000000db
:1029d80098a00400000000002c6204000000000021
:1029e8002c62040000000000f05204000000000007
:1029f8002c620400000000002c62040000000000ab
:102a08002c620400000000002c620400000000009a
:102a18002c620400000000002c620400000000008a
:102a28002c620400000000002c620400000000007a
:102a38002c620400000000002c620400000000006a
:102a48002c620400000000002c620400000000005a
:102a58002c620400000000002c620400000000004a
:102a68002c620400000000002c620400000000003a
:102a78002c620400000000002c620400000000002a
:102a88002c620400000000002c620400000000001a
:102a98002c620400000000002c620400000000000a
:102aa8002c620400000000002c62040000000000fa
:102ab8002c620400000000002c62040000000000ea
:102ac8002c620400000000002c62040000000000da
:102ad8002c620400000000002c62040000000000ca
:102ae8002c620400000000002c62040000000000ba
:102af8002c620400000000002c62040000000000aa
:102b08002c620400000000002c6204000000000099
:102b18002c620400000000002c6204000000000089
:102b28002c620400000000002c6204000000000079
:102b38002c620400000000002c6204000000000069
:102b48002c620400000000002c6204000000000059
:102b58002c620400000000002c6204000000000049
:102b68002c620400000000002c6204000000000039
:102b78002c620400000000002c6204000000000029
:102b88002c620400000000002c6204000000000019
:102b98002c620400000000002c6204000000000009
:102ba8002c620400000000002c62040000000000f9
:102bb8002c620400000000002c62040000000000e9
:102bc8002c620400000000002c62040000000000d9
:102bd8002c620400000000002c62040000000000c9
:102be8002c620400000000002c62040000000000b9
:020000040000fa
:102c0000efbe24008efe27000e01880000000000a9
:102c10000c000700206a2b000100200011000700b3
:102c2000000020000000e00002003200000002006e
:102c300000000000ea200200000000000040da006e
:102c40000000fe004440a900c04820000000e00051
:102c50000300320000002000a00188004440a800ca
:102c60000000060091018800800078000000eb0061
:102c700015003700e280400032a0b4009101ba0094
:102c8000e280400032a0b4009102ba00e28040002d
:102c900032a0b4000002eb00472bde00f507b200c3
:102ca000602ce10004003a000059eb008301e900c8
:102cb000fdff3e00040037006128e1000100320002
:102cc0000082eb00040007001101ba000200e000de
:102cd000e8ff3a00000006003159ba008301e9001c
:102ce0000c0032002159ba008301e90008003200cb
:102cf0000400e00003003a00e280400032a0b4008b
:102d0000f5ff370011d9ba008301e900faff3a0054
:102d10008100e800e180400032a0b400000006001d
:102d20003200f800023b8800910188000008bb00d7
:102d30000500fc0051052000313b8800a10a20005d
:102d4000313b880061e7a80000000000000000009f
:102d50003200f900000006000400a1000100370065
:102d60000400a0003200f800910188001100240046
:102d7000013b8800f10f20003208bb000400a700cf
:102d8000b20078000198bb008301e900faff3a0025
:102d9000680151000400a70068015100680050005c
:102da0001208bb00e2ff3700f30f20003200f800ea
:102db0009101880031002400013b88000208bb001b
:102dc0000388bb00daff37003200f800003b8800c0
:102dd000d7ff3700839f68000100e00002003d003c
:102de00060001000e08018000300e00002003d00d9
:102df00060011100e0811900050007004f00e000ac
:102e000002003b0060001000e08018000000060097
:102e10006022b800060220000000d0008180d200ad
:102e20000482d2008582d2000000a000020252007b
:102e300083825a00030031000202420083824a006a
:102e40000000a1000603e900f3ff3a0000000600bd
:102e500017e2a9009a20a9009a40a9008a20a90097
:102e60008a40a90000000600a1108800b010880068
:102e7000000006008a20a9008a40a900e7416000fe
:102e8000c419dd00c10b200091407800f2c8b300e6
:102e900082c0600083c070008000fd00bce0b7000d
:102ea0008000fd00800178000307b200c419de0035
:102eb000d10b20009140780082cfb30082c0600027
:102ec00083c070008000fd00bde0b7008000fd0001
:102ed000680160004311de0002414100a1092000a9
:102ee000914078000114a10082c070008000fd00b4
:102ef0009ae0b7008000fd000008b2004700de0045
:102f00004200dd00a1092000914078000124a100c9
:102f100080c07000010078009ae0b7000000060051
:102f20001622a800000006001602a80000000600f5
:102f30000080fb009010880018c2bf0001c8b300d9
:102f4000014060000080fb000000e9004f00de004f
:102f50000000e900000006001642a800000006007c
:102f6000889fbe008a9fbe0080047800010578001b
:102f700082057800140037001662a8000004eb00f8
:102f8000030037008b0f5400110031000804e800e3
:102f9000cb0107000004e000faff3200801080003f
:102fa000005d78008904e90002003a0016a2a8003a
:102fb0000100370016a2a9001682a80016c2bf00a1
:102fc0000048a300fdff3a000900e000eaff3a00d4
:102fd000090078004f05be004f04be000000060047
:102fe0009780a900e7416000210b20009140780004
:102ff00082cfb30082c0600083c070008000fd00fb
:10300000b2e0b7008000fd00680060004300de0011
:103010004400dd0071092000914078000144a100c6
:1030200080c070000100780097e0b7000000060043
:103030001821ef00e1088800000988000000060060
:103040008500a900e7416000810a200091407800d6
:1030500082cfb30082c0600083c070008000fd009a
:10306000a8e0b7008000fd00680060004300de00bb
:1030700051092000914078000104a10080c0700037
:103080000100780095e0b7000000060050088800b5
:10309000000006000a21ef007108880090088800ef
:1030a000000006000621ef00610888008008880003
:1030b0001061a9000000060084e0a900e74160005b
:1030c000c419dd00710a200091407800f2c8b300f5
:1030d00082c0600083c070008000fd00a7e0b700e0
:1030e0008000fd00680060004300de004700dd0056
:1030f00041092000914078000174a10080c0700057
:103100000100780094e0b7000000060086a0a90046
:10311000e7416000c419dd00e10a20009140780019
:10312000f2c8b30082c0600083c070008000fd0060
:10313000aee0b7008000fd00680060004300de00e4
:103140004500dd0061092000914078000154a10094
:1031500080c070000100780096e0b7000000060013
:10316000301b8800411b8800000006008480a900f5
:10317000e7416000610a20009140780082cfb300ef
:1031800082c0600083c070008000fd00a6e0b70030
:103190008000fd00680060004300de004400dd00a8
:1031a00041092000914078000144a10080c07000d6
:1031b0000100780094e0b700000006008400a90038
:1031c000e7416000410a20009140780082cfb300bf
:1031d00082c0600083c070008000fd00a4e0b700e2
:1031e0008000fd00700160004411de002108200015
:1031f00091407800e3cfb30083c0600082c07000cc
:103200008000fd0082e0b7008000fd0068006000e3
:103210004300de00410920009140780083c0600037
:1032200080c070000100780094e0b7000000060044
:103230008680a900e7416000e10a20009140780003
:1032400082cfb30082c0600083c070008000fd00a8
:10325000aee0b7008000fd00700160004411de00a8
:103260000241410021082000914078000114a10092
:1032700082c070008000fd0082e0b7008000fd0089
:10328000680060004300de004400dd0061092000aa
:10329000914078000144a10080c0700001007800d6
:1032a00096e0b7000000060087a0a900e741600093
:1032b000c419dd00210b200091407800f2c8b30052
:1032c00082c0600083c070008000fd00b2e0b700e3
:1032d0008000fd00700160004411de004211dd003d
:1032e00021082000914078000124a10082c07000d4
:1032f0008000fd0082e0b7008000fd0068006000f3
:103300004300de004500dd00710920009140780097
:103310000154a10080c070000100780097e0b70060
:10332000000006008aa0a900e7416000c419dd0082
:10333000e10b200091407800f2c8b30082c0600029
:1033400083c070008000fd00bee0b7008000fd007b
:10335000680160004311de004511dd00a109200075
:10336000914078000154a10082c070008000fd00ef
:103370009ae0b7008000fd00700060004400de00ad
:103380004300dd0021082000914078000134a100b5
:1033900080c070000100780082e0b70000000600e5
:1033a00055198800761988006419880087198800e3
:1033b00093198800221988001119880000198800c3
:1033c0000000d10061406000004040000132200058
:1033d000914078000114a10080c0700001007800c5
:1033e00020e3b70000000600641b8800871b8800ec
:1033f000931b8800221b8800111b8800001b88007b
:103400000000d10061406000004040000136200013
:10341000914078000114a10080c070000100780084
:1034200060e3b70000000600001c8800111c880043
:10343000221c8800331c8800441c8800551c88000e
:1034400081e3a800000006003019880041198800b7
:10345000000006002023a9000000060020c3bf00d2
:103460000004a20061006000000006000080fb0074
:10347000000040000130200060807800000006005d
:10348000c008880000000600c00880000000060098
:103490006023a9000000060021e2a9009560a900b0
:1034a0009580a9008560a9008580a900000006001c
:1034b00042118800001188001111880000000600e8
:1034c0008560a9008580a900e7416000c419dd007e
:1034d000910a200091407800f2c8b30082c06000d9
:1034e00083c070008000fd00a9e0b7008000fd00ef
:1034f000800178000307b200c419de00a10a200091
:103500009140780082cfb30082c0600083c0700019
:103510008000fd00aae0b7008000fd0068016000a7
:103520004311de004311dd00510920009140780075
:103530000134a10082c070008000fd0095e0b7005a
:103540008000fd000008b2004700de004400dd00fe
:1035500051092000914078000144a10080c0700012
:103560000100780095e0b7000000060020c2bf000f
:1035700066406000e64f500002003a0030118000c3
:103580000000060030118000f00fb20000000600bd
:103590008000780020c2bf0066406000e64f500007
:1035a00001003200f10fb200211188000000060076
:1035b00031e2a90097c0a90097e0a90087c0a9003f
:1035c00087e0a90000000600c21188008011880071
:1035d000911188000000060087c0a90087e0a900bb
:1035e000e7416000310b20009140780082cfb300aa
:1035f00082c0600083c070008000fd00b3e0b700af
:103600008000fd0001c7b30081416000310b200044
:1036100091407800f2c8b30082c0600083c070009f
:103620008000fd00b3e0b7008000fd00680160008d
:103630004311de004611dd00710920009140780041
:103640000164a10082c070008000fd0097e0b70017
:103650008000fd000008b2004700de004700dd00ea
:1036600071092000914078000174a10080c07000b1
:103670000100780097e0b7000000060030c2bf00ec
:1036800066406000e64f500002003a00b011800032
:1036900000000600b0118000f00fb200000006002c
:1036a0008000780030c2bf0066406000e64f5000e6
:1036b00001003200f10fb200a111880000000600e5
:1036c00018c2bf000000d1006100600000000600c9
:1036d000800078003004e000feff3a000100500056
:1036e0000000e900000006008001eb000200370046
:1036f000817178008301e800828f5100fcff3a005d
:103700000000060080017800000178000100370009
:103710000201e8001204e000fdff3a0031407800a9
:10372000005978000004e000fcff3a000300780034
:10373000000006008001eb000200370061f0790014
:103740008301e800828f5100fcff3a000000060070
:10375000889fbe000004be000000e00003003a00a5
:10376000685782000800e000130032000800be0025
:1037700024000700000444001804e00004003a009c
:103780000000eb0060578a00000478000a00370050
:103790000800be002e0007000000440060578a00a9
:1037a0001004e000020032000058eb000100370076
:1037b0000000eb0060578a00080078004f04be004c
:1037c0000000060080017800000178003140780098
:1037d000005978000004e000fcff3a000300780084
:1037e0000000060010417800b141510003003a008a
:1037f0000000e8000204e000faff3a000300fb00ca
:1038000000000600889fbe008a1f7800000578002f
:10381000810478000004eb00010037000804e80090
:1038200068407d000004e000050032008000fb00dd
:1038300009007800190007000000e000f7ff3a00d7
:10384000080078004f0578004f04be000000060015
:10385000889fbe008a1f78000005780081047800e8
:103860000004eb00010037000804e80068407d0018
:103870000004e000050032008000fb000900780031
:10388000060007000000e000f7ff320008007800a3
:103890004f0578004f04be0000000600104178007c
:1038a000814f5100040032000000e8000204e000f3
:0c38b000faff3a000000eb0000000600e8
:020000040000fa
:0200000401f009
:04000000feff0000ff
:020000040000fa
:0200000401f009
:04000400feff0000fb
:020000040000fa
:0200000401f009
:04000800fbff0000fa
:020000040000fa
:0200000401f009
:04000c007bff000076
:020000040000fa
:0200000401f009
:04001000bdff000030
:020000040000fa
:0200000401f009
:040014007fff00006a
:020000040000fa
:0200000401f009
:04001800ffff0000e6
:020000040000fa
:0200000401f009
:04001c00deff000003
:020000040000fa
:10200000303200003a5400004c3400003a380000ee
:102010003838000036300000343300003a30000019
:10202000303100003234000030380000543a0000f3
:04203000420000006a
:020000040000fa
:101f8000303200003a5400004c3400003a30000077
:101f90003030000030300000303000003a300000b7
:101fa000303100003234000030380000543a000074
:041fb00042000000eb
:020000040000fa
:1038bc0000000000000000000000000000000000fc
:1038cc0000000000000000000000000000000000ec
:1038dc00000000000080000000000000000000005c
:1038ec00000000000040000000000000000000008c
:1038fc0000000000008000000000000000400000fc
:10390c0000000000008000000000000000400000eb
:10391c000004000000800000040000008000000093
:10392c000008000000000000000000004000000043
:10393c0000400000008000000040000000800000fb
:10394c0000400000008000000040000000800000eb
:10395c008000000010800000000800000001000042
:10396c00400000000840000000040000800000003f
:10397c000002000010800000000100000840000060
:10398c000002000010800000000100000840000050
:10399c00102000004080000080000000040800009f
:1039ac00081000002040000000010000020400008c
:1039bc0040800000408000004080000040800000fb
:1039cc0040800000408000004080000040800000eb
:1039dc00080400000281000000810000201000009b
:1039ec00040200008140000080400000100800002c
:1039fc0021100000028100004008000004020000b9
:103a0c0021100000028100004008000004020000a8
:103a1c0084400000088100002010000042200000bb
:103a2c00422000008440000010080000211000001b
:103a3c00208400001084000020840000108400000a
:103a4c0020840000108400002084000010840000fa
:103a5c0042080000218400000821000084100000ae
:103a6c002184000010420000841000004208000075
:103a7c001021000042840000102200004488000045
:103a8c001021000042840000102200004488000035
:103a9c0021840000848400004848000008210000b4
:103aac0010420000424200002424000084900000d8
:103abc0084840000848400008484000084840000da
:103acc0084840000848400008484000084840000ca
:103adc000921000049920000480800002124000040
:103aec0084900000244900002484000010920000ff
:103afc00121200001292000024210000094900005b
:103b0c00121200001292000024210000094900004a
:103b1c000949000042920000929000002424000009
:103b2c008424000021490000244900001292000066
:103b3c004492000048920000449200004892000019
:103b4c004492000048920000449200004892000009
:103b5c0091240000499200002449000092240000a6
:103b6c009224000049920000244900009224000095
:103b7c0092240000499200002449000092a4000005
:103b8c009224000049920000244900009254000045
:103b9c009224000049d200002449000092a40000a5
:103bac009224000049d200002449000092940000a5
:103bbc009224000049d200009224000049d2000057
:103bcc009224000049d200009224000049d2000047
:103bdc0049d2000024c9000024690000926400004e
:103bec004ab2000024c9000024590000926400006d
:103bfc00499300002cc90000246900009264000065
:103c0c00499300002cc90000246900009264000054
:103c1c00638c000031c60000196300008c31000079
:103c2c0031c6000018b300008c310000c6980000ab
:103c3c00cc18000063c60000cc18000063c600005e
:103c4c00cc18000063c60000cc18000063c600004e
:103c5c009931000066c6000033630000cc8c000074
:103c6c00c6cc000098190000cc8c00003163000019
:103c7c006666000066c60000cc1800006366000093
:103c8c006666000066c60000cc1800006366000083
:103c9c006666000066c600009919000063660000a5
:103cac009999000099990000cc8c0000999900001a
:103cbc00cccc0000cccc0000cccc0000cccc000098
:103ccc00cccc0000cccc0000cccc0000cccc000088
:103cdc00cccc0000ccec0000cccc0000cccc000058
:103cec00cccc0000ccdc0000cccc0000cccc000058
:103cfc00cccc0000ccec0000cccc0000ccdc000028
:103d0c00cccc0000ccec0000cccc0000ccdc000017
:103d1c00ccdc0000ccec0000cccc0000ccec0000e7
:103d2c00ccec0000ccdc0000cccc0000ccdc0000e7
:103d3c00ccdc0000ccec0000ccdc0000ccec0000b7
:103d4c00ccdc0000ccec0000ccdc0000ccec0000a7
:103d5c00ccdc0000ecec0000ccdc0000ccec000077
:103d6c00ccdc0000dcec0000ccdc0000ccec000077
:103d7c00ccdc0000ecec0000ccdc0000dcec000047
:103d8c00ccdc0000ecec0000ccdc0000dcec000037
:103d9c00dcdc0000ecec0000ccdc0000ecec000007
:103dac00ecdc0000dcec0000ccdc0000dcec000007
:103dbc00dcdc0000ecec0000dcdc0000ecec0000d7
:103dcc00dcdc0000ecec0000dcdc0000ecec0000c7
:103ddc00dcdc0000eeec0000dcdc0000ecec0000b5
:103dec00dcdc0000edec0000dcdc0000ecec0000a6
:103dfc00dcdc0000eeec0000dcdc0000edec000094
:103e0c00dcdc0000eeec0000dcdc0000edec000083
:103e1c006ee7000076e700006e76000076e70000a3
:103e2c00eee6000076e700006e76000076e7000014
:103e3c006ee7000076e700006ee7000076e7000012
:103e4c00eee6000076e70000eee6000076e7000004
:103e5c006ee7000076e70000eeee000076770000db
:103e6c006e77000076770000eeee000076e700003b
:103e7c006e77000077e70000eeee00006e77000032
:103e8c006e77000077e70000eeee00006e77000022
:103e9c007777000077ee0000eeee00006e77000002
:103eac006e77000077ef0000eeee00006e770000fa
:103ebc00f6f60000f6f60000f6f60000f6f6000046
:103ecc00f6f60000f6f60000f6f60000f6f6000036
:103edc00db7b0000bbf70000f6de0000dedb000041
:103eec00db7b0000b7f70000f6de0000dedb000035
:103efc007bef0000bdf70000f6de0000dedb00000b
:103f0c007bef0000bdf70000f6de0000dedb0000fa
:103f1c007bef0000bdf70000bdf70000dedb00000a
:103f2c00f7de00007bef0000de7b0000efbd000041
:103f3c00bef70000def70000bef70000def7000061
:103f4c00bef70000def70000bef70000def7000051
:103f5c00bef700007eff0000bef70000def7000099
:103f6c00bef70000beff0000bef70000def7000049
:103f7c00bef700007eff0000bef700007eff0000d1
:103f8c00bef70000beff0000bef70000beff000041
:103f9c00fefe00007eff0000bef700007eff00006a
:103fac007eff0000beff0000bef70000beff000059
:103fbc007eff00007eff00007eff00007eff000001
:103fcc007eff00007eff00007eff00007eff0000f1
:103fdc007eff0000feff00007eff00007eff000061
:103fec00feff00007eff00007eff00007eff000051
:103ffc007fff0000ef7f0000fff70000fffe0000d6
:10400c00bfff0000f7bf0000fffb00007fff0000b8
:10401c00fffe0000dfff0000ffef0000fffd0000cf
:10402c007fff0000ef7f0000fef70000fffe0000a6
:10403c00fe7f0000ffff0000fe7f0000ffff00007e
:10404c00fe7f0000ffff0000fe7f0000ffff00006e
:10405c00fff70000ffff0000f7ff0000fffe00006d
:10406c00ffef0000ffff0000feff00007fff0000dd
:10407c00ffff0000ffff0000feff0000ff7f0000bd
:10408c00ffff0000ffff0000feff0000ffff00002d
:10409c00ffff0000ffff0000ffff0000ffff00001c
:1040ac00ffff0000ffff0000ffff0000ffff00000c
:1040bc000001000000050000cc00000022010000ff
:1040cc00490200000c030000be00000012010000b9
:1040dc003f02000002030000ea000000490100005a
:1040ec00490200000c03000038020000eb02000043
:1040fc00e200000047010000490200000c03000030
:10410c003e02000000030000be000000120100008f
:10411c00490200000203000043020000f602000006
:10412c00e60000004a010000e60000004a01000021
:10413c008b000000000000008d000000000000005b
:10414c008f00000000000000910000000000000043
:10415c00930000000000000095000000000000002b
:10416c009700000000000000990000000000000013
:10417c0039390000393600003738000034000000af
:10418c0038380000383600003034000033000000ae
:10419c003030000031320000343000003854000060
:1041ac0000320000303100003630000039300000a1
:1041bc0032000000544c000034000000303200008b
:0841cc00003a000000000000b1
:020000040000fa
:1041d4000400fa00881f78000040eb002047980094
:1041e40010c0b300104798000040eb00004f780067
:1041f400ac000700000037000006240010407800df
:10420400e14f500011003a00000624008040eb000a
:104214000148780094a202000000000058b6020091
:1042240000000000e14f500006003a007cb6020096
:1042340000000000e14f500002003a004eb70200b7
:10424400000000004ab60200000000006a070700f0
:1042540058b60200000000000004e00011003a001b
:104264001e4090000004e00010003a0010c0b300ab
:10427400104798000040eb003047980005003700d5
:104284003e409000a60d07003e4090000040e8002c
:10429400304798003e409000e34f5000f8ff36004e
:1042a400020037000040eb001047980026b60200d9
:1042b4000000000058b6020000000000e14f50006a
:1042c4001c003a007cb6020000000000e14f5000e0
:1042d40018003a0038b70200000000002e40900099
:1042e4000004e0000400320064b602000000000094
:1042f4009e4f50001100320010c0b30020479800b8
:1043040064b60200000000000040e80000447800a9
:1043140064b60200000000008840780026b702005e
:104324000000000064b6020000000000004f7800a6
:10433400020037000040eb002047980070fd230086
:1043440010407800e14f500004003a0071fd230052
:104354000040eb00804878006c14070060ae230036
:1043640010407800e14f500030003a0060ae230066
:104374008040eb0001487800e0d68100e20f500055
:1043840027003a00dc22a800d822a9000040eb0054
:10439400304798001f0037003e4090000080fb002b
:1043a400c184230000004000010040001000780098
:1043b400ea0f5000100032003e4090000080fb00e5
:1043c400c184230000004000010040001000780078
:1043d400e80f5000080032003e4090000080fb00cf
:1043e400c184230000004000010040001000780058
:1043f400e90f500004003a003e40900011c0b300a1
:10440400c49b0200000000003e4090000040e80011
:10441400304798003e409000e34f5000deff3600e6
:104424008f130700c06f02000000000070ae23006d
:1044340010407800e14f50006fff3a0070ae230047
:104444008040eb0001487800340f0700e3110700b7
:10445400a2af230061af230020af23007c9c0200a5
:1044640000000000dc22a900d822a9000040eb00d3
:1044740030479800070037003e4090008040eb0032
:10448400c49b0200000000003e4090000040e80091
:10449400304798003e409000e34f5000f6ff36004e
:1044a40055ff37000200fa00881f7800e00420005e
:1044b400303a88000000eb00203a8800e4960200bd
:1044c400000000008f010800040000000e2709000e
:1044d4000060fe00e62609000060fe000000000007
:1044e400ec3c09000060fe008f010800040000009d
:1044f4000e2709000060fe00e62609000060fe00a9
:1045040000000000ec3c09000060fe0020ff2f00ca
:10451400f0170200000000003e0507000000eb0059
:1045240090c1890080ae23009040780050c3b3004e
:1045340080cf500007003a00c012200000d7890045
:10454400c025210010d7890000fa200020d7890057
:104554000e00370080ae23009040780060c3b300a3
:1045640080cf500007003a00c012200000d7890015
:10457400a0f1200010d7890050d0200020d7890056
:10458400020037007000200090c18900a18621003c
:10459400d0fa2f00181802000000000050ff2f006e
:1045a40020180200000000000000eb004618020082
:1045b4000000000000d781006500b9008000780089
:1045c400d0f92f004a180200000000008500a9005d
:1045d40081382100d0f92f00521802000000000099
:1045e40094e0a800e0ff2f005c1802000000000027
:1045f4001e950200000000003c0307007903070039
:1046040050ff2f00861802000000000051f62f0012
:1046140090ff2f00b018020000000000ed0007001a
:1046240091030700d0ff2f00b6180200000000001d
:104634000040eb000eb602000000000011c0b30001
:104644000040eb0026b7020000000000e0ff2f004e
:10465400de18020000000000e0ff2f00181902001d
:1046640000000000e0ff2f005419020000000000c9
:10467400e0ff2f0092190200000000000040eb0050
:10468400004f7800290037001e4078008040eb007e
:1046940032990200000000001e84fb0031c0b30008
:1046a4001e407800870007000001780041fe2300c7
:1046b4000800440001004000020878001e84fb004a
:1046c40041c0b3001e4078007e000700000178005e
:1046d40041ff230008004400010040000208780064
:1046e4001e84fb0011c4b3001e40780016000700ae
:1046f400000178000100240008004400010040008b
:10470400020878001e84fb0021c4b3001e40780018
:104714000d00070000017800810024000800440017
:1047240001004000020878001e4fe80030c0b300ca
:104734009e4f1000d4ff36009780a8004f047800e5
:104744000080fa00000006004600fa00881f780086
:1047540040c7980051c79800dc42a800d842a9007d
:10476400dec0900010c4b30080cf500005003a00b2
:104774004ec090008040eb001e9a02000000000032
:10478400040037004ec0900011c0b3001e9a02000e
:10479400000000004ec090008040eb00bc98020076
:1047a4000000000001000800040000000e270900ba
:1047b4000060fe00e62609000060fe000000000024
:1047c4004a0009000060fe000040eb00004f780042
:1047d4000000eb0010079800240037001e84fb0043
:1047e40021c0b3004ec090003803070000017800d8
:1047f400e40047000800440002b078001e80fb007b
:10480400e400470000004000e08078001e009000b3
:10481400010040001007980080ae2300904078000b
:1048240050c3b30080cf500008003a00370108009d
:1048340002000000210009000060fe0000000000ea
:10484400dc0409000060fe000700370003010800d3
:1048540002000000210009000060fe0000000000ca
:104864000c0409000060fe001e4fe800f0c1b30014
:104874009e4f1000d9ff36004ec090008040eb00e0
:104884001e9a020000000000dc42a900d842a900e0
:104894001e0090004500de00100798009e00900066
:1048a40000042000808f5000020036000004200025
:1048b400100798001e0090004f0478000080fa0052
:1048c400000006000600fa0040479800514798008f
:1048d4000040eb00004f78000040eb0010479800c8
:1048e4000000eb00100798002b00370080ae230077
:1048f4009040780050c3b30080cf500004003a00c9
:1049040051ad2300c0c0b3008048780003003700d5
:1049140051ad2300a0c0b300804878004e40900001
:104924000081fb0061ad23000040eb0000f1780042
:104934004e4090008080fb0060ad23006140780011
:104944000004e00004003a0050ad23001040780059
:104954000004e000f6ff3a00de4090004e40900074
:10496400da020700800078001e0090000100400079
:104974001007980050ad2300104078000004e000b8
:1049840002003a0010c0b300004f78001e409000af
:104994000040e800104798001e409000ff4f500070
:1049a400d2ff340010c0b3009e4f100003003a0041
:1049b400f01f200010079800030037001e0090002d
:1049c4004500de00100798001e0090000080fa00e9
:1049d400000006000400fa00010624000040eb0079
:1049e400804878000000eb00e0d689001000200029
:1049f400f0d68900a1a523000040eb008048780090
:104a0400410124000040eb008048780041ad2300c0
:104a14000040eb008048780021fc23000040eb00bc
:104a240080487800e1b923000040eb00804878001a
:104a3400c1bb23000040eb0080487800d1bb2300b9
:104a44000040eb00804878000000eb00d0d68900dd
:104a540051ad23000040eb0080487800e1bb230007
:104a64000040eb0080487800418523000040eb00c3
:104a7400804878000040eb00204798000a00370087
:104a84002e4090000080fb0080004000e0b723002f
:104a940080804000c0202000800878002e409000d4
:104aa4000040e800204798002e409000ef4f50004f
:104ab400f3ff360041ae24000040eb00804878004c
:104ac40071ae23000040eb008048780070ae2300f4
:104ad4009040780060ae23000148780091ae230036
:104ae4000040eb008048780001000800040000004a
:104af4000e2709000060fe00e62609000060fe00a3
:104b0400000000004a0009000060fe00e982a900dc
:104b1400e582a900da920200000000002a9d02004a
:104b240000000000c0fe8900349302000000000071
:104b34002a9d020000000000d0fe890071fd2300c0
:104b44000040eb00804878000000eb00f0028a008f
:104b54000040eb0030479800df0137000000eb0015
:104b6400000f7800150037003e4090000080fb00e5
:104b74009e007800000040000100400080004000da
:104b8400e0012400808040000000eb0080087800f1
:104b94003e4090000080fb009e0078000000400032
:104ba4000100400080004000e002240080804000ba
:104bb4000000eb00800878001e0fe80010002000c1
:104bc4009e0f1000e8ff36003e4090000080fb007e
:104bd400c200dd00e0032400008140006000b80052
:104be4000089be003e4090000080fb00c200dd0052
:104bf400e0042400008140006000b8000089be0089
:104c0400310020003e409000090c07003e40900017
:104c14000080fb004184230000004000810040002c
:104c24000000eb00800878003e4090000081fb000b
:104c340021af23000040eb0000f178003e409000db
:104c44000081fb0061af23000040eb0000f178001d
:104c54003e4090000081fb00a1af23000040eb0028
:104c640000f178003e4090000081fb005185230054
:104c74000040eb0000f178003e4090000081fb0012
:104c8400a1ae23000040eb0000f178003e4090000c
:104c94000081fb00e1ae23000040eb0000f178004e
:104ca4003e4090000081fb0081ba23000040eb00ed
:104cb40000f178003e4090000082fb003e409000ee
:104cc4008081fb003e4090000081fb0041bb23003b
:104cd4000040eb0000f1780040bb2300e240780084
:104ce40000bb23008171780000bb2300e3407800ff
:104cf400c0ba2300017278003e4090000081fb009e
:104d040081bb23000040eb0000f178000040eb0081
:104d1400204798001e0037003e4090008082fb0030
:104d24002e4090000083fb003e4090008081fb00f9
:104d34002e4090000082fb004218dd000400400079
:104d4400c200dd00a09a2300008140006000b8008a
:104d54000089be004218dd0004004000c200dd00ee
:104d6400a09a2300008040001001be004228dd000c
:104d740006004000c200dd00a09623000080400031
:104d84000288be002e4090000040e80020479800b2
:104d94002e409000e34f5000dfff36003e4090006d
:104da4000082fb003e4090008081fb00c218dd00c1
:104db400a09f23000081400010002000010020007b
:104dc4000089be00c218dd00a09f230000804000bf
:104dd4001001be00c220dd00a09e23000080400020
:104de4000288be003e4090008081fb003e4090005f
:104df4000081fb00e1a0230030c0b30000f1780083
:104e0400e0a02300e2407800a0a023008171780094
:104e14003e4090008081fb003e4090000081fb00fa
:104e240061a123000040eb0000f1780060a12300a1
:104e3400e240780020a12300817178003e40900078
:104e44008081fb003e4090000081fb0071fc230048
:104e54000040eb0000f1780070fc2300e240780091
:104e640030fc2300817178003e4090008081fb007b
:104e74003e4090000081fb00f1fc23000040eb0069
:104e840000f17800f0fc2300e2407800b0fc23003d
:104e9400817178003e4090000081fb0031fd2300c9
:104ea4000040eb0000f178003e4090000081fb00e0
:104eb40061ad23000040eb0000f178003e4090001b
:104ec4000080fb00c1fd2300000040008100400081
:104ed4000000eb00800878003e4090000080fb005a
:104ee40041fe23000000400081004000f01f20002c
:104ef400800878003e4090000080fb00c1fe230043
:104f040000004000810040000000eb0080087800b1
:104f14003e4090000080fb0041ff23000000400061
:104f240081004000f01f2000800878003e4090007f
:104f34000081fb00c1ff23000040eb0000f178007a
:104f44003e4090008081fb003e4090008080fb004a
:104f54008200240001804000020140000000eb00b8
:104f64000009780082002400018040000200400013
:104f7400100178000100240003804100010040007a
:104f8400020878003e4090000081fb0001012400eb
:104f94000040eb0000f178003e4090000083fb00ed
:104fa4003e4090000082fb003e4090008082fb0067
:104fb4003e4090008081fb003e4090000080fb005a
:104fc400c1aa230000004000810040000000eb0063
:104fd400800878003e4090008080fb00c2a7230038
:104fe40001804000020140000000eb00000978004d
:104ff400c2a7230001804000020040001001780095
:1050040041aa230003804100010040000208780007
:1050140041aa2300038041000100400010017800f0
:1050240041a72300058042000100400002087800e7
:1050340041a72300058042000100400010017800d0
:10504400c1a62300040042000100400002087800c9
:10505400c1a62300040042000100400010017800b2
:10506400c1a52300060043000100400002087800a7
:105074003e4090000080fb0041a823000000400057
:10508400810040000080eb00800878000040eb00c5
:10509400204798000e0037003e4090008080fb00bf
:1050a4002e4090000081fb006308b900020040001c
:1050b40080004000c0a82300808040000080eb00f6
:1050c400800878002e4090000040e80020479800b7
:1050d4002e409000e24f5000efff36003e4090001b
:1050e4000080fb0041a62300000040008100400036
:1050f4000000eb00800878003e4090000080fb0038
:1051040041ab230000004000810040000000eb00a0
:10511400800878003e4090000080fb00c1ab230073
:1051240000004000810040000000eb00800878008f
:105134003e4090000080fb0041ac23000000400092
:10514400810040000000eb00800878003e409000a1
:105154000080fb00c1ac230000004000810040003f
:105164000000eb00800878003e4090000080fb00c7
:105174006101240000004000810040000000eb00b9
:10518400800878000040eb00204798000e003700ac
:105194003e4090000081fb002e4090008080fb0088
:1051a4004410dd000100400080004000e0af230017
:1051b400808040000000eb00800878002e409000c2
:1051c4000040e800204798002e409000ef4f500028
:1051d400efff36000040eb0020479800190037002d
:1051e4003e4090000081fb002e4090008080fb0038
:1051f4004210dd000100400080004000a0a1230017
:105204008080400010002000800878003e4090001c
:105214000081fb002e4090008080fb004210dd00e6
:105224000100400080004000a0a3230080804000d3
:1052340010002000800878002e4090000040e80014
:10524400204798002e409000e34f5000e4ff3600c2
:105254000040eb0020479800190037003e409000c2
:105264000081fb002e4090008080fb004410dd0094
:105274000100400080004000a086230080804000a0
:1052840010002000800878003e4090000081fb0060
:105294002e4090008080fb004410dd00010040009f
:1052a40080004000a08e2300808040001000200079
:1052b400800878002e4090000040e80020479800c5
:1052c4002e409000ef4f5000e4ff36003e40900027
:1052d4000040e800304798003e409000e34f500003
:1052e4001efe36000080fa00000006001000fa00de
:1052f40021e3a900d0812f007007980000842000ca
:1053040060079800604026005007980080ff2f0037
:10531400400798000000eb00100798000000eb0025
:10532400000f780000f32000300798000000eb0025
:10533400200798009e0378001e039000be02900090
:105344002e029000ce0190005e019000ee009000cd
:105354007e009000d01902000000000021e3a800a4
:105364000080fa00000006001000fa0021e3a90002
:10537400d0812f00700798000084200060079800f7
:10538400604026005007980080ff2f0040079800d7
:105394000000eb00100798000000eb00000f7800fd
:1053a4000080eb0030079800f0bf2f002007980022
:1053b4009e0378001e039000be0290002e0290000f
:1053c400ce0190005e019000ee0090007e009000ff
:1053d400d01902000000000021e3a8000080fa00b8
:1053e400000006001000fa0061e3a900d0812f003c
:1053f4007007980000b42000600798006000260041
:105404005007980080ff2f00400798000000eb0031
:10541400100798000000eb00000f780000f3200054
:10542400300798000000eb00200798009e037800e6
:105434001e039000be0290002e029000ce01900048
:105444005e019000ee0090007e009000f4190200ce
:105454000000000061e3a80086a0a90096a0a900ae
:105464000080fa00000006000c00fa000072280018
:10547400500798005001200040079800807f2000ca
:1054840030079800807f2000200798000034200017
:105494001007980030002000000f78009e0278006a
:1054a4001e029000ae0190003e019000ce009000dc
:1054b4005e009000141a0200000000008480a9001d
:1054c4009480a9000080fa00000006001400fa008d
:1054d40020479800314798003e4090000000fb00b0
:1054e400100f98001e089000e30f50009b0032003c
:1054f4001e089000e30f50000a003c001e089000b4
:10550400e10f50003f0032001e089000e10f5000f0
:1055140067003c001e0890000000e0000e0032000e
:10552400190137001e089000e50f5000e100320019
:105534001e089000e50f5000b30035001e089000cf
:10554400e60f5000060132001e089000e70f5000dd
:10555400080132000c0137002e4090000080fb004f
:10556400000f98000e089000e10f50001300320065
:105574000e089000e10f500004003c000e0890005b
:105584000000e000080032001b0037000e08900005
:10559400e20f50000e0032000e089000e30f50009e
:1055a400100032001400370001f72f0080ff2f0095
:1055b400241a020000000000f600370011f72f0043
:1055c40080ff2f00241a020000000000f1003700c1
:1055d40021f72f0080ff2f00241a02000000000092
:1055e400ec00370031f72f0080ff2f00241a02004f
:1055f40000000000e70037000080eb00700798000f
:10560400010137002e4090000080fb0060079800e5
:105614006e009000e10f5000130032006e00900005
:10562400e10f500004003c006e0090000000e00018
:10563400080032001b0037006e009000e20f50009b
:105644000e0032006e009000e30f50001000320094
:105654001400370081f62f0080ff2f00241a020067
:1056640000000000cb00370091f62f0080ff2f00d0
:10567400241a020000000000c6003700a1f62f0023
:1056840080ff2f00241a020000000000c100370030
:10569400b1f62f0080ff2f00241a02000000000042
:1056a400bc0037000080eb0070079800d60037007c
:1056b4002e4090000080fb00500798005e00900090
:1056c400e10f5000130032005e009000e10f500023
:1056d40004003c005e0090000000e000080032007e
:1056e4001b0037005e009000e20f50000e003200f5
:1056f4005e009000e30f50001000320014003700e9
:1057040001f62f0080ff2f00241a02000000000081
:10571400a000370011f62f0080ff2f00241a02008a
:10572400000000009b00370021f62f0080ff2f00af
:10573400241a0200000000009600370071f62f00c2
:1057440080ff2f00241a020000000000910037009f
:105754000080eb0070079800ab0037002e409000eb
:105764000080fb00400798004e009000e10f5000bd
:10577400130032004e009000e10f500004003c0082
:105784004e0090000000e000080032001b003700cb
:105794004e009000e20f50000e0032004e009000c8
:1057a400e30f5000100032001400370031f62f00d0
:1057b40080ff2f00241a020000000000750037004b
:1057c40041f62f0080ff2f00241a02000000000081
:1057d4007000370051f62f0080ff2f00241a0200ba
:1057e400000000006b00370061f62f0080ff2f00df
:1057f400241a020000000000660037000080eb005d
:1058040070079800800037002e4090000080fb0055
:10581400300798003e009000e10f50001300320062
:105824003e009000e10f500004003c003e00900058
:105834000000e000080032001b0037003e0090002a
:10584400e20f50000e0032003e009000e30f5000c3
:105854001000320014003700c1f62f0080ff2f0023
:10586400241a0200000000004a003700d1f62f007d
:1058740080ff2f00241a02000000000045003700ba
:10588400e1f62f0080ff2f00241a02000000000020
:1058940040003700f1f62f0080ff2f00241a020089
:1058a400000000003b0037000080eb007007980008
:1058b400550037002e4090000080fb002007980020
:1058c4002e009000e10f5000130032002e009000d3
:1058d400e10f500004003c002e0090000000e000a6
:1058e400080032001b0037002e009000e20f500029
:1058f4000e0032002e009000e30f50001000320022
:1059040014003700c1f72f0080ff2f00241a020073
:10591400000000001f003700d1f72f0080ff2f0088
:10592400241a0200000000001a003700e1f72f00db
:1059340080ff2f00241a0200000000001500370029
:10594400f1f72f0080ff2f00241a0200000000004e
:10595400100037000080eb00700798002a00370021
:1059640061f72f0080ff2f00241a020000000000be
:105974000800370071f72f0080ff2f00241a02005f
:1059840000000000030037000080eb00700798005f
:105994001d003700000000000000000000000000af
:1059a400e1bb230020c0b300804878002a1a02001b
:1059b400000000002e1a0200000000000004e000b5
:1059c40004003200e0bb2300104078000004e00033
:1059d400f8ff3a00e0bb2300104078000004e00028
:1059e40003003a000080eb007007980006003700bf
:1059f4000040eb00361a020000000000000f78009f
:105a04001e007800700798007e0090000080fa0065
:105a1400000006000800fa0034fe070031a7210048
:105a240050fa2f0018180200000000000040eb009c
:105a3400004f7800850037000000eb00401a020098
:105a4400000000008780a9001e407800949a02009c
:105a5400000000000004e00004003a0087c0bf001a
:105a6400704060000004e000f7ff32000000eb002b
:105a7400401a020000000000630008000200000059
:105a8400210009000060fe00000000008c010900f4
:105a94000060fe001e407800949a0200000000009e
:105aa400e14f500004003a0087c0bf00704060001e
:105ab4000004e000f7ff32000000eb00401a02008f
:105ac400000000006300080002000000210009003b
:105ad4000060fe00000000008c0109000060fe0070
:105ae4001e407800949a0200000000000004e000c8
:105af40004003a0087c0bf00704060000004e0006a
:105b0400f7ff320087c0bf00704060000004e0006f
:105b14000400320081ae230050c4b30080487800f2
:105b2400600037000000eb00401a02000000000093
:105b34006300080002000000210009000060fe006c
:105b4400000000008c0109000060fe008780a900ad
:105b54001e407800949a020000000000e14f5000bb
:105b640004003a0087c0bf00704060000004e000f9
:105b7400f7ff3200441a02000000000010079800ea
:105b840087c0bf00704060000004e00004003200e1
:105b940081ae230050c4b300804878004100370030
:105ba4009e009000e0242100808f500004003e00fd
:105bb40081ae230050c4b300804878003900370018
:105bc4009e00900000662100808f50000b003e0074
:105bd4001e81fb00640047008000410060c3b300e5
:105be400804878006400470000004100904078003d
:105bf40080ae230001487800130037009e00900017
:105c040020a72100808f50000b003e001e81fb0066
:105c1400640047008000410050c3b300804878000e
:105c240064004700000041009040780080ae2300eb
:105c3400014878000400370081ae230050c4b3004b
:105c440080487800170037001e4fe80030c0b300ca
:105c54009e4f100078ff36000040eb00004f7800a4
:105c64000d0037009e80fb00640047000080400068
:105c74009040780080ae23001040780080cf500020
:105c84000400320081ae230050c4b3008048780081
:105c9400040037001e4fe80030c0b3009e4f1000d0
:105ca400f0ff36000080fa00000006000400fa004d
:105cb400100798001e009000d20220001100090075
:105cc4000200d800000f78001e009000d2022000cd
:105cd400110009000200d8008000fd00e40f50000c
:105ce400010034001e0fe8001e0078006500b900b2
:105cf400000f78001e0078000080fa000000060003
:105d04000400fa00100798001e0090006900b90012
:105d1400000f78001e0078000080fa0000000600e2
:105d24000400fa00100798001e00900052002000a2
:105d3400110009000200d800000f780000022000c2
:105d44001e0f40001e007800a20020001100090070
:105d54000200d800100798001e007800a20020005e
:105d6400110009000200d8008000fd00e40f50007b
:105d7400030034001e0090000000e80010079800a3
:105d84001e0090006a00b900000f78001e00780021
:105d94000080fa00000006000400fa0010079800d2
:105da4001e0090006500b9008000780000f62f0006
:105db400008f40001e0078000080fa0000000600fa
:105dc4000400fa00100798001e0090006900b90052
:105dd40052002000110009000200d8000102200036
:105de400010f40001e007800a200200011000900ed
:105df4000200d800100798001e007800a2002000be
:105e0400110009000200d8008000fd00e40f5000da
:105e1400030034001e0090000000e8001007980002
:105e24001e0090006a00b900000f78001e00780080
:105e34000080fa00000006000400fa001007980031
:105e44009e00900000fe2f00008f40001e0078008e
:105e540092002000110009000200d80010079800e9
:105e64001e00780092002000110009000200d800f2
:105e74008000fd00e40f5000030034001e00900079
:105e84000000e800100798001e0090006500b900ab
:105e9400000f78001e0078000080fa000000060061
:105ea4000600fa00200798002e00900092002000bf
:105eb400110009000200d800100798002e0090007d
:105ec40092002000110009000200d8008000fd00ab
:105ed400e40f5000030034001e0090000000e800ae
:105ee400100798001e0090006900b900000f7800a8
:105ef4001e007800100798001e0090005200200039
:105f0400110009000200d800100798001e00780054
:105f140052002000110009000200d8008000fd009a
:105f2400e40f5000030034001e0090000000e8005d
:105f3400100798001e0090006500b9001007980033
:105f44001e0090000080fa00000006000600fa001f
:105f5400200798002e009000520020001100090034
:105f64000200d800100798002e0090005200200074
:105f7400110009000200d8008000fd00e40f500069
:105f8400030034001e0090000000e8001007980091
:105f94001e0090006500b900000f78001e00780014
:105fa400100798001e0090009200200011000900c4
:105fb4000200d800100798001e007800920020000c
:105fc400110009000200d8008000fd00e40f500019
:105fd400030034001e0090000000e8001007980041
:105fe4001e0090006900b900100798001e00900080
:105ff4000080fa00000006001c00fa00881f7800e8
:10600400c0bb2300104078008040e800c0bb2300e0
:1060140001487800c0bb230010407800e34f5000d3
:1060240003003600c1bb23000040eb008048780029
:10603400c0bb2300104078008080fb0080ba23009e
:1060440061407800e14f5000f7033a00c0bb2300e1
:10605400104078000081fb0081ba23000040eb006f
:1060640000f17800d1bb23000040eb0080487800a9
:1060740041ad230010c0b30080487800dc22a900a1
:10608400d822a9000000eb00100f98000700370089
:106094001e0890008040eb00c49b0200000000003a
:1060a4001e0890000000e800100f98001e089000e1
:1060b400e30f5000f6ff340051ad2300e0c0b300fd
:1060c4008048780061ad23000040eb0080487800f0
:1060d40071ad23000040eb008048780081ad2300bf
:1060e4000040eb008048780091ad23000040eb00b5
:1060f4008048780060ad2300104078000004e00080
:1061040004003a0050ad2300104078000004e00081
:10611400f8ff3a000040eb00c297020000000000c4
:1061240061ad23000040eb008048780070ad23008f
:10613400104078000004e00004003a0050ad230051
:10614400104078000004e000f8ff3a0010c0b300eb
:10615400c29702000000000071ad23000040eb0074
:106164008048780080ad2300104078000004e000ef
:1061740004003a0050ad2300104078000004e00011
:10618400f8ff3a0020c0b300c297020000000000ec
:1061940081ad23000040eb008048780090ad2300df
:1061a400104078000004e00004003a0050ad2300e1
:1061b400104078000004e000f8ff3a0030c0b3005b
:1061c400c29702000000000091ad23000040eb00e4
:1061d4008048780050ad2300104078000004e000af
:1061e4000b003a00c0bb23001040780031002000af
:1061f4008f06070041ad23000040eb008048780083
:10620400d1bb23000040eb008048780089033700ad
:106214000040eb006097020000000000c522a800c7
:10622400c122a900e70308000200000021000900c0
:106234000060fe00000000009c0f09000060fe00ea
:1062440071c0b3000040eb00a0fc0700000f9800f1
:106254000040eb00405798000000eb0070079800e6
:106264000000eb0060079800f03f20005007980002
:106274003a003700c0bb23001040780011c0b300bf
:1062840092fc0700100f98009e0890007e0090007a
:106294000100400070079800de0090001e08900086
:1062a400808f5000020034001e08900050079800b0
:1062b400ee0090001e089000808f500002003d0008
:1062c4009e089000610798001e089000e10f4000ae
:1062d4000b003a00c0bb23001040780031002000be
:1062e4005306070041ad23000040eb0080487800ce
:1062f400d1bb23000040eb00804878004d033700f9
:1063040080ae23009040780050c3b30080cf50008b
:1063140008003a008f010800020000002100090073
:106324000060fe00000000003c0609000060fe0062
:10633400070037004c01080002000000210009009a
:106344000060fe0000000000300509000060fe004f
:106354004e5090000040e80040579800ce50900006
:1063640010c3b30080cf5000c2ff3600c522a9007d
:10637400c122a900ee0090005e00900080805000d1
:1063840040062000808f50000b003600c0bb230065
:1063940010407800310020002506070041ad23009d
:1063a4000040eb0080487800d1bb23000040eb00a4
:1063b400804878001f0337007e00900022032000ed
:1063c400110009000280d800010020001007980085
:1063d400210798009e009000f03f2000000ab800ba
:1063e4001e0090006000b900050178000001410022
:1063f400ae009000f03f20000088b9000001410089
:10640400820278000e0890006101b8000400be000a
:1064140008170200000000001007980021079800e8
:106424001e019000720798007e009000f30f500048
:1064340003003e0020002000000f780064003700b5
:10644400fe00900030042000808f500003003e00c6
:1064540070002000000f78005d003700fe009000ff
:10646400f0072000808f500003003e00a0002000b1
:10647400000f780056003700fe009000300920001d
:10648400808f500003003e0010012000000f7800b0
:106494004f003700fe009000b00b2000808f5000aa
:1064a40003003e0010012000000f78004800370070
:1064b400fe009000300e2000808f500003003e004c
:1064c40000012000000f780041003700fe0090001a
:1064d400b0102000808f500003003e001001200007
:1064e400000f78003a003700fe00900030132000bf
:1064f400808f500003003e0010012000000f780040
:1065040033003700fe009000f0152000808f50000b
:1065140003003e0090002000000f78002c0037009c
:10652400fe00900070192000808f500003003e0090
:1065340010012000000f780025003700fe009000b5
:10654400301d2000808f500003003e001001200009
:10655400000f78001e003700fe009000301f20005e
:10656400808f500003003e0010012000000f7800cf
:1065740017003700fe009000f0272000808f5000a5
:1065840003003e0010012000000f780010003700c7
:10659400fe00900030322000808f500003003e0047
:1065a40010012000000f780009003700fe00900061
:1065b400303d2000808f500003003e00600020002a
:1065c400000f78000200370040002000000f780020
:1065d40010c0b300609702000000000023002000f8
:1065e4009e8f11001a003200400020009e0f100000
:1065f40017003200610020009e8f1000140032004a
:10660400720020009e0f1100110032009300200040
:106614009e8f11000e003200a00020009e0f10007b
:106624000b003200c0bb2300104078006100200042
:106634007f05070041ad23000040eb00804878004f
:10664400d1bb23000040eb0080487800790237007a
:10665400d1bb230020c0b300804878009e0078009e
:10666400d1d6890080ae23009040780050c3b30097
:1066740080cf500004003a0051ad2300e0c1b300c4
:10668400804878000300370051ad230090c1b30067
:1066940080487800c0bb2300104078000081fb00d4
:1066a40061ad23000040eb0000f178000a003700e0
:1066b400d0bb230010407800e24f500006003a009f
:1066c400c0bb2300104078000081fb0061ad2300b3
:1066d4000040eb0000f17800c0bb230010407800bc
:1066e4008080fb0060ad2300614078000004e0007e
:1066f40004003200d0bb230010407800e24f500069
:1067040004003a0050ad2300104078000004e0007b
:10671400e7ff3a00c0bb2300104078000081fb0073
:1067240061ad23000040eb0000f17800c0bb230002
:1067340010407800c29702000000000050ad230012
:10674400104078000004e0000b003a00c0bb2300b6
:1067540010407800310020003505070041ad2300ca
:106764000040eb0080487800d1bb23000040eb00e0
:10677400804878002f023700c0bb23001040780007
:106784008080fb00c0ff23006140780080407800d7
:10679400c0bb2300104078003299020000000000c2
:1067a400d1bb23000040eb0080487800c0bb23002d
:1067b400104078000084fb00c0bb23001040780028
:1067c40031c0b3003ff807000001780041fe230008
:1067d400080044000100400002087800d1bb2300f7
:1067e40020c0b300804878001e017800d2d689000a
:1067f40080ae23009040780050c3b30080cf500097
:1068040004003a0051ad2300e0c1b3008048780091
:106814000300370051ad230090c1b30080487800d5
:10682400c0bb2300104078000081fb0061ad230051
:106834000040eb0000f178000a003700d0bb2300d1
:1068440010407800e24f500006003a00c0bb23001d
:10685400104078000081fb0061ad23000040eb0094
:1068640000f17800c0bb2300104078008080fb005a
:1068740060ad2300614078000004e00004003200b1
:10688400d0bb230010407800e24f500004003a00cf
:1068940050ad2300104078000004e000e7ff3a0008
:1068a400c0bb2300104078000081fb0061ad2300d1
:1068b4000040eb0000f17800c0bb230010407800da
:1068c400c29702000000000050ad23001040780081
:1068d4000004e0000b003a00c0bb23001040780025
:1068e40031002000d204070041ad23000040eb003a
:1068f40080487800d1bb23000040eb00804878003a
:10690400cc013700c0bb2300104078000080fb009e
:10691400c1fd230000004000010040009000780009
:10692400c0fe8100808f50000b003600c0bb2300e6
:106934001040780011002000bd04070041ad230081
:106944000040eb0080487800d1bb23000040eb00fe
:1069540080487800b7013700c0bb2300104078009e
:106964000080fb00c1fd2300000040000100400046
:1069740090007800d0fe8100808f50000b00310021
:10698400c0bb23001040780021002000a8040700a9
:1069940041ad23000040eb0080487800d1bb2300c8
:1069a4000040eb0080487800a2013700c0bb230000
:1069b400104078008080fb00c0ff2300e141780094
:1069c4006357980080ae23009040780050c3b30012
:1069d40080cf500004003a0051ad2300e0c1b30061
:1069e400804878000300370051ad230090c1b30004
:1069f40080487800c0bb2300104078008080fb00f2
:106a040060ad2300614078000004e00004003a0017
:106a140050ad2300104078000004e000f5ff3a0078
:106a2400c0bb230010407800c297020000000000a1
:106a3400c0bb2300104078000081fb0061ad23003f
:106a44000040eb0000f1780050ad230010407800c6
:106a54000004e0000b003a00c0bb230010407800a3
:106a6400310020007204070041ad23000040eb0018
:106a740080487800d1bb23000040eb0080487800b8
:106a84006c013700c0bb2300104078000080fb007d
:106a9400c1fd230000004000010040009000780088
:106aa400c0fe8100808f50000b003600c0bb230065
:106ab40010407800110020005d04070041ad230060
:106ac4000040eb0080487800d1bb23000040eb007d
:106ad4008048780057013700c0bb2300104078007d
:106ae4000080fb00c1fd23000000400001004000c5
:106af40090007800d0fe8100808f50000b003100a0
:106b0400c0bb230010407800210020004804070087
:106b140041ad23000040eb0080487800d1bb230046
:106b24000040eb008048780042013700c0bb2300de
:106b3400104078000081fb00c0bb230010407800a7
:106b44008080fb00c0ff2300e14178005357980088
:106b540000012400de50900001717800de509000a6
:106b6400c0bb2300104078003299020000000000ee
:106b7400ee5090005e50900080cf50000b00320029
:106b8400c0bb230010407800310020002804070017
:106b940041ad23000040eb0080487800d1bb2300c6
:106ba4000040eb0080487800220137006e509000ce
:106bb400e14f500028003a00d20020009e0f11003f
:106bc4001a003e00110020001e0078008008dd003d
:106bd400410f9800406d2300ce09900000806100b1
:106be4000000e00064003a0000802000ce0890001d
:106bf400008060000000e00001003a000b00370054
:106c0400c0bb230010407800610020000804070086
:106c140041ad23000040eb0080487800d1bb230045
:106c24000040eb008048780002013700c0bb23001d
:106c34001040780061002000fd03070041ad2300ef
:106c44000040eb0080487800d1bb23000040eb00fb
:106c540080487800f70037001e017800520f980032
:106c6400de099000e98f51002a0032005e0890008e
:106c7400e90f500011003e00de089000e48f500040
:106c84001e0032005e099000e40f510004003e0033
:106c9400de099000e28f5100150032002b0037000e
:106ca4005e089000e60f500017003200de089000e6
:106cb400e78f50001a003200240037005e0990006c
:106cc400eb0f51002c003200de099000eb8f5100d5
:106cd400130039005e089000ec0f500010003200e1
:106ce400de089000ed8f50002300320017003700bb
:106cf40010002000000f78001f0037003000200033
:106d0400000f78001c00370050002000000f7800ae
:106d14001900370080002000000f780016003700ab
:106d2400c0bb23001040780061002000c0030700ae
:106d340041ad23000040eb0080487800d1bb230024
:106d44000040eb0080487800ba003700c0bb230045
:106d54001040780061002000b503070041ad230016
:106d64000040eb0080487800d1bb23000040eb00da
:106d740080487800af003700c0bb23001040780083
:106d84000084fb00c0bb23001040780011c4b30092
:106d94006df607000001780001002400080044009b
:106da4000100400002087800c0bb230010407800b6
:106db4000084fb00c0bb23001040780021c4b30052
:106dc40061f60700000178008100240008004400f7
:106dd4000100400002087800c0bb23001040780086
:106de4008040eb001e9a0200000000000100080031
:106df400040000000e2709000060fe00e6260900da
:106e04000060fe00000000004a0009000060fe006f
:106e1400c0bb23001040780021c0b300abf90700c9
:106e240040079800c0bb23001040780011c0b30095
:106e34001e9a020000000000010008000400000087
:106e44000e2709000060fe00e62609000060fe002f
:106e5400000000004a0009000060fe00c0bb2300df
:106e64001040780021c0b30098f90700300798005b
:106e7400c0bb2300104078008040eb001e9a020043
:106e840000000000520020009e0f11000f0032008d
:106e9400630020009e8f11000c003200700020005f
:106ea4009e0f100009003200b10020009e8f1000d8
:106eb40006003200c20020009e0f110003003200c1
:106ec400f30020009e8f11000b003a00a0a52300c0
:106ed400104078000080fb00610060000004e000c6
:106ee40005003200c0bb23001040780011c0b3007d
:106ef4001e9a0200000000000040eb00405798007a
:106f04001b003700c0bb2300104078000081fb0049
:106f14004e5090008080fb004210dd0001004000d4
:106f240080004000a0a1230000804000ce0090001b
:106f340001087800c0bb2300104078000081fb00ea
:106f44004e5090008080fb004210dd0001004000a4
:106f540080004000a0a32300008040003e01900078
:106f6400020878004e5090000040e8004057980016
:106f74004e509000e34f5000e2ff36000040eb001b
:106f8400405798001b003700c0bb23001040780016
:106f94000081fb004e5090008080fb004410dd0017
:106fa4000100400080004000a086230000804000d3
:106fb400ce01900003087800c0bb23001040780085
:106fc4000081fb004e5090008080fb004410dd00e7
:106fd4000100400080004000a08e2300008040009b
:106fe400be009000010878004e5090000040e80078
:106ff400405798004e509000ef4f5000e2ff36008b
:10700400c0bb2300104078009e0078000c000700ed
:107014000004e00004003200c0bb230010407800ec
:10702400610020000203070041ad23000040eb0093
:10703400804878004f0478000080fa0000000600c1
:107044000c00fa00881f7800204798002107980058
:107054002e0090006101b8000080eb008080eb00fe
:1070640002014000838148004207980053079800ba
:10707400e0002000010020004e019000de0190009d
:10708400800f5100818f59004d013e004e00900049
:10709400de009000006001000e003700220037007f
:1070a400360037004a0037005e00370072003700b0
:1070b400860037009a003700ae003700c200370060
:1070c400d6003700ea003700fe003700120137000f
:1070d400260137002e4090000081fb00210385002b
:1070e400100385008081500041ab23000200410061
:1070f40001004000030878002e4090000080fb004f
:107104001203850041ac2300000040000100400050
:10711400020878002e40900011c0b300bc98020011
:1071240000000000290137002e4090000081fb0080
:1071340041038500300385008081500041ab23006a
:107144000200410001004000030878002e40900036
:107154000080fb003203850041ac230000004000a6
:1071640001004000020878002e4090008040eb00af
:10717400bc98020000000000140137002e4090006b
:107184000081fb006103850050038500808150006d
:1071940041ab2300020041000100400003087800d5
:1071a4002e4090000080fb005203850041ac230078
:1071b4000000400001004000020878002e409000ca
:1071c40011c0b300bc98020000000000ff003700ab
:1071d4002e4090000081fb00810385007003850030
:1071e4008081500041ab23000200410001004000b7
:1071f400030878002e4090000080fb007203850095
:1072040041ac230000004000010040000208780067
:107214002e4090008040eb00bc980200000000006b
:10722400ea0037002e4090000081fb00a103850096
:10723400900385008081500041ab2300020041008f
:1072440001004000030878002e4090000080fb00fd
:107254009203850041ac230000004000010040007f
:10726400020878002e4090008040eb00bc98020099
:1072740000000000d50037002e4090000081fb0084
:10728400c1038500b00385008081500041ab230019
:107294000200410001004000030878002e409000e5
:1072a4000080fb00b203850041ac230000004000d5
:1072b40001004000020878002e4090008040eb005e
:1072c400bc98020000000000c00037002e4090006f
:1072d4000081fb00e1038500d0038500808150001c
:1072e40041ab230002004100010040000308780084
:1072f4002e4090000080fb00d203850041ac2300a7
:107304000000400001004000020878002e40900078
:107314008040eb00bc98020000000000ab00370086
:107324002e4090000081fb0001048500f0038500dd
:107334008081500041ab2300020041000100400065
:10734400030878002e4090000080fb00f2038500c3
:1073540041ac230000004000010040000208780016
:107364002e40900011c0b300bc9802000000000041
:10737400960037002e4090000081fb002104850018
:10738400100485008081500041ab230002004100bd
:1073940001004000030878002e4090000080fb00ac
:1073a4001204850041ac23000000400001004000ad
:1073b400020878002e4090008040eb00bc98020048
:1073c40000000000810037002e4090000081fb0087
:1073d40041048500300485008081500041ab2300c6
:1073e4000200410001004000030878002e40900094
:1073f4000080fb003204850041ac23000000400003
:1074040001004000020878002e4090008040eb000c
:10741400bc980200000000006c0037002e40900071
:107424000081fb00610485005004850080815000c8
:1074340041ab230002004100010040000308780032
:107444002e4090000080fb005204850041ac2300d4
:107454000000400001004000020878002e40900027
:107464008040eb00bc980200000000005700370089
:107474002e4090000081fb0081048500700485008b
:107484008081500041ab2300020041000100400014
:10749400030878002e4090000080fb0072048500f1
:1074a40041ac2300000040000100400002087800c5
:1074b4002e4090008040eb00bc98020000000000c9
:1074c400420037002e4090000081fb00a10485009b
:1074d400900485008081500041ab230002004100ec
:1074e40001004000030878002e4090000080fb005b
:1074f4009204850041ac23000000400001004000dc
:10750400020878002e4090008040eb00bc980200f6
:10751400000000002d0037002e4090000081fb0089
:10752400c1048500b00485008081500041ab230074
:107534000200410001004000030878002e40900042
:107544000080fb00b204850041ac23000000400031
:1075540001004000020878002e4090008040eb00bb
:10756400bc98020000000000180037002e40900074
:107574000081fb00e1048500d00485008081500077
:1075840041ab2300020041000100400003087800e1
:107594002e4090000080fb00d204850041ac230003
:1075a4000000400001004000020878002e409000d6
:1075b4008040eb00bc98020000000000030037008c
:1075c4008080eb0031079800d10037002e409000f6
:1075d4008081fb002e4090008080fb00c2a5230028
:1075e40001804000020140000000eb000009780027
:1075f400c2a5230001804000020040001001780071
:10760400c1a6230003804100010040000208780065
:107614002e4090000080fb00c18323000000400046
:10762400810040000000eb00800878002e409000ac
:107634000080fb00418323000000400081004000e3
:107644000000eb00800878002e4090000080fb00d2
:10765400c184230000004000010040002e0190007e
:1076640002087800ae0090002e40900038620200bc
:10767400000000002e4090000082fb002e4090008d
:107684008081fb002e4090000081fb0041bb230061
:107694000040eb0000f1780040bb2300e24078009a
:1076a40000bb23008171780000bb2300e340780015
:1076b400c0ba2300017278002e4090000081fb00c4
:1076c40081bb23000040eb0000f178002e409000c5
:1076d4000084fb002e4090000080fb0041ac23009e
:1076e4000000400001004000100178002e4090008e
:1076f4000080fb0041ab230000004000010040007b
:10770400900278002e4090000080fb00c1aa230064
:107714000000400001004000100278002e4090005c
:107724000080fb00c1a523000000400001004000d0
:107734001000780082017800050178008400780048
:10774400830607000001780041a6230008004400d6
:1077540001004000020878002e4090000084fb00e5
:107764002e4090000080fb0041ac2300000040004c
:1077740001004000900178002e4090000080fb0042
:1077840041ab2300000040000100400010017800dc
:107794002e4090000080fb00c1aa2300000040009e
:1077a4000100400090007800a03220006806070025
:1077b40000017800c1ab2300080044000100400030
:1077c400020878008000eb002e409000d3000700f0
:1077d4002e4090000080fb00a185230000004000a3
:1077e400810040000000eb00800878002e409000eb
:1077f4000080fb002186230000004000810040003f
:107804000000eb00800878000000eb00000f780017
:10781400110037002e4090000080fb009e0078008d
:107824004700dd000101400021bc23000040eb00c3
:1078340000f178002e4090000080fb009e0078004c
:107844004700dd000101400021dc23000040eb0083
:1078540000f178001e0fe800f00720009e0f1000d2
:10786400ecff36000000eb00000f78001500370035
:107874002e4090000080fb009e0078000000400035
:107884000100400080004000e001240080804000ae
:107894000000eb00800878002e4090000080fb0080
:1078a4009e0078000000400001004000800040007d
:1078b400e0022400808040000000eb008008780093
:1078c4001e0fe800130020009e8f1100e8ff360011
:1078d4002e4090000080fb00c200dd00e003240085
:1078e400008140006000b8000089be002e40900076
:1078f4000080fb00c200dd00e004240000814000a1
:107904006000b8000089be000000eb00300798005a
:107914003e0090004f0478000080fa00000006004a
:107924000200fa00004f78001e80fb00c18423008f
:107934000000400001004000900078001e407800e4
:10794400bffd07000080fa00000006000200fa00f4
:10795400004f78001e80fb00c1a5230000004000fa
:1079640001004000100078000080fa0000000600ca
:107974000400fa00004f78001e80fb0041832300be
:10798400000040000100400010007800e30f5000a8
:10799400070032001e80fb00c18423000000400069
:1079a4000100400010007800100798000200370022
:1079b4000000eb00100798001e0090000080fa0001
:1079c400000006000200fa00004f78001e80fb0051
:1079d400c183230000004000010040001000780033
:1079e4000080fa00000006000200fa00004f780050
:1079f4001e80fb0041842300000040000100400081
:107a0400100078000080fa00000006000000fa0070
:107a140090c181000080fa00000006000600fa0010
:107a2400881f7800004f7800110798001e0090000e
:107a34000000e000040035009e0090004019210081
:107a4400808f5000030036000000eb0020079800f0
:107a54002e00370032c0b3009e4f110003003600e1
:107a64000000eb0020079800280037009e81fb00ef
:107a74009e80fb00c2a5230001804000020040005c
:107a84001e01900002087800c2a523000180400076
:107a94000200400010017800c1a6230003804100c9
:107aa40001004000020878001e84fb001e80fb00d9
:107ab40041ac230000004000010040009001780028
:107ac4001e80fb0041ab2300000040000100400089
:107ad400100178001e80fb00c1aa230000004000b2
:107ae40001004000900078001e00900098050700f7
:107af4000001780041a62300080044000100400072
:107b04000208780010002000200798002e00900042
:107b14004f0478000080fa00000006000a00fa0012
:107b240040479800310798003e0090000000e000b4
:107b340004003500be009000803e2000808f50007d
:107b4400030034000000eb00400798002c003700cd
:107b54004e409000e34f5000030036008000eb00dd
:107b640041079800260037004e4090000080fb003b
:107b7400610124000000400001004000be009000ac
:107b8400010878003e00900001002000008fbe0034
:107b94009e007800f00320000009b8001e00780061
:107ba4006000b90003027800000242009e009000c9
:107bb400f00320000088b90000024200840178002c
:107bc400028fbe001e00be00823e20000300200083
:107bd4000817020000000000008fbe004e40900015
:107be4000080fb001e017800c1ac230000004000af
:107bf40001004000020878001000200040079800af
:107c04004e0090000080fa00000006000200fa0016
:107c1400004f78001e80fb0061012400000040003a
:107c240001004000100078000080fa000000060007
:107c34000800fa00004f7800110798001e80fb002e
:107c4400c1832300000040000100400010007800c0
:107c5400ea0f50002f0132001e80fb00c183230075
:107c6400000040000100400010007800e80f5000c0
:107c740001003a00270137001e80fb00c183230066
:107c8400000040000100400010007800e30f5000a5
:107c94000a003a001e80fb0001ba230000004000e5
:107ca4000100400010007800e10f400003003a009a
:107cb4001e009000e50f500016013a0020c0b300ea
:107cc4009e4f100001003a00000000001e009000ca
:107cd4006101b8002207980033079800a000200033
:107ce400010020002e019000be019000800f510081
:107cf400818f590007013e002e009000be009000c5
:107d0400006001000a003700220037003a00370003
:107d1400520037006a0037005000370081003700f6
:107d240099003700b1003700c9003700e10037007f
:107d34001e80fb00418323000000400081004000be
:107d440030002000800878001e80fb00c1832300df
:107d540000004000810040003000200080087800ce
:107d64001e80fb00c184230000004000810040000d
:107d74000000eb00800878001e80fb0001ba23009d
:107d84000000400081004000a0002000800878002e
:107d9400e00037001e80fb00418323000000400008
:107da4008100400030002000800878001e80fb0025
:107db400c183230000004000810040001000200027
:107dc400800878001e80fb00c1842300000040006e
:107dd400810040000000eb00800878001e80fb005a
:107de40001ba23000000400081004000800c200004
:107df40080087800c70037001e80fb004183230001
:107e0400000040008100400030002000800878001d
:107e14001e80fb00c183230000004000810040005d
:107e240020002000800878001e80fb00c18423000d
:107e340000004000810040000000eb008008780052
:107e44001e80fb0001ba23000000400081004000b6
:107e5400800c200080087800ae0037001e80fb00f4
:107e640041832300000040008100400030002000d6
:107e7400800878001e80fb00c183230000004000be
:107e84008100400030002000800878001e80fb0044
:107e9400c184230000004000810040000000eb008a
:107ea400800878001e80fb0001ba23000000400017
:107eb40081004000800c2000800878009500370085
:107ec4001e80fb004183230000004000810040002d
:107ed40030002000800878001e80fb00c18323004e
:107ee400000040008100400030002000800878003d
:107ef4001e80fb00c184230000004000810040007c
:107f04000000eb00800878001e80fb0001ba23000b
:107f140000004000810040000080eb0080087800f1
:107f24007c0037001e80fb004183230000004000da
:107f34008100400030002000800878001e80fb0093
:107f4400c183230000004000810040006000200045
:107f5400800878001e80fb00c184230000004000dc
:107f6400810040000000eb00800878001e80fb00c8
:107f740001ba23000000400081004000800c200072
:107f840080087800630037001e80fb0041832300d3
:107f9400000040008100400030002000800878008c
:107fa4001e80fb00c18323000000400081004000cc
:107fb40070002000800878001e80fb00c18423002c
:107fc40000004000810040000000eb0080087800c1
:107fd4001e80fb0001ba2300000040008100400025
:107fe400800c2000800878004a0037001e80fb00c7
:107ff4004183230000004000810040003000200045
:10800400800878001e80fb00c1832300000040002c
:108014008100400080002000800878001e80fb0062
:10802400c184230000004000810040000000eb00f8
:10803400800878001e80fb0001ba23000000400085
:10804400810040000080eb00800878003100370098
:108054001e80fb004183230000004000810040009b
:1080640030002000800878001e80fb00c1832300bc
:10807400000040008100400090002000800878004b
:108084001e80fb00c18423000000400081004000ea
:108094000000eb00800878001e80fb0001ba23007a
:1080a40000004000810040000080eb008008780060
:1080b400180037001e80fb004183230000004000ad
:1080c4008100400030002000800878001e80fb0002
:1080d400c18323000000400081004000a000200074
:1080e400800878001e80fb00c1842300000040004b
:1080f400810040000000eb00800878001e80fb0037
:1081040001ba230000004000810040000080eb0021
:10811400800878000080fa00000006000a00fa00d7
:10812400889fbe00e0b92300104078008040e8003a
:10813400e0b9230001487800e0b92300104078003a
:10814400ef4f500003003600e1b923000040eb007c
:1081540080487800e0b92300104078000084fb00d8
:1081640061c0b3000040eb00d8f4070000017800c0
:1081740088004400e0b72300008040000208780033
:108184000040eb00504798000000eb00000f78001f
:108194000a0037005e4090000080fb008000400031
:1081a400e0b7230000804000100078001e0f40005c
